{
  "_format": "hh-sol-artifact-1",
  "contractName": "Bonding",
  "sourceName": "src/contracts/Bonding.sol",
  "abi": [
    {
      "inputs": [],
      "stateMutability": "nonpayable",
      "type": "constructor"
    },
    {
      "inputs": [],
      "name": "InvalidInitialization",
      "type": "error"
    },
    {
      "inputs": [],
      "name": "NotInitializing",
      "type": "error"
    },
    {
      "inputs": [
        {
          "internalType": "address",
          "name": "owner",
          "type": "address"
        }
      ],
      "name": "OwnableInvalidOwner",
      "type": "error"
    },
    {
      "inputs": [
        {
          "internalType": "address",
          "name": "account",
          "type": "address"
        }
      ],
      "name": "OwnableUnauthorizedAccount",
      "type": "error"
    },
    {
      "inputs": [],
      "name": "ReentrancyGuardReentrantCall",
      "type": "error"
    },
    {
      "inputs": [
        {
          "internalType": "address",
          "name": "token",
          "type": "address"
        }
      ],
      "name": "SafeERC20FailedOperation",
      "type": "error"
    },
    {
      "anonymous": false,
      "inputs": [
        {
          "indexed": true,
          "internalType": "address",
          "name": "token",
          "type": "address"
        },
        {
          "indexed": false,
          "internalType": "uint256",
          "name": "amount0",
          "type": "uint256"
        },
        {
          "indexed": false,
          "internalType": "uint256",
          "name": "amount1",
          "type": "uint256"
        }
      ],
      "name": "Deployed",
      "type": "event"
    },
    {
      "anonymous": false,
      "inputs": [
        {
          "indexed": true,
          "internalType": "address",
          "name": "token",
          "type": "address"
        },
        {
          "indexed": false,
          "internalType": "address",
          "name": "artistToken",
          "type": "address"
        }
      ],
      "name": "Graduated",
      "type": "event"
    },
    {
      "anonymous": false,
      "inputs": [
        {
          "indexed": false,
          "internalType": "uint64",
          "name": "version",
          "type": "uint64"
        }
      ],
      "name": "Initialized",
      "type": "event"
    },
    {
      "anonymous": false,
      "inputs": [
        {
          "indexed": true,
          "internalType": "address",
          "name": "token",
          "type": "address"
        },
        {
          "indexed": true,
          "internalType": "address",
          "name": "pair",
          "type": "address"
        },
        {
          "indexed": false,
          "internalType": "uint256",
          "name": "",
          "type": "uint256"
        }
      ],
      "name": "Launched",
      "type": "event"
    },
    {
      "anonymous": false,
      "inputs": [
        {
          "indexed": true,
          "internalType": "address",
          "name": "previousOwner",
          "type": "address"
        },
        {
          "indexed": true,
          "internalType": "address",
          "name": "newOwner",
          "type": "address"
        }
      ],
      "name": "OwnershipTransferred",
      "type": "event"
    },
    {
      "inputs": [],
      "name": "K",
      "outputs": [
        {
          "internalType": "uint256",
          "name": "",
          "type": "uint256"
        }
      ],
      "stateMutability": "view",
      "type": "function"
    },
    {
      "inputs": [],
      "name": "artistFactory",
      "outputs": [
        {
          "internalType": "address",
          "name": "",
          "type": "address"
        }
      ],
      "stateMutability": "view",
      "type": "function"
    },
    {
      "inputs": [],
      "name": "assetRate",
      "outputs": [
        {
          "internalType": "uint256",
          "name": "",
          "type": "uint256"
        }
      ],
      "stateMutability": "view",
      "type": "function"
    },
    {
      "inputs": [
        {
          "internalType": "uint256",
          "name": "amountIn",
          "type": "uint256"
        },
        {
          "internalType": "address",
          "name": "tokenAddress",
          "type": "address"
        }
      ],
      "name": "buy",
      "outputs": [
        {
          "internalType": "bool",
          "name": "",
          "type": "bool"
        }
      ],
      "stateMutability": "payable",
      "type": "function"
    },
    {
      "inputs": [],
      "name": "factory",
      "outputs": [
        {
          "internalType": "contract FFactory",
          "name": "",
          "type": "address"
        }
      ],
      "stateMutability": "view",
      "type": "function"
    },
    {
      "inputs": [],
      "name": "fee",
      "outputs": [
        {
          "internalType": "uint256",
          "name": "",
          "type": "uint256"
        }
      ],
      "stateMutability": "view",
      "type": "function"
    },
    {
      "inputs": [
        {
          "internalType": "address",
          "name": "account",
          "type": "address"
        }
      ],
      "name": "getUserTokens",
      "outputs": [
        {
          "internalType": "address[]",
          "name": "",
          "type": "address[]"
        }
      ],
      "stateMutability": "view",
      "type": "function"
    },
    {
      "inputs": [],
      "name": "gradThreshold",
      "outputs": [
        {
          "internalType": "uint256",
          "name": "",
          "type": "uint256"
        }
      ],
      "stateMutability": "view",
      "type": "function"
    },
    {
      "inputs": [],
      "name": "initialSupply",
      "outputs": [
        {
          "internalType": "uint256",
          "name": "",
          "type": "uint256"
        }
      ],
      "stateMutability": "view",
      "type": "function"
    },
    {
      "inputs": [
        {
          "internalType": "address",
          "name": "factory_",
          "type": "address"
        },
        {
          "internalType": "address",
          "name": "router_",
          "type": "address"
        },
        {
          "internalType": "address",
          "name": "feeTo_",
          "type": "address"
        },
        {
          "internalType": "uint256",
          "name": "fee_",
          "type": "uint256"
        },
        {
          "internalType": "uint256",
          "name": "initialSupply_",
          "type": "uint256"
        },
        {
          "internalType": "uint256",
          "name": "assetRate_",
          "type": "uint256"
        },
        {
          "internalType": "uint256",
          "name": "maxTx_",
          "type": "uint256"
        },
        {
          "internalType": "address",
          "name": "artistFactory_",
          "type": "address"
        },
        {
          "internalType": "uint256",
          "name": "gradThreshold_",
          "type": "uint256"
        }
      ],
      "name": "initialize",
      "outputs": [],
      "stateMutability": "nonpayable",
      "type": "function"
    },
    {
      "inputs": [
        {
          "internalType": "string",
          "name": "_name",
          "type": "string"
        },
        {
          "internalType": "string",
          "name": "_ticker",
          "type": "string"
        },
        {
          "internalType": "uint8[]",
          "name": "cores",
          "type": "uint8[]"
        },
        {
          "internalType": "string",
          "name": "desc",
          "type": "string"
        },
        {
          "internalType": "string",
          "name": "img",
          "type": "string"
        },
        {
          "internalType": "string[4]",
          "name": "urls",
          "type": "string[4]"
        },
        {
          "internalType": "uint256",
          "name": "purchaseAmount",
          "type": "uint256"
        }
      ],
      "name": "launch",
      "outputs": [
        {
          "internalType": "address",
          "name": "",
          "type": "address"
        },
        {
          "internalType": "address",
          "name": "",
          "type": "address"
        },
        {
          "internalType": "uint256",
          "name": "",
          "type": "uint256"
        }
      ],
      "stateMutability": "nonpayable",
      "type": "function"
    },
    {
      "inputs": [],
      "name": "maxTx",
      "outputs": [
        {
          "internalType": "uint256",
          "name": "",
          "type": "uint256"
        }
      ],
      "stateMutability": "view",
      "type": "function"
    },
    {
      "inputs": [],
      "name": "owner",
      "outputs": [
        {
          "internalType": "address",
          "name": "",
          "type": "address"
        }
      ],
      "stateMutability": "view",
      "type": "function"
    },
    {
      "inputs": [
        {
          "internalType": "address",
          "name": "",
          "type": "address"
        }
      ],
      "name": "profile",
      "outputs": [
        {
          "internalType": "address",
          "name": "user",
          "type": "address"
        }
      ],
      "stateMutability": "view",
      "type": "function"
    },
    {
      "inputs": [
        {
          "internalType": "uint256",
          "name": "",
          "type": "uint256"
        }
      ],
      "name": "profiles",
      "outputs": [
        {
          "internalType": "address",
          "name": "",
          "type": "address"
        }
      ],
      "stateMutability": "view",
      "type": "function"
    },
    {
      "inputs": [],
      "name": "renounceOwnership",
      "outputs": [],
      "stateMutability": "nonpayable",
      "type": "function"
    },
    {
      "inputs": [],
      "name": "router",
      "outputs": [
        {
          "internalType": "contract FRouter",
          "name": "",
          "type": "address"
        }
      ],
      "stateMutability": "view",
      "type": "function"
    },
    {
      "inputs": [
        {
          "internalType": "uint256",
          "name": "amountIn",
          "type": "uint256"
        },
        {
          "internalType": "address",
          "name": "tokenAddress",
          "type": "address"
        }
      ],
      "name": "sell",
      "outputs": [
        {
          "internalType": "bool",
          "name": "",
          "type": "bool"
        }
      ],
      "stateMutability": "nonpayable",
      "type": "function"
    },
    {
      "inputs": [
        {
          "internalType": "uint256",
          "name": "newRate",
          "type": "uint256"
        }
      ],
      "name": "setAssetRate",
      "outputs": [],
      "stateMutability": "nonpayable",
      "type": "function"
    },
    {
      "inputs": [
        {
          "components": [
            {
              "internalType": "bytes32",
              "name": "tbaSalt",
              "type": "bytes32"
            },
            {
              "internalType": "address",
              "name": "tbaImplementation",
              "type": "address"
            },
            {
              "internalType": "uint32",
              "name": "daoVotingPeriod",
              "type": "uint32"
            },
            {
              "internalType": "uint256",
              "name": "daoThreshold",
              "type": "uint256"
            }
          ],
          "internalType": "struct Bonding.DeployParams",
          "name": "params",
          "type": "tuple"
        }
      ],
      "name": "setDeployParams",
      "outputs": [],
      "stateMutability": "nonpayable",
      "type": "function"
    },
    {
      "inputs": [
        {
          "internalType": "uint256",
          "name": "newFee",
          "type": "uint256"
        },
        {
          "internalType": "address",
          "name": "newFeeTo",
          "type": "address"
        }
      ],
      "name": "setFee",
      "outputs": [],
      "stateMutability": "nonpayable",
      "type": "function"
    },
    {
      "inputs": [
        {
          "internalType": "uint256",
          "name": "newThreshold",
          "type": "uint256"
        }
      ],
      "name": "setGradThreshold",
      "outputs": [],
      "stateMutability": "nonpayable",
      "type": "function"
    },
    {
      "inputs": [
        {
          "internalType": "uint256",
          "name": "newSupply",
          "type": "uint256"
        }
      ],
      "name": "setInitialSupply",
      "outputs": [],
      "stateMutability": "nonpayable",
      "type": "function"
    },
    {
      "inputs": [
        {
          "internalType": "uint256",
          "name": "maxTx_",
          "type": "uint256"
        }
      ],
      "name": "setMaxTx",
      "outputs": [],
      "stateMutability": "nonpayable",
      "type": "function"
    },
    {
      "inputs": [
        {
          "internalType": "address",
          "name": "",
          "type": "address"
        }
      ],
      "name": "tokenInfo",
      "outputs": [
        {
          "internalType": "address",
          "name": "creator",
          "type": "address"
        },
        {
          "internalType": "address",
          "name": "token",
          "type": "address"
        },
        {
          "internalType": "address",
          "name": "pair",
          "type": "address"
        },
        {
          "internalType": "address",
          "name": "artistToken",
          "type": "address"
        },
        {
          "components": [
            {
              "internalType": "address",
              "name": "token",
              "type": "address"
            },
            {
              "internalType": "string",
              "name": "name",
              "type": "string"
            },
            {
              "internalType": "string",
              "name": "_name",
              "type": "string"
            },
            {
              "internalType": "string",
              "name": "ticker",
              "type": "string"
            },
            {
              "internalType": "uint256",
              "name": "supply",
              "type": "uint256"
            },
            {
              "internalType": "uint256",
              "name": "price",
              "type": "uint256"
            },
            {
              "internalType": "uint256",
              "name": "marketCap",
              "type": "uint256"
            },
            {
              "internalType": "uint256",
              "name": "liquidity",
              "type": "uint256"
            },
            {
              "internalType": "uint256",
              "name": "volume",
              "type": "uint256"
            },
            {
              "internalType": "uint256",
              "name": "volume24H",
              "type": "uint256"
            },
            {
              "internalType": "uint256",
              "name": "prevPrice",
              "type": "uint256"
            },
            {
              "internalType": "uint256",
              "name": "lastUpdated",
              "type": "uint256"
            }
          ],
          "internalType": "struct Bonding.Data",
          "name": "data",
          "type": "tuple"
        },
        {
          "internalType": "string",
          "name": "description",
          "type": "string"
        },
        {
          "internalType": "string",
          "name": "image",
          "type": "string"
        },
        {
          "internalType": "string",
          "name": "twitter",
          "type": "string"
        },
        {
          "internalType": "string",
          "name": "telegram",
          "type": "string"
        },
        {
          "internalType": "string",
          "name": "youtube",
          "type": "string"
        },
        {
          "internalType": "string",
          "name": "website",
          "type": "string"
        },
        {
          "internalType": "bool",
          "name": "trading",
          "type": "bool"
        },
        {
          "internalType": "bool",
          "name": "tradingOnUniswap",
          "type": "bool"
        }
      ],
      "stateMutability": "view",
      "type": "function"
    },
    {
      "inputs": [
        {
          "internalType": "uint256",
          "name": "",
          "type": "uint256"
        }
      ],
      "name": "tokenInfos",
      "outputs": [
        {
          "internalType": "address",
          "name": "",
          "type": "address"
        }
      ],
      "stateMutability": "view",
      "type": "function"
    },
    {
      "inputs": [
        {
          "internalType": "address",
          "name": "newOwner",
          "type": "address"
        }
      ],
      "name": "transferOwnership",
      "outputs": [],
      "stateMutability": "nonpayable",
      "type": "function"
    },
    {
      "inputs": [
        {
          "internalType": "address",
          "name": "srcTokenAddress",
          "type": "address"
        },
        {
          "internalType": "address[]",
          "name": "accounts",
          "type": "address[]"
        }
      ],
      "name": "unwrapToken",
      "outputs": [],
      "stateMutability": "nonpayable",
      "type": "function"
    }
  ],
  "bytecode": "0x60808060405234620000bd577ff0c57e16840df040f15088dc2f81fe391c3923bec73e23a9662efc9c229c6a009081549060ff8260401c16620000ae57506001600160401b036002600160401b03198282160162000068575b604051615cef9081620000c38239f35b6001600160401b031990911681179091556040519081527fc7f505b2f371ae2175ee4913f4499e1f2633a7b5936321eed1cdaeb6115181d290602090a138808062000058565b63f92ee8a960e01b8152600490fd5b600080fdfe608060405260043610156200001357600080fd5b6000803560e01c806309c8962c1462004460578063378dc3dc14620044405780633c0b93aa1462002b8c5780634189a68e146200286557806343fb4d2414620027c7578063519dc8d2146200268157806361402596146200265a5780636edd12e0146200263a578063715018a614620025cb5780637437681e14620025ab5780637c13774b146200254c5780637deb602514620013f65780637f13a90b146200091b5780638da5cb5b14620008e25780639dd9d0fd14620008a2578063a932492f146200087f578063b4f2e8b81462000833578063bc337182146200080c578063c36fe3d614620007a9578063c45a0155146200077e578063cc4896881462000720578063cca8ebd314620006f5578063ddca3f4314620006d5578063e8e6ed6914620006b5578063ea6eef491462000487578063f2fde38b1462000452578063f5dab711146200019b5763f887ea40146200016e57600080fd5b3462000198578060031936011262000198576002546040516001600160a01b039091168152602090f35b80fd5b50346200019857602036600319011262000198576001600160a01b03620001c1620045cf565b168152600e6020526040902080546001820154600283015460038401546001600160a01b0392831694938316939290811691166200020260048401620046c1565b928360405193848060108501906200021a9162004623565b0362000227908662004523565b604051806200023a816012870162004623565b0362000247908262004523565b60405195866200025b816013880162004623565b0362000268908862004523565b60405190816200027c816014890162004623565b0362000289908362004523565b60405193846200029d8160158a0162004623565b03620002aa908662004523565b6040519687620002be816016840162004623565b03620002cb908962004523565b60170154976040519c8d9c8d5260208d015260408c015260608b01526101a08060808c0152600160a01b60019003865116908b015260208501519761018098896101c08d01526103208c016200032191620047ac565b604087015161019f198d830381016101e08f0152916200034191620047ac565b8c606089015192818303019061020001526200035d91620047ac565b9360808701516102208d015260a08701516102408d015260c08701516102608d015260e08701516102808d0152610100928c84890151906102a00152610120958d878a0151906102c001528d610140809a0151906102e001528d610160809e01519061030001528d8082039060a00152620003d891620047ac565b8c810360c08e0152620003eb91620047ac565b8b810360e08d0152620003fe91620047ac565b908a8203908b01526200041191620047ac565b90888203908901526200042491620047ac565b90868203908701526200043791620047ac565b9260ff821615159085015260081c60ff161515908301520390f35b50346200019857602036600319011262000198576200048462000474620045cf565b6200047e620047d3565b6200480e565b80f35b503462000198576101203660031901126200019857620004a6620045cf565b620004b0620045b8565b6001600160a01b0391604435838116929190839003620006b0576064359060e43591858316809303620006b0577ff0c57e16840df040f15088dc2f81fe391c3923bec73e23a9662efc9c229c6a009485549660ff8860401c1615956001600160401b03891698891580620006a8575b6001809b1490816200069d575b15908162000693575b50620006815767ffffffffffffffff1981168a1789558762000661575b506200055d620048cf565b62000567620048cf565b62000572336200480e565b6200057c620048cf565b62000586620048cf565b8860008051602062005c9a83398151915255816001600160601b0360a01b9516858a54161789551683600254161760025582885416178755670de0b6b3a7640000908181029181830414901517156200064d576103e8900460045560843560035560a43560055560c4356007556008541617600855610104356006556200060b578280f35b805468ff0000000000000000191690556040519081527fc7f505b2f371ae2175ee4913f4499e1f2633a7b5936321eed1cdaeb6115181d290602090a138808280f35b634e487b7160e01b87526011600452602487fd5b68ffffffffffffffffff1916680100000000000000011788553862000552565b60405163f92ee8a960e01b8152600490fd5b9050153862000535565b303b1591506200052c565b50876200051f565b600080fd5b503462000198578060031936011262000198576020600554604051908152f35b503462000198578060031936011262000198576020600454604051908152f35b503462000198578060031936011262000198576008546040516001600160a01b039091168152602090f35b503462000198576020366003190112620001985760043562000741620047d3565b80156200074e5760055580f35b60405162461bcd60e51b81526020600482015260086024820152672930ba329032b93960c11b6044820152606490fd5b503462000198578060031936011262000198576001546040516001600160a01b039091168152602090f35b5034620001985760203660031901126200019857600435600d548110156200080857600d6000527fd7b6990105719101dabeb77144f2a3385c8033acd3af97e9423a695e81ad1eb501546040516001600160a01b039091168152602090f35b5080fd5b50346200019857602036600319011262000198576200082a620047d3565b60043560075580f35b503462000198576040366003190112620001985762000851620045b8565b6200085b620047d3565b60048035905581546001600160a01b0319166001600160a01b039190911617815580f35b5034620001985780600319360112620001985760206040516502ba7def30008152f35b50346200019857602036600319011262000198576020906001600160a01b039060409082620008d0620045cf565b168152600c8452205416604051908152f35b5034620001985780600319360112620001985760008051602062005c7a833981519152546040516001600160a01b039091168152602090f35b503462000198576040366003190112620001985762000939620045cf565b90602435916001600160401b038311620008085736602384011215620008085782600401356200096981620045a0565b9362000979604051958662004523565b8185526024602086019260051b82010190368211620013f257602401915b818310620013d0575050506001600160a01b0381168252600e6020526040808320905190620009c682620044d6565b80546001600160a01b039081168352600182015481166020840152600282015481166040840152600382015416606083015262000a0660048201620046c1565b608083015260405162000a2a8162000a22816010860162004623565b038262004523565b60a083015260405160118201805480835290865260208087209083019187915b81601f84011062001240579360ff9593819362000b8d9360179754918181106200122c575b81811062001215575b818110620011fe575b818110620011e7575b818110620011d1575b818110620011ba575b818110620011a3575b8181106200118c575b81811062001175575b8181106200115e575b81811062001147575b81811062001130575b81811062001119575b81811062001102575b818110620010eb575b818110620010d4575b818110620010bd575b818110620010a6575b8181106200108f575b81811062001078575b81811062001061575b8181106200104a575b81811062001033575b8181106200101c575b81811062001005575b81811062000fee575b81811062000fd7575b81811062000fc0575b81811062000fa9575b81811062000f92575b81811062000f7b575b1062000f6c575b50038262004523565b60c085015260405162000ba98162000a22816012860162004623565b60e085015260405162000bc58162000a22816013860162004623565b61010085015260405162000be28162000a22816014860162004623565b61012085015260405162000bff8162000a22816015860162004623565b61014085015260405162000c1c8162000a22816016860162004623565b6101608501520154818116151561018084015260081c161580156101a083015262000f275760600151600154600254604051631083f76160e01b81526001600160a01b0393841693909281169160209184916004918391165afa91821562000f1c579160209162000cc593879262000ef8575b5060405163e6a4390560e01b81526001600160a01b03808816600483015290921660248301529092839190829081906044820190565b03915afa90811562000eed57849162000eb7575b50835b855181101562000eb35760018060a01b0360208260051b8801015116604051906370a0823160e01b825280600483015260208260248160018060a01b038a165afa91821562000ea857879262000e6e575b508162000d5e575b5050600019811462000d4a5760010162000cdc565b634e487b7160e01b85526011600452602485fd5b6001600160a01b0386163b1562000e5f5760405163079cc67960e41b81526001600160a01b038216600482015260248101839052878180604481010381836001600160a01b038c165af1801562000e635790889162000e47575b50506040516323b872dd60e01b81526001600160a01b038581166004830152919091166024820152604481019190915260208160648189885af1801562000e3c5762000e06575b8062000d35565b62000e2c9060203d60201162000e34575b62000e23818362004523565b81019062004a0b565b503862000dff565b503d62000e17565b6040513d88823e3d90fd5b62000e52906200450f565b62000e5f57863862000db8565b8680fd5b6040513d8a823e3d90fd5b9091506020813d60201162000e9f575b8162000e8d6020938362004523565b81010312620006b05751903862000d2d565b3d915062000e7e565b6040513d89823e3d90fd5b8480f35b62000ede915060203d60201162000ee5575b62000ed5818362004523565b81019062004911565b3862000cd9565b503d62000ec9565b6040513d86823e3d90fd5b62000f14919250833d851162000ee55762000ed5818362004523565b903862000c8f565b6040513d87823e3d90fd5b60405162461bcd60e51b815260206004820152601a60248201527f546f6b656e206973206e6f7420677261647561746564207965740000000000006044820152606490fd5b60f81c81526020013862000b84565b9260206001918b8560f01c16815201930162000b7d565b9260206001918b8560e81c16815201930162000b74565b9260206001918b8560e01c16815201930162000b6b565b9260206001918b8560d81c16815201930162000b62565b9260206001918b8560d01c16815201930162000b59565b9260206001918b8560c81c16815201930162000b50565b9260206001918b8560c01c16815201930162000b47565b9260206001918b8560b81c16815201930162000b3e565b9260206001918b8560b01c16815201930162000b35565b9260206001918b8560a81c16815201930162000b2c565b9260206001918b8560a01c16815201930162000b23565b9260206001918b8560981c16815201930162000b1a565b9260206001918b8560901c16815201930162000b11565b9260206001918b8560881c16815201930162000b08565b9260206001918b8560801c16815201930162000aff565b9260206001918b8560781c16815201930162000af6565b9260206001918b8560701c16815201930162000aed565b9260206001918b8560681c16815201930162000ae4565b9260206001918b8560601c16815201930162000adb565b9260206001918b8560581c16815201930162000ad2565b9260206001918b8560501c16815201930162000ac9565b9260206001918b8560481c16815201930162000ac0565b9260206001918b8560401c16815201930162000ab7565b9260206001918b8560381c16815201930162000aae565b9260206001918b8560301c16815201930162000aa5565b9260206001918b8560281c16815201930162000a9c565b9260206001918b85831c16815201930162000a93565b9260206001918b8560181c16815201930162000a8a565b9260206001918b8560101c16815201930162000a81565b9260206001918b8560081c16815201930162000a78565b9260206001918b8516815201930162000a6f565b926001610400602092865460ff8116825260ff8160081c168583015260ff8160101c16604083015260ff8160181c16606083015260ff81861c16608083015260ff8160281c1660a083015260ff8160c0828260301c1681860152828260381c1660e0860152828260401c16610100860152828260481c16610120860152828260501c16610140860152828260581c16610160860152828260601c16610180860152828260681c166101a0860152828260701c166101c0860152828260781c166101e0860152828260801c16610200860152828260881c16610220860152828260901c16610240860152828260981c16610260860152828260a01c16610280860152828260a81c166102a0860152828260b01c166102c0860152828260b81c166102e08601521c1661030083015260ff8160c81c1661032083015260ff8160d01c1661034083015260ff8160d81c1661036083015260ff8160e01c1661038083015260ff8160e81c166103a083015260ff8160f01c166103c083015260f81c6103e082015201940192019162000a4a565b82356001600160a01b0381168103620006b05781526020928301920162000997565b8480fd5b50604036600319011262000198576200140e620045b8565b6001600160a01b0381168252600e6020526040822060170154620014359060ff1662004bb0565b600154600254604051631083f76160e01b81526001600160a01b039182169492909116602082600481885afa918215620023bb5791602091620014af93859262000ef8575060405163e6a4390560e01b81526001600160a01b03808816600483015290921660248301529092839190829081906044820190565b03915afa90811562001cdf57600491604091849162002528575b508151630240bc6b60e21b815292839182906001600160a01b03165afa90811562001cdf578290839262002501575b50604080516373a9c2c560e11b815260048035908201526001600160a01b0386166024820152336044820152958690606490829087905af1908115620023bb5783958492620024ba575b50620015546200155b92879262004932565b9262004bf1565b6001600160a01b0384168352600e60205260408320600f015490949062001583904262004932565b90858060011b0460021486151715620024a65760018060a01b0385168452600e6020526200163c620015c884620015c289600860408a20015462004884565b620048ae565b91600c62015180620015db8a88620048ae565b9511948515620024795782995b861562002459576001600160a01b038a168952600e6020526040892060090154955b6001600160a01b038b168a52600e60205260408a206009810193909355600a83015560011b600b820155015462004bf1565b9560018060a01b0386168552600e6020526040852096600c880155600d870155600e8601556200244d575b6006541015806200243e575b62001684575b602060405160018152f35b601783015460ff8116806200242f575b15620023ea5761ffff1916610100176017840155600154600254604051631083f76160e01b81526001600160a01b0391821692909116602082600481865afa91821562000eed579160209162001722938692620023c6575b5060405163e6a4390560e01b81526001600160a01b03808916600483015290921660248301529092839190829081906044820190565b03915afa908115620023bb57839162002397575b5060405163c66f245560e01b8152946020866004816001600160a01b0386165afa95861562000eed57849662002359575b506040516316d3df1560e31b8152926020846004816001600160a01b0387165afa93841562000f1c5785946200231f575b50803b15620013f2576040516001629272fb60e01b031981526001600160a01b03871660048201529085908290602490829084905af1801562000f1c5762002309575b50600254604051631083f76160e01b815290602090829060049082906001600160a01b03165afa90811562000f1c57620018309188918791620022e5575b506008546001600160a01b03908116911662004a72565b60018060a01b0360085416604051968560068401546200185081620045e6565b9060018116908115620022bf57506001146200227f575b5088916200189a600d620018d89b846c08189e48131a5b595b1a59da1d609a1b8c96520360121981018652018462004523565b60095490600a5490600b5460018060a01b0388541692620018ee6040519e8f98631fd16d3f60e11b8a5261012060048b01526101248a0190620047ac565b8881036003190160248a015260078b0162004623565b87810360031901604489015260118a0180548083529088526020808920920196918891905b81601f840110620020c957928a98959260209c9a9895928a98955491818110620020b6575b8181106200209f575b81811062002088575b81811062002071575b8181106200205c575b81811062002045575b8181106200202e575b81811062002017575b81811062002000575b81811062001fe9575b81811062001fd2575b81811062001fbb575b81811062001fa4575b81811062001f8d575b81811062001f76575b81811062001f5f575b81811062001f48575b81811062001f31575b81811062001f1a575b81811062001f03575b81811062001eec575b81811062001ed5575b81811062001ebe575b81811062001ea7575b81811062001e90575b81811062001e79575b81811062001e62575b81811062001e4b575b81811062001e34575b81811062001e1d575b81811062001e06575b1062001df2575b5060648701526001600160a01b038116608487015260a01c63ffffffff1660a486015260c485015260e484015261010483015203925af195861562000eed57849662001db8575b50600880549082015460405163313ce56760e01b8082526001600160a01b0393841699909390929190602090829060049082908d165afa90811562000e635762001af4929162001aed918a9162001d9b575b5062004c1a565b90620048ae565b604051928352916020816004816001600160a01b038c165afa90811562000ea857918762001b3b62001b3460849460209796849162001d67575062004c1a565b89620048ae565b9a6040519b8c9586946311e18acb60e11b865260048601526024850152604484015260018060a01b03881660648401525af195861562000eed57849662001d3e575b5060030180546001600160a01b0319166001600160a01b039687169081179091556002546040516370a0823160e01b81528388166004820152919616906020816024818a5afa90811562000f1c57859162001d06575b50813b15620013f25760405163559e23ad60e11b81526001600160a01b03841660048201526024810188905230604482015260648101919091529084908290608490829084905af1801562000eed5790849162001cee575b50506001600160a01b0384163b1562001cea5760405163079cc67960e41b81526001600160a01b0390911660048201526024810191909152818180604481010381836001600160a01b0388165af1801562001cdf5762001cc7575b50506040519182526001600160a01b0316907f381d54fa425631e6266af114239150fae1d5db67bb65b4fa9ecc65013107e07e90602090a238808062001679565b62001cd382916200450f565b62000198578062001c86565b6040513d84823e3d90fd5b8280fd5b62001cf9906200450f565b62001cea57823862001c2b565b90506020813d60201162001d35575b8162001d246020938362004523565b81010312620006b057513862001bd3565b3d915062001d15565b600391965062001d5f9060203d60201162000ee55762000ed5818362004523565b959062001b7d565b62001d8c9150883d8a1162001d93575b62001d83818362004523565b81019062004bff565b3862001ae6565b503d62001d77565b62001d8c915060203d60201162001d935762001d83818362004523565b9095506020813d60201162001de9575b8162001dd76020938362004523565b81010312620006b05751943862001a94565b3d915062001dc8565b60f81c8652948b019463ffffffff62001a4d565b978e60019160ff8560f01c16815201980162001a46565b978e60019160ff8560e81c16815201980162001a3d565b978e60019160ff8560e01c16815201980162001a34565b978e60019160ff8560d81c16815201980162001a2b565b978e60019160ff8560d01c16815201980162001a22565b978e60019160ff8560c81c16815201980162001a19565b978e60019160ff8560c01c16815201980162001a10565b978e60019160ff8560b81c16815201980162001a07565b978e60019160ff8560b01c168152019801620019fe565b978e60019160ff8560a81c168152019801620019f5565b978e60019160ff8560a01c168152019801620019ec565b978e60019160ff8560981c168152019801620019e3565b978e60019160ff8560901c168152019801620019da565b978e60019160ff8560881c168152019801620019d1565b978e60019160ff8560801c168152019801620019c8565b978e60019160ff8560781c168152019801620019bf565b978e60019160ff8560701c168152019801620019b6565b978e60019160ff8560681c168152019801620019ad565b978e60019160ff8560601c168152019801620019a4565b978e60019160ff8560581c1681520198016200199b565b978e60019160ff8560501c16815201980162001992565b978e60019160ff8560481c16815201980162001989565b978e60019160ff8560401c16815201980162001980565b978e60019160ff8560381c16815201980162001977565b978e60019160ff8560301c1681520198016200196e565b978e60019160ff8560281c16815201980162001965565b828f1c60ff168952978e01976001016200195c565b978e60019160ff8560181c16815201980162001953565b978e60019160ff8560101c1681520198016200194a565b978e60019160ff8560081c16815201980162001941565b60ff83168952978e019760010162001938565b9950919395975091939560016104006020928b5460ff8116825260ff8160081c168583015260ff8160101c16604083015260ff8160181c16606083015260ff81861c16608083015260ff8160281c1660a083015260ff8160301c1660c083015260ff8160381c1660e083015260ff8160401c1661010083015260ff8160481c1661012083015260ff8160501c1661014083015260ff8160581c1661016083015260ff8160601c1661018083015260ff8160681c166101a083015260ff8160701c166101c083015260ff8160781c166101e083015260ff8160801c1661020083015260ff8160881c1661022083015260ff8160901c1661024083015260ff8160981c1661026083015260ff8160a01c1661028083015260ff8160a81c166102a083015260ff8160b01c166102c083015260ff8160b81c166102e083015260ff8160c01c1661030083015260ff8160c81c1661032083015260ff8160d01c1661034083015260ff8160d81c1661036083015260ff8160e01c1661038083015260ff8160e81c166103a083015260ff8160f01c166103c083015260f81c6103e082015201990192018f98969492918e9896949262001913565b90506006840187526020872087905b828210620022a757505088016020016200189a62001867565b6001818c60208581955492010152019101906200228e565b60ff19166020808d01919091528215159092028b0190910191506200189a905062001867565b62002302915060203d60201162000ee55762000ed5818362004523565b3862001819565b62002317909491946200450f565b9238620017db565b9093506020813d60201162002350575b816200233e6020938362004523565b81010312620013f25751923862001798565b3d91506200232f565b9095506020813d6020116200238e575b81620023786020938362004523565b810103126200238a5751943862001767565b8380fd5b3d915062002369565b620023b4915060203d60201162000ee55762000ed5818362004523565b3862001736565b6040513d85823e3d90fd5b620023e2919250833d851162000ee55762000ed5818362004523565b9038620016ec565b60405162461bcd60e51b815260206004820152601760248201527f74726164696e6720697320616c7265616479206f70656e0000000000000000006044820152606490fd5b5060ff8160081c161562001694565b5060ff60178401541662001673565b42600f85015562001667565b6001600160a01b038a168952600e602081905260408a200154956200160a565b6001600160a01b0389168852600e60205260408820600d01546200249f90849062004bf1565b99620015e8565b634e487b7160e01b84526011600452602484fd5b620015549196506200155b9250620024ed9060403d604011620024f9575b620024e4818362004523565b81019062004981565b90969092509062001542565b503d620024d8565b905062002520915060403d604011620024f957620024e4818362004523565b9038620014f8565b62002545915060203d60201162000ee55762000ed5818362004523565b38620014c9565b5034620001985760203660031901126200019857600435600f548110156200080857600f9091527f8d1108e10bcb7c27dddfc02ed9d693a074039d026cf4ea4240b40f7d581ac80201546040516001600160a01b039091168152602090f35b503462000198578060031936011262000198576020600754604051908152f35b50346200019857806003193601126200019857620025e8620047d3565b60008051602062005c7a83398151915280546001600160a01b0319811690915581906001600160a01b03167f8be0079c531659141344cd1fd0a4f28419497f9722a3daafe3b4186f6b6457e08280a380f35b503462000198578060031936011262000198576020600654604051908152f35b503462000198576020366003190112620001985762002678620047d3565b60043560035580f35b50346200019857602090816003193601126200019857620026a1620045cf565b6001600160a01b038082166000818152600c60205260409020549293929091160362002782576001600160a01b039182168152600c835260408082209051909190620026ed81620044f3565b83835416815260018093019460405191828288549182815201908198865283862090865b8181106200276c5750505083916200272d838593038462004523565b0152604051948186019282875251809352604086019693905b838210620027545786880387f35b84518116885296820196938201939085019062002746565b82548a1684529285019291880191880162002711565b60405162461bcd60e51b815260048101849052601c60248201527f557365722050726f66696c6520646f7365206e6f742065786973742e000000006044820152606490fd5b5034620001985760803660031901126200019857604051620027e98162004487565b6004358152620027f8620045b8565b602082019081526044359063ffffffff821682036200238a5760408301918252606083019260643584526200282c620047d3565b5160095560018060a01b03905116600a549163ffffffff60a01b905160a01b16916001600160401b0360c01b161717600a5551600b5580f35b503462000198576040366003190112620001985762002883620045b8565b9060018060a01b039182811691828152600e90602094828652620028b160ff60176040852001541662004bb0565b600154600254604051631083f76160e01b81529083169183168882600481865afa91821562000f1c579189916200292093879262002b68575b5060405163e6a4390560e01b81526001600160a01b03808b16600483015290921660248301529092839190829081906044820190565b03915afa90811562000eed5790604091859162002b46575b506004825180958193630240bc6b60e21b8352165afa948515620023bb578392849662002b12575b5060408051636f08e17760e01b815260048035908201526001600160a01b03909216602483015233604483015290918290818681606481015b03925af1918215620023bb578391849362002ae0575b50620029c1620029c892849262004bf1565b9562004932565b858352838752620029e1600f6040852001544262004932565b908060011b908082046002148115171562000d4a578893600c60409487946201518062002a398662002a328f9d9c8f908f9a8f8f8f909360089262002a7b9f95620015c29683525220015462004884565b9d620048ae565b92119a8b1562002ac0578985995b8d1562002aad578c895281815260098a8a2001549c5b895252878720926009840155600a830155600b820155015462004bf1565b9681528388522094600c860155600d85015583015562002aa0575b5060405160018152f35b600f429101553862002a96565b8c8952818152818a8a2001549c62002a5d565b8a87528989528962002ad986600d8b8b20015462004bf1565b9962002a47565b620029c19350620029c8925062002b089060403d604011620024f957620024e4818362004523565b93909250620029af565b60409196508492935062002b396200299991833d8511620024f957620024e4818362004523565b9790949350915062002960565b62002b619150893d8b1162000ee55762000ed5818362004523565b3862002938565b62002b84919250833d851162000ee55762000ed5818362004523565b9038620028ea565b5034620001985760e036600319011262000198576004356001600160401b038111620008085762002bc290369060040162004545565b6024356001600160401b03811162001cea5762002be490369060040162004545565b906044356001600160401b0381116200238a57366023820112156200238a57806004013562002c1381620045a0565b9162002c23604051938462004523565b8183526024602084019260051b8201019036821162000e5f57602401915b81831062004424575050506064356001600160401b038111620013f25762002c6e90369060040162004545565b906084356001600160401b038111620044205762002c9190369060040162004545565b916001600160401b0360a43511620044205736602360a435011215620044205760405162002cbf8162004487565b8036608460a43501116200441c5760a435600401905b608460a435018210620043e4575050600260008051602062005c9a8339815191525414620043d257600260008051602062005c9a83398151915255600454928360c43511156200437c57600254604051631083f76160e01b81529590602090879060049082906001600160a01b03165afa958615620042b557899662004356575b506040516370a0823160e01b81523360048201526020816024816001600160a01b038b165afa9081156200434b578a916200430f575b5060c43511620042d45762002dc362002da88660c43562004932565b8a549096906001600160a01b039081169033908a1662004a25565b62002dda8530336001600160a01b038a1662004a25565b62002de58762004940565b600354600754604051928361104d8101106001600160401b0361104d86011117620042c0579062002e4862002e3185949361104d62004c2d8739608061104d87018181520190620047ac565b61104d85018103602061104d870101528d620047ac565b91604061104d85010152606061104d8401015203908af0978815620042b5576040516318160ddd60e01b8152976020896004816001600160a01b038e165afa908115620042aa578a998c9262004269575b506001546040516364e329cb60e11b81526001600160a01b039c8d1660048201528a8d1660248201529b168b6044818f5a94602095f19a8b156200425e578c9b62004238575b5060025462002efe9083906001600160a01b03908116908d1662004a72565b60055480156200422457666a94d74f4300000469021e19e0c9bab24000009081810291818304149015171562004210578262002f3a91620048ae565b90670de0b6b3a7640000928284810204841483151715620041fc578d60408d606460018060a01b03600254169183519485938492631746ffa760e31b845260018060a01b031660048401528760248401526127108b8b020460448401525af18015620041ef57620041cc575b5062002fb28262004940565b9462002fc56127108686020483620048ae565b9261271086860204600181901b81900460021490151715620041b7579185939185938f9c9b9a99989761271062003001918199020484620048ae565b9760206040519e8f906200301582620044b9565b60018060a01b03168152015260408d015260608c015260808b015260a08a0152828282020460c08a0152020460011b60e08701528a6101008701528a610120870152610140860152426101608601528251906020840151926060604086015195015195604051976200308789620044d6565b33895260018060a01b038c1660208a015260018060a01b038d1660408a01528d60608a0152608089015260a088015260c087015260e08601526101008501526101208401526101408301526101608201526001610180820152856101a082015260018060a01b0384168652600e6020526040862060018060a01b038251166001600160601b0360a01b8254161781556001810160018060a01b036020840151166001600160601b0360a01b8254161790556002810160018060a01b036040840151166001600160601b0360a01b8254161790556003810160018060a01b036060840151166001600160601b0360a01b8254161790556004810160808301519060018060a01b038251166001600160601b0360a01b82541617905560208101518051906001600160401b03821162004035578190620031c96005860154620045e6565b601f811162004180575b50602090601f83116001146200410c578b9262004100575b50508160011b916000199060031b1c19161760058301555b60408101518051906001600160401b038211620040355781906200322b6006860154620045e6565b601f8111620040c9575b50602090601f831160011462004055578b9262004049575b50508160011b916000199060031b1c19161760068301555b60608101518051906001600160401b03821162004035576200328b6007850154620045e6565b601f811162003ffe575b50602090601f831160011462003f88576101609392918b918362003f7c575b50508160011b916000199060031b1c19161760078401555b6080810151600884015560a0810151600984015560c0810151600a84015560e0810151600b840155610100810151600c840155610120810151600d840155610140810151600e8401550151600f82015560a08201518051906001600160401b03821162003ae7578190620033446010850154620045e6565b601f811162003f45575b50602090601f831160011462003ed1578a9262003ec5575b50508160011b916000199060031b1c19161760108201555b60c08201518051906001600160401b03821162003ae757600160401b821162003ae757602090601184015483601186015580841062003e6b575b5001906011830189526020892090895b8160051c811062003e295750601f198116810362003dd7575b50505060e08201518051906001600160401b03821162003ae75781906200340c6012850154620045e6565b601f811162003da0575b50602090601f831160011462003d2c578a9262003d20575b50508160011b916000199060031b1c19161760128201555b6101008201518051906001600160401b03821162003ae75781906200346f6013850154620045e6565b601f811162003ce9575b50602090601f831160011462003c75578a9262003c69575b50508160011b916000199060031b1c19161760138201555b6101208201518051906001600160401b03821162003ae7578190620034d26014850154620045e6565b601f811162003c32575b50602090601f831160011462003bbe578a9262003bb2575b50508160011b916000199060031b1c19161760148201555b6101408201518051906001600160401b03821162003ae7578190620035356015850154620045e6565b601f811162003b7b575b50602090601f831160011462003b07578a9262003afb575b50508160011b916000199060031b1c19161760158201555b6101608201518051906001600160401b03821162003ae757620035966016840154620045e6565b601f811162003aa4575b50602090601f831160011462003a2f5760179392918a918362003a23575b50508160011b916000199060031b1c19161760168201555b019061018081015115159060ff61ff006101a08554930151151560081b1692169061ffff191617179055600f54600160401b811015620039be576001810180600f55811015620039aa57600f86527f8d1108e10bcb7c27dddfc02ed9d693a074039d026cf4ea4240b40f7d581ac8020180546001600160a01b0319166001600160a01b0385811691909117909155336000818152600c60205260409020548793921603620038915762003745604091338452600c602052620036a660018060a01b038716600185872001620049b1565b600f548351818152909562003704918391906001600160a01b038b811691908b16907f714aa39317ad9a7a7a99db52b44490da5d068a0b2710fffb1a1282ad3cadae1f90602090a36002546001600160a01b03908116911662004a72565b60025483516373a9c2c560e11b815260048101929092526001600160a01b038781166024840152306044840152919485939190921691839182906064820190565b03925af1801562000f1c576200386e575b506040516370a0823160e01b81523060048201526020816024816001600160a01b0387165afa90811562000f1c57859162003835575b5060405163a9059cbb60e01b81523360048201526024810191909152602081604481886001600160a01b0388165af1801562000f1c57906200380d929162003811575b50600160008051602062005c9a83398151915255604080516001600160a01b0394851681529490931660208501529183019190915281906060820190565b0390f35b6200382d9060203d60201162000e345762000e23818362004523565b5084620037cf565b90506020813d60201162003865575b81620038536020938362004523565b81010312620013f2575160206200378c565b3d915062003844565b6200388a9060403d604011620024f957620024e4818362004523565b5062003756565b9050604051620038a181620044f3565b3381526020810160608152338752600c602052604087209160018060a01b039051166001600160601b0360a01b83541617825551908151916001600160401b03831162003a0f57600160401b831162003a0f576020600191828401548584860155808610620039f0575b50019101875260208720875b838110620039d25750505050600d54600160401b811015620039be576001810180600d55811015620039aa577fd7b6990105719101dabeb77144f2a3385c8033acd3af97e9423a695e81ad1eb50180546001600160a01b031916339081179091558552600c602052604080862086926200374591620039a4906001600160a01b03881690600101620049b1565b620036a6565b634e487b7160e01b86526032600452602486fd5b634e487b7160e01b86526041600452602486fd5b82516001600160a01b03168183015560209092019160010162003917565b8484018b52828b2062003a0891810190870162004998565b386200390b565b634e487b7160e01b88526041600452602488fd5b015190503880620035be565b90601684018a5260208a20918a5b601f198516811062003a8b575091839160019360179695601f1981161062003a71575b505050811b016016820155620035d6565b015160001960f88460031b161c1916905538808062003a60565b9192602060018192868501518155019401920162003a3d565b62003ad590601685018b5260208b20601f850160051c8101916020861062003adc575b601f0160051c019062004998565b38620035a0565b909150819062003ac7565b634e487b7160e01b89526041600452602489fd5b01519050388062003557565b9250601584018a5260208a20908a935b601f198416851062003b5f576001945083601f1981161062003b45575b505050811b0160158201556200356f565b015160001960f88460031b161c1916905538808062003b34565b8181015183556020948501946001909301929091019062003b17565b62003bab90601586018c5260208c20601f850160051c8101916020861062003adc57601f0160051c019062004998565b386200353f565b015190503880620034f4565b9250601484018a5260208a20908a935b601f198416851062003c16576001945083601f1981161062003bfc575b505050811b0160148201556200350c565b015160001960f88460031b161c1916905538808062003beb565b8181015183556020948501946001909301929091019062003bce565b62003c6290601486018c5260208c20601f850160051c8101916020861062003adc57601f0160051c019062004998565b38620034dc565b01519050388062003491565b9250601384018a5260208a20908a935b601f198416851062003ccd576001945083601f1981161062003cb3575b505050811b016013820155620034a9565b015160001960f88460031b161c1916905538808062003ca2565b8181015183556020948501946001909301929091019062003c85565b62003d1990601386018c5260208c20601f850160051c8101916020861062003adc57601f0160051c019062004998565b3862003479565b0151905038806200342e565b9250601284018a5260208a20908a935b601f198416851062003d84576001945083601f1981161062003d6a575b505050811b01601282015562003446565b015160001960f88460031b161c1916905538808062003d59565b8181015183556020948501946001909301929091019062003d3c565b62003dd090601286018c5260208c20601f850160051c8101916020861062003adc57601f0160051c019062004998565b3862003416565b89928a5b601f1983168303811062003df957505060051c0155388080620033e1565b9093602062003e1f6001928460ff895116919060ff809160031b9316831b921b19161790565b9501910162003ddb565b8a8b5b6020811062003e43575083820155600101620033c8565b855190959160019160209160ff60038a901b81811b199092169216901b179201950162003e2c565b62003e9c90601186018c52601f848d20918187168062003ea3575b500160051c810190601f860160051c0162004998565b38620033b8565b6000199081848a0160051c86010191825491890360031b1c1690553862003e86565b01519050388062003366565b9250601084018a5260208a20908a935b601f198416851062003f29576001945083601f1981161062003f0f575b505050811b0160108201556200337e565b015160001960f88460031b161c1916905538808062003efe565b8181015183556020948501946001909301929091019062003ee1565b62003f7590601086018c5260208c20601f850160051c8101916020861062003adc57601f0160051c019062004998565b386200334e565b015190503880620032b4565b90600785018b5260208b20918b5b601f198516811062003fe557509183916001936101609695601f1981161062003fcb575b505050811b016007840155620032cc565b015160001960f88460031b161c1916905538808062003fba565b9192602060018192868501518155019401920162003f96565b6200402e90600786018c5260208c20601f850160051c8101916020861062003adc57601f0160051c019062004998565b3862003295565b634e487b7160e01b8a52604160045260248afd5b0151905038806200324d565b9250600685018b5260208b20908b935b601f1984168510620040ad576001945083601f1981161062004093575b505050811b01600683015562003265565b015160001960f88460031b161c1916905538808062004082565b8181015183556020948501946001909301929091019062004065565b620040f990600687018d5260208d20601f850160051c8101916020861062003adc57601f0160051c019062004998565b3862003235565b015190503880620031eb565b9250600585018b5260208b20908b935b601f198416851062004164576001945083601f198116106200414a575b505050811b01600583015562003203565b015160001960f88460031b161c1916905538808062004139565b818101518355602094850194600190930192909101906200411c565b620041b090600587018d5260208d20601f850160051c8101916020861062003adc57601f0160051c019062004998565b38620031d3565b50634e487b7160e01b8f52601160045260248ffd5b620041e89060403d604011620024f957620024e4818362004523565b5062002fa6565b8f604051903d90823e3d90fd5b634e487b7160e01b8e52601160045260248efd5b634e487b7160e01b8d52601160045260248dfd5b634e487b7160e01b8d52601260045260248dfd5b62004256919b5060203d60201162000ee55762000ed5818362004523565b993862002edf565b6040513d8e823e3d90fd5b995090506020893d602011620042a1575b81620042896020938362004523565b810103126200429d57899851903862002e99565b8a80fd5b3d91506200427a565b6040513d8d823e3d90fd5b6040513d8b823e3d90fd5b634e487b7160e01b8d52604160045260248dfd5b60405162461bcd60e51b8152602060048201526013602482015272125b9cdd59999a58da595b9d08185b5bdd5b9d606a1b6044820152606490fd5b90506020813d60201162004342575b816200432d6020938362004523565b810103126200433e57513862002d8c565b8980fd5b3d91506200431e565b6040513d8c823e3d90fd5b6200437491965060203d60201162000ee55762000ed5818362004523565b943862002d56565b60405162461bcd60e51b815260206004820152602860248201527f507572636861736520616d6f756e74206d7573742062652067726561746572206044820152677468616e2066656560c01b6064820152608490fd5b604051633ee5aeb560e01b8152600490fd5b6001600160401b038235116200441857602080916200440c366004863560a435010162004545565b81520191019062002cd5565b8880fd5b8780fd5b8580fd5b823560ff811681036200441c5781526020928301920162002c41565b503462000198578060031936011262000198576020600354604051908152f35b50346200019857602036600319011262000198576200447e620047d3565b60043560065580f35b608081019081106001600160401b03821117620044a357604052565b634e487b7160e01b600052604160045260246000fd5b61018081019081106001600160401b03821117620044a357604052565b6101c081019081106001600160401b03821117620044a357604052565b604081019081106001600160401b03821117620044a357604052565b6001600160401b038111620044a357604052565b90601f801991011681019081106001600160401b03821117620044a357604052565b81601f82011215620006b0578035906001600160401b038211620044a357604051926200457d601f8401601f19166020018562004523565b82845260208383010111620006b057816000926020809301838601378301015290565b6001600160401b038111620044a35760051b60200190565b602435906001600160a01b0382168203620006b057565b600435906001600160a01b0382168203620006b057565b90600182811c9216801562004618575b60208310146200460257565b634e487b7160e01b600052602260045260246000fd5b91607f1691620045f6565b90600092918054916200463683620045e6565b9182825260019384811690816000146200469d57506001146200465a575b50505050565b90919394506000526020928360002092846000945b8386106200468857505050500101903880808062004654565b8054858701830152940193859082016200466f565b9294505050602093945060ff191683830152151560051b0101903880808062004654565b90604051620046d081620044b9565b610160600b829460018060a01b038154168452604051620046fa8162000a22816001860162004623565b6020850152604051620047168162000a22816002860162004623565b6040850152604051620047328162000a22816003860162004623565b606085015260048101546080850152600581015460a0850152600681015460c0850152600781015460e085015260088101546101008501526009810154610120850152600a8101546101408501520154910152565b60005b8381106200479b5750506000910152565b81810151838201526020016200478a565b90602091620047c78151809281855285808601910162004787565b601f01601f1916010190565b60008051602062005c7a833981519152546001600160a01b03163303620047f657565b60405163118cdaa760e01b8152336004820152602490fd5b6001600160a01b039081169081156200486b5760008051602062005c7a83398151915280546001600160a01b031981168417909155167f8be0079c531659141344cd1fd0a4f28419497f9722a3daafe3b4186f6b6457e0600080a3565b604051631e4fbdf760e01b815260006004820152602490fd5b818102929181159184041417156200489857565b634e487b7160e01b600052601160045260246000fd5b8115620048b9570490565b634e487b7160e01b600052601260045260246000fd5b60ff7ff0c57e16840df040f15088dc2f81fe391c3923bec73e23a9662efc9c229c6a005460401c1615620048ff57565b604051631afcd79f60e31b8152600490fd5b90816020910312620006b057516001600160a01b0381168103620006b05790565b919082039182116200489857565b906200497f60246040518094630333ab7160e51b60208301526200496e815180926020868601910162004787565b810103600481018552018362004523565b565b9190826040910312620006b0576020825192015190565b818110620049a4575050565b6000815560010162004998565b805490600160401b821015620044a35760018201808255821015620049f5576000526020600020019060018060a01b03166001600160601b0360a01b825416179055565b634e487b7160e01b600052603260045260246000fd5b90816020910312620006b057518015158103620006b05790565b6040516323b872dd60e01b60208201526001600160a01b0392831660248201529290911660448301526064808301939093529181526200497f9162004a6c60848362004523565b62004b44565b60405163095ea7b360e01b60208083018281526001600160a01b0386166024850152604480850197909752958352909491939160009062004ab560648762004523565b85519082865af16000513d8262004b1c575b50501562004ad55750505050565b62004b129362004a6c9160405191602083015260018060a01b03166024820152600060448201526044815262004b0b8162004487565b8262004b44565b3880808062004654565b90915062004b3b57506001600160a01b0382163b15155b388062004ac7565b60011462004b33565b906000602091828151910182855af11562004ba4576000513d62004b9a57506001600160a01b0381163b155b62004b785750565b604051635274afe760e01b81526001600160a01b039091166004820152602490fd5b6001141562004b70565b6040513d6000823e3d90fd5b1562004bb857565b60405162461bcd60e51b8152602060048201526011602482015270546f6b656e206e6f742074726164696e6760781b6044820152606490fd5b919082018092116200489857565b90816020910312620006b0575160ff81168103620006b05790565b60ff16604d81116200489857600a0a9056fe604060808152346200043c576200104d803803806200001e8162000441565b92833981016080828203126200043c5781516001600160401b0391908281116200043c5781620000509185016200047d565b60209182850151908482116200043c576200006d9186016200047d565b93606086820151910151943315620004245760008054336001600160a01b0319821681178355919691906001600160a01b03167f8be0079c531659141344cd1fd0a4f28419497f9722a3daafe3b4186f6b6457e08880a383518181116200033f57600254906001958683811c9316801562000419575b8884101462000320578190601f93848111620003c5575b5088908483116001146200035f578a9262000353575b5050600019600383901b1c191690861b176002555b82519182116200033f5760039283548681811c9116801562000334575b88821014620003205790818385949311620002cb575b5087918311600114620002685788926200025c575b505060001982841b1c191690841b1790555b670de0b6b3a764000090818102918183041490151715620002485780825533845260068352858420556008825284832060ff1990828282541617905530845281868520918254161790558360045554928381028181048514821517156200024857827fddf252ad1be2c89b69c2b068fc378daa952ba7f163c4a11628f55a4df523b3ef939260647fff3dd5e80294197918c284bbfc3dadd97d0b40ce92106110946329088f80068a93046005558751908152a184519384523393a351610b5d9081620004f08239f35b634e487b7160e01b84526011600452602484fd5b0151905038806200016d565b8489528789208794509190601f1984168a5b8a828210620002b457505084116200029b575b505050811b0190556200017f565b015160001983861b60f8161c191690553880806200028d565b8385015186558a979095019493840193016200027a565b909192508489528789208380860160051c8201928a871062000316575b9186958a929594930160051c01915b8281106200030757505062000158565b8b8155869550899101620002f7565b92508192620002e8565b634e487b7160e01b89526022600452602489fd5b90607f169062000142565b634e487b7160e01b87526041600452602487fd5b01519050388062000110565b60028b52898b208994509190601f1984168c5b8c828210620003ae575050841162000394575b505050811b0160025562000125565b015160001960f88460031b161c1916905538808062000385565b8385015186558c9790950194938401930162000372565b90915060028a52888a208480850160051c8201928b86106200040f575b918a91869594930160051c01915b82811062000400575050620000fa565b8c81558594508a9101620003f0565b92508192620003e2565b92607f1692620000e3565b8651631e4fbdf760e01b815260006004820152602490fd5b600080fd5b6040519190601f01601f191682016001600160401b038111838210176200046757604052565b634e487b7160e01b600052604160045260246000fd5b919080601f840112156200043c5782516001600160401b0381116200046757602090620004b3601f8201601f1916830162000441565b928184528282870101116200043c5760005b818110620004db57508260009394955001015290565b8581018301518482018401528201620004c556fe6080604081815260048036101561001557600080fd5b600092833560e01c90816306fdde031461067657508063095ea7b31461064c57806318160ddd1461062d57806323b872dd146105c9578063313ce567146105ad57806370a0823114610575578063715018a6146105185780637437681e146104fb57806379cc6790146104415780638da5cb5b1461041957806395d89b41146102f7578063a9059cbb146102c6578063c2d0ffca1461024a578063db4cf1e0146101a9578063dd62ed3e1461015c5763f2fde38b146100d357600080fd5b34610158576020366003190112610158576100ec6107b4565b906100f56107e5565b6001600160a01b0391821692831561014257505082546001600160a01b0319811683178455167f8be0079c531659141344cd1fd0a4f28419497f9722a3daafe3b4186f6b6457e08380a380f35b51631e4fbdf760e01b8152908101849052602490fd5b8280fd5b5050346101a557806003193601126101a5578060209261017a6107b4565b6101826107cf565b6001600160a01b0391821683526007865283832091168252845220549051908152f35b5080fd5b5034610158576020366003190112610158576101c36107b4565b6101cb6107e5565b6001600160a01b03169081156101f35750825260086020528120805460ff1916600117905580f35b608490602084519162461bcd60e51b8352820152602b60248201527f45524332303a204578636c756465204d61782054782066726f6d20746865207a60448201526a65726f206164647265737360a81b6064820152fd5b509190346101a55760203660031901126101a5578235906102696107e5565b8184556001548083029083820414831517156102b3579160209160647fff3dd5e80294197918c284bbfc3dadd97d0b40ce92106110946329088f80068a940460055551908152a180f35b634e487b7160e01b845260118552602484fd5b5050346101a557806003193601126101a5576020906102f06102e66107b4565b6024359033610936565b5160018152f35b509190346101a557816003193601126101a55780519082600354600181811c9080831692831561040f575b60209384841081146103fc578388529081156103e0575060011461038a575b505050829003601f01601f191682019267ffffffffffffffff841183851017610377575082918261037392528261076b565b0390f35b634e487b7160e01b815260418552602490fd5b600387529192508591837fc2575a0e9e593c00f959f8c92f12db2869c3395a3b0502d05e2516446f71f85b5b8385106103cc5750505050830101388080610341565b8054888601830152930192849082016103b6565b60ff1916878501525050151560051b8401019050388080610341565b634e487b7160e01b895260228a52602489fd5b91607f1691610322565b5050346101a557816003193601126101a557905490516001600160a01b039091168152602090f35b508290346101a557826003193601126101a55761045c6107b4565b602435906104686107e5565b6001600160a01b03169182156104c6575060207fddf252ad1be2c89b69c2b068fc378daa952ba7f163c4a11628f55a4df523b3ef918495848652600683526104b38282882054610811565b858752600684528187205551908152a380f35b606490602086519162461bcd60e51b8352820152600f60248201526e496e76616c6964206164647265737360881b6044820152fd5b503461015857826003193601126101585760209250549051908152f35b83346105725780600319360112610572576105316107e5565b80546001600160a01b03198116825581906001600160a01b03167f8be0079c531659141344cd1fd0a4f28419497f9722a3daafe3b4186f6b6457e08280a380f35b80fd5b5050346101a55760203660031901126101a55760209181906001600160a01b0361059d6107b4565b1681526006845220549051908152f35b5050346101a557816003193601126101a5576020905160128152f35b5050346101a55760603660031901126101a5576102f06020926106256105ed6107b4565b91846105f76107cf565b91610606604435809487610936565b6001600160a01b03851681526007885281812033825288522054610811565b903390610834565b5050346101a557816003193601126101a5576020906001549051908152f35b5050346101a557806003193601126101a5576020906102f061066c6107b4565b6024359033610834565b849150833461015857826003193601126101585782600254600181811c90808316928315610761575b60209384841081146103fc5783885290811561074557506001146106ef57505050829003601f01601f191682019267ffffffffffffffff841183851017610377575082918261037392528261076b565b600287529192508591837f405787fa12a823e0f2b7631cc41b3ba8828b3321ca811111fa75cd3aa3bb5ace5b8385106107315750505050830101858080610341565b80548886018301529301928490820161071b565b60ff1916878501525050151560051b8401019050858080610341565b91607f169161069f565b6020808252825181830181905290939260005b8281106107a057505060409293506000838284010152601f8019910116010190565b81810186015184820160400152850161077e565b600435906001600160a01b03821682036107ca57565b600080fd5b602435906001600160a01b03821682036107ca57565b6000546001600160a01b031633036107f957565b60405163118cdaa760e01b8152336004820152602490fd5b9190820391821161081e57565b634e487b7160e01b600052601160045260246000fd5b6001600160a01b039081169182156108e557169182156108955760207f8c5be1e5ebec7d5bd14f71427d1e84f3dd0314c0f7b2291e5b200ac8c7c3b925918360005260078252604060002085600052825280604060002055604051908152a3565b60405162461bcd60e51b815260206004820152602260248201527f45524332303a20617070726f766520746f20746865207a65726f206164647265604482015261737360f01b6064820152608490fd5b60405162461bcd60e51b8152602060048201526024808201527f45524332303a20617070726f76652066726f6d20746865207a65726f206164646044820152637265737360e01b6064820152608490fd5b9192916001600160a01b03908116918215610ad45716908115610a83578315610a2c5760009381855260209060088252604060ff8188205416156109ef575b838752600683526109898282892054610811565b8488526006845281882055848752808720548281018091116109db578188877fddf252ad1be2c89b69c2b068fc378daa952ba7f163c4a11628f55a4df523b3ef9798999a5260068652205551908152a3565b634e487b7160e01b88526011600452602488fd5b600554821115610975575162461bcd60e51b815260048101839052600d60248201526c08af0c6cacac8e6409ac2f0a8f609b1b6044820152606490fd5b60405162461bcd60e51b815260206004820152602960248201527f5472616e7366657220616d6f756e74206d7573742062652067726561746572206044820152687468616e207a65726f60b81b6064820152608490fd5b60405162461bcd60e51b815260206004820152602360248201527f45524332303a207472616e7366657220746f20746865207a65726f206164647260448201526265737360e81b6064820152608490fd5b60405162461bcd60e51b815260206004820152602560248201527f45524332303a207472616e736665722066726f6d20746865207a65726f206164604482015264647265737360d81b6064820152608490fdfea26469706673582212204052118f5d697ab9ff3a044de085df2f189d6ac0c572b483fc280d07ed56540e64736f6c634300081400339016d09d72d40fdae2fd8ceac6b6234c7706214fd39c1cd1e609a0528c1993009b779b17422d0df92223018b32b4d1fa46e071723d6817e2486d003becc55f00a264697066735822122001826b4487afc6cc30635c60e93eb307859eef9e918195d14ea86a21a90b5da964736f6c63430008140033",
  "linkReferences": {},
  "deployedLinkReferences": {}
}