{
  "_format": "hh-sol-artifact-1",
  "contractName": "Bonding",
  "sourceName": "src/contracts/Bonding.sol",
  "abi": [
    {
      "inputs": [],
      "stateMutability": "nonpayable",
      "type": "constructor"
    },
    {
      "inputs": [],
      "name": "InvalidInitialization",
      "type": "error"
    },
    {
      "inputs": [],
      "name": "NotInitializing",
      "type": "error"
    },
    {
      "inputs": [
        {
          "internalType": "address",
          "name": "owner",
          "type": "address"
        }
      ],
      "name": "OwnableInvalidOwner",
      "type": "error"
    },
    {
      "inputs": [
        {
          "internalType": "address",
          "name": "account",
          "type": "address"
        }
      ],
      "name": "OwnableUnauthorizedAccount",
      "type": "error"
    },
    {
      "inputs": [],
      "name": "ReentrancyGuardReentrantCall",
      "type": "error"
    },
    {
      "inputs": [
        {
          "internalType": "address",
          "name": "token",
          "type": "address"
        }
      ],
      "name": "SafeERC20FailedOperation",
      "type": "error"
    },
    {
      "anonymous": false,
      "inputs": [
        {
          "indexed": true,
          "internalType": "address",
          "name": "token",
          "type": "address"
        },
        {
          "indexed": false,
          "internalType": "uint256",
          "name": "amount0",
          "type": "uint256"
        },
        {
          "indexed": false,
          "internalType": "uint256",
          "name": "amount1",
          "type": "uint256"
        }
      ],
      "name": "Deployed",
      "type": "event"
    },
    {
      "anonymous": false,
      "inputs": [
        {
          "indexed": true,
          "internalType": "address",
          "name": "token",
          "type": "address"
        },
        {
          "indexed": false,
          "internalType": "address",
          "name": "artistToken",
          "type": "address"
        }
      ],
      "name": "Graduated",
      "type": "event"
    },
    {
      "anonymous": false,
      "inputs": [
        {
          "indexed": false,
          "internalType": "uint64",
          "name": "version",
          "type": "uint64"
        }
      ],
      "name": "Initialized",
      "type": "event"
    },
    {
      "anonymous": false,
      "inputs": [
        {
          "indexed": true,
          "internalType": "address",
          "name": "token",
          "type": "address"
        },
        {
          "indexed": true,
          "internalType": "address",
          "name": "pair",
          "type": "address"
        },
        {
          "indexed": false,
          "internalType": "uint256",
          "name": "",
          "type": "uint256"
        }
      ],
      "name": "Launched",
      "type": "event"
    },
    {
      "anonymous": false,
      "inputs": [
        {
          "indexed": true,
          "internalType": "address",
          "name": "previousOwner",
          "type": "address"
        },
        {
          "indexed": true,
          "internalType": "address",
          "name": "newOwner",
          "type": "address"
        }
      ],
      "name": "OwnershipTransferred",
      "type": "event"
    },
    {
      "inputs": [],
      "name": "K",
      "outputs": [
        {
          "internalType": "uint256",
          "name": "",
          "type": "uint256"
        }
      ],
      "stateMutability": "view",
      "type": "function"
    },
    {
      "inputs": [],
      "name": "artistFactory",
      "outputs": [
        {
          "internalType": "address",
          "name": "",
          "type": "address"
        }
      ],
      "stateMutability": "view",
      "type": "function"
    },
    {
      "inputs": [],
      "name": "assetRate",
      "outputs": [
        {
          "internalType": "uint256",
          "name": "",
          "type": "uint256"
        }
      ],
      "stateMutability": "view",
      "type": "function"
    },
    {
      "inputs": [
        {
          "internalType": "uint256",
          "name": "amountIn",
          "type": "uint256"
        },
        {
          "internalType": "address",
          "name": "tokenAddress",
          "type": "address"
        }
      ],
      "name": "buy",
      "outputs": [
        {
          "internalType": "bool",
          "name": "",
          "type": "bool"
        }
      ],
      "stateMutability": "payable",
      "type": "function"
    },
    {
      "inputs": [],
      "name": "factory",
      "outputs": [
        {
          "internalType": "contract FFactory",
          "name": "",
          "type": "address"
        }
      ],
      "stateMutability": "view",
      "type": "function"
    },
    {
      "inputs": [],
      "name": "fee",
      "outputs": [
        {
          "internalType": "uint256",
          "name": "",
          "type": "uint256"
        }
      ],
      "stateMutability": "view",
      "type": "function"
    },
    {
      "inputs": [
        {
          "internalType": "address",
          "name": "account",
          "type": "address"
        }
      ],
      "name": "getUserTokens",
      "outputs": [
        {
          "internalType": "address[]",
          "name": "",
          "type": "address[]"
        }
      ],
      "stateMutability": "view",
      "type": "function"
    },
    {
      "inputs": [],
      "name": "gradThreshold",
      "outputs": [
        {
          "internalType": "uint256",
          "name": "",
          "type": "uint256"
        }
      ],
      "stateMutability": "view",
      "type": "function"
    },
    {
      "inputs": [],
      "name": "initialSupply",
      "outputs": [
        {
          "internalType": "uint256",
          "name": "",
          "type": "uint256"
        }
      ],
      "stateMutability": "view",
      "type": "function"
    },
    {
      "inputs": [
        {
          "internalType": "address",
          "name": "factory_",
          "type": "address"
        },
        {
          "internalType": "address",
          "name": "router_",
          "type": "address"
        },
        {
          "internalType": "address",
          "name": "feeTo_",
          "type": "address"
        },
        {
          "internalType": "uint256",
          "name": "fee_",
          "type": "uint256"
        },
        {
          "internalType": "uint256",
          "name": "initialSupply_",
          "type": "uint256"
        },
        {
          "internalType": "uint256",
          "name": "assetRate_",
          "type": "uint256"
        },
        {
          "internalType": "uint256",
          "name": "maxTx_",
          "type": "uint256"
        },
        {
          "internalType": "address",
          "name": "artistFactory_",
          "type": "address"
        },
        {
          "internalType": "uint256",
          "name": "gradThreshold_",
          "type": "uint256"
        }
      ],
      "name": "initialize",
      "outputs": [],
      "stateMutability": "nonpayable",
      "type": "function"
    },
    {
      "inputs": [
        {
          "internalType": "string",
          "name": "_name",
          "type": "string"
        },
        {
          "internalType": "string",
          "name": "_ticker",
          "type": "string"
        },
        {
          "internalType": "uint8[]",
          "name": "cores",
          "type": "uint8[]"
        },
        {
          "internalType": "string",
          "name": "desc",
          "type": "string"
        },
        {
          "internalType": "string",
          "name": "img",
          "type": "string"
        },
        {
          "internalType": "string[4]",
          "name": "urls",
          "type": "string[4]"
        },
        {
          "internalType": "uint256",
          "name": "purchaseAmount",
          "type": "uint256"
        }
      ],
      "name": "launch",
      "outputs": [
        {
          "internalType": "address",
          "name": "",
          "type": "address"
        },
        {
          "internalType": "address",
          "name": "",
          "type": "address"
        },
        {
          "internalType": "uint256",
          "name": "",
          "type": "uint256"
        }
      ],
      "stateMutability": "nonpayable",
      "type": "function"
    },
    {
      "inputs": [],
      "name": "maxTx",
      "outputs": [
        {
          "internalType": "uint256",
          "name": "",
          "type": "uint256"
        }
      ],
      "stateMutability": "view",
      "type": "function"
    },
    {
      "inputs": [],
      "name": "owner",
      "outputs": [
        {
          "internalType": "address",
          "name": "",
          "type": "address"
        }
      ],
      "stateMutability": "view",
      "type": "function"
    },
    {
      "inputs": [
        {
          "internalType": "address",
          "name": "",
          "type": "address"
        }
      ],
      "name": "profile",
      "outputs": [
        {
          "internalType": "address",
          "name": "user",
          "type": "address"
        }
      ],
      "stateMutability": "view",
      "type": "function"
    },
    {
      "inputs": [
        {
          "internalType": "uint256",
          "name": "",
          "type": "uint256"
        }
      ],
      "name": "profiles",
      "outputs": [
        {
          "internalType": "address",
          "name": "",
          "type": "address"
        }
      ],
      "stateMutability": "view",
      "type": "function"
    },
    {
      "inputs": [],
      "name": "renounceOwnership",
      "outputs": [],
      "stateMutability": "nonpayable",
      "type": "function"
    },
    {
      "inputs": [],
      "name": "router",
      "outputs": [
        {
          "internalType": "contract FRouter",
          "name": "",
          "type": "address"
        }
      ],
      "stateMutability": "view",
      "type": "function"
    },
    {
      "inputs": [
        {
          "internalType": "uint256",
          "name": "amountIn",
          "type": "uint256"
        },
        {
          "internalType": "address",
          "name": "tokenAddress",
          "type": "address"
        }
      ],
      "name": "sell",
      "outputs": [
        {
          "internalType": "bool",
          "name": "",
          "type": "bool"
        }
      ],
      "stateMutability": "nonpayable",
      "type": "function"
    },
    {
      "inputs": [
        {
          "internalType": "uint256",
          "name": "newRate",
          "type": "uint256"
        }
      ],
      "name": "setAssetRate",
      "outputs": [],
      "stateMutability": "nonpayable",
      "type": "function"
    },
    {
      "inputs": [
        {
          "components": [
            {
              "internalType": "bytes32",
              "name": "tbaSalt",
              "type": "bytes32"
            },
            {
              "internalType": "address",
              "name": "tbaImplementation",
              "type": "address"
            },
            {
              "internalType": "uint32",
              "name": "daoVotingPeriod",
              "type": "uint32"
            },
            {
              "internalType": "uint256",
              "name": "daoThreshold",
              "type": "uint256"
            }
          ],
          "internalType": "struct Bonding.DeployParams",
          "name": "params",
          "type": "tuple"
        }
      ],
      "name": "setDeployParams",
      "outputs": [],
      "stateMutability": "nonpayable",
      "type": "function"
    },
    {
      "inputs": [
        {
          "internalType": "uint256",
          "name": "newFee",
          "type": "uint256"
        },
        {
          "internalType": "address",
          "name": "newFeeTo",
          "type": "address"
        }
      ],
      "name": "setFee",
      "outputs": [],
      "stateMutability": "nonpayable",
      "type": "function"
    },
    {
      "inputs": [
        {
          "internalType": "uint256",
          "name": "newThreshold",
          "type": "uint256"
        }
      ],
      "name": "setGradThreshold",
      "outputs": [],
      "stateMutability": "nonpayable",
      "type": "function"
    },
    {
      "inputs": [
        {
          "internalType": "uint256",
          "name": "newSupply",
          "type": "uint256"
        }
      ],
      "name": "setInitialSupply",
      "outputs": [],
      "stateMutability": "nonpayable",
      "type": "function"
    },
    {
      "inputs": [
        {
          "internalType": "uint256",
          "name": "maxTx_",
          "type": "uint256"
        }
      ],
      "name": "setMaxTx",
      "outputs": [],
      "stateMutability": "nonpayable",
      "type": "function"
    },
    {
      "inputs": [
        {
          "internalType": "address",
          "name": "",
          "type": "address"
        }
      ],
      "name": "tokenInfo",
      "outputs": [
        {
          "internalType": "address",
          "name": "creator",
          "type": "address"
        },
        {
          "internalType": "address",
          "name": "token",
          "type": "address"
        },
        {
          "internalType": "address",
          "name": "pair",
          "type": "address"
        },
        {
          "internalType": "address",
          "name": "artistToken",
          "type": "address"
        },
        {
          "components": [
            {
              "internalType": "address",
              "name": "token",
              "type": "address"
            },
            {
              "internalType": "string",
              "name": "name",
              "type": "string"
            },
            {
              "internalType": "string",
              "name": "_name",
              "type": "string"
            },
            {
              "internalType": "string",
              "name": "ticker",
              "type": "string"
            },
            {
              "internalType": "uint256",
              "name": "supply",
              "type": "uint256"
            },
            {
              "internalType": "uint256",
              "name": "price",
              "type": "uint256"
            },
            {
              "internalType": "uint256",
              "name": "marketCap",
              "type": "uint256"
            },
            {
              "internalType": "uint256",
              "name": "liquidity",
              "type": "uint256"
            },
            {
              "internalType": "uint256",
              "name": "volume",
              "type": "uint256"
            },
            {
              "internalType": "uint256",
              "name": "volume24H",
              "type": "uint256"
            },
            {
              "internalType": "uint256",
              "name": "prevPrice",
              "type": "uint256"
            },
            {
              "internalType": "uint256",
              "name": "lastUpdated",
              "type": "uint256"
            }
          ],
          "internalType": "struct Bonding.Data",
          "name": "data",
          "type": "tuple"
        },
        {
          "internalType": "string",
          "name": "description",
          "type": "string"
        },
        {
          "internalType": "string",
          "name": "image",
          "type": "string"
        },
        {
          "internalType": "string",
          "name": "twitter",
          "type": "string"
        },
        {
          "internalType": "string",
          "name": "telegram",
          "type": "string"
        },
        {
          "internalType": "string",
          "name": "youtube",
          "type": "string"
        },
        {
          "internalType": "string",
          "name": "website",
          "type": "string"
        },
        {
          "internalType": "bool",
          "name": "trading",
          "type": "bool"
        },
        {
          "internalType": "bool",
          "name": "tradingOnUniswap",
          "type": "bool"
        }
      ],
      "stateMutability": "view",
      "type": "function"
    },
    {
      "inputs": [
        {
          "internalType": "uint256",
          "name": "",
          "type": "uint256"
        }
      ],
      "name": "tokenInfos",
      "outputs": [
        {
          "internalType": "address",
          "name": "",
          "type": "address"
        }
      ],
      "stateMutability": "view",
      "type": "function"
    },
    {
      "inputs": [
        {
          "internalType": "address",
          "name": "newOwner",
          "type": "address"
        }
      ],
      "name": "transferOwnership",
      "outputs": [],
      "stateMutability": "nonpayable",
      "type": "function"
    },
    {
      "inputs": [
        {
          "internalType": "address",
          "name": "srcTokenAddress",
          "type": "address"
        },
        {
          "internalType": "address[]",
          "name": "accounts",
          "type": "address[]"
        }
      ],
      "name": "unwrapToken",
      "outputs": [],
      "stateMutability": "nonpayable",
      "type": "function"
    }
  ],
  "bytecode": "0x60808060405234620000bd577ff0c57e16840df040f15088dc2f81fe391c3923bec73e23a9662efc9c229c6a009081549060ff8260401c16620000ae57506001600160401b036002600160401b03198282160162000068575b6040516157f49081620000c38239f35b6001600160401b031990911681179091556040519081527fc7f505b2f371ae2175ee4913f4499e1f2633a7b5936321eed1cdaeb6115181d290602090a138808062000058565b63f92ee8a960e01b8152600490fd5b600080fdfe608060405260043610156200001357600080fd5b6000803560e01c806309c8962c1462003faa578063378dc3dc1462003f8a5780633c0b93aa14620027175780634189a68e14620023ee57806343fb4d241462002350578063519dc8d2146200220a5780636140259614620021e35780636edd12e014620021c3578063715018a614620021545780637437681e14620021345780637c13774b14620020d55780637deb602514620011b05780637f13a90b14620008af5780638da5cb5b14620008765780639dd9d0fd1462000836578063a932492f1462000813578063b4f2e8b814620007c7578063bc33718214620007a0578063c36fe3d6146200073d578063c45a01551462000712578063cc48968814620006b2578063cca8ebd31462000687578063ddca3f431462000667578063e8e6ed691462000647578063ea6eef491462000419578063f2fde38b14620003e4578063f5dab711146200019b5763f887ea40146200016e57600080fd5b3462000198578060031936011262000198576002546040516001600160a01b039091168152602090f35b80fd5b50346200019857602036600319011262000198576001600160a01b03620001c162004119565b168152600e6020526040902080546001820154600283015460038401546001600160a01b03928316949383169392908116911662000202600484016200421f565b928362000212601083016200416d565b9362000221601284016200416d565b6200022f601385016200416d565b956200023e601486016200416d565b906200024d601587016200416d565b936200025c601688016200416d565b9660170154976040519c8d9c8d5260208d015260408c015260608b01526101a08060808c0152600160a01b60019003865116908b015260208501519761018098896101c08d01526103208c01620002b391620042f3565b604087015161019f198d830381016101e08f015291620002d391620042f3565b8c60608901519281830301906102000152620002ef91620042f3565b9360808701516102208d015260a08701516102408d015260c08701516102608d015260e08701516102808d0152610100928c84890151906102a00152610120958d878a0151906102c001528d610140809a0151906102e001528d610160809e01519061030001528d8082039060a001526200036a91620042f3565b8c810360c08e01526200037d91620042f3565b8b810360e08d01526200039091620042f3565b908a8203908b0152620003a391620042f3565b9088820390890152620003b691620042f3565b9086820390870152620003c991620042f3565b9260ff821615159085015260081c60ff161515908301520390f35b5034620001985760203660031901126200019857620004166200040662004119565b620004106200431a565b62004355565b80f35b5034620001985761012036600319011262000198576200043862004119565b6200044262004102565b6001600160a01b039160443583811692919083900362000642576064359060e4359185831680930362000642577ff0c57e16840df040f15088dc2f81fe391c3923bec73e23a9662efc9c229c6a009485549660ff8860401c1615956001600160401b038916988915806200063a575b6001809b1490816200062f575b15908162000625575b50620006135767ffffffffffffffff1981168a17895587620005f3575b50620004ef62004416565b620004f962004416565b620005043362004355565b6200050e62004416565b6200051862004416565b886000805160206200579f83398151915255816001600160601b0360a01b9516858a54161789551683600254161760025582885416178755670de0b6b3a764000090818102918183041490151715620005df576103e8900460045560843560035560a43560055560c4356007556008541617600855610104356006556200059d578280f35b805468ff0000000000000000191690556040519081527fc7f505b2f371ae2175ee4913f4499e1f2633a7b5936321eed1cdaeb6115181d290602090a138808280f35b634e487b7160e01b87526011600452602487fd5b68ffffffffffffffffff19166801000000000000000117885538620004e4565b60405163f92ee8a960e01b8152600490fd5b90501538620004c7565b303b159150620004be565b5087620004b1565b600080fd5b503462000198578060031936011262000198576020600554604051908152f35b503462000198578060031936011262000198576020600454604051908152f35b503462000198578060031936011262000198576008546040516001600160a01b039091168152602090f35b5034620001985760203660031901126200019857600435620006d36200431a565b8015620006e05760055580f35b60405162461bcd60e51b815260206004820152600a6024820152692930ba329032b93937b960b11b6044820152606490fd5b503462000198578060031936011262000198576001546040516001600160a01b039091168152602090f35b5034620001985760203660031901126200019857600435600d548110156200079c57600d6000527fd7b6990105719101dabeb77144f2a3385c8033acd3af97e9423a695e81ad1eb501546040516001600160a01b039091168152602090f35b5080fd5b5034620001985760203660031901126200019857620007be6200431a565b60043560075580f35b5034620001985760403660031901126200019857620007e562004102565b620007ef6200431a565b60048035905581546001600160a01b0319166001600160a01b039190911617815580f35b5034620001985780600319360112620001985760206040516502ba7def30008152f35b50346200019857602036600319011262000198576020906001600160a01b0390604090826200086462004119565b168152600c8452205416604051908152f35b503462000198578060031936011262000198576000805160206200577f833981519152546040516001600160a01b039091168152602090f35b5034620001985760403660031901126200019857620008cd62004119565b90602435916001600160401b0383116200079c57366023840112156200079c578260040135620008fd81620040ea565b936200090d60405195866200406d565b81855260208501906024600593841b8201019036821162000ca257602401915b8183106200118e575050506001600160a01b0382168352600e60205260408084209051906200095c8262004020565b80546001600160a01b03908116835260018201548116602084015260028201548116604084015260038201541660608301526200099c600482016200421f565b6080830152620009af601082016200416d565b60a083015260405160118201805480835290875260208088209083019188915b81601f84011062000ffe579360ff9593819362000b1293601797549181811062000fea575b81811062000fd3575b81811062000fbc575b81811062000fa5575b81811062000f8f575b81811062000f78575b81811062000f61575b81811062000f4a575b81811062000f33575b81811062000f1c575b81811062000f05575b81811062000eee575b81811062000ed7575b81811062000ec0575b81811062000ea9575b81811062000e92575b81811062000e7b575b81811062000e64575b81811062000e4d575b81811062000e36575b81811062000e1f575b81811062000e08575b81811062000df1575b81811062000dda575b81811062000dc3575b81811062000dac575b81811062000d95575b81811062000d7e575b81811062000d67575b81811062000d50575b81811062000d39575b1062000d2a575b5003826200406d565b60c085015262000b25601282016200416d565b60e085015262000b38601382016200416d565b61010085015262000b4c601482016200416d565b61012085015262000b60601582016200416d565b61014085015262000b74601682016200416d565b6101608501520154818116151561018084015260081c1615906101a0821591015262000cef57825b845181101562000ceb57602081831b86018101516040516370a0823160e01b81526001600160a01b0391821660048201819052909290918390602490829089165afa91821562000ce057869262000ca6575b508162000c1f575b5050600019811462000c0b5760010162000b9c565b634e487b7160e01b84526011600452602484fd5b6001600160a01b0385163b1562000ca25760405163079cc67960e41b81526001600160a01b0390911660048201526024810191909152848180604481010381836001600160a01b0389165af1801562000c97579085911562000bf65762000c869062004059565b62000c9357833862000bf6565b8380fd5b6040513d87823e3d90fd5b8580fd5b9091506020813d60201162000cd7575b8162000cc5602093836200406d565b81010312620006425751903862000bee565b3d915062000cb6565b6040513d88823e3d90fd5b8380f35b60405162461bcd60e51b8152602060048201526013602482015272151bdad95b881b9bdd0819dc98591d585d1959606a1b6044820152606490fd5b60f81c81526020013862000b09565b9260206001918b8560f01c16815201930162000b02565b9260206001918b8560e81c16815201930162000af9565b9260206001918b8560e01c16815201930162000af0565b9260206001918b8560d81c16815201930162000ae7565b9260206001918b8560d01c16815201930162000ade565b9260206001918b8560c81c16815201930162000ad5565b9260206001918b8560c01c16815201930162000acc565b9260206001918b8560b81c16815201930162000ac3565b9260206001918b8560b01c16815201930162000aba565b9260206001918b8560a81c16815201930162000ab1565b9260206001918b8560a01c16815201930162000aa8565b9260206001918b8560981c16815201930162000a9f565b9260206001918b8560901c16815201930162000a96565b9260206001918b8560881c16815201930162000a8d565b9260206001918b8560801c16815201930162000a84565b9260206001918b8560781c16815201930162000a7b565b9260206001918b8560701c16815201930162000a72565b9260206001918b8560681c16815201930162000a69565b9260206001918b8560601c16815201930162000a60565b9260206001918b8560581c16815201930162000a57565b9260206001918b8560501c16815201930162000a4e565b9260206001918b8560481c16815201930162000a45565b9260206001918b8560401c16815201930162000a3c565b9260206001918b8560381c16815201930162000a33565b9260206001918b8560301c16815201930162000a2a565b9260206001918b8560281c16815201930162000a21565b9260206001918b85831c16815201930162000a18565b9260206001918b8560181c16815201930162000a0f565b9260206001918b8560101c16815201930162000a06565b9260206001918b8560081c168152019301620009fd565b9260206001918b85168152019301620009f4565b926001610400602092865460ff8116825260ff8160081c168583015260ff8160101c16604083015260ff8160181c16606083015260ff81861c16608083015260ff8160281c1660a083015260ff8160c0828260301c1681860152828260381c1660e0860152828260401c16610100860152828260481c16610120860152828260501c16610140860152828260581c16610160860152828260601c16610180860152828260681c166101a0860152828260701c166101c0860152828260781c166101e0860152828260801c16610200860152828260881c16610220860152828260901c16610240860152828260981c16610260860152828260a01c16610280860152828260a81c166102a0860152828260b01c166102c0860152828260b81c166102e08601521c1661030083015260ff8160c81c1661032083015260ff8160d01c1661034083015260ff8160d81c1661036083015260ff8160e01c1661038083015260ff8160e81c166103a083015260ff8160f01c166103c083015260f81c6103e0820152019401920191620009cf565b82356001600160a01b038116810362000642578152602092830192016200092d565b5060403660031901126200019857620011c862004102565b6001600160a01b0381168252600e6020526040822060170154909190620011f29060ff16620046e2565b600154600254604051631083f76160e01b81526001600160a01b039182169492909116602082600481885afa9182156200196257916020916200126d938692620020b1575b5060405163e6a4390560e01b81526001600160a01b03808716600483015290921660248301529092839190829081906044820190565b03915afa908115620020825760049160409185916200208d575b508151630240bc6b60e21b815292839182906001600160a01b03165afa9081156200208257839084926200205b575b50604080516373a9c2c560e11b815260048035908201526001600160a01b0385166024820152336044820152958690606490829088905af190811562001962578495859262002014575b50620013126200131992879262004479565b9262004723565b6001600160a01b0383168452600e60205260408420600f015490949062001341904262004479565b90858060011b0460021486151715620020005790620151809160018060a01b0385168652600e60205262001388846200138289600860408b200154620043cb565b620043f5565b90620013fc600c6200139b8a88620043f5565b8686111562001fd357839a5b8787111562001fb3576001600160a01b038a168b52600e60205260408b2060090154955b60018060a01b038b168c52600e60205260408c20926009840155600a83015560011b600b8201550191825462004723565b90556001600160a01b0385168652600e602081905260408720600d8101989098558701551162001fa7575b60065410158062001f98575b62001444575b602060405160018152f35b60178301805460ff81168062001f89575b1562001f365761ffff1916610100179055600154600254604051631083f76160e01b81526001600160a01b0391821692909116602082600481865afa91821562000c975791602091620014e093879262001f12575b5060405163e6a4390560e01b81526001600160a01b03808816600483015290921660248301529092839190829081906044820190565b03915afa9081156200196257849162001eee575b5060405163c66f245560e01b8152946020866004816001600160a01b0386165afa95861562000c9757859662001eb0575b506040516316d3df1560e31b8152926020846004816001600160a01b0387165afa93841562000ce057869462001e76575b50803b1562000ca2576040516001629272fb60e01b031981526001600160a01b03861660048201529086908290602490829084905af1801562000ce05762001e60575b50600254604051631083f76160e01b815290602090829060049082906001600160a01b03165afa90811562000ce057620015ee918891889162001e2a575b506008546001600160a01b039081169116620045a3565b600854600954600a54600b5460405163fc98f07960e01b81526001600160a01b03898116600483015260e0602483015260118701805460e48401819052908c5260208c2061010484019d939790921695929492918c91905b81601f84011062001c975795602097958e9f92958f9e9f958b99958a988997549181811062001c84575b81811062001c6d575b81811062001c56575b81811062001c3f575b81811062001c2a575b81811062001c13575b81811062001bfc575b81811062001be5575b81811062001bce575b81811062001bb7575b81811062001ba0575b81811062001b89575b81811062001b72575b81811062001b5b575b81811062001b44575b81811062001b2d575b81811062001b16575b81811062001aff575b81811062001ae8575b81811062001ad1575b81811062001aba575b81811062001aa3575b81811062001a8c575b81811062001a75575b81811062001a5e575b81811062001a47575b81811062001a30575b81811062001a19575b81811062001a02575b818110620019eb575b818110620019d4575b10620019c0575b5060448601526001600160a01b038116606486015260a01c63ffffffff16608485015260a484015260c483015203925af190811562000c9757859162001985575b506008546001600160a01b031690813b1562000ca2578591604483926040519485938492632644339560e11b84526004840152600160248401525af190811562000c975785916200196d575b505060030180546001600160a01b03191690556002546001600160a01b0316803b1562000c935760405163559e23ad60e11b81526001600160a01b038316600482015260248101859052306044820152606481018590529084908290608490829084905af1908115620019625784916200194a575b50506001600160a01b0384163b15620019465760405163079cc67960e41b81526001600160a01b0390911660048201526024810191909152818180604481010381836001600160a01b0388165af180156200193b5762001923575b50506040519182526001600160a01b0316907f381d54fa425631e6266af114239150fae1d5db67bb65b4fa9ecc65013107e07e90602090a238808062001439565b6200192e9062004059565b6200079c578138620018e2565b6040513d84823e3d90fd5b8280fd5b620019559062004059565b6200194657823862001887565b6040513d86823e3d90fd5b620019789062004059565b62000c9357833862001812565b9450506020843d602011620019b7575b81620019a4602093836200406d565b81010312620006425785935138620017c6565b3d915062001995565b60f81c8552938a019363ffffffff62001785565b968d60019160ff8560f01c1681520197016200177e565b968d60019160ff8560e81c16815201970162001775565b968d60019160ff8560e01c1681520197016200176c565b968d60019160ff8560d81c16815201970162001763565b968d60019160ff8560d01c1681520197016200175a565b968d60019160ff8560c81c16815201970162001751565b968d60019160ff8560c01c16815201970162001748565b968d60019160ff8560b81c1681520197016200173f565b968d60019160ff8560b01c16815201970162001736565b968d60019160ff8560a81c1681520197016200172d565b968d60019160ff8560a01c16815201970162001724565b968d60019160ff8560981c1681520197016200171b565b968d60019160ff8560901c16815201970162001712565b968d60019160ff8560881c16815201970162001709565b968d60019160ff8560801c16815201970162001700565b968d60019160ff8560781c168152019701620016f7565b968d60019160ff8560701c168152019701620016ee565b968d60019160ff8560681c168152019701620016e5565b968d60019160ff8560601c168152019701620016dc565b968d60019160ff8560581c168152019701620016d3565b968d60019160ff8560501c168152019701620016ca565b968d60019160ff8560481c168152019701620016c1565b968d60019160ff8560401c168152019701620016b8565b968d60019160ff8560381c168152019701620016af565b968d60019160ff8560301c168152019701620016a6565b968d60019160ff8560281c1681520197016200169d565b828e1c60ff168852968d019660010162001694565b968d60019160ff8560181c1681520197016200168b565b968d60019160ff8560101c16815201970162001682565b968d60019160ff8560081c16815201970162001679565b60ff83168852968d019660010162001670565b9d60018f602092610400915460ff8116825260ff8160081c168583015260ff8160101c16604083015260ff816060828260181c16818601528282608082828c1c1681890152828260a092828260281c16848c0152828260c0988d8a848460301c169101528d60e0848460381c169101528d610100848460401c169101528d610120848460481c169101528d610140848460501c169101528d610160848460581c169101521c166101808c0152828260681c166101a08c0152828260701c166101c08c0152828260781c166101e08c01521c16610200890152828260881c16610220890152828260901c16610240890152828260981c166102608901521c16610280860152828260a81c166102a0860152828260b01c166102c0860152828260b81c166102e08601521c1661030083015260ff8160c81c1661032083015260ff8160d01c1661034083015260ff8160d81c1661036083015260ff8160e01c1661038083015260ff8160e81c166103a083015260ff8160f01c166103c083015260f81c6103e0820152019f0192019162001646565b62001e51915060203d60201162001e58575b62001e4881836200406d565b81019062004458565b38620015d7565b503d62001e3c565b62001e6e9095919562004059565b933862001599565b9093506020813d60201162001ea7575b8162001e95602093836200406d565b8101031262000ca25751923862001556565b3d915062001e86565b9095506020813d60201162001ee5575b8162001ecf602093836200406d565b8101031262001ee15751943862001525565b8480fd5b3d915062001ec0565b62001f0b915060203d60201162001e585762001e4881836200406d565b38620014f4565b62001f2e919250833d851162001e585762001e4881836200406d565b9038620014aa565b60405162461bcd60e51b815260206004820152602560248201527f54726164696e6720697320616c7265616479206f70656e206f72206f6e20556e604482015264069737761760dc1b6064820152608490fd5b5060ff8160081c161562001455565b5060ff60178401541662001433565b42600f85015562001427565b6001600160a01b038a168b52600e602081905260408c20015495620013cb565b6001600160a01b0389168a52600e60205260408a20600d015462001ff990859062004723565b9a620013a7565b634e487b7160e01b85526011600452602485fd5b62001312919650620013199250620020479060403d60401162002053575b6200203e81836200406d565b810190620044cc565b90969092509062001300565b503d62002032565b90506200207a915060403d60401162002053576200203e81836200406d565b9038620012b6565b6040513d85823e3d90fd5b620020aa915060203d60201162001e585762001e4881836200406d565b3862001287565b620020cd919250833d851162001e585762001e4881836200406d565b903862001237565b5034620001985760203660031901126200019857600435600f548110156200079c57600f9091527f8d1108e10bcb7c27dddfc02ed9d693a074039d026cf4ea4240b40f7d581ac80201546040516001600160a01b039091168152602090f35b503462000198578060031936011262000198576020600754604051908152f35b50346200019857806003193601126200019857620021716200431a565b6000805160206200577f83398151915280546001600160a01b0319811690915581906001600160a01b03167f8be0079c531659141344cd1fd0a4f28419497f9722a3daafe3b4186f6b6457e08280a380f35b503462000198578060031936011262000198576020600654604051908152f35b5034620001985760203660031901126200019857620022016200431a565b60043560035580f35b503462000198576020908160031936011262000198576200222a62004119565b6001600160a01b038082166000818152600c6020526040902054929392909116036200230b576001600160a01b039182168152600c83526040808220905190919062002276816200403d565b83835416815260018093019460405191828288549182815201908198865283862090865b818110620022f5575050508391620022b683859303846200406d565b0152604051948186019282875251809352604086019693905b838210620022dd5786880387f35b845181168852968201969382019390850190620022cf565b82548a168452928501929188019188016200229a565b60405162461bcd60e51b815260048101849052601c60248201527f557365722070726f66696c6520646f6573206e6f742065786973742e000000006044820152606490fd5b5034620001985760803660031901126200019857604051620023728162003fd1565b60043581526200238162004102565b602082019081526044359063ffffffff8216820362000c93576040830191825260608301926064358452620023b56200431a565b5160095560018060a01b03905116600a549163ffffffff60a01b905160a01b16916001600160401b0360c01b161717600a5551600b5580f35b50346200019857604036600319011262000198576200240c62004102565b6001600160a01b03808216808452600e602081815260408620601701549295909493926200243d9060ff16620046e2565b600154600254604051631083f76160e01b81529085169185168782600481865afa9182156200196257918891620024ac938692620026f3575b5060405163e6a4390560e01b81526001600160a01b03808b16600483015290921660248301529092839190829081906044820190565b03915afa9081156200208257906040918491620026d1575b506004825180978193630240bc6b60e21b8352165afa9485156200193b57829483966200269d575b5060408051636f08e17760e01b815260048035908201526001600160a01b03909216602483015233604483015290918290818581606481015b03925af19384156200193b57829183956200266b575b506200254d6200255492869262004723565b9562004479565b928682528286526200256e600f6040842001544262004479565b8460011b948086046002148115171562000c0b57916200260a600c8a9362015180620025c587620025be8e9f9d9e9c9d8f908c9b8f8f60409f6040916008936200138296835252200154620043cb565b9d620043f5565b9111998a156200264c57849b5b8b156200263857868852898b528960098a8a2001549b5b888a5252888820926009840155600a830155600b8201550191825462004723565b905581528287522093600d8501558301556200262b575b5060405160018152f35b600f429101553862002621565b868852898b5289808a8a2001549b620025e9565b858752888a526200266485600d8a8a20015462004723565b9b620025d2565b6200254d9550620025549250620026939060403d60401162002053576200203e81836200406d565b959092506200253b565b604091965083929550620026c46200252591833d851162002053576200203e81836200406d565b97909693509150620024ec565b620026ec9150883d8a1162001e585762001e4881836200406d565b38620024c4565b6200270f919250833d851162001e585762001e4881836200406d565b903862002476565b5034620001985760e036600319011262000198576004356001600160401b0381116200079c576200274d9036906004016200408f565b906024356001600160401b0381116200079c57620027709036906004016200408f565b906044356001600160401b0381116200079c57366023820112156200079c5780600401356200279f81620040ea565b91620027af60405193846200406d565b8183526024602084019260051b8201019036821162001ee157602401915b81831062003f6e575050506064356001600160401b0381116200194657620027fa9036906004016200408f565b916084356001600160401b0381116200079c576200281d9036906004016200408f565b926001600160401b0360a435116200079c5736602360a4350112156200079c57604051906200284c8262003fd1565b8136608460a435011162000c935760a435600401905b608460a43501821062003f3a57505060026000805160206200579f833981519152541462003f285760026000805160206200579f83398151915255600454918260c435111562003ee357600254604051631083f76160e01b81529590602090879060049082906001600160a01b03165afa95861562000c9757859662003ebd575b506040516370a0823160e01b81523360048201526020816024816001600160a01b038b165afa90811562000ce057869162003e85575b5060c4351162003e495762002950620029358560c43562004479565b86549095906001600160a01b039081169033908a1662004556565b620029678430336001600160a01b038a1662004556565b620029728962004487565b600354600754604051928361104d8101106001600160401b0361104d8601111762003e355790620029d5620029be85949361104d620047328739608061104d87018181520190620042f3565b61104d85018103602061104d870101528d620042f3565b91604061104d85010152606061104d84010152039086f096871562000c97576040516318160ddd60e01b81526020816004816001600160a01b038d165afa90811562003e2a57879162003dee575b506001546040516364e329cb60e11b81526001600160a01b038b811660048301528a81166024830152909b91168b6044818b5a94602095f19a8b1562003de357889b62003dbd575b5060025462002a8a9083906001600160a01b03908116908d16620045a3565b600554801562003da957666a94d74f4300000469021e19e0c9bab24000009081810291818304149015171562003d95578262002ac691620043f5565b670de0b6b3a764000090808281020482148115171562003d815761271091020490811562003d74575b60025460408051631746ffa760e31b81526001600160a01b03808f16600483015260248201879052604482018690529092839160649183918f91165af1801562003d695762003d46575b5062002b458d62004487565b9262002b528382620043f5565b91838060011b046002148415171562003d32578c9d9e62002b79859d9e9b9c9d84620043f5565b956040519b62002b898d62004003565b60018060a01b03168c5260208c015260408b015260608a0152608089015260a08801528060c088015260011b60e087015287610100870152876101208701526101408601524261016086015282519060208401519260606040860151950151956040519762002bf88962004020565b33895260018060a01b038d1660208a01528d60018060a01b031660408a01528a60608a0152608089015260a088015260c087015260e08601526101008501526101208401526101408301526101608201526001610180820152826101a082015260018060a01b0385168352600e6020526040832060018060a01b038251166001600160601b0360a01b8254161781556001810160018060a01b036020840151166001600160601b0360a01b8254161790556002810160018060a01b036040840151166001600160601b0360a01b8254161790556003810160018060a01b036060840151166001600160601b0360a01b8254161790556004810160808301519060018060a01b038251166001600160601b0360a01b82541617905560208101518051906001600160401b03821162003bb057819062002d3a600586015462004130565b601f811162003cfb575b50602090601f831160011462003c8757889262003c7b575b50508160011b916000199060031b1c19161760058301555b60408101518051906001600160401b03821162003bb057819062002d9c600686015462004130565b601f811162003c44575b50602090601f831160011462003bd057889262003bc4575b50508160011b916000199060031b1c19161760068301555b60608101518051906001600160401b03821162003bb05762002dfc600785015462004130565b601f811162003b79575b50602090601f831160011462003b035761016093929188918362003af7575b50508160011b916000199060031b1c19161760078401555b6080810151600884015560a0810151600984015560c0810151600a84015560e0810151600b840155610100810151600c840155610120810151600d840155610140810151600e8401550151600f82015560a08201518051906001600160401b0382116200366257819062002eb5601085015462004130565b601f811162003ac0575b50602090601f831160011462003a4c57879262003a40575b50508160011b916000199060031b1c19161760108201555b60c08201518051906001600160401b0382116200366257600160401b821162003662576020906011840154836011860155808410620039e6575b5001906011830186526020862090865b8160051c8110620039a45750601f198116810362003952575b50505060e08201518051906001600160401b0382116200366257819062002f7d601285015462004130565b601f81116200391b575b50602090601f8311600114620038a75787926200389b575b50508160011b916000199060031b1c19161760128201555b6101008201518051906001600160401b0382116200366257819062002fe0601385015462004130565b601f811162003864575b50602090601f8311600114620037f0578792620037e4575b50508160011b916000199060031b1c19161760138201555b6101208201518051906001600160401b0382116200366257819062003043601485015462004130565b601f8111620037ad575b50602090601f8311600114620037395787926200372d575b50508160011b916000199060031b1c19161760148201555b6101408201518051906001600160401b03821162003662578190620030a6601585015462004130565b601f8111620036f6575b50602090601f83116001146200368257879262003676575b50508160011b916000199060031b1c19161760158201555b6101608201518051906001600160401b038211620036625762003107601684015462004130565b601f81116200361f575b50602090601f8311600114620035aa5760179392918791836200359e575b50508160011b916000199060031b1c19161760168201555b019061018081015115159060ff61ff006101a08554930151151560081b1692169061ffff191617179055600f54600160401b81101562003539576001810180600f558110156200352557600f83527f8d1108e10bcb7c27dddfc02ed9d693a074039d026cf4ea4240b40f7d581ac8020180546001600160a01b0319166001600160a01b0386811691909117909155336000818152600c602052604090205484939216036200340c57620032b6604091338452600c6020526200321760018060a01b038816600185872001620044fc565b600f548351818152909662003275918391906001600160a01b038c811691908c16907f714aa39317ad9a7a7a99db52b44490da5d068a0b2710fffb1a1282ad3cadae1f90602090a36002546001600160a01b039081169116620045a3565b60025483516373a9c2c560e11b815260048101929092526001600160a01b038881166024840152306044840152919485939190921691839182906064820190565b03925af180156200193b57620033e9575b506040516370a0823160e01b81523060048201526020816024816001600160a01b0388165afa9081156200193b578291620033b0575b5060405163a9059cbb60e01b81523360048201526024810191909152602081604481856001600160a01b0389165af180156200193b5762003371575b505060016000805160206200579f83398151915255604080516001600160a01b03938416815293909216602084015290820152606090f35b6020813d602011620033a7575b816200338d602093836200406d565b810103126200079c57518015150362000198578062003339565b3d91506200337e565b90506020813d602011620033e0575b81620033ce602093836200406d565b810103126200079c57516020620032fd565b3d9150620033bf565b620034059060403d60401162002053576200203e81836200406d565b50620032c7565b90506040516200341c816200403d565b3381526020810160608152338452600c602052604084209160018060a01b039051166001600160601b0360a01b83541617825551908151916001600160401b0383116200358a57600160401b83116200358a5760206001918284015485848601558086106200356b575b50019101845260208420845b8381106200354d5750505050600d54600160401b81101562003539576001810180600d5581101562003525577fd7b6990105719101dabeb77144f2a3385c8033acd3af97e9423a695e81ad1eb50180546001600160a01b031916339081179091558252600c60205260408083208392620032b6916200351f906001600160a01b03891690600101620044fc565b62003217565b634e487b7160e01b83526032600452602483fd5b634e487b7160e01b83526041600452602483fd5b82516001600160a01b03168183015560209092019160010162003492565b848401885282882062003583918101908701620044e3565b3862003486565b634e487b7160e01b85526041600452602485fd5b0151905038806200312f565b906016840187526020872091875b601f198516811062003606575091839160019360179695601f19811610620035ec575b505050811b01601682015562003147565b015160001960f88460031b161c19169055388080620035db565b91926020600181928685015181550194019201620035b8565b620036509060168501885260208820601f850160051c8101916020861062003657575b601f0160051c0190620044e3565b3862003111565b909150819062003642565b634e487b7160e01b86526041600452602486fd5b015190503880620030c8565b9250601584018752602087209087935b601f1984168510620036da576001945083601f19811610620036c0575b505050811b016015820155620030e0565b015160001960f88460031b161c19169055388080620036af565b8181015183556020948501946001909301929091019062003692565b620037269060158601895260208920601f850160051c810191602086106200365757601f0160051c0190620044e3565b38620030b0565b01519050388062003065565b9250601484018752602087209087935b601f198416851062003791576001945083601f1981161062003777575b505050811b0160148201556200307d565b015160001960f88460031b161c1916905538808062003766565b8181015183556020948501946001909301929091019062003749565b620037dd9060148601895260208920601f850160051c810191602086106200365757601f0160051c0190620044e3565b386200304d565b01519050388062003002565b9250601384018752602087209087935b601f198416851062003848576001945083601f198116106200382e575b505050811b0160138201556200301a565b015160001960f88460031b161c191690553880806200381d565b8181015183556020948501946001909301929091019062003800565b620038949060138601895260208920601f850160051c810191602086106200365757601f0160051c0190620044e3565b3862002fea565b01519050388062002f9f565b9250601284018752602087209087935b601f1984168510620038ff576001945083601f19811610620038e5575b505050811b01601282015562002fb7565b015160001960f88460031b161c19169055388080620038d4565b81810151835560209485019460019093019290910190620038b7565b6200394b9060128601895260208920601f850160051c810191602086106200365757601f0160051c0190620044e3565b3862002f87565b8692875b601f198316830381106200397457505060051c015538808062002f52565b909360206200399a6001928460ff895116919060ff809160031b9316831b921b19161790565b9501910162003956565b87885b60208110620039be57508382015560010162002f39565b855190959160019160209160ff60038a901b81811b199092169216901b1792019501620039a7565b62003a1790601186018952601f848a20918187168062003a1e575b500160051c810190601f860160051c01620044e3565b3862002f29565b6000199081848a0160051c86010191825491890360031b1c1690553862003a01565b01519050388062002ed7565b9250601084018752602087209087935b601f198416851062003aa4576001945083601f1981161062003a8a575b505050811b01601082015562002eef565b015160001960f88460031b161c1916905538808062003a79565b8181015183556020948501946001909301929091019062003a5c565b62003af09060108601895260208920601f850160051c810191602086106200365757601f0160051c0190620044e3565b3862002ebf565b01519050388062002e25565b906007850188526020882091885b601f198516811062003b6057509183916001936101609695601f1981161062003b46575b505050811b01600784015562002e3d565b015160001960f88460031b161c1916905538808062003b35565b9192602060018192868501518155019401920162003b11565b62003ba99060078601895260208920601f850160051c810191602086106200365757601f0160051c0190620044e3565b3862002e06565b634e487b7160e01b87526041600452602487fd5b01519050388062002dbe565b9250600685018852602088209088935b601f198416851062003c28576001945083601f1981161062003c0e575b505050811b01600683015562002dd6565b015160001960f88460031b161c1916905538808062003bfd565b8181015183556020948501946001909301929091019062003be0565b62003c7490600687018a5260208a20601f850160051c810191602086106200365757601f0160051c0190620044e3565b3862002da6565b01519050388062002d5c565b9250600585018852602088209088935b601f198416851062003cdf576001945083601f1981161062003cc5575b505050811b01600583015562002d74565b015160001960f88460031b161c1916905538808062003cb4565b8181015183556020948501946001909301929091019062003c97565b62003d2b90600587018a5260208a20601f850160051c810191602086106200365757601f0160051c0190620044e3565b3862002d44565b634e487b7160e01b8b52601160045260248bfd5b62003d629060403d60401162002053576200203e81836200406d565b5062002b39565b6040513d8c823e3d90fd5b633b9aca00915062002aef565b634e487b7160e01b8a52601160045260248afd5b634e487b7160e01b89526011600452602489fd5b634e487b7160e01b89526012600452602489fd5b62003ddb919b5060203d60201162001e585762001e4881836200406d565b993862002a6b565b6040513d8a823e3d90fd5b90506020813d60201162003e21575b8162003e0c602093836200406d565b8101031262003e1d57513862002a23565b8680fd5b3d915062003dfd565b6040513d89823e3d90fd5b634e487b7160e01b89526041600452602489fd5b60405162461bcd60e51b8152602060048201526014602482015273496e73756666696369656e742062616c616e636560601b6044820152606490fd5b90506020813d60201162003eb4575b8162003ea3602093836200406d565b8101031262000ca257513862002919565b3d915062003e94565b62003edb91965060203d60201162001e585762001e4881836200406d565b9438620028e3565b60405162461bcd60e51b815260206004820152601f60248201527f507572636861736520616d6f756e74206d7573742065786365656420666565006044820152606490fd5b604051633ee5aeb560e01b8152600490fd5b6001600160401b0382351162001ee1576020809162003f62366004863560a43501016200408f565b81520191019062002862565b823560ff8116810362000ca257815260209283019201620027cd565b503462000198578060031936011262000198576020600354604051908152f35b503462000198576020366003190112620001985762003fc86200431a565b60043560065580f35b608081019081106001600160401b0382111762003fed57604052565b634e487b7160e01b600052604160045260246000fd5b61018081019081106001600160401b0382111762003fed57604052565b6101c081019081106001600160401b0382111762003fed57604052565b604081019081106001600160401b0382111762003fed57604052565b6001600160401b03811162003fed57604052565b90601f801991011681019081106001600160401b0382111762003fed57604052565b81601f8201121562000642578035906001600160401b03821162003fed5760405192620040c7601f8401601f1916602001856200406d565b828452602083830101116200064257816000926020809301838601378301015290565b6001600160401b03811162003fed5760051b60200190565b602435906001600160a01b03821682036200064257565b600435906001600160a01b03821682036200064257565b90600182811c9216801562004162575b60208310146200414c57565b634e487b7160e01b600052602260045260246000fd5b91607f169162004140565b9060405191826000825492620041838462004130565b908184526001948581169081600014620041fa5750600114620041b3575b5050620041b1925003836200406d565b565b9093915060005260209081600020936000915b818310620041e1575050620041b193508201013880620041a1565b85548884018501529485019487945091830191620041c6565b915050620041b194506020925060ff191682840152151560051b8201013880620041a1565b906040516200422e8162004003565b82546001600160a01b0316815291829061016090600b9062004253600182016200416d565b602085015262004266600282016200416d565b604085015262004279600382016200416d565b606085015260048101546080850152600581015460a0850152600681015460c0850152600781015460e085015260088101546101008501526009810154610120850152600a8101546101408501520154910152565b60005b838110620042e25750506000910152565b8181015183820152602001620042d1565b906020916200430e81518092818552858086019101620042ce565b601f01601f1916010190565b6000805160206200577f833981519152546001600160a01b031633036200433d57565b60405163118cdaa760e01b8152336004820152602490fd5b6001600160a01b03908116908115620043b2576000805160206200577f83398151915280546001600160a01b031981168417909155167f8be0079c531659141344cd1fd0a4f28419497f9722a3daafe3b4186f6b6457e0600080a3565b604051631e4fbdf760e01b815260006004820152602490fd5b81810292918115918404141715620043df57565b634e487b7160e01b600052601160045260246000fd5b811562004400570490565b634e487b7160e01b600052601260045260246000fd5b60ff7ff0c57e16840df040f15088dc2f81fe391c3923bec73e23a9662efc9c229c6a005460401c16156200444657565b604051631afcd79f60e31b8152600490fd5b908160209103126200064257516001600160a01b0381168103620006425790565b91908203918211620043df57565b90620041b1602a60405180946902634b6b2b634b3b43a160b51b6020830152620044bb8151809260208686019101620042ce565b810103600a8101855201836200406d565b919082604091031262000642576020825192015190565b818110620044ef575050565b60008155600101620044e3565b805490600160401b82101562003fed576001820180825582101562004540576000526020600020019060018060a01b03166001600160601b0360a01b825416179055565b634e487b7160e01b600052603260045260246000fd5b6040516323b872dd60e01b60208201526001600160a01b039283166024820152929091166044830152606480830193909352918152620041b1916200459d6084836200406d565b62004676565b60405163095ea7b360e01b60208083018281526001600160a01b03861660248501526044808501979097529583529094919391600090620045e66064876200406d565b85519082865af16000513d826200464e575b50501562004607575b50505050565b62004644936200459d9160405191602083015260018060a01b0316602482015260006044820152604481526200463d8162003fd1565b8262004676565b3880808062004601565b9091506200466d57506001600160a01b0382163b15155b3880620045f8565b60011462004665565b906000602091828151910182855af115620046d6576000513d620046cc57506001600160a01b0381163b155b620046aa5750565b604051635274afe760e01b81526001600160a01b039091166004820152602490fd5b60011415620046a2565b6040513d6000823e3d90fd5b15620046ea57565b60405162461bcd60e51b8152602060048201526011602482015270546f6b656e206e6f742074726164696e6760781b6044820152606490fd5b91908201809211620043df5756fe604060808152346200043c576200104d803803806200001e8162000441565b92833981016080828203126200043c5781516001600160401b0391908281116200043c5781620000509185016200047d565b60209182850151908482116200043c576200006d9186016200047d565b93606086820151910151943315620004245760008054336001600160a01b0319821681178355919691906001600160a01b03167f8be0079c531659141344cd1fd0a4f28419497f9722a3daafe3b4186f6b6457e08880a383518181116200033f57600254906001958683811c9316801562000419575b8884101462000320578190601f93848111620003c5575b5088908483116001146200035f578a9262000353575b5050600019600383901b1c191690861b176002555b82519182116200033f5760039283548681811c9116801562000334575b88821014620003205790818385949311620002cb575b5087918311600114620002685788926200025c575b505060001982841b1c191690841b1790555b670de0b6b3a764000090818102918183041490151715620002485780825533845260068352858420556008825284832060ff1990828282541617905530845281868520918254161790558360045554928381028181048514821517156200024857827fddf252ad1be2c89b69c2b068fc378daa952ba7f163c4a11628f55a4df523b3ef939260647fff3dd5e80294197918c284bbfc3dadd97d0b40ce92106110946329088f80068a93046005558751908152a184519384523393a351610b5d9081620004f08239f35b634e487b7160e01b84526011600452602484fd5b0151905038806200016d565b8489528789208794509190601f1984168a5b8a828210620002b457505084116200029b575b505050811b0190556200017f565b015160001983861b60f8161c191690553880806200028d565b8385015186558a979095019493840193016200027a565b909192508489528789208380860160051c8201928a871062000316575b9186958a929594930160051c01915b8281106200030757505062000158565b8b8155869550899101620002f7565b92508192620002e8565b634e487b7160e01b89526022600452602489fd5b90607f169062000142565b634e487b7160e01b87526041600452602487fd5b01519050388062000110565b60028b52898b208994509190601f1984168c5b8c828210620003ae575050841162000394575b505050811b0160025562000125565b015160001960f88460031b161c1916905538808062000385565b8385015186558c9790950194938401930162000372565b90915060028a52888a208480850160051c8201928b86106200040f575b918a91869594930160051c01915b82811062000400575050620000fa565b8c81558594508a9101620003f0565b92508192620003e2565b92607f1692620000e3565b8651631e4fbdf760e01b815260006004820152602490fd5b600080fd5b6040519190601f01601f191682016001600160401b038111838210176200046757604052565b634e487b7160e01b600052604160045260246000fd5b919080601f840112156200043c5782516001600160401b0381116200046757602090620004b3601f8201601f1916830162000441565b928184528282870101116200043c5760005b818110620004db57508260009394955001015290565b8581018301518482018401528201620004c556fe6080604081815260048036101561001557600080fd5b600092833560e01c90816306fdde031461067657508063095ea7b31461064c57806318160ddd1461062d57806323b872dd146105c9578063313ce567146105ad57806370a0823114610575578063715018a6146105185780637437681e146104fb57806379cc6790146104415780638da5cb5b1461041957806395d89b41146102f7578063a9059cbb146102c6578063c2d0ffca1461024a578063db4cf1e0146101a9578063dd62ed3e1461015c5763f2fde38b146100d357600080fd5b34610158576020366003190112610158576100ec6107b4565b906100f56107e5565b6001600160a01b0391821692831561014257505082546001600160a01b0319811683178455167f8be0079c531659141344cd1fd0a4f28419497f9722a3daafe3b4186f6b6457e08380a380f35b51631e4fbdf760e01b8152908101849052602490fd5b8280fd5b5050346101a557806003193601126101a5578060209261017a6107b4565b6101826107cf565b6001600160a01b0391821683526007865283832091168252845220549051908152f35b5080fd5b5034610158576020366003190112610158576101c36107b4565b6101cb6107e5565b6001600160a01b03169081156101f35750825260086020528120805460ff1916600117905580f35b608490602084519162461bcd60e51b8352820152602b60248201527f45524332303a204578636c756465204d61782054782066726f6d20746865207a60448201526a65726f206164647265737360a81b6064820152fd5b509190346101a55760203660031901126101a5578235906102696107e5565b8184556001548083029083820414831517156102b3579160209160647fff3dd5e80294197918c284bbfc3dadd97d0b40ce92106110946329088f80068a940460055551908152a180f35b634e487b7160e01b845260118552602484fd5b5050346101a557806003193601126101a5576020906102f06102e66107b4565b6024359033610936565b5160018152f35b509190346101a557816003193601126101a55780519082600354600181811c9080831692831561040f575b60209384841081146103fc578388529081156103e0575060011461038a575b505050829003601f01601f191682019267ffffffffffffffff841183851017610377575082918261037392528261076b565b0390f35b634e487b7160e01b815260418552602490fd5b600387529192508591837fc2575a0e9e593c00f959f8c92f12db2869c3395a3b0502d05e2516446f71f85b5b8385106103cc5750505050830101388080610341565b8054888601830152930192849082016103b6565b60ff1916878501525050151560051b8401019050388080610341565b634e487b7160e01b895260228a52602489fd5b91607f1691610322565b5050346101a557816003193601126101a557905490516001600160a01b039091168152602090f35b508290346101a557826003193601126101a55761045c6107b4565b602435906104686107e5565b6001600160a01b03169182156104c6575060207fddf252ad1be2c89b69c2b068fc378daa952ba7f163c4a11628f55a4df523b3ef918495848652600683526104b38282882054610811565b858752600684528187205551908152a380f35b606490602086519162461bcd60e51b8352820152600f60248201526e496e76616c6964206164647265737360881b6044820152fd5b503461015857826003193601126101585760209250549051908152f35b83346105725780600319360112610572576105316107e5565b80546001600160a01b03198116825581906001600160a01b03167f8be0079c531659141344cd1fd0a4f28419497f9722a3daafe3b4186f6b6457e08280a380f35b80fd5b5050346101a55760203660031901126101a55760209181906001600160a01b0361059d6107b4565b1681526006845220549051908152f35b5050346101a557816003193601126101a5576020905160128152f35b5050346101a55760603660031901126101a5576102f06020926106256105ed6107b4565b91846105f76107cf565b91610606604435809487610936565b6001600160a01b03851681526007885281812033825288522054610811565b903390610834565b5050346101a557816003193601126101a5576020906001549051908152f35b5050346101a557806003193601126101a5576020906102f061066c6107b4565b6024359033610834565b849150833461015857826003193601126101585782600254600181811c90808316928315610761575b60209384841081146103fc5783885290811561074557506001146106ef57505050829003601f01601f191682019267ffffffffffffffff841183851017610377575082918261037392528261076b565b600287529192508591837f405787fa12a823e0f2b7631cc41b3ba8828b3321ca811111fa75cd3aa3bb5ace5b8385106107315750505050830101858080610341565b80548886018301529301928490820161071b565b60ff1916878501525050151560051b8401019050858080610341565b91607f169161069f565b6020808252825181830181905290939260005b8281106107a057505060409293506000838284010152601f8019910116010190565b81810186015184820160400152850161077e565b600435906001600160a01b03821682036107ca57565b600080fd5b602435906001600160a01b03821682036107ca57565b6000546001600160a01b031633036107f957565b60405163118cdaa760e01b8152336004820152602490fd5b9190820391821161081e57565b634e487b7160e01b600052601160045260246000fd5b6001600160a01b039081169182156108e557169182156108955760207f8c5be1e5ebec7d5bd14f71427d1e84f3dd0314c0f7b2291e5b200ac8c7c3b925918360005260078252604060002085600052825280604060002055604051908152a3565b60405162461bcd60e51b815260206004820152602260248201527f45524332303a20617070726f766520746f20746865207a65726f206164647265604482015261737360f01b6064820152608490fd5b60405162461bcd60e51b8152602060048201526024808201527f45524332303a20617070726f76652066726f6d20746865207a65726f206164646044820152637265737360e01b6064820152608490fd5b9192916001600160a01b03908116918215610ad45716908115610a83578315610a2c5760009381855260209060088252604060ff8188205416156109ef575b838752600683526109898282892054610811565b8488526006845281882055848752808720548281018091116109db578188877fddf252ad1be2c89b69c2b068fc378daa952ba7f163c4a11628f55a4df523b3ef9798999a5260068652205551908152a3565b634e487b7160e01b88526011600452602488fd5b600554821115610975575162461bcd60e51b815260048101839052600d60248201526c08af0c6cacac8e6409ac2f0a8f609b1b6044820152606490fd5b60405162461bcd60e51b815260206004820152602960248201527f5472616e7366657220616d6f756e74206d7573742062652067726561746572206044820152687468616e207a65726f60b81b6064820152608490fd5b60405162461bcd60e51b815260206004820152602360248201527f45524332303a207472616e7366657220746f20746865207a65726f206164647260448201526265737360e81b6064820152608490fd5b60405162461bcd60e51b815260206004820152602560248201527f45524332303a207472616e736665722066726f6d20746865207a65726f206164604482015264647265737360d81b6064820152608490fdfea2646970667358221220a0f93b3d32a480628b8f0eed8a5ac45f1c12268d7fe8c8f60c56f7dd7c5ed29564736f6c634300081400339016d09d72d40fdae2fd8ceac6b6234c7706214fd39c1cd1e609a0528c1993009b779b17422d0df92223018b32b4d1fa46e071723d6817e2486d003becc55f00a2646970667358221220b626cc1b0653f39252806bbfee079e84e200b2d28dd21fa0f7e9f22710c1b7a764736f6c63430008140033",
  "linkReferences": {},
  "deployedLinkReferences": {}
}