{
  "_format": "hh-sol-artifact-1",
  "contractName": "MockTokenVesting",
  "sourceName": "src/contracts/vesting/MockTokenVesting.sol",
  "abi": [
    {
      "inputs": [
        {
          "internalType": "address",
          "name": "token_",
          "type": "address"
        }
      ],
      "stateMutability": "nonpayable",
      "type": "constructor"
    },
    {
      "anonymous": false,
      "inputs": [
        {
          "indexed": true,
          "internalType": "address",
          "name": "user",
          "type": "address"
        },
        {
          "indexed": true,
          "internalType": "address",
          "name": "newOwner",
          "type": "address"
        }
      ],
      "name": "OwnershipTransferred",
      "type": "event"
    },
    {
      "stateMutability": "payable",
      "type": "fallback"
    },
    {
      "inputs": [
        {
          "internalType": "address",
          "name": "holder",
          "type": "address"
        }
      ],
      "name": "computeNextVestingScheduleIdForHolder",
      "outputs": [
        {
          "internalType": "bytes32",
          "name": "",
          "type": "bytes32"
        }
      ],
      "stateMutability": "view",
      "type": "function"
    },
    {
      "inputs": [
        {
          "internalType": "bytes32",
          "name": "vestingScheduleId",
          "type": "bytes32"
        }
      ],
      "name": "computeReleasableAmount",
      "outputs": [
        {
          "internalType": "uint256",
          "name": "",
          "type": "uint256"
        }
      ],
      "stateMutability": "view",
      "type": "function"
    },
    {
      "inputs": [
        {
          "internalType": "address",
          "name": "holder",
          "type": "address"
        },
        {
          "internalType": "uint256",
          "name": "index",
          "type": "uint256"
        }
      ],
      "name": "computeVestingScheduleIdForAddressAndIndex",
      "outputs": [
        {
          "internalType": "bytes32",
          "name": "",
          "type": "bytes32"
        }
      ],
      "stateMutability": "pure",
      "type": "function"
    },
    {
      "inputs": [
        {
          "internalType": "address",
          "name": "_beneficiary",
          "type": "address"
        },
        {
          "internalType": "uint256",
          "name": "_start",
          "type": "uint256"
        },
        {
          "internalType": "uint256",
          "name": "_cliff",
          "type": "uint256"
        },
        {
          "internalType": "uint256",
          "name": "_duration",
          "type": "uint256"
        },
        {
          "internalType": "uint256",
          "name": "_slicePeriodSeconds",
          "type": "uint256"
        },
        {
          "internalType": "bool",
          "name": "_revocable",
          "type": "bool"
        },
        {
          "internalType": "uint256",
          "name": "_amount",
          "type": "uint256"
        }
      ],
      "name": "createVestingSchedule",
      "outputs": [],
      "stateMutability": "nonpayable",
      "type": "function"
    },
    {
      "inputs": [
        {
          "internalType": "address",
          "name": "holder",
          "type": "address"
        }
      ],
      "name": "getLastVestingScheduleForHolder",
      "outputs": [
        {
          "components": [
            {
              "internalType": "address",
              "name": "beneficiary",
              "type": "address"
            },
            {
              "internalType": "uint256",
              "name": "cliff",
              "type": "uint256"
            },
            {
              "internalType": "uint256",
              "name": "start",
              "type": "uint256"
            },
            {
              "internalType": "uint256",
              "name": "duration",
              "type": "uint256"
            },
            {
              "internalType": "uint256",
              "name": "slicePeriodSeconds",
              "type": "uint256"
            },
            {
              "internalType": "bool",
              "name": "revocable",
              "type": "bool"
            },
            {
              "internalType": "uint256",
              "name": "amountTotal",
              "type": "uint256"
            },
            {
              "internalType": "uint256",
              "name": "released",
              "type": "uint256"
            },
            {
              "internalType": "bool",
              "name": "revoked",
              "type": "bool"
            }
          ],
          "internalType": "struct TokenVesting.VestingSchedule",
          "name": "",
          "type": "tuple"
        }
      ],
      "stateMutability": "view",
      "type": "function"
    },
    {
      "inputs": [],
      "name": "getToken",
      "outputs": [
        {
          "internalType": "address",
          "name": "",
          "type": "address"
        }
      ],
      "stateMutability": "view",
      "type": "function"
    },
    {
      "inputs": [
        {
          "internalType": "uint256",
          "name": "index",
          "type": "uint256"
        }
      ],
      "name": "getVestingIdAtIndex",
      "outputs": [
        {
          "internalType": "bytes32",
          "name": "",
          "type": "bytes32"
        }
      ],
      "stateMutability": "view",
      "type": "function"
    },
    {
      "inputs": [
        {
          "internalType": "bytes32",
          "name": "vestingScheduleId",
          "type": "bytes32"
        }
      ],
      "name": "getVestingSchedule",
      "outputs": [
        {
          "components": [
            {
              "internalType": "address",
              "name": "beneficiary",
              "type": "address"
            },
            {
              "internalType": "uint256",
              "name": "cliff",
              "type": "uint256"
            },
            {
              "internalType": "uint256",
              "name": "start",
              "type": "uint256"
            },
            {
              "internalType": "uint256",
              "name": "duration",
              "type": "uint256"
            },
            {
              "internalType": "uint256",
              "name": "slicePeriodSeconds",
              "type": "uint256"
            },
            {
              "internalType": "bool",
              "name": "revocable",
              "type": "bool"
            },
            {
              "internalType": "uint256",
              "name": "amountTotal",
              "type": "uint256"
            },
            {
              "internalType": "uint256",
              "name": "released",
              "type": "uint256"
            },
            {
              "internalType": "bool",
              "name": "revoked",
              "type": "bool"
            }
          ],
          "internalType": "struct TokenVesting.VestingSchedule",
          "name": "",
          "type": "tuple"
        }
      ],
      "stateMutability": "view",
      "type": "function"
    },
    {
      "inputs": [
        {
          "internalType": "address",
          "name": "holder",
          "type": "address"
        },
        {
          "internalType": "uint256",
          "name": "index",
          "type": "uint256"
        }
      ],
      "name": "getVestingScheduleByAddressAndIndex",
      "outputs": [
        {
          "components": [
            {
              "internalType": "address",
              "name": "beneficiary",
              "type": "address"
            },
            {
              "internalType": "uint256",
              "name": "cliff",
              "type": "uint256"
            },
            {
              "internalType": "uint256",
              "name": "start",
              "type": "uint256"
            },
            {
              "internalType": "uint256",
              "name": "duration",
              "type": "uint256"
            },
            {
              "internalType": "uint256",
              "name": "slicePeriodSeconds",
              "type": "uint256"
            },
            {
              "internalType": "bool",
              "name": "revocable",
              "type": "bool"
            },
            {
              "internalType": "uint256",
              "name": "amountTotal",
              "type": "uint256"
            },
            {
              "internalType": "uint256",
              "name": "released",
              "type": "uint256"
            },
            {
              "internalType": "bool",
              "name": "revoked",
              "type": "bool"
            }
          ],
          "internalType": "struct TokenVesting.VestingSchedule",
          "name": "",
          "type": "tuple"
        }
      ],
      "stateMutability": "view",
      "type": "function"
    },
    {
      "inputs": [],
      "name": "getVestingSchedulesCount",
      "outputs": [
        {
          "internalType": "uint256",
          "name": "",
          "type": "uint256"
        }
      ],
      "stateMutability": "view",
      "type": "function"
    },
    {
      "inputs": [
        {
          "internalType": "address",
          "name": "_beneficiary",
          "type": "address"
        }
      ],
      "name": "getVestingSchedulesCountByBeneficiary",
      "outputs": [
        {
          "internalType": "uint256",
          "name": "",
          "type": "uint256"
        }
      ],
      "stateMutability": "view",
      "type": "function"
    },
    {
      "inputs": [],
      "name": "getVestingSchedulesTotalAmount",
      "outputs": [
        {
          "internalType": "uint256",
          "name": "",
          "type": "uint256"
        }
      ],
      "stateMutability": "view",
      "type": "function"
    },
    {
      "inputs": [],
      "name": "getWithdrawableAmount",
      "outputs": [
        {
          "internalType": "uint256",
          "name": "",
          "type": "uint256"
        }
      ],
      "stateMutability": "view",
      "type": "function"
    },
    {
      "inputs": [],
      "name": "owner",
      "outputs": [
        {
          "internalType": "address",
          "name": "",
          "type": "address"
        }
      ],
      "stateMutability": "view",
      "type": "function"
    },
    {
      "inputs": [
        {
          "internalType": "bytes32",
          "name": "vestingScheduleId",
          "type": "bytes32"
        },
        {
          "internalType": "uint256",
          "name": "amount",
          "type": "uint256"
        }
      ],
      "name": "release",
      "outputs": [],
      "stateMutability": "nonpayable",
      "type": "function"
    },
    {
      "inputs": [
        {
          "internalType": "bytes32",
          "name": "vestingScheduleId",
          "type": "bytes32"
        }
      ],
      "name": "revoke",
      "outputs": [],
      "stateMutability": "nonpayable",
      "type": "function"
    },
    {
      "inputs": [
        {
          "internalType": "uint256",
          "name": "_time",
          "type": "uint256"
        }
      ],
      "name": "setCurrentTime",
      "outputs": [],
      "stateMutability": "nonpayable",
      "type": "function"
    },
    {
      "inputs": [
        {
          "internalType": "address",
          "name": "newOwner",
          "type": "address"
        }
      ],
      "name": "transferOwnership",
      "outputs": [],
      "stateMutability": "nonpayable",
      "type": "function"
    },
    {
      "inputs": [
        {
          "internalType": "uint256",
          "name": "amount",
          "type": "uint256"
        }
      ],
      "name": "withdraw",
      "outputs": [],
      "stateMutability": "nonpayable",
      "type": "function"
    },
    {
      "stateMutability": "payable",
      "type": "receive"
    }
  ],
  "bytecode": "0x60a0346100d457601f61135b38819003918201601f19168301916001600160401b038311848410176100d9578084926020946040528339810103126100d457516001600160a01b038116908190036100d457600080546001600160a01b0319163390811782556040519290827f8be0079c531659141344cd1fd0a4f28419497f9722a3daafe3b4186f6b6457e08180a36001805580156100d05760805260065561126b90816100f08239608051818181610442015281816107600152818161091a015281816109c401526110670152f35b5080fd5b600080fd5b634e487b7160e01b600052604160045260246000fdfe608060409080825260049081361015610020575b505050361561001e57005b005b600090813560e01c9081631308361714610da45750806317e289e9146109f357806321df0da7146109af57806322f8e566146109955780632e1a7d4d146108c757806348deb471146108a85780635a7bb69a1461087057806366afd8ef146106c15780637e913dc6146106475780638af104da1461061e5780638da5cb5b146105f657806390be10cc146105d95780639ef346b4146105b7578063b75c7dc61461032a578063ea1bb3d5146102e6578063f2fde38b14610279578063f51321d7146101c9578063f7c469f0146101835763f9079b3703610013573461018057602036600319011261018057508035906002548210156101335760208361012584610e6c565b91905490519160031b1c8152f35b608490602084519162461bcd60e51b8352820152602160248201527f546f6b656e56657374696e673a20696e646578206f7574206f6620626f756e646044820152607360f81b6064820152fd5b80fd5b5082346101c55760203660031901126101c5576101be602092826101a5610dc0565b6001600160a01b03811683526005865291205490611116565b9051908152f35b5080fd5b5082346101c557806003193601126101c557610275906102046101ff6101ed610dc0565b6101f5610fe6565b5060243590611116565b61102b565b90519182918291909161012081019260018060a01b0381511682526020810151602083015260408101516040830152606081015160608301526080810151608083015260a0810151151560a083015260c081015160c083015260e081015160e0830152610100809101511515910152565b0390f35b503461018057602036600319011261018057610293610dc0565b8154906001600160a01b03906102ac3383851614610ddb565b1680916001600160601b0360a01b16178255337f8be0079c531659141344cd1fd0a4f28419497f9722a3daafe3b4186f6b6457e08380a380f35b509190346103265760203660031901126103265735825260036020528082209160ff60088401541661018057506101be610321602093610eb9565b61118c565b8280fd5b50919034610326576020806003193601126105b3578354823590336001600160a01b03918216149061035b82610ddb565b8287526003845285872093600885019660ff8854166105af5760ff6005870154161561055d5761038d61032187610eb9565b94856103c5575b8989896103b56103ae8b6007600682015491015490610f2f565b8254610f2f565b9055805460ff1916600117905580f35b6103d26001805414610f3c565b60026001558952600382528089209260ff6008850154166105595783541693843314908115610551575b50156104dd578461040f61032185610eb9565b106104745750506103ae926103b5949260076104669301610431838254610e16565b905561043e828854610f2f565b87557f0000000000000000000000000000000000000000000000000000000000000000610f75565b600180559138808080610394565b5162461bcd60e51b815280870191909152603d60248201527f546f6b656e56657374696e673a2063616e6e6f742072656c6561736520746f6b60448201527f656e732c206e6f7420656e6f7567682076657374656420746f6b656e730000006064820152608490fd5b5162461bcd60e51b815280870191909152604260248201527f546f6b656e56657374696e673a206f6e6c792062656e6566696369617279206160448201527f6e64206f776e65722063616e2072656c656173652076657374656420746f6b656064820152616e7360f01b608482015260a490fd5b9050386103fc565b8980fd5b5162461bcd60e51b815280870191909152602660248201527f546f6b656e56657374696e673a2076657374696e67206973206e6f74207265766044820152656f6361626c6560d01b6064820152608490fd5b8880fd5b8380fd5b508290346101805760203660031901126101805750610204610275923561102b565b5082346101c557816003193601126101c5576020906101be61104c565b5082346101c557816003193601126101c557905490516001600160a01b039091168152602090f35b5082346101c557806003193601126101c5576020906101be61063e610dc0565b60243590611116565b5082903461018057602036600319011261018057610663610dc0565b61066b610fe6565b506001600160a01b03811682526005602052828220546000198101919082116106ae579280926106a16102049361027596611116565b8152600360205220610eb9565b634e487b7160e01b835260118552602483fd5b5090346101c557826003193601126101c557602435906106e46001805414610f3c565b60026001558035835260036020528383209060ff6008830154166105b357815484546001600160a01b0391821693913380861492909116148115610868575b50156107f4578361073661032183610eb9565b1061078b5761078494955060070161074f848254610e16565b905561075c838254610f2f565b90557f0000000000000000000000000000000000000000000000000000000000000000610f75565b6001805580f35b855162461bcd60e51b8152602081840152603d60248201527f546f6b656e56657374696e673a2063616e6e6f742072656c6561736520746f6b60448201527f656e732c206e6f7420656e6f7567682076657374656420746f6b656e730000006064820152608490fd5b855162461bcd60e51b8152602081840152604260248201527f546f6b656e56657374696e673a206f6e6c792062656e6566696369617279206160448201527f6e64206f776e65722063616e2072656c656173652076657374656420746f6b656064820152616e7360f01b608482015260a490fd5b905038610723565b5082346101c55760203660031901126101c55760209181906001600160a01b03610898610dc0565b1681526005845220549051908152f35b5091903461032657826003193601126103265760209250549051908152f35b50919034610326576020366003190112610326578035916108eb6001805414610f3c565b600260015561090460018060a01b038554163314610ddb565b8261090d61104c565b1061093e578361078484337f0000000000000000000000000000000000000000000000000000000000000000610f75565b906020608492519162461bcd60e51b8352820152602b60248201527f546f6b656e56657374696e673a206e6f7420656e6f756768207769746864726160448201526a7761626c652066756e647360a81b6064820152fd5b5090346101c55760203660031901126101c5573560065580f35b5082346101c557816003193601126101c557517f00000000000000000000000000000000000000000000000000000000000000006001600160a01b03168152602090f35b5091346103265760e036600319011261032657610a0e610dc0565b60248035604480359187606480356084359060a43592831515809403610da05760c43596610a4760018060a01b03809754163314610ddb565b87610a5061104c565b10610d26578215610cda578715610c9b5760018410610c4457888310610bf35750509183918a938d958b169a8b8752600560205285872054610a9191611116565b98610a9c9088610e16565b96855197610aa989610e39565b8c895260208901908152868901918252606089019283526080890193845260a0890194855260c08901958a875260e08a01978989526101008b0199808b528d81526003602052209951166001600160601b0360a01b8a5416178955516001890155516002880155516003870155518b8601555115156005850190610b38919060ff801983541691151516179055565b5160068401555160078301555115159060080190610b61919060ff801983541691151516179055565b855490610b6d91610e16565b855560025468010000000000000000811015610be157806001610b939201600255610e6c565b819291549060031b91821b91600019901b19161790558185526005602052828520549360018501809511610bd05750508352600560205282205580f35b634e487b7160e01b86526011905284fd5b634e487b7160e01b8752604186528287fd5b661e9031b634b33360c91b6084927f546f6b656e56657374696e673a206475726174696f6e206d757374206265203e8f938f8e6020602792519762461bcd60e51b8952880152860152840152820152fd5b6c206d757374206265203e3d203160981b6084927f546f6b656e56657374696e673a20736c696365506572696f645365636f6e64738f938f8e6020602d92519762461bcd60e51b8952880152860152840152820152fd5b7f546f6b656e56657374696e673a20616d6f756e74206d757374206265203e20308d9160208c8f8290519562461bcd60e51b8752860152840152820152fd5b61020360f41b6084927f546f6b656e56657374696e673a206475726174696f6e206d757374206265203e8f938f8e6020602292519762461bcd60e51b8952880152860152840152820152fd5b7f696e67207363686564756c652062656361757365206e6f74207375666669636960a4927f546f6b656e56657374696e673a2063616e6e6f742063726561746520766573748f938f8e6020604a92519762461bcd60e51b895288015286015284015282015269656e7420746f6b656e7360b01b6084820152fd5b8480fd5b9050346101c557816003193601126101c5576020906002548152f35b600435906001600160a01b0382168203610dd657565b600080fd5b15610de257565b60405162461bcd60e51b815260206004820152600c60248201526b15539055551213d49256915160a21b6044820152606490fd5b91908201809211610e2357565b634e487b7160e01b600052601160045260246000fd5b610120810190811067ffffffffffffffff821117610e5657604052565b634e487b7160e01b600052604160045260246000fd5b600254811015610ea35760026000527f405787fa12a823e0f2b7631cc41b3ba8828b3321ca811111fa75cd3aa3bb5ace0190600090565b634e487b7160e01b600052603260045260246000fd5b90604051610ec681610e39565b61010060ff6008839560018060a01b0381541685526001810154602086015260028101546040860152600381015460608601526004810154608086015282600582015416151560a0860152600681015460c0860152600781015460e08601520154161515910152565b91908203918211610e2357565b15610f4357565b60405162461bcd60e51b815260206004820152600a6024820152695245454e5452414e435960b01b6044820152606490fd5b600091826044926020956040519363a9059cbb60e01b8552600485015260248401525af13d15601f3d1160016000511416171615610faf57565b60405162461bcd60e51b815260206004820152600f60248201526e1514905394d1915497d19052531151608a1b6044820152606490fd5b60405190610ff382610e39565b816101006000918281528260208201528260408201528260608201528260808201528260a08201528260c08201528260e08201520152565b611033610fe6565b5060005260036020526110496040600020610eb9565b90565b6040516370a0823160e01b81523060048201526020816024817f00000000000000000000000000000000000000000000000000000000000000006001600160a01b03165afa801561110a576000906110ad575b611049915060045490610f2f565b60203d8111611103575b601f8101601f1916830167ffffffffffffffff8111848210176110ef576020918491604052810103126101805750611049905161109f565b634e487b7160e01b83526041600452602483fd5b503d6110b7565b6040513d6000823e3d90fd5b906040519060208201926001600160601b03199060601b1683526034820152603481526060810181811067ffffffffffffffff821117610e565760405251902090565b8115611163570490565b634e487b7160e01b600052601260045260246000fd5b81810292918115918404141715610e2357565b6006549060208101918251928382108015611227575b156111b05750505050600090565b6111c06060840194855190610e16565b82106111dd575050611049915060e060c082015191015190610f2f565b6110499361121661120c6111f860e09561121e955190610f2f565b61120760808801518092611159565b611179565b60c0860151611179565b905190611159565b91015190610f2f565b5061010083015115156111a256fea26469706673582212203b9718d81b8b46827b0a845bf710d20ac55d3ba0c4c052cbc945857a41cc030764736f6c63430008140033",
  "linkReferences": {},
  "deployedLinkReferences": {}
}