{
  "_format": "hh-sol-artifact-1",
  "contractName": "ArtistVeToken",
  "sourceName": "src/contracts/limelightPersona/ArtistVeToken.sol",
  "abi": [
    {
      "inputs": [],
      "stateMutability": "nonpayable",
      "type": "constructor"
    },
    {
      "inputs": [],
      "name": "CheckpointUnorderedInsertion",
      "type": "error"
    },
    {
      "inputs": [],
      "name": "CheckpointUnorderedInsertion",
      "type": "error"
    },
    {
      "inputs": [],
      "name": "ECDSAInvalidSignature",
      "type": "error"
    },
    {
      "inputs": [
        {
          "internalType": "uint256",
          "name": "length",
          "type": "uint256"
        }
      ],
      "name": "ECDSAInvalidSignatureLength",
      "type": "error"
    },
    {
      "inputs": [
        {
          "internalType": "bytes32",
          "name": "s",
          "type": "bytes32"
        }
      ],
      "name": "ECDSAInvalidSignatureS",
      "type": "error"
    },
    {
      "inputs": [
        {
          "internalType": "uint256",
          "name": "increasedSupply",
          "type": "uint256"
        },
        {
          "internalType": "uint256",
          "name": "cap",
          "type": "uint256"
        }
      ],
      "name": "ERC20ExceededSafeSupply",
      "type": "error"
    },
    {
      "inputs": [
        {
          "internalType": "address",
          "name": "spender",
          "type": "address"
        },
        {
          "internalType": "uint256",
          "name": "allowance",
          "type": "uint256"
        },
        {
          "internalType": "uint256",
          "name": "needed",
          "type": "uint256"
        }
      ],
      "name": "ERC20InsufficientAllowance",
      "type": "error"
    },
    {
      "inputs": [
        {
          "internalType": "address",
          "name": "sender",
          "type": "address"
        },
        {
          "internalType": "uint256",
          "name": "balance",
          "type": "uint256"
        },
        {
          "internalType": "uint256",
          "name": "needed",
          "type": "uint256"
        }
      ],
      "name": "ERC20InsufficientBalance",
      "type": "error"
    },
    {
      "inputs": [
        {
          "internalType": "address",
          "name": "approver",
          "type": "address"
        }
      ],
      "name": "ERC20InvalidApprover",
      "type": "error"
    },
    {
      "inputs": [
        {
          "internalType": "address",
          "name": "receiver",
          "type": "address"
        }
      ],
      "name": "ERC20InvalidReceiver",
      "type": "error"
    },
    {
      "inputs": [
        {
          "internalType": "address",
          "name": "sender",
          "type": "address"
        }
      ],
      "name": "ERC20InvalidSender",
      "type": "error"
    },
    {
      "inputs": [
        {
          "internalType": "address",
          "name": "spender",
          "type": "address"
        }
      ],
      "name": "ERC20InvalidSpender",
      "type": "error"
    },
    {
      "inputs": [
        {
          "internalType": "uint256",
          "name": "timepoint",
          "type": "uint256"
        },
        {
          "internalType": "uint48",
          "name": "clock",
          "type": "uint48"
        }
      ],
      "name": "ERC5805FutureLookup",
      "type": "error"
    },
    {
      "inputs": [],
      "name": "ERC6372InconsistentClock",
      "type": "error"
    },
    {
      "inputs": [
        {
          "internalType": "address",
          "name": "account",
          "type": "address"
        },
        {
          "internalType": "uint256",
          "name": "currentNonce",
          "type": "uint256"
        }
      ],
      "name": "InvalidAccountNonce",
      "type": "error"
    },
    {
      "inputs": [],
      "name": "InvalidInitialization",
      "type": "error"
    },
    {
      "inputs": [],
      "name": "NotInitializing",
      "type": "error"
    },
    {
      "inputs": [
        {
          "internalType": "uint8",
          "name": "bits",
          "type": "uint8"
        },
        {
          "internalType": "uint256",
          "name": "value",
          "type": "uint256"
        }
      ],
      "name": "SafeCastOverflowedUintDowncast",
      "type": "error"
    },
    {
      "inputs": [
        {
          "internalType": "address",
          "name": "token",
          "type": "address"
        }
      ],
      "name": "SafeERC20FailedOperation",
      "type": "error"
    },
    {
      "inputs": [
        {
          "internalType": "uint256",
          "name": "expiry",
          "type": "uint256"
        }
      ],
      "name": "VotesExpiredSignature",
      "type": "error"
    },
    {
      "anonymous": false,
      "inputs": [
        {
          "indexed": true,
          "internalType": "address",
          "name": "owner",
          "type": "address"
        },
        {
          "indexed": true,
          "internalType": "address",
          "name": "spender",
          "type": "address"
        },
        {
          "indexed": false,
          "internalType": "uint256",
          "name": "value",
          "type": "uint256"
        }
      ],
      "name": "Approval",
      "type": "event"
    },
    {
      "anonymous": false,
      "inputs": [
        {
          "indexed": true,
          "internalType": "address",
          "name": "delegator",
          "type": "address"
        },
        {
          "indexed": true,
          "internalType": "address",
          "name": "fromDelegate",
          "type": "address"
        },
        {
          "indexed": true,
          "internalType": "address",
          "name": "toDelegate",
          "type": "address"
        }
      ],
      "name": "DelegateChanged",
      "type": "event"
    },
    {
      "anonymous": false,
      "inputs": [
        {
          "indexed": true,
          "internalType": "address",
          "name": "delegate",
          "type": "address"
        },
        {
          "indexed": false,
          "internalType": "uint256",
          "name": "previousVotes",
          "type": "uint256"
        },
        {
          "indexed": false,
          "internalType": "uint256",
          "name": "newVotes",
          "type": "uint256"
        }
      ],
      "name": "DelegateVotesChanged",
      "type": "event"
    },
    {
      "anonymous": false,
      "inputs": [],
      "name": "EIP712DomainChanged",
      "type": "event"
    },
    {
      "anonymous": false,
      "inputs": [
        {
          "indexed": false,
          "internalType": "uint64",
          "name": "version",
          "type": "uint64"
        }
      ],
      "name": "Initialized",
      "type": "event"
    },
    {
      "anonymous": false,
      "inputs": [
        {
          "indexed": true,
          "internalType": "address",
          "name": "from",
          "type": "address"
        },
        {
          "indexed": true,
          "internalType": "address",
          "name": "to",
          "type": "address"
        },
        {
          "indexed": false,
          "internalType": "uint256",
          "name": "value",
          "type": "uint256"
        }
      ],
      "name": "Transfer",
      "type": "event"
    },
    {
      "inputs": [],
      "name": "CLOCK_MODE",
      "outputs": [
        {
          "internalType": "string",
          "name": "",
          "type": "string"
        }
      ],
      "stateMutability": "view",
      "type": "function"
    },
    {
      "inputs": [
        {
          "internalType": "address",
          "name": "owner",
          "type": "address"
        },
        {
          "internalType": "address",
          "name": "spender",
          "type": "address"
        }
      ],
      "name": "allowance",
      "outputs": [
        {
          "internalType": "uint256",
          "name": "",
          "type": "uint256"
        }
      ],
      "stateMutability": "view",
      "type": "function"
    },
    {
      "inputs": [
        {
          "internalType": "address",
          "name": "",
          "type": "address"
        },
        {
          "internalType": "uint256",
          "name": "",
          "type": "uint256"
        }
      ],
      "name": "approve",
      "outputs": [
        {
          "internalType": "bool",
          "name": "",
          "type": "bool"
        }
      ],
      "stateMutability": "nonpayable",
      "type": "function"
    },
    {
      "inputs": [],
      "name": "artistNft",
      "outputs": [
        {
          "internalType": "address",
          "name": "",
          "type": "address"
        }
      ],
      "stateMutability": "view",
      "type": "function"
    },
    {
      "inputs": [],
      "name": "assetToken",
      "outputs": [
        {
          "internalType": "address",
          "name": "",
          "type": "address"
        }
      ],
      "stateMutability": "view",
      "type": "function"
    },
    {
      "inputs": [
        {
          "internalType": "address",
          "name": "account",
          "type": "address"
        }
      ],
      "name": "balanceOf",
      "outputs": [
        {
          "internalType": "uint256",
          "name": "",
          "type": "uint256"
        }
      ],
      "stateMutability": "view",
      "type": "function"
    },
    {
      "inputs": [],
      "name": "canStake",
      "outputs": [
        {
          "internalType": "bool",
          "name": "",
          "type": "bool"
        }
      ],
      "stateMutability": "view",
      "type": "function"
    },
    {
      "inputs": [
        {
          "internalType": "address",
          "name": "account",
          "type": "address"
        },
        {
          "internalType": "uint32",
          "name": "pos",
          "type": "uint32"
        }
      ],
      "name": "checkpoints",
      "outputs": [
        {
          "components": [
            {
              "internalType": "uint48",
              "name": "_key",
              "type": "uint48"
            },
            {
              "internalType": "uint208",
              "name": "_value",
              "type": "uint208"
            }
          ],
          "internalType": "struct Checkpoints.Checkpoint208",
          "name": "",
          "type": "tuple"
        }
      ],
      "stateMutability": "view",
      "type": "function"
    },
    {
      "inputs": [],
      "name": "clock",
      "outputs": [
        {
          "internalType": "uint48",
          "name": "",
          "type": "uint48"
        }
      ],
      "stateMutability": "view",
      "type": "function"
    },
    {
      "inputs": [],
      "name": "decimals",
      "outputs": [
        {
          "internalType": "uint8",
          "name": "",
          "type": "uint8"
        }
      ],
      "stateMutability": "view",
      "type": "function"
    },
    {
      "inputs": [
        {
          "internalType": "address",
          "name": "delegatee",
          "type": "address"
        }
      ],
      "name": "delegate",
      "outputs": [],
      "stateMutability": "nonpayable",
      "type": "function"
    },
    {
      "inputs": [
        {
          "internalType": "address",
          "name": "delegatee",
          "type": "address"
        },
        {
          "internalType": "uint256",
          "name": "nonce",
          "type": "uint256"
        },
        {
          "internalType": "uint256",
          "name": "expiry",
          "type": "uint256"
        },
        {
          "internalType": "uint8",
          "name": "v",
          "type": "uint8"
        },
        {
          "internalType": "bytes32",
          "name": "r",
          "type": "bytes32"
        },
        {
          "internalType": "bytes32",
          "name": "s",
          "type": "bytes32"
        }
      ],
      "name": "delegateBySig",
      "outputs": [],
      "stateMutability": "nonpayable",
      "type": "function"
    },
    {
      "inputs": [
        {
          "internalType": "address",
          "name": "account",
          "type": "address"
        }
      ],
      "name": "delegates",
      "outputs": [
        {
          "internalType": "address",
          "name": "",
          "type": "address"
        }
      ],
      "stateMutability": "view",
      "type": "function"
    },
    {
      "inputs": [],
      "name": "eip712Domain",
      "outputs": [
        {
          "internalType": "bytes1",
          "name": "fields",
          "type": "bytes1"
        },
        {
          "internalType": "string",
          "name": "name",
          "type": "string"
        },
        {
          "internalType": "string",
          "name": "version",
          "type": "string"
        },
        {
          "internalType": "uint256",
          "name": "chainId",
          "type": "uint256"
        },
        {
          "internalType": "address",
          "name": "verifyingContract",
          "type": "address"
        },
        {
          "internalType": "bytes32",
          "name": "salt",
          "type": "bytes32"
        },
        {
          "internalType": "uint256[]",
          "name": "extensions",
          "type": "uint256[]"
        }
      ],
      "stateMutability": "view",
      "type": "function"
    },
    {
      "inputs": [],
      "name": "founder",
      "outputs": [
        {
          "internalType": "address",
          "name": "",
          "type": "address"
        }
      ],
      "stateMutability": "view",
      "type": "function"
    },
    {
      "inputs": [
        {
          "internalType": "address",
          "name": "account",
          "type": "address"
        },
        {
          "internalType": "uint256",
          "name": "timepoint",
          "type": "uint256"
        }
      ],
      "name": "getPastBalanceOf",
      "outputs": [
        {
          "internalType": "uint256",
          "name": "",
          "type": "uint256"
        }
      ],
      "stateMutability": "view",
      "type": "function"
    },
    {
      "inputs": [
        {
          "internalType": "address",
          "name": "account",
          "type": "address"
        },
        {
          "internalType": "uint256",
          "name": "timepoint",
          "type": "uint256"
        }
      ],
      "name": "getPastDelegates",
      "outputs": [
        {
          "internalType": "address",
          "name": "",
          "type": "address"
        }
      ],
      "stateMutability": "view",
      "type": "function"
    },
    {
      "inputs": [
        {
          "internalType": "uint256",
          "name": "timepoint",
          "type": "uint256"
        }
      ],
      "name": "getPastTotalSupply",
      "outputs": [
        {
          "internalType": "uint256",
          "name": "",
          "type": "uint256"
        }
      ],
      "stateMutability": "view",
      "type": "function"
    },
    {
      "inputs": [
        {
          "internalType": "address",
          "name": "account",
          "type": "address"
        },
        {
          "internalType": "uint256",
          "name": "timepoint",
          "type": "uint256"
        }
      ],
      "name": "getPastVotes",
      "outputs": [
        {
          "internalType": "uint256",
          "name": "",
          "type": "uint256"
        }
      ],
      "stateMutability": "view",
      "type": "function"
    },
    {
      "inputs": [
        {
          "internalType": "address",
          "name": "account",
          "type": "address"
        }
      ],
      "name": "getVotes",
      "outputs": [
        {
          "internalType": "uint256",
          "name": "",
          "type": "uint256"
        }
      ],
      "stateMutability": "view",
      "type": "function"
    },
    {
      "inputs": [],
      "name": "initialLock",
      "outputs": [
        {
          "internalType": "uint256",
          "name": "",
          "type": "uint256"
        }
      ],
      "stateMutability": "view",
      "type": "function"
    },
    {
      "inputs": [
        {
          "internalType": "string",
          "name": "_name",
          "type": "string"
        },
        {
          "internalType": "string",
          "name": "_symbol",
          "type": "string"
        },
        {
          "internalType": "address",
          "name": "_founder",
          "type": "address"
        },
        {
          "internalType": "address",
          "name": "_assetToken",
          "type": "address"
        },
        {
          "internalType": "uint256",
          "name": "_matureAt",
          "type": "uint256"
        },
        {
          "internalType": "address",
          "name": "_artistNft",
          "type": "address"
        },
        {
          "internalType": "bool",
          "name": "_canStake",
          "type": "bool"
        }
      ],
      "name": "initialize",
      "outputs": [],
      "stateMutability": "nonpayable",
      "type": "function"
    },
    {
      "inputs": [],
      "name": "matureAt",
      "outputs": [
        {
          "internalType": "uint256",
          "name": "",
          "type": "uint256"
        }
      ],
      "stateMutability": "view",
      "type": "function"
    },
    {
      "inputs": [],
      "name": "name",
      "outputs": [
        {
          "internalType": "string",
          "name": "",
          "type": "string"
        }
      ],
      "stateMutability": "view",
      "type": "function"
    },
    {
      "inputs": [
        {
          "internalType": "address",
          "name": "owner",
          "type": "address"
        }
      ],
      "name": "nonces",
      "outputs": [
        {
          "internalType": "uint256",
          "name": "",
          "type": "uint256"
        }
      ],
      "stateMutability": "view",
      "type": "function"
    },
    {
      "inputs": [
        {
          "internalType": "address",
          "name": "account",
          "type": "address"
        }
      ],
      "name": "numCheckpoints",
      "outputs": [
        {
          "internalType": "uint32",
          "name": "",
          "type": "uint32"
        }
      ],
      "stateMutability": "view",
      "type": "function"
    },
    {
      "inputs": [
        {
          "internalType": "bool",
          "name": "_canStake",
          "type": "bool"
        }
      ],
      "name": "setCanStake",
      "outputs": [],
      "stateMutability": "nonpayable",
      "type": "function"
    },
    {
      "inputs": [
        {
          "internalType": "uint256",
          "name": "_matureAt",
          "type": "uint256"
        }
      ],
      "name": "setMatureAt",
      "outputs": [],
      "stateMutability": "nonpayable",
      "type": "function"
    },
    {
      "inputs": [
        {
          "internalType": "uint256",
          "name": "amount",
          "type": "uint256"
        },
        {
          "internalType": "address",
          "name": "receiver",
          "type": "address"
        },
        {
          "internalType": "address",
          "name": "delegatee",
          "type": "address"
        }
      ],
      "name": "stake",
      "outputs": [],
      "stateMutability": "nonpayable",
      "type": "function"
    },
    {
      "inputs": [],
      "name": "symbol",
      "outputs": [
        {
          "internalType": "string",
          "name": "",
          "type": "string"
        }
      ],
      "stateMutability": "view",
      "type": "function"
    },
    {
      "inputs": [],
      "name": "totalSupply",
      "outputs": [
        {
          "internalType": "uint256",
          "name": "",
          "type": "uint256"
        }
      ],
      "stateMutability": "view",
      "type": "function"
    },
    {
      "inputs": [
        {
          "internalType": "address",
          "name": "",
          "type": "address"
        },
        {
          "internalType": "uint256",
          "name": "",
          "type": "uint256"
        }
      ],
      "name": "transfer",
      "outputs": [
        {
          "internalType": "bool",
          "name": "",
          "type": "bool"
        }
      ],
      "stateMutability": "nonpayable",
      "type": "function"
    },
    {
      "inputs": [
        {
          "internalType": "address",
          "name": "",
          "type": "address"
        },
        {
          "internalType": "address",
          "name": "",
          "type": "address"
        },
        {
          "internalType": "uint256",
          "name": "",
          "type": "uint256"
        }
      ],
      "name": "transferFrom",
      "outputs": [
        {
          "internalType": "bool",
          "name": "",
          "type": "bool"
        }
      ],
      "stateMutability": "nonpayable",
      "type": "function"
    },
    {
      "inputs": [
        {
          "internalType": "uint256",
          "name": "amount",
          "type": "uint256"
        }
      ],
      "name": "withdraw",
      "outputs": [],
      "stateMutability": "nonpayable",
      "type": "function"
    }
  ],
  "bytecode": "0x608080604052346100b9577ff0c57e16840df040f15088dc2f81fe391c3923bec73e23a9662efc9c229c6a009081549060ff8260401c166100aa57506001600160401b036002600160401b031982821601610065575b6040516132de9081620000bf8239f35b6001600160401b031990911681179091556040519081527fc7f505b2f371ae2175ee4913f4499e1f2633a7b5936321eed1cdaeb6115181d290602090a1388080610055565b63f92ee8a960e01b8152600490fd5b600080fdfe6080604052600436101561001257600080fd5b60003560e01c806306fdde0314610237578063095ea7b3146102325780631083f7611461022d57806318160ddd1461022857806323b872dd146102235780632e1a7d4d1461021e578063313ce567146102195780633a46b1a8146102145780634bf5d7e91461020f5780634d853ee51461020a578063587cde1e146102055780635c19a95c146102005780635ec80600146101fb5780636fcfff45146101f657806370a08231146101f15780637e893f80146101ec5780637ecebe00146101e7578063836f8f20146101e257806384b0196e146101dd5780638e539e8c146101d857806391ddadf4146101d357806395d89b41146101ce5780639ab24eb0146101c95780639ed27809146101c4578063a5e881b3146101bf578063a7d545db146101ba578063a9059cbb146101b5578063b2193b4d146101b0578063b5815f3a146101ab578063c3cda520146101a6578063d7b7d405146101a1578063dd62ed3e1461019c578063e8867180146101975763f1127ed81461019257600080fd5b6114e8565b611471565b611401565b61135c565b61128e565b611265565b6111db565b6110c9565b610db6565b610d98565b610d75565b610d47565b610c91565b610c65565b610b61565b610a90565b6109ec565b610993565b6108da565b61088c565b610832565b610707565b6106e5565b61069d565b610674565b6105e2565b610556565b61053a565b6104c2565b61049a565b61046f565b610446565b6103ef565b6102a0565b600091031261024757565b600080fd5b919082519283825260005b848110610278575050826000602080949584010152601f8019910116010190565b602081830181015184830182015201610257565b90602061029d92818152019061024c565b90565b34610247576000806003193601126103945760405190806000805160206131c9833981519152908154906102d3826115db565b80865292600192808416908115610367575060011461030d575b610309866102fd81880382611149565b6040519182918261028c565b0390f35b815292507f2ae08a8e29253f69ac5d979a101956ab8f8d9d7ded63fa7a83b16fc47648eab05b82841061034f5750505081016020016102fd82610309386102ed565b80546020858701810191909152909301928101610333565b9050869550610309969350602092506102fd94915060ff191682840152151560051b8201019293386102ed565b80fd5b600435906001600160a01b038216820361024757565b602435906001600160a01b038216820361024757565b604435906001600160a01b038216820361024757565b60a435906001600160a01b038216820361024757565b3461024757604036600319011261024757610408610397565b5060405162461bcd60e51b8152602060048201526015602482015274105c1c1c9bdd99481b9bdd081cdd5c1c1bdc9d1959605a1b6044820152606490fd5b34610247576000366003190112610247576002546040516001600160a01b039091168152602090f35b3461024757600036600319011261024757602060008051602061322983398151915254604051908152f35b34610247576060366003190112610247576104b3610397565b506104bc6103ad565b50612c40565b346102475760203660031901126102475760085460ff81166105045760ff19166001176008556104f3600435612a31565b61050260ff1960085416600855565b005b60405162461bcd60e51b815260206004820152600e60248201526d31b0b73737ba103932b2b73a32b960911b6044820152606490fd5b3461024757600036600319011261024757602060405160128152f35b346102475760403660031901126102475761056f610397565b60243561057b43611af9565b65ffffffffffff81168210156105bb57506105b261059a60209361157b565b6001600160d01b03926105ac90611af9565b90611b6b565b16604051908152f35b604051637669fc0f60e11b8152600481019290925265ffffffffffff166024820152604490fd5b34610247576000366003190112610247576105fc43611af9565b65ffffffffffff8061060d43611af9565b169116036106625761030960405161062481611111565b601d81527f6d6f64653d626c6f636b6e756d6265722666726f6d3d64656661756c74000000602082015260405191829160208352602083019061024c565b6040516301bfc1c560e61b8152600490fd5b34610247576000366003190112610247576001546040516001600160a01b039091168152602090f35b346102475760203660031901126102475760206001600160a01b03806106c1610397565b166000526000805160206131a9833981519152825260406000205416604051908152f35b3461024757602036600319011261024757610502610701610397565b33612f58565b3461024757604036600319011261024757610720610397565b6024359061072d43611af9565b9165ffffffffffff928381168210156105bb575060009160018060a01b031682528160205261075f6040832091611af9565b81549083918095600582116107d0575b50509361078091610309958461314f565b806107a25750505b6040516001600160a01b0390911681529081906020820190565b6107cb9250906107b46107ba92611b41565b90611e15565b505460301c6001600160a01b031690565b610788565b6107dc82939792611c65565b830392831161082d57806107f08487611e15565b505416908716101561081157506103099461078092905b919581935061076f565b9091506001820180921161082d57610309946107809290610807565b611b2b565b346102475760203660031901126102475761085361084e610397565b61157b565b5463ffffffff9081811161086d5760209160405191168152f35b604490604051906306dfcc6560e41b8252602060048301526024820152fd5b346102475760203660031901126102475760206108d26108aa610397565b6001600160a01b031660009081526000805160206131e9833981519152602052604090205490565b604051908152f35b3461024757602036600319011261024757600354604051632474521560e21b81527fa49807205ce4d355092ef5a8a18f56e8913cf4a201fbe287825b095693c21775600482015233602482015290602090829060449082906001600160a01b03165afa801561098e5761095591600091610960575b506129bc565b610502600435600455565b610981915060203d8111610987575b6109798183611149565b810190612529565b3861094f565b503d61096f565b6119bc565b34610247576020366003190112610247576001600160a01b036109b4610397565b166000527f5ab42ced628888259c08ac98db1eb0cf702fc1501344311d8b100cd1bfe4bb006020526020604060002054604051908152f35b34610247576000366003190112610247576020600654604051908152f35b91610a3d90949194600f60f81b8452610a2f60209660e08887015260e086019061024c565b90848203604086015261024c565b92606083015260018060a01b03166080820152600060a082015260c081830391015281808451928381520193019160005b828110610a7c575050505090565b835185529381019392810192600101610a6e565b34610247576000366003190112610247577fa16a46d94261c7517cc8ff89f61c0ce93598e3c849801011dee649a6a557d100541580610b38575b15610afb57610ad7611615565b610adf6116f3565b90610309610aeb6118cc565b6040519384933091469186610a0a565b60405162461bcd60e51b81526020600482015260156024820152741152540dcc4c8e88155b9a5b9a5d1a585b1a5e9959605a1b6044820152606490fd5b507fa16a46d94261c7517cc8ff89f61c0ce93598e3c849801011dee649a6a557d1015415610aca565b3461024757602036600319011261024757600435610b7e43611af9565b9065ffffffffffff918281168210156105bb5750610b9b90611af9565b90600080516020613249833981519152918254906000908260058111610c10575b50610bc79350611e43565b9060009082610bea57505050602060005b6040516001600160d01b039091168152f35b610bf5602093611b41565b9152600080516020613289833981519152015460301c610bd8565b9092610c1b82611c65565b820391821161082d57610bc794868452808360008051602061328983398151915201541690851610600014610c535750915b38610bbc565b929150610c5f90611b5d565b90610c4d565b34610247576000366003190112610247576020610c8143611af9565b65ffffffffffff60405191168152f35b346102475760008060031936011261039457604051908060008051602061320983398151915290815490610cc4826115db565b808652926001928084169081156103675750600114610ced57610309866102fd81880382611149565b815292507f46a2803e59a4de4e7a4c574b1243f25977ac4c77d5a1a4a609b5394cebb4a2aa5b828410610d2f5750505081016020016102fd82610309386102ed565b80546020858701810191909152909301928101610d13565b346102475760203660031901126102475760206001600160d01b036105b2610d7061084e610397565b611de7565b3461024757600036600319011261024757602060ff600554166040519015158152f35b34610247576000366003190112610247576020600454604051908152f35b34610247576060366003190112610247576004803590610dd46103ad565b90610ddd6103c3565b60055460ff1680156110b2575b610df3906123e0565b610dfe84151561243b565b600254610e2190610e15906001600160a01b031681565b6001600160a01b031690565b6040516370a0823160e01b815233848201908152602092919083908290819083010381855afa90811561098e57610e64918891600091611095575b501015612487565b60408051636eb1769f60e11b815233868201908152306020820152909284928492839182910103915afa90811561098e57610eab918791600091611078575b5010156124d2565b600354610ec290610e15906001600160a01b031681565b60405163c5891e8160e01b8152308186019081529194909290918190849081906020010381885afa92831561098e57600093611049575b50604051634752f9ef60e01b81528281018481528290829081906020010381895afa90811561098e57610f369260009261102c575b50501561253e565b600080516020613229833981519152541561101e575b833b156102475760408051634b56175360e01b81529182019283526001600160a01b0384166020840152909360009285928391859183910103925af1801561098e5761050294610fcb93610fc592611005575b50610fbf813033610fba610e1560025460018060a01b031690565b612655565b8461257f565b82612f58565b6001600160a01b038116600090815260076020526040902090610fff610ff9610ff343611af9565b926115b4565b546126f3565b91612900565b80611012611018926110f8565b8061023c565b38610f9f565b61102786600655565b610f4c565b6110429250803d10610987576109798183611149565b3880610f2e565b8161106a9294503d8511611071575b6110628183611149565b810190612478565b9138610ef9565b503d611058565b61108f9150843d8611611071576110628183611149565b38610ea3565b6110ac9150853d8711611071576110628183611149565b38610e5c565b506000805160206132298339815191525415610dea565b34610247576040366003190112610247576104bc610397565b634e487b7160e01b600052604160045260246000fd5b67ffffffffffffffff811161110c57604052565b6110e2565b6040810190811067ffffffffffffffff82111761110c57604052565b60a0810190811067ffffffffffffffff82111761110c57604052565b90601f8019910116810190811067ffffffffffffffff82111761110c57604052565b6040519061117882611111565b565b81601f820112156102475780359067ffffffffffffffff821161110c57604051926111af601f8401601f191660200185611149565b8284526020838301011161024757816000926020809301838601378301015290565b8015150361024757565b346102475760e03660031901126102475767ffffffffffffffff6004358181116102475761120d90369060040161117a565b906024359081116102475761122690369060040161117a565b61122e6103c3565b606435926001600160a01b0384168403610247576105029361124e6103d9565b9260c4359461125c866111d1565b60843593611ec5565b34610247576000366003190112610247576003546040516001600160a01b039091168152602090f35b346102475760c0366003190112610247576112a7610397565b6044359060243560643560ff8116810361024757834211611343576113376105029461133e926040519060208201927fe48329057bfd03d55e49b547132e39cffd9c1820ad7b9d4c5307691425d15adf845260018060a01b038816604084015286606084015260808301526080825261131f8261112d565b61133260a435936084359351902061183c565b6119a4565b91826117c5565b612f58565b604051632341d78760e11b815260048101859052602490fd5b3461024757604036600319011261024757611375610397565b60243561138143611af9565b9165ffffffffffff83168210156113d6576001600160a01b0316600090815260076020526040902061030992506001600160d01b03916113c591906105ac90611af9565b604051911681529081906020820190565b50604051637669fc0f60e11b8152600481019190915265ffffffffffff919091166024820152604490fd5b346102475760403660031901126102475761141a610397565b6114226103ad565b9060018060a01b038091166000527f52c63247e1f47db19d5ce0460030c497f067ca4cebf71ba98eeadabe20bace01602052604060002091166000526020526020604060002054604051908152f35b346102475760203660031901126102475760043561148e816111d1565b6001546001600160a01b031633036114b55760ff8019600554169115151617600555600080f35b60405162461bcd60e51b815260206004820152600b60248201526a2737ba103337bab73232b960a91b6044820152606490fd5b3461024757604036600319011261024757611501610397565b6024359063ffffffff8216820361024757604091611533611541926115246117ac565b5061152d6117ac565b5061157b565b61153b6117ac565b50611e15565b5081519061154e82611111565b54602065ffffffffffff821692838152019060301c8152825191825260018060d01b039051166020820152f35b6001600160a01b031660009081527fe8b26c30fad74198956032a3533d903385d56dd795af560196f9c78d4af40d016020526040902090565b6001600160a01b031660009081526000805160206131e98339815191526020526040902090565b90600182811c9216801561160b575b60208310146115f557565b634e487b7160e01b600052602260045260246000fd5b91607f16916115ea565b604051906000827fa16a46d94261c7517cc8ff89f61c0ce93598e3c849801011dee649a6a557d102918254611649816115db565b808452936001918083169081156116cf5750600114611671575b505061117892500383611149565b600090815291507f42ad5d3e1f2e6e70edcf6d991b8a3023d3fca8047a131592f9edb9fd9b89d57d5b8483106116b4575061117893505081016020013880611663565b81935090816020925483858a0101520191019091859261169a565b9150506020925061117894915060ff191682840152151560051b8201013880611663565b604051906000827fa16a46d94261c7517cc8ff89f61c0ce93598e3c849801011dee649a6a557d103918254611727816115db565b808452936001918083169081156116cf575060011461174e57505061117892500383611149565b600090815291507f5f9ce34815f8e11431c7bb75a8e6886a91478f7ffc1dbb0a98dc240fddd76b755b848310611791575061117893505081016020013880611663565b81935090816020925483858a01015201910190918592611777565b604051906117b982611111565b60006020838281520152565b6001600160a01b03811660009081527f5ab42ced628888259c08ac98db1eb0cf702fc1501344311d8b100cd1bfe4bb006020526040902080546001810190915591829003611811575050565b6040516301d4b62360e61b81526001600160a01b039190911660048201526024810191909152604490fd5b6118446118f5565b61184c61195f565b916040519260208401927f8b73c3c69bb8fe3d512ecc4cf759cc79239f7b179b0ffacaa9a75d522b39400f8452604085015260608401524660808401523060a084015260a0835260c083019183831067ffffffffffffffff84111761110c5760429360e291846040528151902061190160f01b855260c282015201522090565b6040516020810181811067ffffffffffffffff82111761110c5760405260008152906000368137565b6118fd611615565b805190811561190d576020012090565b50507fa16a46d94261c7517cc8ff89f61c0ce93598e3c849801011dee649a6a557d10054801561193a5790565b507fc5d2460186f7233c927e7db2dcc703c0e500b653ca82273b7bfad8045d85a47090565b6119676116f3565b8051908115611977576020012090565b50507fa16a46d94261c7517cc8ff89f61c0ce93598e3c849801011dee649a6a557d10154801561193a5790565b9161029d93916119b3936119c8565b90929192611a6c565b6040513d6000823e3d90fd5b91907f7fffffffffffffffffffffffffffffff5d576e7357a4501ddfe92f46681b20a08411611a4057926020929160ff608095604051948552168484015260408301526060820152600092839182805260015afa1561098e5780516001600160a01b03811615611a3757918190565b50809160019190565b50505060009160039190565b60041115611a5657565b634e487b7160e01b600052602160045260246000fd5b611a7581611a4c565b80611a7e575050565b611a8781611a4c565b60018103611aa15760405163f645eedf60e01b8152600490fd5b611aaa81611a4c565b60028103611acb5760405163fce698f760e01b815260048101839052602490fd5b80611ad7600392611a4c565b14611adf5750565b6040516335e2f38360e21b81526004810191909152602490fd5b65ffffffffffff90818111611b0c571690565b604490604051906306dfcc6560e41b8252603060048301526024820152fd5b634e487b7160e01b600052601160045260246000fd5b60001981019190821161082d57565b9190820391821161082d57565b906001820180921161082d57565b9081549060008260058111611bfa575b50905b828210611bb157505060008115600014611b9a57505050600090565b611ba5602092611b41565b92815220015460301c90565b9091611bbd8184611eb0565b908460005265ffffffffffff8083602060002001541690841610600014611be75750915b90611b7e565b92506001810180911115611be157611b2b565b9092611c0582611c65565b820391821161082d5784845265ffffffffffff80836020872001541690841610600014611c355750915b38611b7b565b9250611c4090611b5d565b611c2f565b8115611c4f570490565b634e487b7160e01b600052601260045260246000fd5b600181111561029d57600181600160801b811015611d7e575b611d26611d1c611d12611d08611cfe611cf4611d3297600488600160401b611d2d9a1015611d71575b640100000000811015611d64575b62010000811015611d57575b610100811015611d4b575b6010811015611d3f575b1015611d37575b60030260011c611ced818b611c45565b0160011c90565b611ced818a611c45565b611ced8189611c45565b611ced8188611c45565b611ced8187611c45565b611ced8186611c45565b8093611c45565b821190565b900390565b60011b611cdd565b811c9160021b91611cd6565b60081c91811b91611ccc565b60101c9160081b91611cc1565b60201c9160101b91611cb5565b60401c9160201b91611ca7565b50600160401b9050608082901c611c7e565b600080516020613249833981519152805460009181611db157505050600090565b8160001981011161082d577f88c46c62109817164d0ae1873830d4299a82e5daf552a3d8e989b27638fcf7479252015460301c90565b805460009181611df957505050600090565b60001992828481011161082d5760209181522001015460301c90565b8054821015611e2d5760005260206000200190600090565b634e487b7160e01b600052603260045260246000fd5b828210611e4f57505090565b9091611e5b8184611eb0565b9060008051602061324983398151915260005265ffffffffffff808360008051602061328983398151915201541690841610600014611e9d5750915b90611e43565b92506001810180911115611e9757611b2b565b90808216911860011c810180911161082d5790565b959391949290946000805160206132698339815191529586549760ff8960401c16159867ffffffffffffffff811680159081611fcb575b6001149081611fc1575b159081611fb8575b50611fa65767ffffffffffffffff1916600117909755611f329688611f8157611fd3565b611f3857565b600080516020613269833981519152805460ff60401b19169055604051600181527fc7f505b2f371ae2175ee4913f4499e1f2633a7b5936321eed1cdaeb6115181d290602090a1565b600080516020613269833981519152805460ff60401b1916600160401b179055611fd3565b60405163f92ee8a960e01b8152600490fd5b90501538611f0e565b303b159150611f06565b8b9150611efc565b969594939190611fe1612199565b611fe9612199565b875167ffffffffffffffff811161110c576000805160206131c98339815191529861201d826120188c546115db565b6121de565b60209081601f84116001146120ec57509361206b612095946111789b9c856120b29996612090966120cf9d9c9a6000926120e1575b50508160011b916000199060031b1c19161790556122da565b612073612199565b60018060a01b03166001600160601b0360a01b6001541617600155565b600455565b60018060a01b03166001600160601b0360a01b6002541617600255565b60018060a01b03166001600160601b0360a01b6003541617600355565b60ff8019600554169115151617600555565b015190503880612052565b6000805160206131c98339815191526000529190601f1984167f2ae08a8e29253f69ac5d979a101956ab8f8d9d7ded63fa7a83b16fc47648eab0936000905b828210612181575050946111789b9c600186612090966120cf9d9c9a9661206b966120b29d9a6120959c10612168575b505050811b0190556122da565b015160001960f88460031b161c1916905538808061215b565b8060018697829497870151815501960194019061212b565b60ff6000805160206132698339815191525460401c16156121b657565b604051631afcd79f60e31b8152600490fd5b634e487b7160e01b600052600060045260246000fd5b601f81116121ea575050565b6000906000805160206131c983398151915282527f2ae08a8e29253f69ac5d979a101956ab8f8d9d7ded63fa7a83b16fc47648eab0906020601f850160051c83019410612252575b601f0160051c01915b82811061224757505050565b81815560010161223b565b9092508290612232565b601f8111612268575050565b60009060008051602061320983398151915282527f46a2803e59a4de4e7a4c574b1243f25977ac4c77d5a1a4a609b5394cebb4a2aa906020601f850160051c830194106122d0575b601f0160051c01915b8281106122c557505050565b8181556001016122b9565b90925082906122b0565b90815167ffffffffffffffff811161110c576000805160206132098339815191529061230f8161230a84546115db565b61225c565b602080601f831160011461234b575081929394600092612340575b50508160011b916000199060031b1c1916179055565b01519050388061232a565b90601f1983169561238b6000805160206132098339815191526000527f46a2803e59a4de4e7a4c574b1243f25977ac4c77d5a1a4a609b5394cebb4a2aa90565b926000905b8882106123c8575050836001959697106123af575b505050811b019055565b015160001960f88460031b161c191690553880806123a5565b80600185968294968601518155019501930190612390565b156123e757565b60405162461bcd60e51b815260206004820152602660248201527f5374616b696e672069732064697361626c656420666f72207072697661746520604482015265185c9d1a5cdd60d21b6064820152608490fd5b1561244257565b60405162461bcd60e51b815260206004820152600e60248201526d043616e6e6f74207374616b6520360941b6044820152606490fd5b90816020910312610247575190565b1561248e57565b606460405162461bcd60e51b815260206004820152602060248201527f496e73756666696369656e7420617373657420746f6b656e2062616c616e63656044820152fd5b156124d957565b60405162461bcd60e51b815260206004820152602260248201527f496e73756666696369656e7420617373657420746f6b656e20616c6c6f77616e604482015261636560f01b6064820152608490fd5b90816020910312610247575161029d816111d1565b1561254557565b60405162461bcd60e51b8152602060048201526012602482015271105c9d1a5cdd08109b1858dadb1a5cdd195960721b6044820152606490fd5b91906001600160a01b038316801561263c5760008051602061322983398151915290815483810180911161082d57600080516020613229833981519152556125c6856115b4565b8054840190556040518381526000907fddf252ad1be2c89b69c2b068fc378daa952ba7f163c4a11628f55a4df523b3ef90602090a354926001600160d01b03841161261657611178929350612c7e565b604051630e58ae9360e11b8152600481018590526001600160d01b036024820152604490fd5b60405163ec442f0560e01b815260006004820152602490fd5b6040516323b872dd60e01b60208201526001600160a01b039283166024820152929091166044830152606480830193909352918152611178916126978261112d565b906000602091828151910182855af1156119bc576000513d6126ea57506001600160a01b0381163b155b6126c85750565b604051635274afe760e01b81526001600160a01b039091166004820152602490fd5b600114156126c1565b6001600160d01b0390818111612707571690565b604490604051906306dfcc6560e41b825260d060048301526024820152fd5b600080516020613249833981519152908154600160401b81101561110c5760018101808455811015611e2d5761117892600052600080516020613289833981519152019061279165ffffffffffff825116839065ffffffffffff1665ffffffffffff19825416179055565b60200151815465ffffffffffff1660309190911b65ffffffffffff1916179055565b8054600160401b81101561110c576127d091600182018155611e15565b6127f8578151815465ffffffffffff191665ffffffffffff9190911617815561117891612791565b6121c8565b6000805160206132498339815191525491929180156128d65761282261284791611b41565b6000805160206132498339815191526000526000805160206132898339815191520190565b9081549165ffffffffffff908184169183168083116128c45786920361288c5761288592509065ffffffffffff82549181199060301b169116179055565b60301c9190565b50506128bf906128ab61289d61116b565b65ffffffffffff9092168252565b6001600160d01b0385166020820152612726565b612885565b604051632520601d60e01b8152600490fd5b506128fa906128e661289d61116b565b6001600160d01b0384166020820152612726565b60009190565b805492939280156129975761291761292491611b41565b8260005260206000200190565b9182549265ffffffffffff918285169281168084116128c457879303612963575061288592509065ffffffffffff82549181199060301b169116179055565b9150506128bf9161298361297561116b565b65ffffffffffff9093168352565b6001600160d01b03861660208301526127b3565b50906128fa916129a861297561116b565b6001600160d01b03851660208301526127b3565b156129c357565b60405162461bcd60e51b81526020600482015260096024820152682737ba1030b236b4b760b91b6044820152606490fd5b156129fb57565b60405162461bcd60e51b815260206004820152600e60248201526d139bdd081b585d1d5c99481e595d60921b6044820152606490fd5b336000526000805160206131e98339815191526020528060406000205410612afa576001546111789190612a6d906001600160a01b0316610e15565b331480612add575b612aca575b612a848133612b36565b336000908152600760205260409020612aac90612aa043611af9565b610fff610ff9336115b4565b50506002543390612ac5906001600160a01b0316610e15565b612c04565b612ad86004544210156129f4565b612a7a565b50612af181612aeb336115b4565b54611b50565b60065411612a75565b60405162461bcd60e51b8152602060048201526014602482015273496e73756666696369656e742062616c616e636560601b6044820152606490fd5b6001600160a01b0381169291908315612beb57612b52816115b4565b5493828510612bc75760009083611178959603612b6e846115b4565b55612b9684600080516020613229833981519152540360008051602061322983398151915255565b6040518481527fddf252ad1be2c89b69c2b068fc378daa952ba7f163c4a11628f55a4df523b3ef90602090a3612d09565b60649083866040519263391434e360e21b8452600484015260248301526044820152fd5b604051634b637e8f60e11b815260006004820152602490fd5b60405163a9059cbb60e01b60208201526001600160a01b0392909216602483015260448083019390935291815261117891612697606483611149565b60405162461bcd60e51b8152602060048201526016602482015275151c985b9cd9995c881b9bdd081cdd5c1c1bdc9d195960521b6044820152606490fd5b9061117891612c94612c8f836126f3565b612ebf565b50506001600160a01b03908116908115612cf1575b6000805160206131a98339815191526020527fd4fb29e10204005f1a39963c6862b79a755e22f0177c53f05cdc3786c702f97454600092835260409092205481169116612d8b565b612d02612cfd846126f3565b612ef4565b5050612ca9565b61117891906001600160a01b039081168015612d78575b612d2c612cfd846126f3565b505060009081526000805160206131a983398151915260205260408120549080527fd4fb29e10204005f1a39963c6862b79a755e22f0177c53f05cdc3786c702f9745482169116612d8b565b612d84612c8f846126f3565b5050612d20565b6001600160a01b03808316939291908116908185141580612eb6575b612db3575b5050505050565b81612e28575b505082612dc8575b8080612dac565b7fdec2bacdd2f05b59de34da9b523dff8be42e5e38e818c82fdb0bae774387a72491612dff612df9612e059361157b565b916126f3565b90612f26565b604080516001600160d01b039384168152919092166020820152a2388080612dc1565b612e319061157b565b612e3a846126f3565b612e4343611af9565b6001600160d01b03918280612e5786611de7565b16911690039282841161082d577fdec2bacdd2f05b59de34da9b523dff8be42e5e38e818c82fdb0bae774387a72493612eac92612e9392612900565b6040805192851683529316602082015291829190820190565b0390a23880612db9565b50831515612da7565b612ec843611af9565b906001600160d01b03908180612edc611d90565b1691160190811161082d57612ef0916127fd565b9091565b612efd43611af9565b906001600160d01b03908180612f11611d90565b169116900390811161082d57612ef0916127fd565b90612f3043611af9565b6001600160d01b03918280612f4486611de7565b1691160191821161082d57612ef092612900565b60409060018060a01b03612ff68183169185612ff06000958587526000805160206131a983398151915260205287872080549085821695851680926001600160601b0360a01b1617905584877f3134e8a2e6d97e929a7e54011ea5485d7d196dd5f0ba4d4ef95803e8e3fc257f8a80a46001600160a01b031660009081526000805160206131e9833981519152602052604090205490565b91612d8b565b815280602052209061300743611af9565b8254929083156130905761302c61302661302086611b41565b84611e15565b50613122565b805165ffffffffffff83811692911682106128c4575165ffffffffffff16036130905750613060906107b461117894611b41565b5080546601000000000000600160d01b03191660309290921b6601000000000000600160d01b0316919091179055565b9161117893506130c3906130b36130a561116b565b65ffffffffffff9095168552565b6001600160a01b03166020840152565b8054600160401b81101561110c576130e091600182018155611e15565b6127f857815181546020909301516601000000000000600160d01b0360309190911b166001600160d01b031990931665ffffffffffff90911617919091179055565b9060405161312f81611111565b915465ffffffffffff8116835260301c6001600160a01b03166020830152565b905b83831061315e5750505090565b90919261316b8185611eb0565b906131768285611e15565b505465ffffffffffff90811690841610156131955750925b9190613151565b9350600181018091111561318e57611b2b56fee8b26c30fad74198956032a3533d903385d56dd795af560196f9c78d4af40d0052c63247e1f47db19d5ce0460030c497f067ca4cebf71ba98eeadabe20bace0352c63247e1f47db19d5ce0460030c497f067ca4cebf71ba98eeadabe20bace0052c63247e1f47db19d5ce0460030c497f067ca4cebf71ba98eeadabe20bace0452c63247e1f47db19d5ce0460030c497f067ca4cebf71ba98eeadabe20bace02e8b26c30fad74198956032a3533d903385d56dd795af560196f9c78d4af40d02f0c57e16840df040f15088dc2f81fe391c3923bec73e23a9662efc9c229c6a0088c46c62109817164d0ae1873830d4299a82e5daf552a3d8e989b27638fcf748a26469706673582212206fdb2f5c89d5fd9082d38513e661ffeca22574a42dcff15d6b706ebf65d6228b64736f6c63430008140033",
  "linkReferences": {},
  "deployedLinkReferences": {}
}