{
  "_format": "hh-sol-artifact-1",
  "contractName": "ArtistDAO",
  "sourceName": "src/contracts/limelightPersona/ArtistDAO.sol",
  "abi": [
    {
      "inputs": [],
      "stateMutability": "nonpayable",
      "type": "constructor"
    },
    {
      "inputs": [],
      "name": "CheckpointUnorderedInsertion",
      "type": "error"
    },
    {
      "inputs": [
        {
          "internalType": "uint256",
          "name": "timepoint",
          "type": "uint256"
        },
        {
          "internalType": "uint48",
          "name": "clock",
          "type": "uint48"
        }
      ],
      "name": "ERC5805FutureLookup",
      "type": "error"
    },
    {
      "inputs": [],
      "name": "FailedCall",
      "type": "error"
    },
    {
      "inputs": [
        {
          "internalType": "address",
          "name": "voter",
          "type": "address"
        }
      ],
      "name": "GovernorAlreadyCastVote",
      "type": "error"
    },
    {
      "inputs": [
        {
          "internalType": "uint256",
          "name": "proposalId",
          "type": "uint256"
        }
      ],
      "name": "GovernorAlreadyQueuedProposal",
      "type": "error"
    },
    {
      "inputs": [],
      "name": "GovernorDisabledDeposit",
      "type": "error"
    },
    {
      "inputs": [
        {
          "internalType": "address",
          "name": "proposer",
          "type": "address"
        },
        {
          "internalType": "uint256",
          "name": "votes",
          "type": "uint256"
        },
        {
          "internalType": "uint256",
          "name": "threshold",
          "type": "uint256"
        }
      ],
      "name": "GovernorInsufficientProposerVotes",
      "type": "error"
    },
    {
      "inputs": [
        {
          "internalType": "uint256",
          "name": "targets",
          "type": "uint256"
        },
        {
          "internalType": "uint256",
          "name": "calldatas",
          "type": "uint256"
        },
        {
          "internalType": "uint256",
          "name": "values",
          "type": "uint256"
        }
      ],
      "name": "GovernorInvalidProposalLength",
      "type": "error"
    },
    {
      "inputs": [
        {
          "internalType": "uint256",
          "name": "quorumNumerator",
          "type": "uint256"
        },
        {
          "internalType": "uint256",
          "name": "quorumDenominator",
          "type": "uint256"
        }
      ],
      "name": "GovernorInvalidQuorumFraction",
      "type": "error"
    },
    {
      "inputs": [
        {
          "internalType": "address",
          "name": "voter",
          "type": "address"
        }
      ],
      "name": "GovernorInvalidSignature",
      "type": "error"
    },
    {
      "inputs": [],
      "name": "GovernorInvalidVoteParams",
      "type": "error"
    },
    {
      "inputs": [],
      "name": "GovernorInvalidVoteType",
      "type": "error"
    },
    {
      "inputs": [
        {
          "internalType": "uint256",
          "name": "votingPeriod",
          "type": "uint256"
        }
      ],
      "name": "GovernorInvalidVotingPeriod",
      "type": "error"
    },
    {
      "inputs": [
        {
          "internalType": "uint256",
          "name": "proposalId",
          "type": "uint256"
        }
      ],
      "name": "GovernorNonexistentProposal",
      "type": "error"
    },
    {
      "inputs": [
        {
          "internalType": "uint256",
          "name": "proposalId",
          "type": "uint256"
        }
      ],
      "name": "GovernorNotQueuedProposal",
      "type": "error"
    },
    {
      "inputs": [
        {
          "internalType": "address",
          "name": "account",
          "type": "address"
        }
      ],
      "name": "GovernorOnlyExecutor",
      "type": "error"
    },
    {
      "inputs": [
        {
          "internalType": "address",
          "name": "account",
          "type": "address"
        }
      ],
      "name": "GovernorOnlyProposer",
      "type": "error"
    },
    {
      "inputs": [],
      "name": "GovernorQueueNotImplemented",
      "type": "error"
    },
    {
      "inputs": [
        {
          "internalType": "address",
          "name": "proposer",
          "type": "address"
        }
      ],
      "name": "GovernorRestrictedProposer",
      "type": "error"
    },
    {
      "inputs": [
        {
          "internalType": "uint256",
          "name": "proposalId",
          "type": "uint256"
        },
        {
          "internalType": "enum IGovernor.ProposalState",
          "name": "current",
          "type": "uint8"
        },
        {
          "internalType": "bytes32",
          "name": "expectedStates",
          "type": "bytes32"
        }
      ],
      "name": "GovernorUnexpectedProposalState",
      "type": "error"
    },
    {
      "inputs": [
        {
          "internalType": "address",
          "name": "account",
          "type": "address"
        },
        {
          "internalType": "uint256",
          "name": "currentNonce",
          "type": "uint256"
        }
      ],
      "name": "InvalidAccountNonce",
      "type": "error"
    },
    {
      "inputs": [],
      "name": "InvalidInitialization",
      "type": "error"
    },
    {
      "inputs": [],
      "name": "NotInitializing",
      "type": "error"
    },
    {
      "inputs": [
        {
          "internalType": "uint8",
          "name": "bits",
          "type": "uint8"
        },
        {
          "internalType": "uint256",
          "name": "value",
          "type": "uint256"
        }
      ],
      "name": "SafeCastOverflowedUintDowncast",
      "type": "error"
    },
    {
      "anonymous": false,
      "inputs": [],
      "name": "EIP712DomainChanged",
      "type": "event"
    },
    {
      "anonymous": false,
      "inputs": [
        {
          "indexed": false,
          "internalType": "uint64",
          "name": "version",
          "type": "uint64"
        }
      ],
      "name": "Initialized",
      "type": "event"
    },
    {
      "anonymous": false,
      "inputs": [
        {
          "indexed": false,
          "internalType": "uint256",
          "name": "proposalId",
          "type": "uint256"
        }
      ],
      "name": "ProposalCanceled",
      "type": "event"
    },
    {
      "anonymous": false,
      "inputs": [
        {
          "indexed": false,
          "internalType": "uint256",
          "name": "proposalId",
          "type": "uint256"
        },
        {
          "indexed": false,
          "internalType": "address",
          "name": "proposer",
          "type": "address"
        },
        {
          "indexed": false,
          "internalType": "address[]",
          "name": "targets",
          "type": "address[]"
        },
        {
          "indexed": false,
          "internalType": "uint256[]",
          "name": "values",
          "type": "uint256[]"
        },
        {
          "indexed": false,
          "internalType": "string[]",
          "name": "signatures",
          "type": "string[]"
        },
        {
          "indexed": false,
          "internalType": "bytes[]",
          "name": "calldatas",
          "type": "bytes[]"
        },
        {
          "indexed": false,
          "internalType": "uint256",
          "name": "voteStart",
          "type": "uint256"
        },
        {
          "indexed": false,
          "internalType": "uint256",
          "name": "voteEnd",
          "type": "uint256"
        },
        {
          "indexed": false,
          "internalType": "string",
          "name": "description",
          "type": "string"
        }
      ],
      "name": "ProposalCreated",
      "type": "event"
    },
    {
      "anonymous": false,
      "inputs": [
        {
          "indexed": false,
          "internalType": "uint256",
          "name": "proposalId",
          "type": "uint256"
        }
      ],
      "name": "ProposalExecuted",
      "type": "event"
    },
    {
      "anonymous": false,
      "inputs": [
        {
          "indexed": false,
          "internalType": "uint256",
          "name": "proposalId",
          "type": "uint256"
        },
        {
          "indexed": false,
          "internalType": "uint256",
          "name": "etaSeconds",
          "type": "uint256"
        }
      ],
      "name": "ProposalQueued",
      "type": "event"
    },
    {
      "anonymous": false,
      "inputs": [
        {
          "indexed": false,
          "internalType": "uint256",
          "name": "oldProposalThreshold",
          "type": "uint256"
        },
        {
          "indexed": false,
          "internalType": "uint256",
          "name": "newProposalThreshold",
          "type": "uint256"
        }
      ],
      "name": "ProposalThresholdSet",
      "type": "event"
    },
    {
      "anonymous": false,
      "inputs": [
        {
          "indexed": false,
          "internalType": "uint256",
          "name": "oldQuorumNumerator",
          "type": "uint256"
        },
        {
          "indexed": false,
          "internalType": "uint256",
          "name": "newQuorumNumerator",
          "type": "uint256"
        }
      ],
      "name": "QuorumNumeratorUpdated",
      "type": "event"
    },
    {
      "anonymous": false,
      "inputs": [
        {
          "indexed": false,
          "internalType": "uint256",
          "name": "proposalId",
          "type": "uint256"
        },
        {
          "indexed": false,
          "internalType": "address",
          "name": "voter",
          "type": "address"
        },
        {
          "indexed": false,
          "internalType": "uint256",
          "name": "score",
          "type": "uint256"
        },
        {
          "indexed": false,
          "internalType": "uint8[]",
          "name": "votes",
          "type": "uint8[]"
        }
      ],
      "name": "ValidatorEloRating",
      "type": "event"
    },
    {
      "anonymous": false,
      "inputs": [
        {
          "indexed": true,
          "internalType": "address",
          "name": "voter",
          "type": "address"
        },
        {
          "indexed": false,
          "internalType": "uint256",
          "name": "proposalId",
          "type": "uint256"
        },
        {
          "indexed": false,
          "internalType": "uint8",
          "name": "support",
          "type": "uint8"
        },
        {
          "indexed": false,
          "internalType": "uint256",
          "name": "weight",
          "type": "uint256"
        },
        {
          "indexed": false,
          "internalType": "string",
          "name": "reason",
          "type": "string"
        }
      ],
      "name": "VoteCast",
      "type": "event"
    },
    {
      "anonymous": false,
      "inputs": [
        {
          "indexed": true,
          "internalType": "address",
          "name": "voter",
          "type": "address"
        },
        {
          "indexed": false,
          "internalType": "uint256",
          "name": "proposalId",
          "type": "uint256"
        },
        {
          "indexed": false,
          "internalType": "uint8",
          "name": "support",
          "type": "uint8"
        },
        {
          "indexed": false,
          "internalType": "uint256",
          "name": "weight",
          "type": "uint256"
        },
        {
          "indexed": false,
          "internalType": "string",
          "name": "reason",
          "type": "string"
        },
        {
          "indexed": false,
          "internalType": "bytes",
          "name": "params",
          "type": "bytes"
        }
      ],
      "name": "VoteCastWithParams",
      "type": "event"
    },
    {
      "anonymous": false,
      "inputs": [
        {
          "indexed": false,
          "internalType": "uint256",
          "name": "oldVotingDelay",
          "type": "uint256"
        },
        {
          "indexed": false,
          "internalType": "uint256",
          "name": "newVotingDelay",
          "type": "uint256"
        }
      ],
      "name": "VotingDelaySet",
      "type": "event"
    },
    {
      "anonymous": false,
      "inputs": [
        {
          "indexed": false,
          "internalType": "uint256",
          "name": "oldVotingPeriod",
          "type": "uint256"
        },
        {
          "indexed": false,
          "internalType": "uint256",
          "name": "newVotingPeriod",
          "type": "uint256"
        }
      ],
      "name": "VotingPeriodSet",
      "type": "event"
    },
    {
      "inputs": [],
      "name": "BALLOT_TYPEHASH",
      "outputs": [
        {
          "internalType": "bytes32",
          "name": "",
          "type": "bytes32"
        }
      ],
      "stateMutability": "view",
      "type": "function"
    },
    {
      "inputs": [],
      "name": "CLOCK_MODE",
      "outputs": [
        {
          "internalType": "string",
          "name": "",
          "type": "string"
        }
      ],
      "stateMutability": "view",
      "type": "function"
    },
    {
      "inputs": [],
      "name": "COUNTING_MODE",
      "outputs": [
        {
          "internalType": "string",
          "name": "",
          "type": "string"
        }
      ],
      "stateMutability": "pure",
      "type": "function"
    },
    {
      "inputs": [],
      "name": "EXTENDED_BALLOT_TYPEHASH",
      "outputs": [
        {
          "internalType": "bytes32",
          "name": "",
          "type": "bytes32"
        }
      ],
      "stateMutability": "view",
      "type": "function"
    },
    {
      "inputs": [
        {
          "internalType": "uint256",
          "name": "proposalId",
          "type": "uint256"
        }
      ],
      "name": "cancel",
      "outputs": [],
      "stateMutability": "nonpayable",
      "type": "function"
    },
    {
      "inputs": [
        {
          "internalType": "address[]",
          "name": "targets",
          "type": "address[]"
        },
        {
          "internalType": "uint256[]",
          "name": "values",
          "type": "uint256[]"
        },
        {
          "internalType": "bytes[]",
          "name": "calldatas",
          "type": "bytes[]"
        },
        {
          "internalType": "bytes32",
          "name": "descriptionHash",
          "type": "bytes32"
        }
      ],
      "name": "cancel",
      "outputs": [
        {
          "internalType": "uint256",
          "name": "",
          "type": "uint256"
        }
      ],
      "stateMutability": "nonpayable",
      "type": "function"
    },
    {
      "inputs": [
        {
          "internalType": "uint256",
          "name": "proposalId",
          "type": "uint256"
        },
        {
          "internalType": "uint8",
          "name": "support",
          "type": "uint8"
        }
      ],
      "name": "castVote",
      "outputs": [
        {
          "internalType": "uint256",
          "name": "",
          "type": "uint256"
        }
      ],
      "stateMutability": "nonpayable",
      "type": "function"
    },
    {
      "inputs": [
        {
          "internalType": "uint256",
          "name": "proposalId",
          "type": "uint256"
        },
        {
          "internalType": "uint8",
          "name": "support",
          "type": "uint8"
        },
        {
          "internalType": "address",
          "name": "voter",
          "type": "address"
        },
        {
          "internalType": "bytes",
          "name": "signature",
          "type": "bytes"
        }
      ],
      "name": "castVoteBySig",
      "outputs": [
        {
          "internalType": "uint256",
          "name": "",
          "type": "uint256"
        }
      ],
      "stateMutability": "nonpayable",
      "type": "function"
    },
    {
      "inputs": [
        {
          "internalType": "uint256",
          "name": "proposalId",
          "type": "uint256"
        },
        {
          "internalType": "uint8",
          "name": "support",
          "type": "uint8"
        },
        {
          "internalType": "string",
          "name": "reason",
          "type": "string"
        }
      ],
      "name": "castVoteWithReason",
      "outputs": [
        {
          "internalType": "uint256",
          "name": "",
          "type": "uint256"
        }
      ],
      "stateMutability": "nonpayable",
      "type": "function"
    },
    {
      "inputs": [
        {
          "internalType": "uint256",
          "name": "proposalId",
          "type": "uint256"
        },
        {
          "internalType": "uint8",
          "name": "support",
          "type": "uint8"
        },
        {
          "internalType": "string",
          "name": "reason",
          "type": "string"
        },
        {
          "internalType": "bytes",
          "name": "params",
          "type": "bytes"
        }
      ],
      "name": "castVoteWithReasonAndParams",
      "outputs": [
        {
          "internalType": "uint256",
          "name": "",
          "type": "uint256"
        }
      ],
      "stateMutability": "nonpayable",
      "type": "function"
    },
    {
      "inputs": [
        {
          "internalType": "uint256",
          "name": "proposalId",
          "type": "uint256"
        },
        {
          "internalType": "uint8",
          "name": "support",
          "type": "uint8"
        },
        {
          "internalType": "address",
          "name": "voter",
          "type": "address"
        },
        {
          "internalType": "string",
          "name": "reason",
          "type": "string"
        },
        {
          "internalType": "bytes",
          "name": "params",
          "type": "bytes"
        },
        {
          "internalType": "bytes",
          "name": "signature",
          "type": "bytes"
        }
      ],
      "name": "castVoteWithReasonAndParamsBySig",
      "outputs": [
        {
          "internalType": "uint256",
          "name": "",
          "type": "uint256"
        }
      ],
      "stateMutability": "nonpayable",
      "type": "function"
    },
    {
      "inputs": [],
      "name": "clock",
      "outputs": [
        {
          "internalType": "uint48",
          "name": "",
          "type": "uint48"
        }
      ],
      "stateMutability": "view",
      "type": "function"
    },
    {
      "inputs": [],
      "name": "eip712Domain",
      "outputs": [
        {
          "internalType": "bytes1",
          "name": "fields",
          "type": "bytes1"
        },
        {
          "internalType": "string",
          "name": "name",
          "type": "string"
        },
        {
          "internalType": "string",
          "name": "version",
          "type": "string"
        },
        {
          "internalType": "uint256",
          "name": "chainId",
          "type": "uint256"
        },
        {
          "internalType": "address",
          "name": "verifyingContract",
          "type": "address"
        },
        {
          "internalType": "bytes32",
          "name": "salt",
          "type": "bytes32"
        },
        {
          "internalType": "uint256[]",
          "name": "extensions",
          "type": "uint256[]"
        }
      ],
      "stateMutability": "view",
      "type": "function"
    },
    {
      "inputs": [
        {
          "internalType": "address[]",
          "name": "targets",
          "type": "address[]"
        },
        {
          "internalType": "uint256[]",
          "name": "values",
          "type": "uint256[]"
        },
        {
          "internalType": "bytes[]",
          "name": "calldatas",
          "type": "bytes[]"
        },
        {
          "internalType": "bytes32",
          "name": "descriptionHash",
          "type": "bytes32"
        }
      ],
      "name": "execute",
      "outputs": [
        {
          "internalType": "uint256",
          "name": "",
          "type": "uint256"
        }
      ],
      "stateMutability": "payable",
      "type": "function"
    },
    {
      "inputs": [
        {
          "internalType": "uint256",
          "name": "proposalId",
          "type": "uint256"
        }
      ],
      "name": "execute",
      "outputs": [],
      "stateMutability": "payable",
      "type": "function"
    },
    {
      "inputs": [
        {
          "internalType": "uint256",
          "name": "proposalId",
          "type": "uint256"
        }
      ],
      "name": "getMaturity",
      "outputs": [
        {
          "internalType": "uint256",
          "name": "",
          "type": "uint256"
        }
      ],
      "stateMutability": "view",
      "type": "function"
    },
    {
      "inputs": [
        {
          "internalType": "address",
          "name": "account",
          "type": "address"
        },
        {
          "internalType": "uint256",
          "name": "timepoint",
          "type": "uint256"
        }
      ],
      "name": "getPastScore",
      "outputs": [
        {
          "internalType": "uint256",
          "name": "",
          "type": "uint256"
        }
      ],
      "stateMutability": "view",
      "type": "function"
    },
    {
      "inputs": [
        {
          "internalType": "address",
          "name": "account",
          "type": "address"
        },
        {
          "internalType": "uint256",
          "name": "timepoint",
          "type": "uint256"
        }
      ],
      "name": "getVotes",
      "outputs": [
        {
          "internalType": "uint256",
          "name": "",
          "type": "uint256"
        }
      ],
      "stateMutability": "view",
      "type": "function"
    },
    {
      "inputs": [
        {
          "internalType": "address",
          "name": "account",
          "type": "address"
        },
        {
          "internalType": "uint256",
          "name": "timepoint",
          "type": "uint256"
        },
        {
          "internalType": "bytes",
          "name": "params",
          "type": "bytes"
        }
      ],
      "name": "getVotesWithParams",
      "outputs": [
        {
          "internalType": "uint256",
          "name": "",
          "type": "uint256"
        }
      ],
      "stateMutability": "view",
      "type": "function"
    },
    {
      "inputs": [
        {
          "internalType": "uint256",
          "name": "proposalId",
          "type": "uint256"
        },
        {
          "internalType": "address",
          "name": "account",
          "type": "address"
        }
      ],
      "name": "hasVoted",
      "outputs": [
        {
          "internalType": "bool",
          "name": "",
          "type": "bool"
        }
      ],
      "stateMutability": "view",
      "type": "function"
    },
    {
      "inputs": [
        {
          "internalType": "address[]",
          "name": "targets",
          "type": "address[]"
        },
        {
          "internalType": "uint256[]",
          "name": "values",
          "type": "uint256[]"
        },
        {
          "internalType": "bytes[]",
          "name": "calldatas",
          "type": "bytes[]"
        },
        {
          "internalType": "bytes32",
          "name": "descriptionHash",
          "type": "bytes32"
        }
      ],
      "name": "hashProposal",
      "outputs": [
        {
          "internalType": "uint256",
          "name": "",
          "type": "uint256"
        }
      ],
      "stateMutability": "pure",
      "type": "function"
    },
    {
      "inputs": [
        {
          "internalType": "string",
          "name": "name",
          "type": "string"
        },
        {
          "internalType": "contract IVotes",
          "name": "token",
          "type": "address"
        },
        {
          "internalType": "address",
          "name": "artistNft",
          "type": "address"
        },
        {
          "internalType": "uint256",
          "name": "threshold",
          "type": "uint256"
        },
        {
          "internalType": "uint32",
          "name": "votingPeriod_",
          "type": "uint32"
        }
      ],
      "name": "initialize",
      "outputs": [],
      "stateMutability": "nonpayable",
      "type": "function"
    },
    {
      "inputs": [],
      "name": "name",
      "outputs": [
        {
          "internalType": "string",
          "name": "",
          "type": "string"
        }
      ],
      "stateMutability": "view",
      "type": "function"
    },
    {
      "inputs": [
        {
          "internalType": "address",
          "name": "owner",
          "type": "address"
        }
      ],
      "name": "nonces",
      "outputs": [
        {
          "internalType": "uint256",
          "name": "",
          "type": "uint256"
        }
      ],
      "stateMutability": "view",
      "type": "function"
    },
    {
      "inputs": [
        {
          "internalType": "address",
          "name": "",
          "type": "address"
        },
        {
          "internalType": "address",
          "name": "",
          "type": "address"
        },
        {
          "internalType": "uint256[]",
          "name": "",
          "type": "uint256[]"
        },
        {
          "internalType": "uint256[]",
          "name": "",
          "type": "uint256[]"
        },
        {
          "internalType": "bytes",
          "name": "",
          "type": "bytes"
        }
      ],
      "name": "onERC1155BatchReceived",
      "outputs": [
        {
          "internalType": "bytes4",
          "name": "",
          "type": "bytes4"
        }
      ],
      "stateMutability": "nonpayable",
      "type": "function"
    },
    {
      "inputs": [
        {
          "internalType": "address",
          "name": "",
          "type": "address"
        },
        {
          "internalType": "address",
          "name": "",
          "type": "address"
        },
        {
          "internalType": "uint256",
          "name": "",
          "type": "uint256"
        },
        {
          "internalType": "uint256",
          "name": "",
          "type": "uint256"
        },
        {
          "internalType": "bytes",
          "name": "",
          "type": "bytes"
        }
      ],
      "name": "onERC1155Received",
      "outputs": [
        {
          "internalType": "bytes4",
          "name": "",
          "type": "bytes4"
        }
      ],
      "stateMutability": "nonpayable",
      "type": "function"
    },
    {
      "inputs": [
        {
          "internalType": "address",
          "name": "",
          "type": "address"
        },
        {
          "internalType": "address",
          "name": "",
          "type": "address"
        },
        {
          "internalType": "uint256",
          "name": "",
          "type": "uint256"
        },
        {
          "internalType": "bytes",
          "name": "",
          "type": "bytes"
        }
      ],
      "name": "onERC721Received",
      "outputs": [
        {
          "internalType": "bytes4",
          "name": "",
          "type": "bytes4"
        }
      ],
      "stateMutability": "nonpayable",
      "type": "function"
    },
    {
      "inputs": [],
      "name": "proposalCount",
      "outputs": [
        {
          "internalType": "uint256",
          "name": "",
          "type": "uint256"
        }
      ],
      "stateMutability": "view",
      "type": "function"
    },
    {
      "inputs": [
        {
          "internalType": "uint256",
          "name": "proposalId",
          "type": "uint256"
        }
      ],
      "name": "proposalDeadline",
      "outputs": [
        {
          "internalType": "uint256",
          "name": "",
          "type": "uint256"
        }
      ],
      "stateMutability": "view",
      "type": "function"
    },
    {
      "inputs": [
        {
          "internalType": "uint256",
          "name": "proposalId",
          "type": "uint256"
        }
      ],
      "name": "proposalDetails",
      "outputs": [
        {
          "internalType": "address[]",
          "name": "targets",
          "type": "address[]"
        },
        {
          "internalType": "uint256[]",
          "name": "values",
          "type": "uint256[]"
        },
        {
          "internalType": "bytes[]",
          "name": "calldatas",
          "type": "bytes[]"
        },
        {
          "internalType": "bytes32",
          "name": "descriptionHash",
          "type": "bytes32"
        }
      ],
      "stateMutability": "view",
      "type": "function"
    },
    {
      "inputs": [
        {
          "internalType": "uint256",
          "name": "index",
          "type": "uint256"
        }
      ],
      "name": "proposalDetailsAt",
      "outputs": [
        {
          "internalType": "uint256",
          "name": "proposalId",
          "type": "uint256"
        },
        {
          "internalType": "address[]",
          "name": "targets",
          "type": "address[]"
        },
        {
          "internalType": "uint256[]",
          "name": "values",
          "type": "uint256[]"
        },
        {
          "internalType": "bytes[]",
          "name": "calldatas",
          "type": "bytes[]"
        },
        {
          "internalType": "bytes32",
          "name": "descriptionHash",
          "type": "bytes32"
        }
      ],
      "stateMutability": "view",
      "type": "function"
    },
    {
      "inputs": [
        {
          "internalType": "uint256",
          "name": "proposalId",
          "type": "uint256"
        }
      ],
      "name": "proposalEta",
      "outputs": [
        {
          "internalType": "uint256",
          "name": "",
          "type": "uint256"
        }
      ],
      "stateMutability": "view",
      "type": "function"
    },
    {
      "inputs": [
        {
          "internalType": "uint256",
          "name": "",
          "type": "uint256"
        }
      ],
      "name": "proposalNeedsQueuing",
      "outputs": [
        {
          "internalType": "bool",
          "name": "",
          "type": "bool"
        }
      ],
      "stateMutability": "view",
      "type": "function"
    },
    {
      "inputs": [
        {
          "internalType": "uint256",
          "name": "proposalId",
          "type": "uint256"
        }
      ],
      "name": "proposalProposer",
      "outputs": [
        {
          "internalType": "address",
          "name": "",
          "type": "address"
        }
      ],
      "stateMutability": "view",
      "type": "function"
    },
    {
      "inputs": [
        {
          "internalType": "uint256",
          "name": "proposalId",
          "type": "uint256"
        }
      ],
      "name": "proposalSnapshot",
      "outputs": [
        {
          "internalType": "uint256",
          "name": "",
          "type": "uint256"
        }
      ],
      "stateMutability": "view",
      "type": "function"
    },
    {
      "inputs": [],
      "name": "proposalThreshold",
      "outputs": [
        {
          "internalType": "uint256",
          "name": "",
          "type": "uint256"
        }
      ],
      "stateMutability": "view",
      "type": "function"
    },
    {
      "inputs": [
        {
          "internalType": "uint256",
          "name": "proposalId",
          "type": "uint256"
        }
      ],
      "name": "proposalVotes",
      "outputs": [
        {
          "internalType": "uint256",
          "name": "againstVotes",
          "type": "uint256"
        },
        {
          "internalType": "uint256",
          "name": "forVotes",
          "type": "uint256"
        },
        {
          "internalType": "uint256",
          "name": "abstainVotes",
          "type": "uint256"
        }
      ],
      "stateMutability": "view",
      "type": "function"
    },
    {
      "inputs": [
        {
          "internalType": "address[]",
          "name": "targets",
          "type": "address[]"
        },
        {
          "internalType": "uint256[]",
          "name": "values",
          "type": "uint256[]"
        },
        {
          "internalType": "bytes[]",
          "name": "calldatas",
          "type": "bytes[]"
        },
        {
          "internalType": "string",
          "name": "description",
          "type": "string"
        }
      ],
      "name": "propose",
      "outputs": [
        {
          "internalType": "uint256",
          "name": "",
          "type": "uint256"
        }
      ],
      "stateMutability": "nonpayable",
      "type": "function"
    },
    {
      "inputs": [
        {
          "internalType": "address[]",
          "name": "targets",
          "type": "address[]"
        },
        {
          "internalType": "uint256[]",
          "name": "values",
          "type": "uint256[]"
        },
        {
          "internalType": "bytes[]",
          "name": "calldatas",
          "type": "bytes[]"
        },
        {
          "internalType": "bytes32",
          "name": "descriptionHash",
          "type": "bytes32"
        }
      ],
      "name": "queue",
      "outputs": [
        {
          "internalType": "uint256",
          "name": "",
          "type": "uint256"
        }
      ],
      "stateMutability": "nonpayable",
      "type": "function"
    },
    {
      "inputs": [
        {
          "internalType": "uint256",
          "name": "proposalId",
          "type": "uint256"
        }
      ],
      "name": "queue",
      "outputs": [],
      "stateMutability": "nonpayable",
      "type": "function"
    },
    {
      "inputs": [
        {
          "internalType": "uint256",
          "name": "blockNumber",
          "type": "uint256"
        }
      ],
      "name": "quorum",
      "outputs": [
        {
          "internalType": "uint256",
          "name": "",
          "type": "uint256"
        }
      ],
      "stateMutability": "view",
      "type": "function"
    },
    {
      "inputs": [],
      "name": "quorumDenominator",
      "outputs": [
        {
          "internalType": "uint256",
          "name": "",
          "type": "uint256"
        }
      ],
      "stateMutability": "pure",
      "type": "function"
    },
    {
      "inputs": [
        {
          "internalType": "uint256",
          "name": "timepoint",
          "type": "uint256"
        }
      ],
      "name": "quorumNumerator",
      "outputs": [
        {
          "internalType": "uint256",
          "name": "",
          "type": "uint256"
        }
      ],
      "stateMutability": "view",
      "type": "function"
    },
    {
      "inputs": [],
      "name": "quorumNumerator",
      "outputs": [
        {
          "internalType": "uint256",
          "name": "",
          "type": "uint256"
        }
      ],
      "stateMutability": "view",
      "type": "function"
    },
    {
      "inputs": [
        {
          "internalType": "address",
          "name": "target",
          "type": "address"
        },
        {
          "internalType": "uint256",
          "name": "value",
          "type": "uint256"
        },
        {
          "internalType": "bytes",
          "name": "data",
          "type": "bytes"
        }
      ],
      "name": "relay",
      "outputs": [],
      "stateMutability": "payable",
      "type": "function"
    },
    {
      "inputs": [
        {
          "internalType": "address",
          "name": "account",
          "type": "address"
        }
      ],
      "name": "scoreOf",
      "outputs": [
        {
          "internalType": "uint256",
          "name": "",
          "type": "uint256"
        }
      ],
      "stateMutability": "view",
      "type": "function"
    },
    {
      "inputs": [
        {
          "internalType": "uint256",
          "name": "newProposalThreshold",
          "type": "uint256"
        }
      ],
      "name": "setProposalThreshold",
      "outputs": [],
      "stateMutability": "nonpayable",
      "type": "function"
    },
    {
      "inputs": [
        {
          "internalType": "uint48",
          "name": "newVotingDelay",
          "type": "uint48"
        }
      ],
      "name": "setVotingDelay",
      "outputs": [],
      "stateMutability": "nonpayable",
      "type": "function"
    },
    {
      "inputs": [
        {
          "internalType": "uint32",
          "name": "newVotingPeriod",
          "type": "uint32"
        }
      ],
      "name": "setVotingPeriod",
      "outputs": [],
      "stateMutability": "nonpayable",
      "type": "function"
    },
    {
      "inputs": [
        {
          "internalType": "uint256",
          "name": "proposalId",
          "type": "uint256"
        }
      ],
      "name": "state",
      "outputs": [
        {
          "internalType": "enum IGovernor.ProposalState",
          "name": "",
          "type": "uint8"
        }
      ],
      "stateMutability": "view",
      "type": "function"
    },
    {
      "inputs": [
        {
          "internalType": "bytes4",
          "name": "interfaceId",
          "type": "bytes4"
        }
      ],
      "name": "supportsInterface",
      "outputs": [
        {
          "internalType": "bool",
          "name": "",
          "type": "bool"
        }
      ],
      "stateMutability": "view",
      "type": "function"
    },
    {
      "inputs": [],
      "name": "token",
      "outputs": [
        {
          "internalType": "contract IERC5805",
          "name": "",
          "type": "address"
        }
      ],
      "stateMutability": "view",
      "type": "function"
    },
    {
      "inputs": [],
      "name": "totalScore",
      "outputs": [
        {
          "internalType": "uint256",
          "name": "",
          "type": "uint256"
        }
      ],
      "stateMutability": "view",
      "type": "function"
    },
    {
      "inputs": [
        {
          "internalType": "uint256",
          "name": "newQuorumNumerator",
          "type": "uint256"
        }
      ],
      "name": "updateQuorumNumerator",
      "outputs": [],
      "stateMutability": "nonpayable",
      "type": "function"
    },
    {
      "inputs": [],
      "name": "version",
      "outputs": [
        {
          "internalType": "string",
          "name": "",
          "type": "string"
        }
      ],
      "stateMutability": "view",
      "type": "function"
    },
    {
      "inputs": [],
      "name": "votingDelay",
      "outputs": [
        {
          "internalType": "uint256",
          "name": "",
          "type": "uint256"
        }
      ],
      "stateMutability": "view",
      "type": "function"
    },
    {
      "inputs": [],
      "name": "votingPeriod",
      "outputs": [
        {
          "internalType": "uint256",
          "name": "",
          "type": "uint256"
        }
      ],
      "stateMutability": "view",
      "type": "function"
    },
    {
      "stateMutability": "payable",
      "type": "receive"
    }
  ],
  "bytecode": "0x60808060405234620000bd577ff0c57e16840df040f15088dc2f81fe391c3923bec73e23a9662efc9c229c6a009081549060ff8260401c16620000ae57506001600160401b036002600160401b03198282160162000068575b6040516155299081620000c38239f35b6001600160401b031990911681179091556040519081527fc7f505b2f371ae2175ee4913f4499e1f2633a7b5936321eed1cdaeb6115181d290602090a138808062000058565b63f92ee8a960e01b8152600490fd5b600080fdfe6080604052600436101561001b575b361561001957600080fd5b005b60003560e01c806301ffc9a7146103ab57806302a251a3146103a657806306f3f9e6146103a157806306fdde031461039c578063133af45614610397578063143489d014610392578063150b7a021461038d578063160cbed71461038857806316e9eaec14610383578063209e1f0d1461037e5780632656227d146103795780632d63f693146103745780632e82db941461036f5780632fe3e2611461036a5780633932abb1146103655780633e4f49e61461036057806340e58ee51461035b5780634385963214610356578063452115d6146103515780634bf5d7e91461034c578063544ffc9c1461034757806354fd4d5014610342578063567813881461033d5780635b8d0e0d146103385780635f398a141461033357806360c4247f1461032e578063718f7cd41461032957806379051887146103245780637b3c71d31461031f5780637d5e81e21461031a5780637ecebe00146103155780637f1e7d411461031057806384b0196e1461030b5780638ff262e31461030657806391ddadf41461030157806397c3d334146102fc5780639a802a6d146102f7578063a7713a70146102f2578063a9a95294146102ed578063ab58fb8e146102e8578063b58131b0146102e3578063bc197c81146102de578063c006719f146102d9578063c01f9e37146102d4578063c28bc2fa146102cf578063c59057e4146102ca578063da35c664146102c5578063dd4e2ba5146102c0578063ddf0b009146102bb578063deaaa7cc146102b6578063e540d01d146102b1578063eb9019d4146102ac578063ece40cc1146102a7578063f23a6e61146102a2578063f8ce560a1461029d578063fc0c546a146102985763fe0d94c10361000e57611e3c565b611e06565b611d66565b611d0d565b611ce9565b611c58565b611c26565b611beb565b611b93565b611b35565b611af8565b611ae5565b611a79565b611a5b565b611a3d565b6119b1565b611975565b611931565b611915565b6118f2565b61181c565b6117ff565b6117d4565b611692565b6115c1565b6114fa565b61149e565b611416565b6113bd565b61133c565b6111c4565b611193565b611120565b611084565b61100b565b610fe4565b610f8c565b610f5c565b610f40565b610ee7565b610e88565b610e5b565b610e05565b610dca565b610d09565b610cc5565b610ca6565b610c05565b610bd6565b610a52565b61083a565b6106b5565b610663565b61055b565b610452565b61041e565b346104195760203660031901126104195760043563ffffffff60e01b8116809103610419576020906332a2ad4360e11b8114908115610408575b81156103f7575b506040519015158152f35b6301ffc9a760e01b149050386103ec565b630271189760e51b811491506103e5565b600080fd5b3461041957600036600319011261041957602063ffffffff6000805160206153948339815191525460301c16604051908152f35b346104195760203660031901126104195760043561046e612553565b612710908181116104e2577f0553476bf02ef2726e8ce5ced78d63e26e602e4a2257b1f559418e24b4633997906001600160d01b036104ab61330e565b166104c66104b7612a16565b6104c084613061565b9061352a565b505060408051918252602082019290925290819081015b0390a1005b6044916040519163243e544560e01b835260048301526024820152fd5b60005b8381106105125750506000910152565b8181015183820152602001610502565b9060209161053b815180928185528580860191016104ff565b601f01601f1916010190565b906020610558928181520190610522565b90565b346104195760008060031936011261064f5760405190806000805160206154948339815191529081549061058e82611e53565b8086529260019280841690811561062257506001146105c8575b6105c4866105b88188038261077e565b60405191829182610547565b0390f35b815292507fda13dda7583a39a3cd73e8830529c760837228fa4683752c823b17e10548aad55b82841061060a5750505081016020016105b8826105c4386105a8565b805460208587018101919091529093019281016105ee565b90508695506105c4969350602092506105b894915060ff191682840152151560051b8201019293386105a8565b80fd5b6001600160a01b0381160361041957565b346104195760203660031901126104195760043561068081610652565b6001600160a01b031660009081526001602090815260409091206001600160d01b03906106ac90613365565b16604051908152f35b3461041957602036600319011261041957600435600052600080516020615374833981519152602052602060018060a01b0360406000205416604051908152f35b634e487b7160e01b600052604160045260246000fd5b604081019081106001600160401b0382111761072757604052565b6106f6565b602081019081106001600160401b0382111761072757604052565b60c081019081106001600160401b0382111761072757604052565b61010081019081106001600160401b0382111761072757604052565b90601f801991011681019081106001600160401b0382111761072757604052565b604051906107ac8261070c565b565b60405190608082018281106001600160401b0382111761072757604052565b6001600160401b03811161072757601f01601f191660200190565b9291926107f4826107cd565b91610802604051938461077e565b829481845281830111610419578281602093846000960137010152565b9080601f8301121561041957816020610558933591016107e8565b3461041957608036600319011261041957610856600435610652565b610861602435610652565b6064356001600160401b0381116104195761088090369060040161081f565b50604051630a85bd0160e11b8152602090f35b6001600160401b0381116107275760051b60200190565b81601f82011215610419578035916108c183610893565b926108cf604051948561077e565b808452602092838086019260051b820101928311610419578301905b8282106108f9575050505090565b838091833561090781610652565b8152019101906108eb565b81601f820112156104195780359161092983610893565b92610937604051948561077e565b808452602092838086019260051b820101928311610419578301905b828210610961575050505090565b81358152908301908301610953565b9080601f830112156104195781359061098882610893565b92610996604051948561077e565b828452602092838086019160051b8301019280841161041957848301915b8483106109c45750505050505090565b82356001600160401b0381116104195786916109e58484809489010161081f565b8152019201916109b4565b6080600319820112610419576001600160401b03916004358381116104195782610a1c916004016108aa565b926024358181116104195783610a3491600401610912565b9260443591821161041957610a4b91600401610970565b9060643590565b3461041957610a6c610a63366109f0565b9291909161200c565b610a758161501e565b906008821015610acc576010600160ff84161b1615610aa057604051634844252360e11b8152600490fd5b610ac3606492604051926331b75e4d60e01b845260048401526024830190610e4e565b60106044820152fd5b610e38565b90815180825260208080930193019160005b828110610af1575050505090565b83516001600160a01b031685529381019392810192600101610ae3565b90815180825260208080930193019160005b828110610b2e575050505090565b835185529381019392810192600101610b20565b90815180825260208092019182818360051b85019501936000915b848310610b6d5750505050505090565b9091929394958480610b8783856001950387528a51610522565b9801930193019194939290610b5d565b949392610bc3606093610bb5610bd19460808a5260808a0190610ad1565b9088820360208a0152610b0e565b908682036040880152610b42565b930152565b34610419576020366003190112610419576105c4610bf5600435612847565b9060409492945194859485610b97565b3461041957604036600319011261041957600435610c2281610652565b60243565ffffffffffff610c34612a16565b1680821015610c8857506001600160a01b0390911660009081526001602052604090206105c4916001600160d01b0391610c7791610c7190613094565b906130e1565b604051911681529081906020820190565b6044925060405191637669fc0f60e11b835260048301526024820152fd5b6020610cbd610cb4366109f0565b929190916120ea565b604051908152f35b3461041957602036600319011261041957600435600052600080516020615374833981519152602052602065ffffffffffff60406000205460a01c16604051908152f35b34610419576020366003190112610419576004357f7fd223d3380145bd26132714391e777c488a0df7ac2dd4b66419d8549fb3a600908154811015610dc557610dad916000527f417ab5363cd721cbd7a5446b963bb4274a7db26ef2bb28819834095c165ca17a0154610dbb610d7e82612847565b9392959091610d9f604051978897885260a0602089015260a0880190610ad1565b908682036040880152610b0e565b908482036060860152610b42565b9060808301520390f35b6120c0565b346104195760003660031901126104195760206040517f3e83946653575f9a39005e1545185629e92736b7528ab20ca3816f315424a8118152f35b3461041957600036600319011261041957602065ffffffffffff6000805160206153948339815191525416604051908152f35b634e487b7160e01b600052602160045260246000fd5b906008821015610acc5752565b34610419576020366003190112610419576020610e7960043561501e565b610e866040518092610e4e565bf35b34610419576020366003190112610419576004356000526000805160206154748339815191526020526100196040600020600381015490610ec88161267c565b90610ee16002610eda600184016126d4565b9201612723565b9161223a565b3461041957604036600319011261041957602060ff610f34602435610f0b81610652565b6004356000526000845260036040600020019060018060a01b0316600052602052604060002090565b54166040519015158152f35b34610419576020610cbd610f53366109f0565b9291909161223a565b34610419576000366003190112610419576105c4610f78612ad6565b604051918291602083526020830190610522565b34610419576020366003190112610419576105c4610fc760043560005260006020526040600020908154906002600184015493015491929190565b604080519384526020840192909252908201529081906060820190565b34610419576000366003190112610419576105c4610f78611fef565b60ff81160361041957565b34610419576040366003190112610419576020610cbd60243561102d81611000565b6040516110398161072c565b600081526040519161104a8361072c565b6000835233600435614708565b9181601f84011215610419578235916001600160401b038311610419576020838186019501011161041957565b346104195760c0366003190112610419576024356110a181611000565b604435906110ae82610652565b6001600160401b0390606435828111610419576110cf903690600401611057565b608435848111610419576110e790369060040161081f565b9160a435948511610419576105c49561110761111096369060040161081f565b94600435612422565b6040519081529081906020820190565b346104195760803660031901126104195760243561113d81611000565b6001600160401b03906044358281116104195761115e903690600401611057565b909160643593841161041957611189610cbd93611181602096369060040161081f565b9336916107e8565b9033600435614708565b34610419576020366003190112610419576020610cbd6004356128ee565b6084359063ffffffff8216820361041957565b346104195760a0366003190112610419576001600160401b03600435818111610419576111f590369060040161081f565b6024359061120282610652565b6044359061120f82610652565b6112176111b1565b916000805160206154b4833981519152549460ff8660401c1615951680159081611324575b600114908161131a575b159081611311575b506112ff576000805160206154b4833981519152805467ffffffffffffffff1916600117905561128793856112da575b6064359261371a565b61128d57005b6000805160206154b4833981519152805460ff60401b19169055604051600181527fc7f505b2f371ae2175ee4913f4499e1f2633a7b5936321eed1cdaeb6115181d29080602081016104dd565b6000805160206154b4833981519152805460ff60401b1916600160401b17905561127e565b60405163f92ee8a960e01b8152600490fd5b9050153861124e565b303b159150611246565b86915061123c565b65ffffffffffff81160361041957565b34610419576020366003190112610419576004356113598161132c565b611361612553565b6000805160206153948339815191529081547fc565b045403dc03c2eea82b81a0465edad9e2e7fc4d97e11421c209da93d7a93604080519365ffffffffffff9081851686521693846020820152a165ffffffffffff1916179055005b34610419576060366003190112610419576024356113da81611000565b6044356001600160401b03811161041957602091611409611402610cbd933690600401611057565b36916107e8565b6040519161104a8361072c565b34610419576080366003190112610419576001600160401b03600435818111610419576114479036906004016108aa565b9060243581811161041957611460903690600401610912565b9160443582811161041957611479903690600401610970565b606435928311610419576105c49361149861111094369060040161081f565b92613da1565b34610419576020366003190112610419576004356114bb81610652565b60018060a01b03166000527f5ab42ced628888259c08ac98db1eb0cf702fc1501344311d8b100cd1bfe4bb006020526020604060002054604051908152f35b3461041957602036600319011261041957602061154e6004356115388160005260006020526040600020908154906002600184015493015491929190565b50919050600052600283526040600020546131c3565b6040519061271081808210911802188152f35b916115969061158861055897959693600f60f81b865260e0602087015260e0860190610522565b908482036040860152610522565b60608301949094526001600160a01b03166080820152600060a082015280830360c090910152610b0e565b34610419576000366003190112610419577fa16a46d94261c7517cc8ff89f61c0ce93598e3c849801011dee649a6a557d100541580611669575b1561162c57611608611e8d565b611610611f47565b906105c461161c612c8d565b6040519384933091469186611561565b60405162461bcd60e51b81526020600482015260156024820152741152540dcc4c8e88155b9a5b9a5d1a585b1a5e9959605a1b6044820152606490fd5b507fa16a46d94261c7517cc8ff89f61c0ce93598e3c849801011dee649a6a557d10154156115fb565b34610419576080366003190112610419576024356004356116b282611000565b604435916116bf83610652565b6064356001600160401b038111610419576117906116e461179492369060040161081f565b6001600160a01b03861660009081527f5ab42ced628888259c08ac98db1eb0cf702fc1501344311d8b100cd1bfe4bb006020526040902080546001810190915561178a9060405160208101917ff2aad550cf55f045cb27e9c559f9889fdfb6e6cdaa032301d6ea397784ae51d7835288604083015260ff8816606083015260018060a01b038a16608083015260a082015260a0815261178281610747565b519020612c0d565b86612eed565b1590565b6117af5790611110916105c4936117a9611fdc565b92612537565b6040516394ab6c0760e01b81526001600160a01b0384166004820152602490fd5b0390fd5b346104195760003660031901126104195760206117ef612a16565b65ffffffffffff60405191168152f35b346104195760003660031901126104195760206040516127108152f35b346104195760603660031901126104195760043561183981610652565b6044356001600160401b0381116104195761185890369060040161081f565b5060008051602061543483398151915254604051630748d63560e31b81526001600160a01b03928316600482015260248035908201529160209183916044918391165afa80156118ed576105c4916000916118bf575b506040519081529081906020820190565b6118e0915060203d81116118e6575b6118d8818361077e565b810190612baa565b386118ae565b503d6118ce565b612a0a565b346104195760003660031901126104195760206001600160d01b036106ac61330e565b3461041957602036600319011261041957602060405160008152f35b3461041957602036600319011261041957600435600052600080516020615374833981519152602052602065ffffffffffff60016040600020015416604051908152f35b346104195760003660031901126104195760207ed7616c8fe29c6c2fbe1d0c5bc8f2faa4c35b43746e70b24b4d532752affd0054604051908152f35b346104195760a0366003190112610419576119cd600435610652565b6119d8602435610652565b6001600160401b03604435818111610419576119f8903690600401610912565b5060643581811161041957611a11903690600401610912565b5060843590811161041957611a2a90369060040161081f565b5060405163bc197c8160e01b8152602090f35b34610419576000366003190112610419576020600354604051908152f35b34610419576020366003190112610419576020610cbd60043561206d565b606036600319011261041957600435611a9181610652565b604435906001600160401b0382116104195760008091611ab8610019943690600401611057565b90611ac1612553565b81604051928392833781018481520391602435905af1611adf6121a0565b90612eba565b34610419576020610cbd610a63366109f0565b346104195760003660031901126104195760207f7fd223d3380145bd26132714391e777c488a0df7ac2dd4b66419d8549fb3a60054604051908152f35b34610419576000366003190112610419576105c4604051611b558161070c565b602081527f737570706f72743d627261766f2671756f72756d3d666f722c6162737461696e6020820152604051918291602083526020830190610522565b3461041957602036600319011261041957600435600052600080516020615474833981519152602052610a6c6040600020600381015490611bd38161267c565b90611be56002610eda600184016126d4565b9161200c565b346104195760003660031901126104195760206040517ff2aad550cf55f045cb27e9c559f9889fdfb6e6cdaa032301d6ea397784ae51d78152f35b346104195760203660031901126104195760043563ffffffff811681036104195761001990611c53612553565b612594565b3461041957604036600319011261041957600435611c7581610652565b6000604051611c838161072c565b5260008051602061543483398151915254604051630748d63560e31b81526001600160a01b03928316600482015260248035908201529160209183916044918391165afa80156118ed576105c4916000916118bf57506040519081529081906020820190565b3461041957602036600319011261041957611d02612553565b610019600435612626565b346104195760a036600319011261041957611d29600435610652565b611d34602435610652565b6084356001600160401b03811161041957611d5390369060040161081f565b5060405163f23a6e6160e01b8152602090f35b34610419576020366003190112610419576024600435602060018060a01b03600080516020615434833981519152541660405193848092632394e7a360e21b82528560048301525afa9182156118ed576105c49261111092611dda92600092611de2575b50611dd4906128ee565b906140ec565b612710900490565b611dd4919250611dff9060203d81116118e6576118d8818361077e565b9190611dca565b3461041957600036600319011261041957600080516020615434833981519152546040516001600160a01b039091168152602090f35b602036600319011261041957610019600435612800565b90600182811c92168015611e83575b6020831014611e6d57565b634e487b7160e01b600052602260045260246000fd5b91607f1691611e62565b604051906000826000805160206153f4833981519152918254611eaf81611e53565b80845293600191808316908115611f235750600114611ed7575b50506107ac9250038361077e565b600090815291506000805160206154548339815191525b848310611f0857506107ac93505081016020013880611ec9565b81935090816020925483858a01015201910190918592611eee565b915050602092506107ac94915060ff191682840152151560051b8201013880611ec9565b60405190600082600080516020615414833981519152918254611f6981611e53565b80845293600191808316908115611f235750600114611f905750506107ac9250038361077e565b600090815291506000805160206154d48339815191525b848310611fc157506107ac93505081016020013880611ec9565b81935090816020925483858a01015201910190918592611fa7565b60405190611fe98261072c565b60008252565b60405190611ffc8261070c565b60018252603160f81b6020830152565b929061202661203492604051948593602085019788610b97565b03601f19810183528261077e565b51902090565b600052600080516020615374833981519152602052604060002090565b634e487b7160e01b600052601160045260246000fd5b60005260008051602061537483398151915260205260406000205465ffffffffffff908163ffffffff8260d01c169160a01c16018181116120ac571690565b612057565b60001981146120ac5760010190565b634e487b7160e01b600052603260045260246000fd5b8051821015610dc55760209160051b010190565b93926120fb9092919282848761200c565b916121058361501e565b946008861015610acc576030600160ff88161b1615612173578394955061212e6121449461203a565b805460ff60f01b1916600160f01b1790556121d0565b6040518181527f712ae1383f79ac853f8d882153778e0260ef8f03b504e2866e0593e04d2b291f90602090a190565b6040516331b75e4d60e01b8152600481018590526064906121976024820189610e4e565b60306044820152fd5b3d156121cb573d906121b1826107cd565b916121bf604051938461077e565b82523d6000602084013e565b606090565b929190600093845b81518110156122325761222d9061222787806001600160a01b036121fc85886120d6565b511661220885896120d6565b5190612214868b6120d6565b5191602083519301915af1611adf6121a0565b506120b1565b6121d8565b505050509050565b9291906122498383838761200c565b6122528161501e565b6008811015610acc5760018060ff83161b16156122b65750600090815260008051602061537483398151915260205260409020546001600160a01b0316330361229e5761055893612301565b60405163233d98e360e01b8152336004820152602490fd5b906122da606492604051926331b75e4d60e01b845260048401526024830190610e4e565b60016044820152fd5b6000198101919082116120ac57565b6027198101919082116120ac57565b9061230d93929161200c565b6123168161501e565b6008811015610acc57603b600160ff83161b161561237a57506123388161203a565b80546001600160f81b0316600160f81b1790556040518181527f789cf55be980739dad1d0699b93b58e806b51c9d96619bfa8fe0a28abaa7b30c90602090a190565b9061239e606492604051926331b75e4d60e01b845260048401526024830190610e4e565b603b6044820152fd5b60209060006040516123b88161072c565b5260008051602061543483398151915254604051630748d63560e31b81526001600160a01b039283166004820152602481019490945283916044918391165afa9081156118ed5760009161240a575090565b610558915060203d81116118e6576118d8818361077e565b9390929196956117906124fb916124f58a6124778160018060a01b03166000527f5ab42ced628888259c08ac98db1eb0cf702fc1501344311d8b100cd1bfe4bb00602052604060002080549060018201905590565b61248236888a6107e8565b602081519101208b5160208d0120906040519260208401947f3e83946653575f9a39005e1545185629e92736b7528ab20ca3816f315424a81186528d604086015260ff8d16606086015260018060a01b0316608085015260a084015260c083015260e082015260e0815261178281610762565b8a612eed565b612516576105589596916125109136916107e8565b92614708565b6040516394ab6c0760e01b81526001600160a01b0388166004820152602490fd5b9161055893916040519361254a8561072c565b60008552614708565b33300361255c57565b6040516347096e4760e01b8152336004820152602490fd5b6040906125906000939594606083019683526020830190610e4e565b0152565b63ffffffff9081811690811561260d5769ffffffff000000000000907f7e3f7f0708a84de9203036abaa450dccc85ad5ff52f78c170f3edb55cf5e88286040600080516020615394833981519152958654958251918760301c1682526020820152a160301b169069ffffffff0000000000001916179055565b60405163f1cfbf0560e01b815260006004820152602490fd5b7ed7616c8fe29c6c2fbe1d0c5bc8f2faa4c35b43746e70b24b4d532752affd00805460408051918252602082018490527fccb45da8d5717e6c4544694297c4ba5cf151d455c9bb0ed4fc7a38411bc0546191a155565b9060405191828154918282526020928383019160005283600020936000905b8282106126b1575050506107ac9250038361077e565b85546001600160a01b03168452600195860195889550938101939091019061269b565b9060405191828154918282526020928383019160005283600020936000905b828210612709575050506107ac9250038361077e565b8554845260019586019588955093810193909101906126f3565b9081549161273083610893565b926040916127408351958661077e565b81855260009081526020808220938291908188015b8584106127655750505050505050565b815183869289549261277684611e53565b8082526001948086169081156127e457506001146127ac575b5061279e81600196038261077e565b815201970193019295612755565b8b8a52838a20955089905b8082106127cd575081018301945061279e61278f565b8654838301860152958501958894909101906127b7565b60ff19168584015250151560051b81018301945061279e61278f565b600052600080516020615474833981519152602052612844604060002060038101549061282c8161267c565b9061283e6002610eda600184016126d4565b916120ea565b50565b8060005260008051602061547483398151915260205260406000209160405190608082018281106001600160401b03821117610727576040526128898461267c565b8252612897600185016126d4565b916020810192835260036128ad60028701612723565b95604083019687520154936060820194808652156128d45750519151935192519193929190565b604051636ad0607560e01b81526004810191909152602490fd5b6000805160206153b483398151915280549160001983018381116120ac57831115610dc5576000928284527f293b0181c8ec34cd3252e741689bdc21b70ee7a0ec76216439035a5c3718909a8101549165ffffffffffff928184821611156129fe575061295a90613094565b849082600581116129a9575b5061297193506136a4565b806129855750505b6001600160d01b031690565b61298e906122e3565b91526000805160206153d4833981519152015460301c612979565b90926129b4826131e3565b82039182116120ac576129719486885280836000805160206153d4833981519152015416908516106000146129ec5750915b38612966565b9291506129f8906130c6565b906129e6565b94505050505060301c90565b6040513d6000823e3d90fd5b600080516020615434833981519152546040516324776b7d60e21b815290602090829060049082906001600160a01b03165afa60009181612a61575b50610558575061055843613094565b90916020823d8211612a95575b81612a7b6020938361077e565b8101031261064f575051612a8e8161132c565b9038612a52565b3d9150612a6e565b60405190612aaa8261070c565b601d82527f6d6f64653d626c6f636b6e756d6265722666726f6d3d64656661756c740000006020830152565b60008051602061543483398151915254604051634bf5d7e960e01b8152906000908190839060049082906001600160a01b03165afa90918282612b23575b50506105585750610558612a9d565b909192503d8082843e612b36818461077e565b820191602081840312612ba2578051906001600160401b038211612ba6570182601f82011215612ba257805191612b6c836107cd565b93612b7a604051958661077e565b8385526020848401011161064f575090612b9a91602080850191016104ff565b903880612b14565b5080fd5b8280fd5b90816020910312610419575190565b60008051602061543483398151915254604051630748d63560e31b81526001600160a01b039283166004820152602481019390935260209183916044918391165afa9081156118ed5760009161240a575090565b604290612c18612ca5565b612c20612dc2565b6040519060208201927f8b73c3c69bb8fe3d512ecc4cf759cc79239f7b179b0ffacaa9a75d522b39400f8452604083015260608201524660808201523060a082015260a08152612c6f81610747565b519020906040519161190160f01b8352600283015260228201522090565b604051612c998161072c565b60008152906000368137565b6040516000906000805160206153f48339815191529181835491612cc883611e53565b808352602093848401966001918281169081600014612da25750600114612d57575b505050612cf99250038261077e565b51908115612d05572090565b50507fa16a46d94261c7517cc8ff89f61c0ce93598e3c849801011dee649a6a557d100548015612d325790565b507fc5d2460186f7233c927e7db2dcc703c0e500b653ca82273b7bfad8045d85a47090565b600090815260008051602061545483398151915295935091905b818310612d8a575050612cf99350820101388080612cea565b85548784018501529485019486945091830191612d71565b92505050612cf994925060ff19168652151560051b820101388080612cea565b6040516000906000805160206154148339815191529181835491612de583611e53565b808352602093848401966001918281169081600014612e9a5750600114612e4f575b505050612e169250038261077e565b51908115612e22572090565b50507fa16a46d94261c7517cc8ff89f61c0ce93598e3c849801011dee649a6a557d101548015612d325790565b60009081526000805160206154d483398151915295935091905b818310612e82575050612e169350820101388080612e07565b85548784018501529485019486945091830191612e69565b92505050612e1694925060ff19168652151560051b820101388080612e07565b9091906107ac5750805115612ed157805190602001fd5b60405163d6bda27560e01b8152600490fd5b60041115610acc57565b9091813b612f2857612eff9192612fa1565b50612f0981612ee3565b159182612f1557505090565b6001600160a01b03918216911614919050565b6000918291604051612f5e816120266020820194630b135d3f60e11b998a87526024840152604060448401526064830190610522565b51915afa90612f6b6121a0565b82612f93575b82612f7b57505090565b90915060208180518101031261041957602001511490565b915060208251101591612f71565b8151919060418303612fd257612fcb92506020820151906060604084015193015160001a90612fdd565b9192909190565b505060009160029190565b91907f7fffffffffffffffffffffffffffffff5d576e7357a4501ddfe92f46681b20a0841161305557926020929160ff608095604051948552168484015260408301526060820152600092839182805260015afa156118ed5780516001600160a01b0381161561304c57918190565b50809160019190565b50505060009160039190565b6001600160d01b0390818111613075571690565b604490604051906306dfcc6560e41b825260d060048301526024820152fd5b65ffffffffffff908181116130a7571690565b604490604051906306dfcc6560e41b8252603060048301526024820152fd5b90600182018092116120ac57565b919082018092116120ac57565b90815460008160058111613178575b509190915b8281106131285750506000811560001461311157505050600090565b61311c6020926122e3565b92815220015460301c90565b90918082169080831860011c82018092116120ac578460005265ffffffffffff80836020600020015416908516106000146131665750915b906130f5565b929150613172906130c6565b90613160565b9091613183826131e3565b82039182116120ac5784835265ffffffffffff808360208620015416908516106000146131b35750905b386130f0565b91506131be906130c6565b6131ad565b81156131cd570490565b634e487b7160e01b600052601260045260246000fd5b600181111561055857600181600160801b8110156132fc575b6132a461329a61329061328661327c6132726132b097600488600160401b6132ab9a10156132ef575b6401000000008110156132e2575b620100008110156132d5575b6101008110156132c9575b60108110156132bd575b10156132b5575b60030260011c61326b818b6131c3565b0160011c90565b61326b818a6131c3565b61326b81896131c3565b61326b81886131c3565b61326b81876131c3565b61326b81866131c3565b80936131c3565b821190565b900390565b60011b61325b565b811c9160021b91613254565b60081c91811b9161324a565b60101c9160081b9161323f565b60201c9160101b91613233565b60401c9160201b91613225565b50600160401b9050608082901c6131fc565b6000805160206153b483398151915280546000918161332f57505050600090565b816000198101116120ac577f293b0181c8ec34cd3252e741689bdc21b70ee7a0ec76216439035a5c3718909a9252015460301c90565b80546000918161337757505050600090565b6000199282848101116120ac5760209181522001015460301c90565b6000805160206153b4833981519152908154600160401b8110156107275760018101808455811015610dc557600092909252805160209091015160301b65ffffffffffff191665ffffffffffff91909116176000805160206153d48339815191529190910155565b908154600160401b8110156107275760018101808455811015610dc55760009283526020928390208251929093015160301b65ffffffffffff191665ffffffffffff9290921691909117910155565b6000805160206153b48339815191525480156135115761346c613491916122e3565b6000805160206153b48339815191526000526000805160206153d48339815191520190565b80549165ffffffffffff8082169084168181116134ff57036134cf5750805465ffffffffffff166713ec0000000000001790555b60301c906113ec90565b6134fa91506134ed6134df61079f565b65ffffffffffff9092168252565b6113ec6020820152613393565b6134c5565b604051632520601d60e01b8152600490fd5b50613521906134ed6134df61079f565b6000906113ec90565b6000805160206153b48339815191525491929180156135be5761346c61354f916122e3565b9081549165ffffffffffff908184169183168083116134ff578692036135945761358d92509065ffffffffffff82549181199060301b169116179055565b60301c9190565b50506135b9906135a56134df61079f565b6001600160d01b0385166020820152613393565b61358d565b506135e2906135ce6134df61079f565b6001600160d01b0384166020820152613393565b60009190565b8054929392801561367f576135ff61360c916122e3565b8260005260206000200190565b9182549265ffffffffffff918285169281168084116134ff5787930361364b575061358d92509065ffffffffffff82549181199060301b169116179055565b9150506135b99161366b61365d61079f565b65ffffffffffff9093168352565b6001600160d01b03861660208301526133fb565b50906135e29161369061365d61079f565b6001600160d01b03851660208301526133fb565b905b8281106136b257505090565b90918082169080831860011c82018092116120ac576000805160206153b483398151915260005265ffffffffffff80836000805160206153d4833981519152015416908516106000146137085750915b906136a6565b929150613714906130c6565b90613702565b949392909192613728613d45565b613730611fef565b95613739613d45565b8051966001600160401b038811610727576000805160206153f48339815191529761376d816137688b54611e53565b613a14565b602080601f831160011461385b5750926137b561381195936107ac9a9b8461380c9561381e9b9a98600091613850575b508160011b916000199060031b1c1916179055613b5e565b6137de60007fa16a46d94261c7517cc8ff89f61c0ce93598e3c849801011dee649a6a557d10055565b61380760007fa16a46d94261c7517cc8ff89f61c0ce93598e3c849801011dee649a6a557d10155565b6138f0565b613c2b565b613819613d45565b613d07565b613826613ca1565b61382e613d45565b60018060a01b03166bffffffffffffffffffffffff60a01b6004541617600455565b90508501513861379d565b6000805160206153f483398151915260005290601f198316600080516020615454833981519152926000905b8282106138d8575050936107ac9a9b60018561381e9b9a98956137b59561380c986138119c9a106138bf575b5050811b019055613b5e565b87015160001960f88460031b161c1916905538806138b3565b80600185968294968b01518155019501930190613887565b906138f9613d45565b81516001600160401b038111610727576000805160206154948339815191529061392c816139278454611e53565b613a70565b602080601f831160011461396857508192939460009261395d575b50508160011b916000199060031b1c1916179055565b015190503880613947565b90601f198316956139a86000805160206154948339815191526000527fda13dda7583a39a3cd73e8830529c760837228fa4683752c823b17e10548aad590565b926000905b8882106139e5575050836001959697106139cc575b505050811b019055565b015160001960f88460031b161c191690553880806139c2565b806001859682949686015181550195019301906139ad565b818110613a08575050565b600081556001016139fd565b90601f8211613a21575050565b6107ac916000805160206153f4833981519152600052600080516020615454833981519152906020601f840160051c83019310613a66575b601f0160051c01906139fd565b9091508190613a59565b90601f8211613a7d575050565b6107ac916000805160206154948339815191526000527fda13dda7583a39a3cd73e8830529c760837228fa4683752c823b17e10548aad5906020601f840160051c83019310613a6657601f0160051c01906139fd565b90601f8211613ae0575050565b6107ac916000805160206154148339815191526000526000805160206154d4833981519152906020601f840160051c83019310613a6657601f0160051c01906139fd565b9190601f8111613b3357505050565b6107ac926000526020600020906020601f840160051c83019310613a6657601f0160051c01906139fd565b9081516001600160401b0381116107275760008051602061541483398151915290613b9281613b8d8454611e53565b613ad3565b602080601f8311600114613bc257508192939460009261395d5750508160011b916000199060031b1c1916179055565b90601f19831695613bf06000805160206154148339815191526000526000805160206154d483398151915290565b926000905b888210613c13575050836001959697106139cc57505050811b019055565b80600185968294968601518155019501930190613bf5565b90613c9c6107ac92613c3b613d45565b613c43613d45565b60008051602061539483398151915280547fc565b045403dc03c2eea82b81a0465edad9e2e7fc4d97e11421c209da93d7a936040805165ffffffffffff8416815260006020820152a165ffffffffffff19169055612594565b612626565b613ca9613d45565b613cb1613d45565b7f0553476bf02ef2726e8ce5ced78d63e26e602e4a2257b1f559418e24b463399760406001600160d01b03613ce461330e565b16613cf5613cf0612a16565b61344a565b505081519081526113ec6020820152a1565b613d0f613d45565b613d17613d45565b60008051602061543483398151915280546001600160a01b0319166001600160a01b03909216919091179055565b60ff6000805160206154b48339815191525460401c1615613d6257565b604051631afcd79f60e31b8152600490fd5b65ffffffffffff90811660001901919082116120ac57565b90816020910312610419575161055881610652565b9193929093613db36117908333613f49565b613f2057613dde613dd8613dcd613dc8612a16565b613d74565b65ffffffffffff1690565b336123a7565b7ed7616c8fe29c6c2fbe1d0c5bc8f2faa4c35b43746e70b24b4d532752affd005460045490969190613e2690613e1a906001600160a01b031681565b6001600160a01b031690565b6040518091634d3f464760e11b825281600460209485935afa9081156118ed57600091613f03575b508883109182613e94575b5050613e6d57506105589495503393614398565b604051636121770b60e11b8152336004820152602481019190915260448101879052606490fd5b604051636e9960c360e01b81526001600160a01b039350909182908290600490829087165afa9182156118ed57600092613ed6575b5050163314153880613e59565b613ef59250803d10613efc575b613eed818361077e565b810190613d8c565b3880613ec9565b503d613ee3565b613f1a9150823d8411613efc57613eed818361077e565b38613e4e565b60405163d9b3955760e01b8152336004820152602490fd5b908151811015610dc5570160200190565b8151603481106140005760131981840101516001600160a01b0319166b1b91f1b211f2119351b859f160a31b016140005791600092613f87816122f2565b915b818310613fa4575050506001600160a01b0391821691161490565b909193613fca613fc5613fb78785613f38565b516001600160f81b03191690565b614008565b919015613ff55760041b6010600160a01b031660ff919091161793613fee906120b1565b9190613f89565b505050505050600190565b505050600190565b60f81c9081602f108061407c575b1561402857600191602f190160ff1690565b8160401080614072575b15614044576001916036190160ff1690565b8160601080614068575b15614060576001916056190160ff1690565b600091508190565b506067821061404e565b5060478210614032565b50603a8210614016565b7f7fd223d3380145bd26132714391e777c488a0df7ac2dd4b66419d8549fb3a600805490600160401b8210156107275760018201808255821015610dc5576000527f417ab5363cd721cbd7a5446b963bb4274a7db26ef2bb28819834095c165ca17a0155565b818102929181159184041417156120ac57565b9181811061410c57505050565b6107ac92600052602060002091820191016139fd565b8151916001600160401b03831161072757600160401b83116107275761414d838354818555846140ff565b602080910191600052806000209060005b84811061416c575050505050565b8351838201559281019260010161415e565b91909182516001600160401b038111610727576141a58161419f8454611e53565b84613b24565b602080601f83116001146141d557508192939460009261395d5750508160011b916000199060031b1c1916179055565b90601f198316956141eb85600052602060002090565b926000905b88821061420e575050836001959697106139cc57505050811b019055565b806001859682949686015181550195019301906141f0565b815191600160401b8311610727578154838355808410614284575b50614256602080920192600052602060002090565b6000925b848410614268575050505050565b600183826142788394518661417e565b0192019301929061425a565b6000838152846020822092830192015b8281106142a2575050614241565b806142af60019254611e53565b806142bc575b5001614294565b601f9081811184146142d45750508281555b386142b5565b836142f6926142e885600052602060002090565b920160051c820191016139fd565b600081815260208120818355556142ce565b90805180516001600160401b03811161072757600160401b811161072757614335818554818755866140ff565b6020809201846000528260002060005b83811061437d575050505081614365606092600394015160018601614122565b614376604082015160028601614226565b0151910155565b82516001600160a01b03168282015591840191600101614345565b9194939483516143b06020860191822083858761200c565b94845184519081811480159061459d575b8015614595575b61456c57505065ffffffffffff806143f16143e28961203a565b5460a01c65ffffffffffff1690565b1661454557869798610558976144f584897f7d84a6263ae0d98d3329bd7b46bb4e8d6f98cd35a7adb45c274c8b7fd5ebd5e0958963ffffffff614450614435612a16565b600080516020615394833981519152549480861691166130d4565b9260301c166144d36144618861203a565b80546001600160a01b0319166001600160a01b038b161781556144aa61448686613094565b825465ffffffffffff60a01b191660a09190911b65ffffffffffff60a01b16178255565b6144b3836146c0565b815463ffffffff60d01b191660d09190911b63ffffffff60d01b16179055565b8c6144e86144e186516145a8565b92856130d4565b94604051998a998a6145f2565b0390a161450187614086565b5190209161450d6107ae565b93845260208401526040830152606082015261454083600052600080516020615474833981519152602052604060002090565b614308565b8661454f8161501e565b6040516331b75e4d60e01b81529182916117d09160048401612574565b8451604051630447b05d60e41b8152600481019290925260248201526044810191909152606490fd5b5080156143c8565b5084518114156143c1565b906145b282610893565b6145bf604051918261077e565b82815280926145d0601f1991610893565b019060005b8281106145e157505050565b8060606020809385010152016145d5565b959261462590614633939b9a9899969592885260209b60018060a01b03168c8901526101208060408a0152880190610ad1565b908682036060880152610b0e565b9784890360808601528251808a52818a019180808360051b8d01019501926000905b838210614692575050505050610558969750906146799184820360a0860152610b42565b9360c083015260e0820152610100818403910152610522565b909192939583806146b18f93600194601f199082030186528a51610522565b98019201920190939291614655565b63ffffffff908181116146d1571690565b604490604051906306dfcc6560e41b8252602060048301526024820152fd5b6001600160d01b03908116600101919082116120ac57565b92939160ff9160019361475a8161475161474a8560036147328c6000526000602052604060002090565b019060018060a01b0316600052602052604060002090565b5460ff1690565b9885858a6148ab565b961580614828575b61477c575b50501614614773575090565b610558906149aa565b61478f61478a6003546120b1565b600355565b6001600160a01b03821660009081526001602052604090206147f1906147b443613094565b6147eb6147e66147e16129796147dc8960018060a01b03166000526001602052604060002090565b613365565b613061565b6146f0565b916135e8565b50508686825115158061481d575b61480b575b5050614767565b61481493614b5a565b38808686614804565b5086868616146147ff565b5061484661474a8360036147328a6000526000602052604060002090565b614762565b93909260ff6148779361055897958752166020860152604085015260a0606085015260a0840190610522565b916080818403910152610522565b909260ff6080936105589695845216602083015260408201528160608201520190610522565b9291906148b78461501e565b6008811015610acc576002600160ff83161b161561497c57506148f36148eb6148e5613dcd6143e28861203a565b83612bb9565b838387615292565b94805115600014614940575061493a7fb8e138887d0aa13bab447e82de9d5c1777041ecd21ca36ba824ff1e6c07ddda4938660405194859460018060a01b03169785614885565b0390a290565b61493a907fe2babfbac5889a709b63bb7f598b324e08bc5a4fb9ec647fb3cbc9ec07eb8712948760405195869560018060a01b0316988661484b565b6040516331b75e4d60e01b8152600481018690526064916149a1906024830190610e4e565b60026044820152fd5b6149cf8160005260006020526040600020908154906002600184015493015491929190565b50600080516020615434833981519152546001600160a01b03169150602065ffffffffffff6149fd8561203a565b5460a01c16602460405180958193632394e7a360e21b835260048301525afa9182156118ed57600092614a3d575b5014614a345750565b6107ac90612800565b614a5691925060203d81116118e6576118d8818361077e565b9038614a2b565b90816020910312610419575180151581036104195790565b6020908181840312610419578051906001600160401b03821161041957019180601f84011215610419578251614aaa81610893565b93614ab8604051958661077e565b818552838086019260051b820101928311610419578301905b828210614adf575050505090565b8380918351614aed81611000565b815201910190614ad1565b90815180825260208080930193019160005b828110614b18575050505090565b835160ff1685529381019392810192600101614b0a565b90926080926105589594835260018060a01b0316602083015260408201528160608201520190614af8565b60045492939092614b7590613e1a906001600160a01b031681565b936040518095634d3f464760e11b825281600460209889935afa9081156118ed57600091614ce9575b506040516331a9108f60e11b8152600481018590526001600160a01b0391821691908781602481865afa9081156118ed57600091614ccc575b501615614cc457604051638209c69960e01b815260048101859052908690829060249082905afa9081156118ed57600091614c97575b5015614c9057614c4982867ff1cd7e1d668275f9d580c0adbf414afb0b7163a48f0bed7353f9cbab029b797597614c8b95518301019101614a75565b90614c5e614c578386614d32565b91826140ec565b614c7d614c75866000526002602052604060002090565b9182546130d4565b905560405194859485614b2f565b0390a1565b5050505050565b614cb79150863d8811614cbd575b614caf818361077e565b810190614a5d565b38614c0d565b503d614ca5565b505050505050565b614ce39150883d8a11613efc57613eed818361077e565b38614bd7565b614d009150863d8811613efc57613eed818361077e565b38614b9e565b90816020910312610419575161055881611000565b604090610558939281528160208201520190614af8565b6004805491929091614d4e90613e1a906001600160a01b031681565b91604091825193634d3f464760e11b855260209485818581855afa9081156118ed57600091615001575b50845163b9f7fe5360e01b815286818681865afa9081156118ed57600091614fe4575b508551630e57c33d60e01b815285810189815290986001600160a01b039390919084169089908b9081906020010381845afa998a156118ed5760009a614fbb575b5087516312903cd960e11b8152878101928352929189918491829081906020015b03915afa80156118ed57838992614e4394600093614f8c575b5089516387e2d55360e01b81528981019c8d5260ff90931660208d01521699909283918291604090910190565b03818b5afa9081156118ed57600091614f6f575b5060649781614e6c575b505050505050505090565b87985090869791614e9794959697518080968194637f1e7d4160e01b83528b83019190602083019252565b03915afa9182156118ed5785938891600094614f50575b5087516360295fdb60e11b815296879182905afa9283156118ed57614ef1968896600095614f31575b50516301cc047760e71b8152968795869485938401614d1b565b0392165afa9182156118ed57600092614f14575b50503880808080808080614e61565b614f2a9250803d106118e6576118d8818361077e565b3880614f05565b614f49919550873d8911613efc57613eed818361077e565b9338614ed7565b614f68919450823d84116118e6576118d8818361077e565b9238614eae565b614f869150873d89116118e6576118d8818361077e565b38614e57565b614fad919350843d8611614fb4575b614fa5818361077e565b810190614d06565b9138614e16565b503d614f9b565b89919a5091614fda614dfd9493833d85116118e6576118d8818361077e565b9a91509192614ddc565b614ffb9150873d8911613efc57613eed818361077e565b38614d9b565b6150189150863d8811613efc57613eed818361077e565b38614d78565b615027816150ff565b906008821015610acc576001821461503d575090565b8060206150686150bd9360005260006020526040600020908154906002600184015493015491929190565b5092905061509c613dcd6143e2615096613e1a6000805160206154348339815191525460018060a01b031690565b9361203a565b906040518080968194632394e7a360e21b8352600483019190602083019252565b03915afa9182156118ed576000926150df575b50146150d95790565b50600490565b6150f891925060203d81116118e6576118d8818361077e565b90386150d0565b6151088161203a565b5460ff8160f01c166151ec5760f81c6151e65761512a613dcd6143e28361203a565b80156151cd5761513b613dcd612a16565b809110156151c65761514c8261206d565b106151575750600190565b615163611790826151f3565b80156151a1575b156151755750600390565b613dcd60016151866151939361203a565b015465ffffffffffff1690565b61519c57600490565b600590565b506151c16117908260005260006020526040600020600181015490541090565b61516a565b5050600090565b604051636ad0607560e01b815260048101839052602490fd5b50600290565b5050600790565b60005260006020526040600020600080516020615374833981519152602052602465ffffffffffff60406000205460a01c16602060018060a01b03600080516020615434833981519152541660405193848092632394e7a360e21b82528560048301525afa9182156118ed5761528d9261527c92611dda92600092611de25750611dd4906128ee565b9160026001820154910154906130d4565b101590565b6152a860ff916000526000602052604060002090565b921690600383016152ce61474a83839060018060a01b0316600052602052604060002090565b615352576152fe916152f1919060018060a01b0316600052602052604060002090565b805460ff19166001179055565b80615314575061530f8282546130d4565b905590565b6001810361532b575060010161530f8282546130d4565b6002036153405760020161530f8282546130d4565b6040516303599be160e11b8152600490fd5b6040516371c6af4960e01b81526001600160a01b0383166004820152602490fdfe7c712897014dbe49c045ef1299aa2d5f9e67e48eea4403efa21f1e0f3ac0cb0100d7616c8fe29c6c2fbe1d0c5bc8f2faa4c35b43746e70b24b4d532752affd01e770710421fd2cad75ad828c61aa98f2d77d423a440b67872d0f65554148e000293b0181c8ec34cd3252e741689bdc21b70ee7a0ec76216439035a5c3718909ba16a46d94261c7517cc8ff89f61c0ce93598e3c849801011dee649a6a557d102a16a46d94261c7517cc8ff89f61c0ce93598e3c849801011dee649a6a557d1033ba4977254e415696610a40ebf2258dbfa0ec6a2ff64e84bfe715ff16977cc0042ad5d3e1f2e6e70edcf6d991b8a3023d3fca8047a131592f9edb9fd9b89d57d7fd223d3380145bd26132714391e777c488a0df7ac2dd4b66419d8549fb3a6017c712897014dbe49c045ef1299aa2d5f9e67e48eea4403efa21f1e0f3ac0cb00f0c57e16840df040f15088dc2f81fe391c3923bec73e23a9662efc9c229c6a005f9ce34815f8e11431c7bb75a8e6886a91478f7ffc1dbb0a98dc240fddd76b75a26469706673582212208a51ffff4d79469115b388d49d332441ab971dc5cefe519e57dec110db0efc3064736f6c63430008140033",
  "linkReferences": {},
  "deployedLinkReferences": {}
}