{
  "_format": "hh-sol-artifact-1",
  "contractName": "TokenVesting",
  "sourceName": "src/contracts/vesting/TokenVesting.sol",
  "abi": [
    {
      "inputs": [
        {
          "internalType": "address",
          "name": "token_",
          "type": "address"
        }
      ],
      "stateMutability": "nonpayable",
      "type": "constructor"
    },
    {
      "anonymous": false,
      "inputs": [
        {
          "indexed": true,
          "internalType": "address",
          "name": "user",
          "type": "address"
        },
        {
          "indexed": true,
          "internalType": "address",
          "name": "newOwner",
          "type": "address"
        }
      ],
      "name": "OwnershipTransferred",
      "type": "event"
    },
    {
      "stateMutability": "payable",
      "type": "fallback"
    },
    {
      "inputs": [
        {
          "internalType": "address",
          "name": "holder",
          "type": "address"
        }
      ],
      "name": "computeNextVestingScheduleIdForHolder",
      "outputs": [
        {
          "internalType": "bytes32",
          "name": "",
          "type": "bytes32"
        }
      ],
      "stateMutability": "view",
      "type": "function"
    },
    {
      "inputs": [
        {
          "internalType": "bytes32",
          "name": "vestingScheduleId",
          "type": "bytes32"
        }
      ],
      "name": "computeReleasableAmount",
      "outputs": [
        {
          "internalType": "uint256",
          "name": "",
          "type": "uint256"
        }
      ],
      "stateMutability": "view",
      "type": "function"
    },
    {
      "inputs": [
        {
          "internalType": "address",
          "name": "holder",
          "type": "address"
        },
        {
          "internalType": "uint256",
          "name": "index",
          "type": "uint256"
        }
      ],
      "name": "computeVestingScheduleIdForAddressAndIndex",
      "outputs": [
        {
          "internalType": "bytes32",
          "name": "",
          "type": "bytes32"
        }
      ],
      "stateMutability": "pure",
      "type": "function"
    },
    {
      "inputs": [
        {
          "internalType": "address",
          "name": "_beneficiary",
          "type": "address"
        },
        {
          "internalType": "uint256",
          "name": "_start",
          "type": "uint256"
        },
        {
          "internalType": "uint256",
          "name": "_cliff",
          "type": "uint256"
        },
        {
          "internalType": "uint256",
          "name": "_duration",
          "type": "uint256"
        },
        {
          "internalType": "uint256",
          "name": "_slicePeriodSeconds",
          "type": "uint256"
        },
        {
          "internalType": "bool",
          "name": "_revocable",
          "type": "bool"
        },
        {
          "internalType": "uint256",
          "name": "_amount",
          "type": "uint256"
        }
      ],
      "name": "createVestingSchedule",
      "outputs": [],
      "stateMutability": "nonpayable",
      "type": "function"
    },
    {
      "inputs": [
        {
          "internalType": "address",
          "name": "holder",
          "type": "address"
        }
      ],
      "name": "getLastVestingScheduleForHolder",
      "outputs": [
        {
          "components": [
            {
              "internalType": "address",
              "name": "beneficiary",
              "type": "address"
            },
            {
              "internalType": "uint256",
              "name": "cliff",
              "type": "uint256"
            },
            {
              "internalType": "uint256",
              "name": "start",
              "type": "uint256"
            },
            {
              "internalType": "uint256",
              "name": "duration",
              "type": "uint256"
            },
            {
              "internalType": "uint256",
              "name": "slicePeriodSeconds",
              "type": "uint256"
            },
            {
              "internalType": "bool",
              "name": "revocable",
              "type": "bool"
            },
            {
              "internalType": "uint256",
              "name": "amountTotal",
              "type": "uint256"
            },
            {
              "internalType": "uint256",
              "name": "released",
              "type": "uint256"
            },
            {
              "internalType": "bool",
              "name": "revoked",
              "type": "bool"
            }
          ],
          "internalType": "struct TokenVesting.VestingSchedule",
          "name": "",
          "type": "tuple"
        }
      ],
      "stateMutability": "view",
      "type": "function"
    },
    {
      "inputs": [],
      "name": "getToken",
      "outputs": [
        {
          "internalType": "address",
          "name": "",
          "type": "address"
        }
      ],
      "stateMutability": "view",
      "type": "function"
    },
    {
      "inputs": [
        {
          "internalType": "uint256",
          "name": "index",
          "type": "uint256"
        }
      ],
      "name": "getVestingIdAtIndex",
      "outputs": [
        {
          "internalType": "bytes32",
          "name": "",
          "type": "bytes32"
        }
      ],
      "stateMutability": "view",
      "type": "function"
    },
    {
      "inputs": [
        {
          "internalType": "bytes32",
          "name": "vestingScheduleId",
          "type": "bytes32"
        }
      ],
      "name": "getVestingSchedule",
      "outputs": [
        {
          "components": [
            {
              "internalType": "address",
              "name": "beneficiary",
              "type": "address"
            },
            {
              "internalType": "uint256",
              "name": "cliff",
              "type": "uint256"
            },
            {
              "internalType": "uint256",
              "name": "start",
              "type": "uint256"
            },
            {
              "internalType": "uint256",
              "name": "duration",
              "type": "uint256"
            },
            {
              "internalType": "uint256",
              "name": "slicePeriodSeconds",
              "type": "uint256"
            },
            {
              "internalType": "bool",
              "name": "revocable",
              "type": "bool"
            },
            {
              "internalType": "uint256",
              "name": "amountTotal",
              "type": "uint256"
            },
            {
              "internalType": "uint256",
              "name": "released",
              "type": "uint256"
            },
            {
              "internalType": "bool",
              "name": "revoked",
              "type": "bool"
            }
          ],
          "internalType": "struct TokenVesting.VestingSchedule",
          "name": "",
          "type": "tuple"
        }
      ],
      "stateMutability": "view",
      "type": "function"
    },
    {
      "inputs": [
        {
          "internalType": "address",
          "name": "holder",
          "type": "address"
        },
        {
          "internalType": "uint256",
          "name": "index",
          "type": "uint256"
        }
      ],
      "name": "getVestingScheduleByAddressAndIndex",
      "outputs": [
        {
          "components": [
            {
              "internalType": "address",
              "name": "beneficiary",
              "type": "address"
            },
            {
              "internalType": "uint256",
              "name": "cliff",
              "type": "uint256"
            },
            {
              "internalType": "uint256",
              "name": "start",
              "type": "uint256"
            },
            {
              "internalType": "uint256",
              "name": "duration",
              "type": "uint256"
            },
            {
              "internalType": "uint256",
              "name": "slicePeriodSeconds",
              "type": "uint256"
            },
            {
              "internalType": "bool",
              "name": "revocable",
              "type": "bool"
            },
            {
              "internalType": "uint256",
              "name": "amountTotal",
              "type": "uint256"
            },
            {
              "internalType": "uint256",
              "name": "released",
              "type": "uint256"
            },
            {
              "internalType": "bool",
              "name": "revoked",
              "type": "bool"
            }
          ],
          "internalType": "struct TokenVesting.VestingSchedule",
          "name": "",
          "type": "tuple"
        }
      ],
      "stateMutability": "view",
      "type": "function"
    },
    {
      "inputs": [],
      "name": "getVestingSchedulesCount",
      "outputs": [
        {
          "internalType": "uint256",
          "name": "",
          "type": "uint256"
        }
      ],
      "stateMutability": "view",
      "type": "function"
    },
    {
      "inputs": [
        {
          "internalType": "address",
          "name": "_beneficiary",
          "type": "address"
        }
      ],
      "name": "getVestingSchedulesCountByBeneficiary",
      "outputs": [
        {
          "internalType": "uint256",
          "name": "",
          "type": "uint256"
        }
      ],
      "stateMutability": "view",
      "type": "function"
    },
    {
      "inputs": [],
      "name": "getVestingSchedulesTotalAmount",
      "outputs": [
        {
          "internalType": "uint256",
          "name": "",
          "type": "uint256"
        }
      ],
      "stateMutability": "view",
      "type": "function"
    },
    {
      "inputs": [],
      "name": "getWithdrawableAmount",
      "outputs": [
        {
          "internalType": "uint256",
          "name": "",
          "type": "uint256"
        }
      ],
      "stateMutability": "view",
      "type": "function"
    },
    {
      "inputs": [],
      "name": "owner",
      "outputs": [
        {
          "internalType": "address",
          "name": "",
          "type": "address"
        }
      ],
      "stateMutability": "view",
      "type": "function"
    },
    {
      "inputs": [
        {
          "internalType": "bytes32",
          "name": "vestingScheduleId",
          "type": "bytes32"
        },
        {
          "internalType": "uint256",
          "name": "amount",
          "type": "uint256"
        }
      ],
      "name": "release",
      "outputs": [],
      "stateMutability": "nonpayable",
      "type": "function"
    },
    {
      "inputs": [
        {
          "internalType": "bytes32",
          "name": "vestingScheduleId",
          "type": "bytes32"
        }
      ],
      "name": "revoke",
      "outputs": [],
      "stateMutability": "nonpayable",
      "type": "function"
    },
    {
      "inputs": [
        {
          "internalType": "address",
          "name": "newOwner",
          "type": "address"
        }
      ],
      "name": "transferOwnership",
      "outputs": [],
      "stateMutability": "nonpayable",
      "type": "function"
    },
    {
      "inputs": [
        {
          "internalType": "uint256",
          "name": "amount",
          "type": "uint256"
        }
      ],
      "name": "withdraw",
      "outputs": [],
      "stateMutability": "nonpayable",
      "type": "function"
    },
    {
      "stateMutability": "payable",
      "type": "receive"
    }
  ],
  "bytecode": "0x60a0346100d257601f61132d38819003918201601f19168301916001600160401b038311848410176100d7578084926020946040528339810103126100d257516001600160a01b038116908190036100d257600080546001600160a01b031916339081178255604051929190817f8be0079c531659141344cd1fd0a4f28419497f9722a3daafe3b4186f6b6457e08180a36001805581156100cf575060805261123f90816100ee8239608051818181610437015281816107550152818161090f0152818161099f01526110420152f35b80fd5b600080fd5b634e487b7160e01b600052604160045260246000fdfe608060409080825260049081361015610020575b505050361561001e57005b005b600090813560e01c9081631308361714610d7f5750806317e289e9146109ce57806321df0da71461098a5780632e1a7d4d146108bc57806348deb4711461089d5780635a7bb69a1461086557806366afd8ef146106b65780637e913dc61461063c5780638af104da146106135780638da5cb5b146105eb57806390be10cc146105ce5780639ef346b4146105ac578063b75c7dc61461031f578063ea1bb3d5146102db578063f2fde38b1461026e578063f51321d7146101be578063f7c469f0146101785763f9079b3703610013573461017557602036600319011261017557508035906002548210156101285760208361011a84610e47565b91905490519160031b1c8152f35b608490602084519162461bcd60e51b8352820152602160248201527f546f6b656e56657374696e673a20696e646578206f7574206f6620626f756e646044820152607360f81b6064820152fd5b80fd5b5082346101ba5760203660031901126101ba576101b36020928261019a610d9b565b6001600160a01b038116835260058652912054906110f1565b9051908152f35b5080fd5b5082346101ba57806003193601126101ba5761026a906101f96101f46101e2610d9b565b6101ea610fc1565b50602435906110f1565b611006565b90519182918291909161012081019260018060a01b0381511682526020810151602083015260408101516040830152606081015160608301526080810151608083015260a0810151151560a083015260c081015160c083015260e081015160e0830152610100809101511515910152565b0390f35b503461017557602036600319011261017557610288610d9b565b8154906001600160a01b03906102a13383851614610db6565b1680916001600160601b0360a01b16178255337f8be0079c531659141344cd1fd0a4f28419497f9722a3daafe3b4186f6b6457e08380a380f35b5091903461031b57602036600319011261031b5735825260036020528082209160ff60088401541661017557506101b3610316602093610e94565b611167565b8280fd5b5091903461031b576020806003193601126105a8578354823590336001600160a01b03918216149061035082610db6565b8287526003845285872093600885019660ff8854166105a45760ff600587015416156105525761038261031687610e94565b94856103ba575b8989896103aa6103a38b6007600682015491015490610f0a565b8254610f0a565b9055805460ff1916600117905580f35b6103c76001805414610f17565b60026001558952600382528089209260ff60088501541661054e5783541693843314908115610546575b50156104d2578461040461031685610e94565b106104695750506103a3926103aa9492600761045b9301610426838254610df1565b9055610433828854610f0a565b87557f0000000000000000000000000000000000000000000000000000000000000000610f50565b600180559138808080610389565b5162461bcd60e51b815280870191909152603d60248201527f546f6b656e56657374696e673a2063616e6e6f742072656c6561736520746f6b60448201527f656e732c206e6f7420656e6f7567682076657374656420746f6b656e730000006064820152608490fd5b5162461bcd60e51b815280870191909152604260248201527f546f6b656e56657374696e673a206f6e6c792062656e6566696369617279206160448201527f6e64206f776e65722063616e2072656c656173652076657374656420746f6b656064820152616e7360f01b608482015260a490fd5b9050386103f1565b8980fd5b5162461bcd60e51b815280870191909152602660248201527f546f6b656e56657374696e673a2076657374696e67206973206e6f74207265766044820152656f6361626c6560d01b6064820152608490fd5b8880fd5b8380fd5b5082903461017557602036600319011261017557506101f961026a9235611006565b5082346101ba57816003193601126101ba576020906101b3611027565b5082346101ba57816003193601126101ba57905490516001600160a01b039091168152602090f35b5082346101ba57806003193601126101ba576020906101b3610633610d9b565b602435906110f1565b5082903461017557602036600319011261017557610658610d9b565b610660610fc1565b506001600160a01b03811682526005602052828220546000198101919082116106a3579280926106966101f99361026a966110f1565b8152600360205220610e94565b634e487b7160e01b835260118552602483fd5b5090346101ba57826003193601126101ba57602435906106d96001805414610f17565b60026001558035835260036020528383209060ff6008830154166105a857815484546001600160a01b039182169391338086149290911614811561085d575b50156107e9578361072b61031683610e94565b1061078057610779949550600701610744848254610df1565b9055610751838254610f0a565b90557f0000000000000000000000000000000000000000000000000000000000000000610f50565b6001805580f35b855162461bcd60e51b8152602081840152603d60248201527f546f6b656e56657374696e673a2063616e6e6f742072656c6561736520746f6b60448201527f656e732c206e6f7420656e6f7567682076657374656420746f6b656e730000006064820152608490fd5b855162461bcd60e51b8152602081840152604260248201527f546f6b656e56657374696e673a206f6e6c792062656e6566696369617279206160448201527f6e64206f776e65722063616e2072656c656173652076657374656420746f6b656064820152616e7360f01b608482015260a490fd5b905038610718565b5082346101ba5760203660031901126101ba5760209181906001600160a01b0361088d610d9b565b1681526005845220549051908152f35b5091903461031b578260031936011261031b5760209250549051908152f35b5091903461031b57602036600319011261031b578035916108e06001805414610f17565b60026001556108f960018060a01b038554163314610db6565b82610902611027565b10610933578361077984337f0000000000000000000000000000000000000000000000000000000000000000610f50565b906020608492519162461bcd60e51b8352820152602b60248201527f546f6b656e56657374696e673a206e6f7420656e6f756768207769746864726160448201526a7761626c652066756e647360a81b6064820152fd5b5082346101ba57816003193601126101ba57517f00000000000000000000000000000000000000000000000000000000000000006001600160a01b03168152602090f35b50913461031b5760e036600319011261031b576109e9610d9b565b60248035604480359187606480356084359060a43592831515809403610d7b5760c43596610a2260018060a01b03809754163314610db6565b87610a2b611027565b10610d01578215610cb5578715610c765760018410610c1f57888310610bce5750509183918a938d958b169a8b8752600560205285872054610a6c916110f1565b98610a779088610df1565b96855197610a8489610e14565b8c895260208901908152868901918252606089019283526080890193845260a0890194855260c08901958a875260e08a01978989526101008b0199808b528d81526003602052209951166001600160601b0360a01b8a5416178955516001890155516002880155516003870155518b8601555115156005850190610b13919060ff801983541691151516179055565b5160068401555160078301555115159060080190610b3c919060ff801983541691151516179055565b855490610b4891610df1565b855560025468010000000000000000811015610bbc57806001610b6e9201600255610e47565b819291549060031b91821b91600019901b19161790558185526005602052828520549360018501809511610bab5750508352600560205282205580f35b634e487b7160e01b86526011905284fd5b634e487b7160e01b8752604186528287fd5b661e9031b634b33360c91b6084927f546f6b656e56657374696e673a206475726174696f6e206d757374206265203e8f938f8e6020602792519762461bcd60e51b8952880152860152840152820152fd5b6c206d757374206265203e3d203160981b6084927f546f6b656e56657374696e673a20736c696365506572696f645365636f6e64738f938f8e6020602d92519762461bcd60e51b8952880152860152840152820152fd5b7f546f6b656e56657374696e673a20616d6f756e74206d757374206265203e20308d9160208c8f8290519562461bcd60e51b8752860152840152820152fd5b61020360f41b6084927f546f6b656e56657374696e673a206475726174696f6e206d757374206265203e8f938f8e6020602292519762461bcd60e51b8952880152860152840152820152fd5b7f696e67207363686564756c652062656361757365206e6f74207375666669636960a4927f546f6b656e56657374696e673a2063616e6e6f742063726561746520766573748f938f8e6020604a92519762461bcd60e51b895288015286015284015282015269656e7420746f6b656e7360b01b6084820152fd5b8480fd5b9050346101ba57816003193601126101ba576020906002548152f35b600435906001600160a01b0382168203610db157565b600080fd5b15610dbd57565b60405162461bcd60e51b815260206004820152600c60248201526b15539055551213d49256915160a21b6044820152606490fd5b91908201809211610dfe57565b634e487b7160e01b600052601160045260246000fd5b610120810190811067ffffffffffffffff821117610e3157604052565b634e487b7160e01b600052604160045260246000fd5b600254811015610e7e5760026000527f405787fa12a823e0f2b7631cc41b3ba8828b3321ca811111fa75cd3aa3bb5ace0190600090565b634e487b7160e01b600052603260045260246000fd5b90604051610ea181610e14565b61010060ff6008839560018060a01b0381541685526001810154602086015260028101546040860152600381015460608601526004810154608086015282600582015416151560a0860152600681015460c0860152600781015460e08601520154161515910152565b91908203918211610dfe57565b15610f1e57565b60405162461bcd60e51b815260206004820152600a6024820152695245454e5452414e435960b01b6044820152606490fd5b600091826044926020956040519363a9059cbb60e01b8552600485015260248401525af13d15601f3d1160016000511416171615610f8a57565b60405162461bcd60e51b815260206004820152600f60248201526e1514905394d1915497d19052531151608a1b6044820152606490fd5b60405190610fce82610e14565b816101006000918281528260208201528260408201528260608201528260808201528260a08201528260c08201528260e08201520152565b61100e610fc1565b5060005260036020526110246040600020610e94565b90565b6040516370a0823160e01b81523060048201526020816024817f00000000000000000000000000000000000000000000000000000000000000006001600160a01b03165afa80156110e557600090611088575b611024915060045490610f0a565b60203d81116110de575b601f8101601f1916830167ffffffffffffffff8111848210176110ca576020918491604052810103126101755750611024905161107a565b634e487b7160e01b83526041600452602483fd5b503d611092565b6040513d6000823e3d90fd5b906040519060208201926001600160601b03199060601b1683526034820152603481526060810181811067ffffffffffffffff821117610e315760405251902090565b811561113e570490565b634e487b7160e01b600052601260045260246000fd5b81810292918115918404141715610dfe57565b602081019081519182421080156111fb575b1561118657505050600090565b6111966060830193845190610df1565b42106111b25750611024915060e060c082015191015190610f0a565b6111f2611024936111ea6111e06111cc60e0955142610f0a565b6111db60808801518092611134565b611154565b60c0860151611154565b905190611134565b91015190610f0a565b50610100820151151561117956fea2646970667358221220f863c69990ecec1f2735708181bd95e65d5cf50a31e3426d4d3f71ae868d3bbd64736f6c63430008140033",
  "linkReferences": {},
  "deployedLinkReferences": {}
}