{
  "_format": "hh-sol-artifact-1",
  "contractName": "ContributionNft",
  "sourceName": "src/contracts/contribution/ContributionNft.sol",
  "abi": [
    {
      "inputs": [],
      "stateMutability": "nonpayable",
      "type": "constructor"
    },
    {
      "inputs": [],
      "name": "ERC721EnumerableForbiddenBatchMint",
      "type": "error"
    },
    {
      "inputs": [
        {
          "internalType": "address",
          "name": "sender",
          "type": "address"
        },
        {
          "internalType": "uint256",
          "name": "tokenId",
          "type": "uint256"
        },
        {
          "internalType": "address",
          "name": "owner",
          "type": "address"
        }
      ],
      "name": "ERC721IncorrectOwner",
      "type": "error"
    },
    {
      "inputs": [
        {
          "internalType": "address",
          "name": "operator",
          "type": "address"
        },
        {
          "internalType": "uint256",
          "name": "tokenId",
          "type": "uint256"
        }
      ],
      "name": "ERC721InsufficientApproval",
      "type": "error"
    },
    {
      "inputs": [
        {
          "internalType": "address",
          "name": "approver",
          "type": "address"
        }
      ],
      "name": "ERC721InvalidApprover",
      "type": "error"
    },
    {
      "inputs": [
        {
          "internalType": "address",
          "name": "operator",
          "type": "address"
        }
      ],
      "name": "ERC721InvalidOperator",
      "type": "error"
    },
    {
      "inputs": [
        {
          "internalType": "address",
          "name": "owner",
          "type": "address"
        }
      ],
      "name": "ERC721InvalidOwner",
      "type": "error"
    },
    {
      "inputs": [
        {
          "internalType": "address",
          "name": "receiver",
          "type": "address"
        }
      ],
      "name": "ERC721InvalidReceiver",
      "type": "error"
    },
    {
      "inputs": [
        {
          "internalType": "address",
          "name": "sender",
          "type": "address"
        }
      ],
      "name": "ERC721InvalidSender",
      "type": "error"
    },
    {
      "inputs": [
        {
          "internalType": "uint256",
          "name": "tokenId",
          "type": "uint256"
        }
      ],
      "name": "ERC721NonexistentToken",
      "type": "error"
    },
    {
      "inputs": [
        {
          "internalType": "address",
          "name": "owner",
          "type": "address"
        },
        {
          "internalType": "uint256",
          "name": "index",
          "type": "uint256"
        }
      ],
      "name": "ERC721OutOfBoundsIndex",
      "type": "error"
    },
    {
      "inputs": [],
      "name": "InvalidInitialization",
      "type": "error"
    },
    {
      "inputs": [],
      "name": "NotInitializing",
      "type": "error"
    },
    {
      "anonymous": false,
      "inputs": [
        {
          "indexed": true,
          "internalType": "address",
          "name": "owner",
          "type": "address"
        },
        {
          "indexed": true,
          "internalType": "address",
          "name": "approved",
          "type": "address"
        },
        {
          "indexed": true,
          "internalType": "uint256",
          "name": "tokenId",
          "type": "uint256"
        }
      ],
      "name": "Approval",
      "type": "event"
    },
    {
      "anonymous": false,
      "inputs": [
        {
          "indexed": true,
          "internalType": "address",
          "name": "owner",
          "type": "address"
        },
        {
          "indexed": true,
          "internalType": "address",
          "name": "operator",
          "type": "address"
        },
        {
          "indexed": false,
          "internalType": "bool",
          "name": "approved",
          "type": "bool"
        }
      ],
      "name": "ApprovalForAll",
      "type": "event"
    },
    {
      "anonymous": false,
      "inputs": [
        {
          "indexed": false,
          "internalType": "uint256",
          "name": "_fromTokenId",
          "type": "uint256"
        },
        {
          "indexed": false,
          "internalType": "uint256",
          "name": "_toTokenId",
          "type": "uint256"
        }
      ],
      "name": "BatchMetadataUpdate",
      "type": "event"
    },
    {
      "anonymous": false,
      "inputs": [
        {
          "indexed": false,
          "internalType": "uint64",
          "name": "version",
          "type": "uint64"
        }
      ],
      "name": "Initialized",
      "type": "event"
    },
    {
      "anonymous": false,
      "inputs": [
        {
          "indexed": false,
          "internalType": "uint256",
          "name": "_tokenId",
          "type": "uint256"
        }
      ],
      "name": "MetadataUpdate",
      "type": "event"
    },
    {
      "anonymous": false,
      "inputs": [
        {
          "indexed": false,
          "internalType": "uint256",
          "name": "tokenId",
          "type": "uint256"
        },
        {
          "indexed": false,
          "internalType": "uint256",
          "name": "limelightId",
          "type": "uint256"
        },
        {
          "indexed": false,
          "internalType": "uint256",
          "name": "parentId",
          "type": "uint256"
        },
        {
          "indexed": false,
          "internalType": "uint256",
          "name": "datasetId",
          "type": "uint256"
        }
      ],
      "name": "NewContribution",
      "type": "event"
    },
    {
      "anonymous": false,
      "inputs": [
        {
          "indexed": true,
          "internalType": "address",
          "name": "from",
          "type": "address"
        },
        {
          "indexed": true,
          "internalType": "address",
          "name": "to",
          "type": "address"
        },
        {
          "indexed": true,
          "internalType": "uint256",
          "name": "tokenId",
          "type": "uint256"
        }
      ],
      "name": "Transfer",
      "type": "event"
    },
    {
      "inputs": [
        {
          "internalType": "address",
          "name": "to",
          "type": "address"
        },
        {
          "internalType": "uint256",
          "name": "tokenId",
          "type": "uint256"
        }
      ],
      "name": "approve",
      "outputs": [],
      "stateMutability": "nonpayable",
      "type": "function"
    },
    {
      "inputs": [
        {
          "internalType": "address",
          "name": "owner",
          "type": "address"
        }
      ],
      "name": "balanceOf",
      "outputs": [
        {
          "internalType": "uint256",
          "name": "",
          "type": "uint256"
        }
      ],
      "stateMutability": "view",
      "type": "function"
    },
    {
      "inputs": [],
      "name": "getAdmin",
      "outputs": [
        {
          "internalType": "address",
          "name": "",
          "type": "address"
        }
      ],
      "stateMutability": "view",
      "type": "function"
    },
    {
      "inputs": [
        {
          "internalType": "uint256",
          "name": "tokenId",
          "type": "uint256"
        }
      ],
      "name": "getApproved",
      "outputs": [
        {
          "internalType": "address",
          "name": "",
          "type": "address"
        }
      ],
      "stateMutability": "view",
      "type": "function"
    },
    {
      "inputs": [
        {
          "internalType": "uint256",
          "name": "limelightId",
          "type": "uint256"
        }
      ],
      "name": "getArtistDAO",
      "outputs": [
        {
          "internalType": "contract IGovernor",
          "name": "",
          "type": "address"
        }
      ],
      "stateMutability": "view",
      "type": "function"
    },
    {
      "inputs": [
        {
          "internalType": "uint256",
          "name": "tokenId",
          "type": "uint256"
        }
      ],
      "name": "getChildren",
      "outputs": [
        {
          "internalType": "uint256[]",
          "name": "",
          "type": "uint256[]"
        }
      ],
      "stateMutability": "view",
      "type": "function"
    },
    {
      "inputs": [
        {
          "internalType": "uint256",
          "name": "tokenId",
          "type": "uint256"
        }
      ],
      "name": "getCore",
      "outputs": [
        {
          "internalType": "uint8",
          "name": "",
          "type": "uint8"
        }
      ],
      "stateMutability": "view",
      "type": "function"
    },
    {
      "inputs": [
        {
          "internalType": "uint256",
          "name": "tokenId",
          "type": "uint256"
        }
      ],
      "name": "getDatasetId",
      "outputs": [
        {
          "internalType": "uint256",
          "name": "",
          "type": "uint256"
        }
      ],
      "stateMutability": "view",
      "type": "function"
    },
    {
      "inputs": [],
      "name": "getEloCalculator",
      "outputs": [
        {
          "internalType": "address",
          "name": "",
          "type": "address"
        }
      ],
      "stateMutability": "view",
      "type": "function"
    },
    {
      "inputs": [
        {
          "internalType": "uint256",
          "name": "tokenId",
          "type": "uint256"
        }
      ],
      "name": "getParentId",
      "outputs": [
        {
          "internalType": "uint256",
          "name": "",
          "type": "uint256"
        }
      ],
      "stateMutability": "view",
      "type": "function"
    },
    {
      "inputs": [
        {
          "internalType": "address",
          "name": "thePersonaAddress",
          "type": "address"
        }
      ],
      "name": "initialize",
      "outputs": [],
      "stateMutability": "nonpayable",
      "type": "function"
    },
    {
      "inputs": [
        {
          "internalType": "uint256",
          "name": "tokenId",
          "type": "uint256"
        }
      ],
      "name": "isAccepted",
      "outputs": [
        {
          "internalType": "bool",
          "name": "",
          "type": "bool"
        }
      ],
      "stateMutability": "view",
      "type": "function"
    },
    {
      "inputs": [
        {
          "internalType": "address",
          "name": "owner",
          "type": "address"
        },
        {
          "internalType": "address",
          "name": "operator",
          "type": "address"
        }
      ],
      "name": "isApprovedForAll",
      "outputs": [
        {
          "internalType": "bool",
          "name": "",
          "type": "bool"
        }
      ],
      "stateMutability": "view",
      "type": "function"
    },
    {
      "inputs": [
        {
          "internalType": "uint256",
          "name": "tokenId",
          "type": "uint256"
        }
      ],
      "name": "isModel",
      "outputs": [
        {
          "internalType": "bool",
          "name": "",
          "type": "bool"
        }
      ],
      "stateMutability": "view",
      "type": "function"
    },
    {
      "inputs": [
        {
          "internalType": "address",
          "name": "to",
          "type": "address"
        },
        {
          "internalType": "uint256",
          "name": "limelightId",
          "type": "uint256"
        },
        {
          "internalType": "uint8",
          "name": "coreId",
          "type": "uint8"
        },
        {
          "internalType": "string",
          "name": "newTokenURI",
          "type": "string"
        },
        {
          "internalType": "uint256",
          "name": "proposalId",
          "type": "uint256"
        },
        {
          "internalType": "uint256",
          "name": "parentId",
          "type": "uint256"
        },
        {
          "internalType": "bool",
          "name": "isModel_",
          "type": "bool"
        },
        {
          "internalType": "uint256",
          "name": "datasetId",
          "type": "uint256"
        }
      ],
      "name": "mint",
      "outputs": [
        {
          "internalType": "uint256",
          "name": "",
          "type": "uint256"
        }
      ],
      "stateMutability": "nonpayable",
      "type": "function"
    },
    {
      "inputs": [
        {
          "internalType": "uint256",
          "name": "",
          "type": "uint256"
        }
      ],
      "name": "modelContributions",
      "outputs": [
        {
          "internalType": "bool",
          "name": "",
          "type": "bool"
        }
      ],
      "stateMutability": "view",
      "type": "function"
    },
    {
      "inputs": [
        {
          "internalType": "uint256",
          "name": "",
          "type": "uint256"
        }
      ],
      "name": "modelDatasets",
      "outputs": [
        {
          "internalType": "uint256",
          "name": "",
          "type": "uint256"
        }
      ],
      "stateMutability": "view",
      "type": "function"
    },
    {
      "inputs": [],
      "name": "name",
      "outputs": [
        {
          "internalType": "string",
          "name": "",
          "type": "string"
        }
      ],
      "stateMutability": "view",
      "type": "function"
    },
    {
      "inputs": [
        {
          "internalType": "uint256",
          "name": "tokenId",
          "type": "uint256"
        }
      ],
      "name": "ownerOf",
      "outputs": [
        {
          "internalType": "address",
          "name": "",
          "type": "address"
        }
      ],
      "stateMutability": "view",
      "type": "function"
    },
    {
      "inputs": [],
      "name": "personaNft",
      "outputs": [
        {
          "internalType": "address",
          "name": "",
          "type": "address"
        }
      ],
      "stateMutability": "view",
      "type": "function"
    },
    {
      "inputs": [
        {
          "internalType": "address",
          "name": "from",
          "type": "address"
        },
        {
          "internalType": "address",
          "name": "to",
          "type": "address"
        },
        {
          "internalType": "uint256",
          "name": "tokenId",
          "type": "uint256"
        }
      ],
      "name": "safeTransferFrom",
      "outputs": [],
      "stateMutability": "nonpayable",
      "type": "function"
    },
    {
      "inputs": [
        {
          "internalType": "address",
          "name": "from",
          "type": "address"
        },
        {
          "internalType": "address",
          "name": "to",
          "type": "address"
        },
        {
          "internalType": "uint256",
          "name": "tokenId",
          "type": "uint256"
        },
        {
          "internalType": "bytes",
          "name": "data",
          "type": "bytes"
        }
      ],
      "name": "safeTransferFrom",
      "outputs": [],
      "stateMutability": "nonpayable",
      "type": "function"
    },
    {
      "inputs": [
        {
          "internalType": "address",
          "name": "newAdmin",
          "type": "address"
        }
      ],
      "name": "setAdmin",
      "outputs": [],
      "stateMutability": "nonpayable",
      "type": "function"
    },
    {
      "inputs": [
        {
          "internalType": "address",
          "name": "operator",
          "type": "address"
        },
        {
          "internalType": "bool",
          "name": "approved",
          "type": "bool"
        }
      ],
      "name": "setApprovalForAll",
      "outputs": [],
      "stateMutability": "nonpayable",
      "type": "function"
    },
    {
      "inputs": [
        {
          "internalType": "address",
          "name": "eloCalculator_",
          "type": "address"
        }
      ],
      "name": "setEloCalculator",
      "outputs": [],
      "stateMutability": "nonpayable",
      "type": "function"
    },
    {
      "inputs": [
        {
          "internalType": "bytes4",
          "name": "interfaceId",
          "type": "bytes4"
        }
      ],
      "name": "supportsInterface",
      "outputs": [
        {
          "internalType": "bool",
          "name": "",
          "type": "bool"
        }
      ],
      "stateMutability": "view",
      "type": "function"
    },
    {
      "inputs": [],
      "name": "symbol",
      "outputs": [
        {
          "internalType": "string",
          "name": "",
          "type": "string"
        }
      ],
      "stateMutability": "view",
      "type": "function"
    },
    {
      "inputs": [
        {
          "internalType": "uint256",
          "name": "index",
          "type": "uint256"
        }
      ],
      "name": "tokenByIndex",
      "outputs": [
        {
          "internalType": "uint256",
          "name": "",
          "type": "uint256"
        }
      ],
      "stateMutability": "view",
      "type": "function"
    },
    {
      "inputs": [
        {
          "internalType": "uint256",
          "name": "tokenId",
          "type": "uint256"
        }
      ],
      "name": "tokenLimelightId",
      "outputs": [
        {
          "internalType": "uint256",
          "name": "",
          "type": "uint256"
        }
      ],
      "stateMutability": "view",
      "type": "function"
    },
    {
      "inputs": [
        {
          "internalType": "address",
          "name": "owner",
          "type": "address"
        },
        {
          "internalType": "uint256",
          "name": "index",
          "type": "uint256"
        }
      ],
      "name": "tokenOfOwnerByIndex",
      "outputs": [
        {
          "internalType": "uint256",
          "name": "",
          "type": "uint256"
        }
      ],
      "stateMutability": "view",
      "type": "function"
    },
    {
      "inputs": [
        {
          "internalType": "uint256",
          "name": "tokenId",
          "type": "uint256"
        }
      ],
      "name": "tokenURI",
      "outputs": [
        {
          "internalType": "string",
          "name": "",
          "type": "string"
        }
      ],
      "stateMutability": "view",
      "type": "function"
    },
    {
      "inputs": [],
      "name": "totalSupply",
      "outputs": [
        {
          "internalType": "uint256",
          "name": "",
          "type": "uint256"
        }
      ],
      "stateMutability": "view",
      "type": "function"
    },
    {
      "inputs": [
        {
          "internalType": "address",
          "name": "from",
          "type": "address"
        },
        {
          "internalType": "address",
          "name": "to",
          "type": "address"
        },
        {
          "internalType": "uint256",
          "name": "tokenId",
          "type": "uint256"
        }
      ],
      "name": "transferFrom",
      "outputs": [],
      "stateMutability": "nonpayable",
      "type": "function"
    }
  ],
  "bytecode": "0x608080604052346100b8577ff0c57e16840df040f15088dc2f81fe391c3923bec73e23a9662efc9c229c6a009081549060ff8260401c166100a957506001600160401b036002600160401b031982821601610064575b60405161229b90816100be8239f35b6001600160401b031990911681179091556040519081527fc7f505b2f371ae2175ee4913f4499e1f2633a7b5936321eed1cdaeb6115181d290602090a1388080610055565b63f92ee8a960e01b8152600490fd5b600080fdfe608080604052600436101561001357600080fd5b60003560e01c90816301ffc9a7146118085750806306fdde0314611741578063081812fc146116f6578063095ea7b31461160f5780630e57c33d146115e357806318160ddd146115b85780631ca95e131461152257806323b872dd1461150b578063252079b2146114dc57806329bc3b851461141d5780632f745c591461138c57806342842e0e1461136457806349ae8dc3146112be5780634f6ccce71461125b5780636352211e1461121a5780636e9960c3146111f1578063704b6c021461116957806370a082311461113e5780638209c69914610f375780638fc245be1461110e57806395d89b4114611008578063a22cb46514610f68578063a761299714610f37578063b88d4fde14610ed5578063c052bfb614610eac578063c14b197a1461085d578063c4d66de814610a3d578063c87b56dd1461092c578063dbdd0aab14610900578063dcf75bef146108d7578063e985e9c514610889578063ed1aa24c1461085d5763f031f7301461018a57600080fd5b3461084457610100366003190112610844576101a46118e7565b60443560ff811681036108445760643567ffffffffffffffff81116108445736602382011215610844576101e29036906024816004013591016119be565b9160c435151560c43503610844576101fb602435611ff4565b604051630143489d60e41b815260843560048201526001600160a01b0392916020908290602490829087165afa8015610851578391600091610810575b501633036107b25760843560a4351461076d5781811615610754576084356000526000805160206122268339815191526020528160406000205416918261070c575b61028382611a2e565b6001815401905560843560005260008051602061222683398151915260205260406000208183166001600160601b0360a01b825416179055608435818316847fddf252ad1be2c89b69c2b068fc378daa952ba7f163c4a11628f55a4df523b3ef600080a48261066657600080516020612206833981519152546084356000527f645e039705490088daad89bae25049a34f4a9072d398537b1ab2425f24cbed03602052604060002055610337608435612181565b80821683036105ea575b50506105d1576084356000527f0542a41881ee128a365a727b282c86fa859579490b9bb45aab8503648c8e79006020526040600020825167ffffffffffffffff8111610504576103918254611a9c565b601f811161058b575b506020601f8211600114610525578192939460009261051a575b50508160011b916000199060031b1c19161790555b7ff8e1a15aba9398e019f0b49df1a4fde98ee17ae345cb5f6b5e2c27f5033e8ce760206040516084358152a16084356000526001602052602435604060002055600260205260a43560406000205560a43560005260036020526040600020805490600160401b82101561050457600182018082558210156104ee5760005260843590602060002001556084356000526004602052604060002060ff801992168282541617905560c4356104c7575b7fb0c63b0a40c3e23bce51bffd048743be952d168e928fb6f768c58cb8ceec5f8060806040516084358152602435602082015260a435604082015260e4356060820152a160206040516084358152f35b60056020526001604060002091825416179055600660205260e43560406000205538610477565b634e487b7160e01b600052603260045260246000fd5b634e487b7160e01b600052604160045260246000fd5b0151905038806103b4565b601f198216908360005260206000209160005b8181106105735750958360019596971061055a575b505050811b0190556103c9565b015160001960f88460031b161c1916905538808061054d565b9192602060018192868b015181550194019201610538565b826000526020600020601f830160051c8101602084106105ca575b601f90920160051c01905b8181106105be575061039a565b600081556001016105b1565b50806105a6565b6040516339e3563760e11b815260006004820152602490fd5b6105f382611a67565b60001981019290831161065057166000526000805160206121e68339815191526020526040600020816000526020526084356040600020556084356000526000805160206121c68339815191526020526040600020553880610341565b634e487b7160e01b600052601160045260246000fd5b81811683146103375761067883611a67565b6084356000526000805160206121c6833981519152908160205260406000205491856000526000805160206121e68339815191526020526040600020928281036106e0575b506084356000526020526000604081205560005260205260006040812055610337565b8260005283602052604060002054816000528060406000205560005281602052604060002055386106bd565b61073e60843560005260008051602061224683398151915260205260406000206001600160601b0360a01b8154169055565b61074783611a2e565b805460001901905561027a565b604051633250574960e11b815260006004820152602490fd5b60405162461bcd60e51b815260206004820152601a60248201527f43616e6e6f7420626520706172656e74206f6620697473656c660000000000006044820152606490fd5b60405162461bcd60e51b815260206004820152603060248201527f4f6e6c792070726f706f73616c2070726f706f7365722063616e206d696e742060448201526f10dbdb9d1c9a589d5d1a5bdb8813919560821b6064820152608490fd5b9150506020813d602011610849575b8161082c60209383611980565b810103126108445761083e8391611fe0565b38610238565b600080fd5b3d915061081f565b6040513d6000823e3d90fd5b346108445760203660031901126108445760043560005260066020526020604060002054604051908152f35b34610844576040366003190112610844576108a26118e7565b6108b36108ad6118fd565b916119f5565b9060018060a01b0316600052602052602060ff604060002054166040519015158152f35b34610844576000366003190112610844576000546040516001600160a01b039091168152602090f35b346108445760203660031901126108445760043560005260026020526020604060002054604051908152f35b34610844576020806003193601126108445760043561094a81611f14565b506000527f0542a41881ee128a365a727b282c86fa859579490b9bb45aab8503648c8e7900815260406000209060405191826000825461098981611a9c565b93848452600191868382169182600014610a1b5750506001146109dc575b50506109b592500383611980565b60006040516109c381611948565b526109d86040519282849384528301906118a7565b0390f35b85925060005281600020906000915b858310610a035750506109b5935082010185806109a7565b805483890185015287945086939092019181016109eb565b92509350506109b594915060ff191682840152151560051b82010185806109a7565b3461084457602036600319011261084457610a566118e7565b7ff0c57e16840df040f15088dc2f81fe391c3923bec73e23a9662efc9c229c6a0080549160ff8360401c16159067ffffffffffffffff80851694851580610ea5575b60018097149081610e9b575b159081610e92575b50610e805767ffffffffffffffff1981168617855583610e61575b5060405190610ad582611964565b600c82526b21b7b73a3934b13aba34b7b760a11b602083015260405191610afb83611964565b6002835261564360f01b6020840152610b12611f9f565b610b1a611f9f565b805182811161050457807f80bb2b638cc20bc4d0a60d66940f3ab4a00c1d7b313497ca82fb0b4ab007930092610b508454611a9c565b601f8111610df0575b50602090601f8311600114610d7057600092610d65575b5050600019600383901b1c191690881b1790555b815190811161050457807f80bb2b638cc20bc4d0a60d66940f3ab4a00c1d7b313497ca82fb0b4ab007930192610bba8454611a9c565b601f8111610cf4575b50602090601f8311600114610c7457600092610c69575b5050600019600383901b1c191690861b1790555b610bf6611f9f565b610bfe611f9f565b6001600160601b0360a01b9060018060a01b031681600054161760005533906007541617600755610c2b57005b805468ff0000000000000000191690556040519081527fc7f505b2f371ae2175ee4913f4499e1f2633a7b5936321eed1cdaeb6115181d290602090a1005b015190508780610bda565b90889350601f19831691856000527ff4bad0a69248f59680a4f2b3000328cec71a413447c96781cfe5996daa8c456e9260005b818110610cdc57508411610cc3575b505050811b019055610bee565b015160001960f88460031b161c19169055878080610cb6565b8284015185558b969094019360209384019301610ca7565b909150836000527ff4bad0a69248f59680a4f2b3000328cec71a413447c96781cfe5996daa8c456e601f840160051c81019160208510610d5b575b84939291601f8b920160051c01915b828110610d4c575050610bc3565b600081558594508a9101610d3e565b9091508190610d2f565b015190508980610b70565b908a9350601f19831691856000527f37c58c799b6609234b945e882912ee9ad34948a1dfaa20a97485e1a7752bbf819260005b818110610dd857508411610dbf575b505050811b019055610b84565b015160001960f88460031b161c19169055898080610db2565b8284015185558d969094019360209384019301610da3565b909150836000527f37c58c799b6609234b945e882912ee9ad34948a1dfaa20a97485e1a7752bbf81601f840160051c81019160208510610e57575b84939291601f8d920160051c01915b828110610e48575050610b59565b600081558594508c9101610e3a565b9091508190610e2b565b68ffffffffffffffffff19166801000000000000000117845585610ac7565b60405163f92ee8a960e01b8152600490fd5b90501587610aac565b303b159150610aa4565b5083610a98565b34610844576000366003190112610844576008546040516001600160a01b039091168152602090f35b3461084457608036600319011261084457610eee6118e7565b610ef66118fd565b6064359167ffffffffffffffff8311610844573660238401121561084457610f2b610f359336906024816004013591016119be565b9160443591611dc1565b005b34610844576020366003190112610844576004356000526005602052602060ff604060002054166040519015158152f35b3461084457604036600319011261084457610f816118e7565b60243590811515809203610844576001600160a01b0316908115610fef57610fa8336119f5565b82600052602052604060002060ff1981541660ff83161790556040519081527f17307eab39ab6107e8899845ad3d59bd9653f200f220920489ca2b5937696c3160203392a3005b604051630b61174360e31b815260048101839052602490fd5b346108445760003660031901126108445760405160007f80bb2b638cc20bc4d0a60d66940f3ab4a00c1d7b313497ca82fb0b4ab0079301805461104a81611a9c565b808552916001918083169081156110e45750600114611088575b6109d88561107481870382611980565b6040519182916020835260208301906118a7565b600090815292507ff4bad0a69248f59680a4f2b3000328cec71a413447c96781cfe5996daa8c456e5b8284106110cc575050508101602001611074826109d8611064565b805460208587018101919091529093019281016110b1565b8695506109d89693506020925061107494915060ff191682840152151560051b8201019293611064565b3461084457602036600319011261084457602061112c600435611ff4565b6040516001600160a01b039091168152f35b3461084457602036600319011261084457602061116161115c6118e7565b611a67565b604051908152f35b34610844576020366003190112610844576111826118e7565b600754906001600160a01b039081831633036111ac576001600160a01b0319909216911617600755005b60405162461bcd60e51b815260206004820152601860248201527f4f6e6c792061646d696e2063616e207365742061646d696e00000000000000006044820152606490fd5b34610844576000366003190112610844576007546040516001600160a01b039091168152602090f35b3461084457602036600319011261084457600435600052600080516020612226833981519152602052602060018060a01b0360406000205416604051908152f35b34610844576020366003190112610844576004356000805160206122068339815191525481101561129f57611291602091611f5c565b90546040519160031b1c8152f35b6044906040519063295f44f760e21b8252600060048301526024820152fd5b34610844576020806003193601126108445760043560005260038152604060002060405190818382549182815201908192600052846000209060005b8682821061135057868661131082880383611980565b604051928392818401908285525180915260408401929160005b82811061133957505050500390f35b83518552869550938101939281019260010161132a565b8354855290930192600192830192016112fa565b3461084457610f3561137536611913565b906040519261138384611948565b60008452611dc1565b34610844576040366003190112610844576113a56118e7565b602435906113b281611a67565b8210156113f25760018060a01b03166000526000805160206121e68339815191526020526040600020906000526020526020604060002054604051908152f35b60405163295f44f760e21b81526001600160a01b039190911660048201526024810191909152604490fd5b34610844576020806003193601126108445760043580600052600182528160018060a01b03611450604060002054611ff4565b1691602460405180948193631f27a4f360e11b835260048301525afa908115610851576000916114a6575b50600881101561149057600460405191148152f35b634e487b7160e01b600052602160045260246000fd5b90508181813d83116114d5575b6114bd8183611980565b8101031261084457516008811015610844578261147b565b503d6114b3565b34610844576020366003190112610844576004356000526004602052602060ff60406000205416604051908152f35b3461084457610f3561151c36611913565b91611ad6565b346108445760203660031901126108445761153b6118e7565b6007546001600160a01b0391908216330361156957166001600160601b0360a01b6008541617600855600080f35b60405162461bcd60e51b815260206004820152602160248201527f4f6e6c792061646d696e2063616e2073657420656c6f2063616c63756c61746f6044820152603960f91b6064820152608490fd5b3461084457600036600319011261084457602060008051602061220683398151915254604051908152f35b346108445760203660031901126108445760043560005260016020526020604060002054604051908152f35b34610844576040366003190112610844576116286118e7565b60243561163481611f14565b331515806116e3575b806116c3575b6116ab576001600160a01b039283169282918491167f8c5be1e5ebec7d5bd14f71427d1e84f3dd0314c0f7b2291e5b200ac8c7c3b925600080a460009081526000805160206122468339815191526020526040902080546001600160a01b0319169091179055005b60405163a9fbf51f60e01b8152336004820152602490fd5b506116cd816119f5565b3360005260205260ff6040600020541615611643565b506001600160a01b03811633141561163d565b346108445760203660031901126108445760043561171381611f14565b50600052600080516020612246833981519152602052602060018060a01b0360406000205416604051908152f35b346108445760003660031901126108445760405160007f80bb2b638cc20bc4d0a60d66940f3ab4a00c1d7b313497ca82fb0b4ab0079300805461178381611a9c565b808552916001918083169081156110e457506001146117ac576109d88561107481870382611980565b600090815292507f37c58c799b6609234b945e882912ee9ad34948a1dfaa20a97485e1a7752bbf815b8284106117f0575050508101602001611074826109d8611064565b805460208587018101919091529093019281016117d5565b34610844576020366003190112610844576004359063ffffffff60e01b821680920361084457602091632483248360e11b811490811561184a575b5015158152f35b63780e9d6360e01b811491508115611864575b5083611843565b6380ac58cd60e01b811491508115611896575b8115611885575b508361185d565b6301ffc9a760e01b1490508361187e565b635b5e139f60e01b81149150611877565b919082519283825260005b8481106118d3575050826000602080949584010152601f8019910116010190565b6020818301810151848301820152016118b2565b600435906001600160a01b038216820361084457565b602435906001600160a01b038216820361084457565b6060906003190112610844576001600160a01b0390600435828116810361084457916024359081168103610844579060443590565b6020810190811067ffffffffffffffff82111761050457604052565b6040810190811067ffffffffffffffff82111761050457604052565b90601f8019910116810190811067ffffffffffffffff82111761050457604052565b67ffffffffffffffff811161050457601f01601f191660200190565b9291926119ca826119a2565b916119d86040519384611980565b829481845281830111610844578281602093846000960137010152565b6001600160a01b031660009081527f80bb2b638cc20bc4d0a60d66940f3ab4a00c1d7b313497ca82fb0b4ab00793056020526040902090565b6001600160a01b031660009081527f80bb2b638cc20bc4d0a60d66940f3ab4a00c1d7b313497ca82fb0b4ab00793036020526040902090565b6001600160a01b03811615611a8357611a7f90611a2e565b5490565b6040516322718ad960e21b815260006004820152602490fd5b90600182811c92168015611acc575b6020831014611ab657565b634e487b7160e01b600052602260045260246000fd5b91607f1691611aab565b90916001600160a01b03808416928315610754576000938385526000805160206122268339815191529460208681526040978589842054169733151580611d27575b508815908115611ce8575b611b2c83611a2e565b80546001019055888552835289842080546001600160a01b0319168617905587858a7fddf252ad1be2c89b69c2b068fc378daa952ba7f163c4a11628f55a4df523b3ef8780a415611c6257600080516020612206833981519152548784527f645e039705490088daad89bae25049a34f4a9072d398537b1ab2425f24cbed03835289842055611bba87612181565b838803611bf6575b505050501692838303611bd55750505050565b6064945051926364283d7b60e01b8452600484015260248301526044820152fd5b611bff90611a67565b600019810193908411611c4e5782916000805160206121c6833981519152918a94526000805160206121e683398151915281528383208584528152878484205587835252205538808080611bc2565b634e487b7160e01b83526011600452602483fd5b878414611bba57611c7288611a67565b8784526000805160206121c6833981519152908184528a852054918a86526000805160206121e683398151915285528b862092828103611cc6575b508986528452848b812055845282528289812055611bba565b8287528386528c808820548091838a5289205587528186528c87205538611cad565b60008981526000805160206122468339815191526020526040902080546001600160a01b0319169055611d1a8a611a2e565b8054600019019055611b23565b80611d74575b15611d385738611b18565b89888a611d55576024915190637e27328960e01b82526004820152fd5b905163177e802f60e01b81523360048201526024810191909152604490fd5b503389148015611da6575b80611d2d5750878452600080516020612246833981519152835233878b8620541614611d2d565b50611db0896119f5565b338552835260ff8a85205416611d7f565b611dcc838383611ad6565b813b611dd9575b50505050565b604051630a85bd0160e11b8082523360048301526001600160a01b03928316602483015260448201949094526080606482015260209592909116939092908390611e279060848301906118a7565b039285816000958187895af1849181611ed0575b50611e9b575050503d600014611e93573d611e55816119a2565b90611e636040519283611980565b81528091843d92013e5b80519283611e8e57604051633250574960e11b815260048101849052602490fd5b019050fd5b506060611e6d565b919450915063ffffffff60e01b1603611eb8575038808080611dd3565b60249060405190633250574960e11b82526004820152fd5b9091508681813d8311611f0d575b611ee88183611980565b81010312611f0957516001600160e01b031981168103611f09579038611e3b565b8480fd5b503d611ede565b600081815260008051602061222683398151915260205260409020546001600160a01b0316908115611f44575090565b60249060405190637e27328960e01b82526004820152fd5b60008051602061220683398151915280548210156104ee576000527fa42f15e5d656f8155fd7419d740a6073999f19cd6e061449ce4a257150545bf20190600090565b60ff7ff0c57e16840df040f15088dc2f81fe391c3923bec73e23a9662efc9c229c6a005460401c1615611fce57565b604051631afcd79f60e31b8152600490fd5b51906001600160a01b038216820361084457565b60018060a01b0390600082815416816040936024855180948193630c0e287560e11b835260048301525afa928315612176578293612035575b505050511690565b909192503d8084843e6120488184611980565b82016020918284830312611f0957835167ffffffffffffffff9485821161217257019460a08684031261216f5781519560a087018781108782111761215b57835261209281611fe0565b875261209f858201611fe0565b858801526120ae838201611fe0565b838801526120be60608201611fe0565b606088015260808101519086821161213f570183601f82011215612143578051958611612147578560051b9251956120f886850188611980565b86528480870193820101938411612143578401915b838310612126575050505050608082015238808061202d565b825160ff8116810361213f57815291840191840161210d565b8280fd5b5080fd5b634e487b7160e01b82526041600452602482fd5b634e487b7160e01b83526041600452602483fd5b80fd5b8680fd5b51913d9150823e3d90fd5b6000805160206122068339815191528054600160401b811015610504576121ad91600182019055611f5c565b819291549060031b91821b91600019901b191617905556fe645e039705490088daad89bae25049a34f4a9072d398537b1ab2425f24cbed01645e039705490088daad89bae25049a34f4a9072d398537b1ab2425f24cbed00645e039705490088daad89bae25049a34f4a9072d398537b1ab2425f24cbed0280bb2b638cc20bc4d0a60d66940f3ab4a00c1d7b313497ca82fb0b4ab007930280bb2b638cc20bc4d0a60d66940f3ab4a00c1d7b313497ca82fb0b4ab0079304a26469706673582212204308ee869084aeda8f1bb20abe8409ef926ea4d6c264299a71fc1dc0a59d838964736f6c63430008140033",
  "linkReferences": {},
  "deployedLinkReferences": {}
}