{
  "_format": "hh-sol-artifact-1",
  "contractName": "FFactory",
  "sourceName": "src/contracts/FFactory.sol",
  "abi": [
    {
      "inputs": [],
      "stateMutability": "nonpayable",
      "type": "constructor"
    },
    {
      "inputs": [],
      "name": "AccessControlBadConfirmation",
      "type": "error"
    },
    {
      "inputs": [
        {
          "internalType": "address",
          "name": "account",
          "type": "address"
        },
        {
          "internalType": "bytes32",
          "name": "neededRole",
          "type": "bytes32"
        }
      ],
      "name": "AccessControlUnauthorizedAccount",
      "type": "error"
    },
    {
      "inputs": [],
      "name": "InvalidInitialization",
      "type": "error"
    },
    {
      "inputs": [],
      "name": "NotInitializing",
      "type": "error"
    },
    {
      "inputs": [],
      "name": "ReentrancyGuardReentrantCall",
      "type": "error"
    },
    {
      "anonymous": false,
      "inputs": [
        {
          "indexed": false,
          "internalType": "uint64",
          "name": "version",
          "type": "uint64"
        }
      ],
      "name": "Initialized",
      "type": "event"
    },
    {
      "anonymous": false,
      "inputs": [
        {
          "indexed": true,
          "internalType": "address",
          "name": "tokenA",
          "type": "address"
        },
        {
          "indexed": true,
          "internalType": "address",
          "name": "tokenB",
          "type": "address"
        },
        {
          "indexed": false,
          "internalType": "address",
          "name": "pair",
          "type": "address"
        },
        {
          "indexed": false,
          "internalType": "uint256",
          "name": "",
          "type": "uint256"
        }
      ],
      "name": "PairCreated",
      "type": "event"
    },
    {
      "anonymous": false,
      "inputs": [
        {
          "indexed": true,
          "internalType": "bytes32",
          "name": "role",
          "type": "bytes32"
        },
        {
          "indexed": true,
          "internalType": "bytes32",
          "name": "previousAdminRole",
          "type": "bytes32"
        },
        {
          "indexed": true,
          "internalType": "bytes32",
          "name": "newAdminRole",
          "type": "bytes32"
        }
      ],
      "name": "RoleAdminChanged",
      "type": "event"
    },
    {
      "anonymous": false,
      "inputs": [
        {
          "indexed": true,
          "internalType": "bytes32",
          "name": "role",
          "type": "bytes32"
        },
        {
          "indexed": true,
          "internalType": "address",
          "name": "account",
          "type": "address"
        },
        {
          "indexed": true,
          "internalType": "address",
          "name": "sender",
          "type": "address"
        }
      ],
      "name": "RoleGranted",
      "type": "event"
    },
    {
      "anonymous": false,
      "inputs": [
        {
          "indexed": true,
          "internalType": "bytes32",
          "name": "role",
          "type": "bytes32"
        },
        {
          "indexed": true,
          "internalType": "address",
          "name": "account",
          "type": "address"
        },
        {
          "indexed": true,
          "internalType": "address",
          "name": "sender",
          "type": "address"
        }
      ],
      "name": "RoleRevoked",
      "type": "event"
    },
    {
      "inputs": [],
      "name": "ADMIN_ROLE",
      "outputs": [
        {
          "internalType": "bytes32",
          "name": "",
          "type": "bytes32"
        }
      ],
      "stateMutability": "view",
      "type": "function"
    },
    {
      "inputs": [],
      "name": "CREATOR_ROLE",
      "outputs": [
        {
          "internalType": "bytes32",
          "name": "",
          "type": "bytes32"
        }
      ],
      "stateMutability": "view",
      "type": "function"
    },
    {
      "inputs": [],
      "name": "DEFAULT_ADMIN_ROLE",
      "outputs": [
        {
          "internalType": "bytes32",
          "name": "",
          "type": "bytes32"
        }
      ],
      "stateMutability": "view",
      "type": "function"
    },
    {
      "inputs": [],
      "name": "allPairsLength",
      "outputs": [
        {
          "internalType": "uint256",
          "name": "",
          "type": "uint256"
        }
      ],
      "stateMutability": "view",
      "type": "function"
    },
    {
      "inputs": [],
      "name": "buyTax",
      "outputs": [
        {
          "internalType": "uint256",
          "name": "",
          "type": "uint256"
        }
      ],
      "stateMutability": "view",
      "type": "function"
    },
    {
      "inputs": [
        {
          "internalType": "address",
          "name": "tokenA",
          "type": "address"
        },
        {
          "internalType": "address",
          "name": "tokenB",
          "type": "address"
        }
      ],
      "name": "createPair",
      "outputs": [
        {
          "internalType": "address",
          "name": "",
          "type": "address"
        }
      ],
      "stateMutability": "nonpayable",
      "type": "function"
    },
    {
      "inputs": [
        {
          "internalType": "address",
          "name": "tokenA",
          "type": "address"
        },
        {
          "internalType": "address",
          "name": "tokenB",
          "type": "address"
        }
      ],
      "name": "getPair",
      "outputs": [
        {
          "internalType": "address",
          "name": "",
          "type": "address"
        }
      ],
      "stateMutability": "view",
      "type": "function"
    },
    {
      "inputs": [
        {
          "internalType": "bytes32",
          "name": "role",
          "type": "bytes32"
        }
      ],
      "name": "getRoleAdmin",
      "outputs": [
        {
          "internalType": "bytes32",
          "name": "",
          "type": "bytes32"
        }
      ],
      "stateMutability": "view",
      "type": "function"
    },
    {
      "inputs": [
        {
          "internalType": "bytes32",
          "name": "role",
          "type": "bytes32"
        },
        {
          "internalType": "address",
          "name": "account",
          "type": "address"
        }
      ],
      "name": "grantRole",
      "outputs": [],
      "stateMutability": "nonpayable",
      "type": "function"
    },
    {
      "inputs": [
        {
          "internalType": "bytes32",
          "name": "role",
          "type": "bytes32"
        },
        {
          "internalType": "address",
          "name": "account",
          "type": "address"
        }
      ],
      "name": "hasRole",
      "outputs": [
        {
          "internalType": "bool",
          "name": "",
          "type": "bool"
        }
      ],
      "stateMutability": "view",
      "type": "function"
    },
    {
      "inputs": [
        {
          "internalType": "address",
          "name": "taxVault_",
          "type": "address"
        },
        {
          "internalType": "uint256",
          "name": "buyTax_",
          "type": "uint256"
        },
        {
          "internalType": "uint256",
          "name": "sellTax_",
          "type": "uint256"
        }
      ],
      "name": "initialize",
      "outputs": [],
      "stateMutability": "nonpayable",
      "type": "function"
    },
    {
      "inputs": [
        {
          "internalType": "uint256",
          "name": "",
          "type": "uint256"
        }
      ],
      "name": "pairs",
      "outputs": [
        {
          "internalType": "address",
          "name": "",
          "type": "address"
        }
      ],
      "stateMutability": "view",
      "type": "function"
    },
    {
      "inputs": [
        {
          "internalType": "bytes32",
          "name": "role",
          "type": "bytes32"
        },
        {
          "internalType": "address",
          "name": "callerConfirmation",
          "type": "address"
        }
      ],
      "name": "renounceRole",
      "outputs": [],
      "stateMutability": "nonpayable",
      "type": "function"
    },
    {
      "inputs": [
        {
          "internalType": "bytes32",
          "name": "role",
          "type": "bytes32"
        },
        {
          "internalType": "address",
          "name": "account",
          "type": "address"
        }
      ],
      "name": "revokeRole",
      "outputs": [],
      "stateMutability": "nonpayable",
      "type": "function"
    },
    {
      "inputs": [],
      "name": "router",
      "outputs": [
        {
          "internalType": "address",
          "name": "",
          "type": "address"
        }
      ],
      "stateMutability": "view",
      "type": "function"
    },
    {
      "inputs": [],
      "name": "sellTax",
      "outputs": [
        {
          "internalType": "uint256",
          "name": "",
          "type": "uint256"
        }
      ],
      "stateMutability": "view",
      "type": "function"
    },
    {
      "inputs": [
        {
          "internalType": "address",
          "name": "router_",
          "type": "address"
        }
      ],
      "name": "setRouter",
      "outputs": [],
      "stateMutability": "nonpayable",
      "type": "function"
    },
    {
      "inputs": [
        {
          "internalType": "address",
          "name": "newVault_",
          "type": "address"
        },
        {
          "internalType": "uint256",
          "name": "buyTax_",
          "type": "uint256"
        },
        {
          "internalType": "uint256",
          "name": "sellTax_",
          "type": "uint256"
        }
      ],
      "name": "setTaxParams",
      "outputs": [],
      "stateMutability": "nonpayable",
      "type": "function"
    },
    {
      "inputs": [
        {
          "internalType": "bytes4",
          "name": "interfaceId",
          "type": "bytes4"
        }
      ],
      "name": "supportsInterface",
      "outputs": [
        {
          "internalType": "bool",
          "name": "",
          "type": "bool"
        }
      ],
      "stateMutability": "view",
      "type": "function"
    },
    {
      "inputs": [],
      "name": "taxVault",
      "outputs": [
        {
          "internalType": "address",
          "name": "",
          "type": "address"
        }
      ],
      "stateMutability": "view",
      "type": "function"
    }
  ],
  "bytecode": "0x608080604052346100b8577ff0c57e16840df040f15088dc2f81fe391c3923bec73e23a9662efc9c229c6a009081549060ff8260401c166100a957506001600160401b036002600160401b031982821601610064575b60405161165890816100be8239f35b6001600160401b031990911681179091556040519081527fc7f505b2f371ae2175ee4913f4499e1f2633a7b5936321eed1cdaeb6115181d290602090a1388080610055565b63f92ee8a960e01b8152600490fd5b600080fdfe608060408181526004918236101561001657600080fd5b600092833560e01c91826301ffc9a71461086d57508163248a9ca3146108355781632f2ff15d1461080b57816336568abe146107c55781634f7041a5146107a7578163574f2ba31461078857816375b238fc1461074d5781637a1ac61e146105d45781637acf63371461058b5781638aeda25a1461055057816391d14854146104fc578163a217fddf146104e1578163b91ac788146104a0578163c0d7865514610460578163c9c653961461020e578163cc1776d3146101ef578163d547741f1461019e57508063e2ad37b014610176578063e6a439051461012c5763f887ea401461010157600080fd5b3461012857816003193601126101285760025490516001600160a01b039091168152602090f35b5080fd5b5034610128578060031936011261012857602091816101496108db565b916101526108c0565b6001600160a01b039384168252818652828220908416825285522054915191168152f35b503461012857816003193601126101285760035490516001600160a01b039091168152602090f35b919050346101eb57806003193601126101eb576101e791356101e260016101c36108c0565b93838752600080516020611603833981519152602052862001546109e2565b610b42565b5080f35b8280fd5b5050346101285781600319360112610128576020906005549051908152f35b82843461045d578160031936011261045d576102286108db565b916102316108c0565b7f828634d95e775031b9ff576b159a8509d3053581a8c9c4d7d86899e0afcd882f938484526020946000805160206116038339815191528652838520338652865260ff84862054161561043f57507f9b779b17422d0df92223018b32b4d1fa46e071723d6817e2486d003becc55f0091600283541461042f57600283556001600160a01b039182169082906102c7831515610c06565b16916102d4831515610c06565b80600254168015610400578551906109b0908183019183831067ffffffffffffffff8411176103ed57918391606093610c5384398152858b820152868982015203019087f080156103e35781169582815280885285812084825288528581206001600160601b0360a01b9088828254161790558189528682208483528952878783209182541617905560015490680100000000000000008210156103d0575090610387826001809796959401875561091b565b819291549060031b9189831b921b19161790557f0d3648bd0f6ba80134a33ba9275ac585d9d315f0ad8355cddefde31afa28d0e98585548151908982528a820152a35551908152f35b634e487b7160e01b815260418a52602490fd5b85513d88823e3d90fd5b634e487b7160e01b8a5260418c5260248afd5b855162461bcd60e51b8152808a0189905260096024820152682737903937baba32b960b91b6044820152606490fd5b8351633ee5aeb560e01b81528790fd5b835163e2517d3f60e01b815233818901526024810191909152604490fd5b80fd5b833461045d57602036600319011261045d5761047a6108db565b610482610968565b60018060a01b03166001600160601b0360a01b600254161760025580f35b9050346101eb5760203660031901126101eb57359160015483101561045d57506104cb60209261091b565b905491519160018060a01b039160031b1c168152f35b50503461012857816003193601126101285751908152602090f35b9050346101eb57816003193601126101eb578160209360ff9261051d6108c0565b9035825260008051602061160383398151915286528282206001600160a01b039091168252855220549151911615158152f35b505034610128578160031936011261012857602090517f828634d95e775031b9ff576b159a8509d3053581a8c9c4d7d86899e0afcd882f8152f35b8390346101285761059b366108f1565b9290916105a6610968565b6001600160a01b03166105ba811515610c06565b6001600160601b0360a01b60035416176003555560055580f35b9050346101eb576105e4366108f1565b907ff0c57e16840df040f15088dc2f81fe391c3923bec73e23a9662efc9c229c6a009384549360ff85881c16159467ffffffffffffffff811680159081610745575b600114908161073b575b159081610732575b506107225767ffffffffffffffff198116600117875585610703575b5061065d610bc5565b610665610bc5565b61066d610bc5565b60017f9b779b17422d0df92223018b32b4d1fa46e071723d6817e2486d003becc55f005561069a33610a15565b5060018060a01b03166001600160601b0360a01b6003541617600355556005556106c2578280f35b805468ff00000000000000001916905551600181527fc7f505b2f371ae2175ee4913f4499e1f2633a7b5936321eed1cdaeb6115181d290602090a138808280f35b68ffffffffffffffffff19166801000000000000000117865538610654565b875163f92ee8a960e01b81528390fd5b90501538610638565b303b159150610630565b879150610626565b505034610128578160031936011261012857602090517fa49807205ce4d355092ef5a8a18f56e8913cf4a201fbe287825b095693c217758152f35b5050346101285781600319360112610128576020906001549051908152f35b9050346101eb57826003193601126101eb5760209250549051908152f35b8383346101285780600319360112610128576107df6108c0565b90336001600160a01b038316036107fc57506101e7919235610b42565b5163334bd91960e11b81528390fd5b919050346101eb57806003193601126101eb576101e7913561083060016101c36108c0565b610ab5565b9050346101eb5760203660031901126101eb578160209360019235815260008051602061160383398151915285522001549051908152f35b8491346101eb5760203660031901126101eb573563ffffffff60e01b81168091036101eb5760209250637965db0b60e01b81149081156108af575b5015158152f35b6301ffc9a760e01b149050836108a8565b602435906001600160a01b03821682036108d657565b600080fd5b600435906001600160a01b03821682036108d657565b60609060031901126108d6576004356001600160a01b03811681036108d657906024359060443590565b6001548110156109525760016000527fb10e2d527612073b26eecdfd717e6a320cf44b4afac2b0732d9fcbe2b7fa0cf60190600090565b634e487b7160e01b600052603260045260246000fd5b3360009081527fb16e88c42fd4e48df2dd6a2eabd6bc9aec654ec170056b470819f8892cc6431c60205260409020547fa49807205ce4d355092ef5a8a18f56e8913cf4a201fbe287825b095693c217759060ff16156109c45750565b6044906040519063e2517d3f60e01b82523360048301526024820152fd5b8060005260008051602061160383398151915260205260406000203360005260205260ff60406000205416156109c45750565b6001600160a01b031660008181527fb7db2dd08fcb62d0c9e08c51941cae53c267786a0b75803fb7960902fc8ef97d60205260408120549091906000805160206116038339815191529060ff16610ab0578280526020526040822081835260205260408220600160ff1982541617905533917f2f8788117e7eff1d82e926ec794901d17c78024a50270940304540a733656f0d8180a4600190565b505090565b9060009180835260008051602061160383398151915280602052604084209260018060a01b03169283855260205260ff60408520541615600014610b3c578184526020526040832082845260205260408320600160ff198254161790557f2f8788117e7eff1d82e926ec794901d17c78024a50270940304540a733656f0d339380a4600190565b50505090565b9060009180835260008051602061160383398151915280602052604084209260018060a01b03169283855260205260ff604085205416600014610b3c57818452602052604083208284526020526040832060ff1981541690557ff6391f5c32d9c69d2a47ea670b442974b53935d1edc7fd64eb21e047a839171b339380a4600190565b60ff7ff0c57e16840df040f15088dc2f81fe391c3923bec73e23a9662efc9c229c6a005460401c1615610bf457565b604051631afcd79f60e31b8152600490fd5b15610c0d57565b60405162461bcd60e51b815260206004820152601f60248201527f5a65726f2061646472657373657320617265206e6f7420616c6c6f7765642e006044820152606490fdfe6080346100cb57601f6109b038819003918201601f19168301916001600160401b038311848410176100d0578084926060946040528339810103126100cb57610047816100e6565b906100606040610059602084016100e6565b92016100e6565b6001600055916001600160a01b0390811691819061007f8415156100fa565b169261008c8415156100fa565b16916100998315156100fa565b60018060a01b031991826001541617600155816002541617600255600354161760035560405161086990816101478239f35b600080fd5b634e487b7160e01b600052604160045260246000fd5b51906001600160a01b03821682036100cb57565b1561010157565b60405162461bcd60e51b815260206004820152601f60248201527f5a65726f2061646472657373657320617265206e6f7420616c6c6f7765642e006044820152606490fdfe608060408181526004918236101561001657600080fd5b600092833560e01c9182630902f1ac14610609575081630e06dfc9146105e65781630fc63d10146105bd5781631b2ef1ca146104cb5781632ccb1b301461047b5781635673b02d146103b65781635c52a5f2146102a55781635c921eb9146102525781635c9d6938146102245781635f64b55b146101fb5781637464fc3d146101dc578163b69ef8a814610186578163c66f2455146100ea575063f887ea40146100bf57600080fd5b346100e657816003193601126100e65760015490516001600160a01b039091168152602090f35b5080fd5b9190503461017057826003193601126101705760035481516370a0823160e01b81523093810193909352602090839060249082906001600160a01b03165afa91821561017c578392610141575b6020838351908152f35b9091506020813d8211610174575b8161015c602093836106cf565b810103126101705760209250519038610137565b8280fd5b3d915061014f565b81513d85823e3d90fd5b9190503461017057826003193601126101705760025481516370a0823160e01b81523093810193909352602090839060249082906001600160a01b03165afa91821561017c578392610141576020838351908152f35b5050346100e657816003193601126100e6576020906006549051908152f35b5050346100e657816003193601126100e65760035490516001600160a01b039091168152602090f35b82843461024f578060031936011261024f5750610248602092600554905490610813565b9051908152f35b80fd5b5050346100e65736600319011261024f576102a261026e61062b565b6001546001600160a01b0391906102889083163314610646565b6102958282161515610721565b60243591600354166107d5565b80f35b5050346100e65760603660031901126100e6576102c061062b565b6001600160a01b0392906024358481169081900361017057846102ea602096600154163314610646565b82166102f7811515610721565b610302821515610721565b845163095ea7b360e01b8782018181526001600160a01b039590951660248301526044803581840152825290938790869061033e6064886106cf565b86519082875af185513d8261039a575b50501561035f575b86865160018152f35b6103909461038b928751928984015260248301526044820152604481526103858161069d565b8261076d565b61076d565b3880808080610356565b9091506103ae5750823b15155b388061034e565b6001146103a7565b82843461024f57608036600319011261024f57507f298c349c742327269dc8de6ad66687767310c948ea309df826f5bd103e19d2076080836020943590602435604435906064359261041360018060a01b03600154163314610646565b610427826104228784546106f1565b610714565b61043785610422866005546106f1565b916006548a51906104478261069d565b838252848d8301528b8201526060429101525560055542600755865193845287840152858301526060820152a15160018152f35b5050346100e65736600319011261024f576102a261049761062b565b6001546001600160a01b0391906104b19083163314610646565b6104be8282161515610721565b60243591600254166107d5565b82843461024f578160031936011261024f57823590602435906104f960018060a01b03600154163314610646565b600754610589578183029083820483148415171561057657509183917fcc9c58b575eabd3f6a1ee653e91fcea3ff546867ffc3782a3bbca1f9b6dbb8df938260209785516105468161069d565b828152848a8201528387820152606042910152558160055560065542600755825191825285820152a15160018152f35b634e487b7160e01b815260118652602490fd5b835162461bcd60e51b8152602081870152600e60248201526d105b1c9958591e481b5a5b9d195960921b6044820152606490fd5b5050346100e657816003193601126100e65760025490516001600160a01b039091168152602090f35b82843461024f578060031936011261024f57506102486020925460055490610813565b9150833461024f578060031936011261024f5750546005549082526020820152f35b600435906001600160a01b038216820361064157565b600080fd5b1561064d57565b60405162461bcd60e51b815260206004820152602260248201527f4f6e6c7920726f757465722063616e2063616c6c20746869732066756e63746960448201526137b760f11b6064820152608490fd5b6080810190811067ffffffffffffffff8211176106b957604052565b634e487b7160e01b600052604160045260246000fd5b90601f8019910116810190811067ffffffffffffffff8211176106b957604052565b919082018092116106fe57565b634e487b7160e01b600052601160045260246000fd5b919082039182116106fe57565b1561072857565b60405162461bcd60e51b815260206004820152601f60248201527f5a65726f2061646472657373657320617265206e6f7420616c6c6f7765642e006044820152606490fd5b906000602091828151910182855af1156107c9576000513d6107c057506001600160a01b0381163b155b61079e5750565b604051635274afe760e01b81526001600160a01b039091166004820152602490fd5b60011415610797565b6040513d6000823e3d90fd5b60405163a9059cbb60e01b60208201526001600160a01b039290921660248301526044808301939093529181526108119161038b6064836106cf565b565b811561081d570490565b634e487b7160e01b600052601260045260246000fdfea26469706673582212203e305ac5d7d19a03d5244660509d1c69a68dce5976cc124832818a16fa5ccb5664736f6c6343000814003302dd7bc7dec4dceedda775e58dd541e08a116c6c53815c0bd028192f7b626800a2646970667358221220d3505acdd134bc0b959c4099637cba5ceef9f42bedbbe2e3b29cb5ebeff565f564736f6c63430008140033",
  "linkReferences": {},
  "deployedLinkReferences": {}
}