{
  "_format": "hh-sol-artifact-1",
  "contractName": "MerkleBeneficiary",
  "sourceName": "src/contracts/vesting/Merk.sol",
  "abi": [
    {
      "inputs": [
        {
          "internalType": "address",
          "name": "_token",
          "type": "address"
        },
        {
          "internalType": "bytes32",
          "name": "_merkleRoot",
          "type": "bytes32"
        },
        {
          "internalType": "uint256",
          "name": "_claimPeriodEnds",
          "type": "uint256"
        }
      ],
      "stateMutability": "nonpayable",
      "type": "constructor"
    },
    {
      "anonymous": false,
      "inputs": [
        {
          "indexed": true,
          "internalType": "address",
          "name": "account",
          "type": "address"
        },
        {
          "indexed": false,
          "internalType": "uint256",
          "name": "amountClaimed",
          "type": "uint256"
        }
      ],
      "name": "Claimed",
      "type": "event"
    },
    {
      "anonymous": false,
      "inputs": [
        {
          "indexed": false,
          "internalType": "bytes32",
          "name": "newMerkleRoot",
          "type": "bytes32"
        }
      ],
      "name": "MerkleRootChanged",
      "type": "event"
    },
    {
      "anonymous": false,
      "inputs": [
        {
          "indexed": true,
          "internalType": "address",
          "name": "user",
          "type": "address"
        },
        {
          "indexed": true,
          "internalType": "address",
          "name": "newOwner",
          "type": "address"
        }
      ],
      "name": "OwnershipTransferred",
      "type": "event"
    },
    {
      "anonymous": false,
      "inputs": [
        {
          "indexed": true,
          "internalType": "address",
          "name": "sweeper",
          "type": "address"
        },
        {
          "indexed": true,
          "internalType": "address",
          "name": "recipient",
          "type": "address"
        },
        {
          "indexed": false,
          "internalType": "uint256",
          "name": "amount",
          "type": "uint256"
        }
      ],
      "name": "Swept",
      "type": "event"
    },
    {
      "inputs": [
        {
          "internalType": "uint256",
          "name": "allocated",
          "type": "uint256"
        },
        {
          "internalType": "uint256",
          "name": "claimAmount",
          "type": "uint256"
        },
        {
          "internalType": "bytes32[]",
          "name": "merkleProof",
          "type": "bytes32[]"
        }
      ],
      "name": "claim",
      "outputs": [],
      "stateMutability": "nonpayable",
      "type": "function"
    },
    {
      "inputs": [],
      "name": "claimPeriodEnds",
      "outputs": [
        {
          "internalType": "uint256",
          "name": "",
          "type": "uint256"
        }
      ],
      "stateMutability": "view",
      "type": "function"
    },
    {
      "inputs": [
        {
          "internalType": "address",
          "name": "account",
          "type": "address"
        },
        {
          "internalType": "uint256",
          "name": "allocated",
          "type": "uint256"
        },
        {
          "internalType": "bytes32[]",
          "name": "merkleProof",
          "type": "bytes32[]"
        }
      ],
      "name": "claimable",
      "outputs": [
        {
          "internalType": "uint256",
          "name": "",
          "type": "uint256"
        }
      ],
      "stateMutability": "view",
      "type": "function"
    },
    {
      "inputs": [],
      "name": "merkleRoot",
      "outputs": [
        {
          "internalType": "bytes32",
          "name": "",
          "type": "bytes32"
        }
      ],
      "stateMutability": "view",
      "type": "function"
    },
    {
      "inputs": [],
      "name": "owner",
      "outputs": [
        {
          "internalType": "address",
          "name": "",
          "type": "address"
        }
      ],
      "stateMutability": "view",
      "type": "function"
    },
    {
      "inputs": [
        {
          "internalType": "bytes32",
          "name": "newMerkleRoot",
          "type": "bytes32"
        }
      ],
      "name": "setMerkleRoot",
      "outputs": [],
      "stateMutability": "nonpayable",
      "type": "function"
    },
    {
      "inputs": [
        {
          "internalType": "address",
          "name": "recipient",
          "type": "address"
        }
      ],
      "name": "sweep",
      "outputs": [],
      "stateMutability": "nonpayable",
      "type": "function"
    },
    {
      "inputs": [],
      "name": "token",
      "outputs": [
        {
          "internalType": "contract ERC20",
          "name": "",
          "type": "address"
        }
      ],
      "stateMutability": "view",
      "type": "function"
    },
    {
      "inputs": [
        {
          "internalType": "address",
          "name": "",
          "type": "address"
        }
      ],
      "name": "totalClaimed",
      "outputs": [
        {
          "internalType": "uint256",
          "name": "",
          "type": "uint256"
        }
      ],
      "stateMutability": "view",
      "type": "function"
    },
    {
      "inputs": [
        {
          "internalType": "address",
          "name": "newOwner",
          "type": "address"
        }
      ],
      "name": "transferOwnership",
      "outputs": [],
      "stateMutability": "nonpayable",
      "type": "function"
    }
  ],
  "bytecode": "0x60a03461016957601f610a5c38819003918201601f19168301916001600160401b0383118484101761016e578084926060946040528339810103126101695780516001600160a01b03811691908290036101695760406020820151910151913360018060a01b031960005416176000556040513360007f8be0079c531659141344cd1fd0a4f28419497f9722a3daafe3b4186f6b6457e08180a381156101275750428311156100d6576080526001556002556040516108d79081610185823960805181818160a40152818161027401526104d10152f35b60405162461bcd60e51b815260206004820152602360248201527f436c61696d20706572696f64206d75737420656e6420696e207468652066757460448201526275726560e81b6064820152608490fd5b62461bcd60e51b815260206004820152601560248201527f546f6b656e206973207a65726f206164647265737300000000000000000000006044820152606490fd5b600080fd5b634e487b7160e01b600052604160045260246000fdfe6040608081526004908136101561001557600080fd5b600091823560e01c90816301681a621461048d5781632eb4a7ab1461046e57816366deac471461044f5781637cb64759146103f55781638da5cb5b146103cd578163ae0b51df146101db578163e8e247341461018357508063ef5d9ae81461014c578063f2fde38b146100d75763fc0c546a1461009157600080fd5b346100d357816003193601126100d357517f00000000000000000000000000000000000000000000000000000000000000006001600160a01b03168152602090f35b5080fd5b8234610149576020366003190112610149576100f16105d9565b8154906001600160a01b039061010a3383851614610625565b1680916bffffffffffffffffffffffff60a01b16178255337f8be0079c531659141344cd1fd0a4f28419497f9722a3daafe3b4186f6b6457e08380a380f35b80fd5b50346100d35760203660031901126100d35760209181906001600160a01b036101736105d9565b1681526003845220549051908152f35b9050346101d75760603660031901126101d75761019e6105d9565b926044359067ffffffffffffffff82116101495750926101c66101d0926020953691016105f4565b91602435906106f4565b9051908152f35b8280fd5b919050346101d75760603660031901126101d7578135602480359360443567ffffffffffffffff81116103c95761021590369083016105f4565b906002544211610392579061022b918533610772565b15610351573386526003602052838620549280841015610317578361024f91610660565b85116102d6578483018093116102c557505033845260036020528184205561029882337f0000000000000000000000000000000000000000000000000000000000000000610683565b519081527fd8138f8a3f377c5259ca548e70e4c2de94f129f5a11036a15b69513cba2b426a60203392a280f35b634e487b7160e01b86526011905284fd5b6018606492602086519362461bcd60e51b85528401528201527f436c61696d206578636565647320616c6c6f636174696f6e00000000000000006044820152fd5b506015606492602086519362461bcd60e51b8552840152820152744e6f7468696e67206c65667420746f20636c61696d60581b6044820152fd5b601e606492602086519362461bcd60e51b85528401528201527f496e76616c69642070726f6f66206f72206e6f7420696e204d65726b6c6500006044820152fd5b855162461bcd60e51b81526020818501526012818601527110db185a5b481c195c9a5bd908195b99195960721b6044820152606490fd5b8680fd5b5050346100d357816003193601126100d357905490516001600160a01b039091168152602090f35b9050346101d75760203660031901126101d7577f1b930366dfeaa7eb3b325021e4ae81e36527063452ee55b86c95f85b36f4c31c91602091359061044360018060a01b038654163314610625565b8160015551908152a180f35b5050346100d357816003193601126100d3576020906002549051908152f35b5050346100d357816003193601126100d3576020906001549051908152f35b919050346101d757602091826003193601126105d5576104ab6105d9565b845490926001600160a01b03916104c59083163314610625565b600254421115610593577f00000000000000000000000000000000000000000000000000000000000000008151936370a0823160e01b8552309085015285846024818685165afa938415610589578794610556575b509061054a84867f7b09c29f9106defeccc9ac3b823f3aad0b470d120e5df7aed033b5c43a4bf718969794610683565b5193845216923392a380f35b9350908584813d8311610582575b61056e818361073a565b810103126103c9579251929061054a61051a565b503d610564565b82513d89823e3d90fd5b5162461bcd60e51b8152808301859052601a60248201527f436c61696d20706572696f64206e6f742079657420656e6465640000000000006044820152606490fd5b8380fd5b600435906001600160a01b03821682036105ef57565b600080fd5b9181601f840112156105ef5782359167ffffffffffffffff83116105ef576020808501948460051b0101116105ef57565b1561062c57565b60405162461bcd60e51b815260206004820152600c60248201526b15539055551213d49256915160a21b6044820152606490fd5b9190820391821161066d57565b634e487b7160e01b600052601160045260246000fd5b600091826044926020956040519363a9059cbb60e01b8552600485015260248401525af13d15601f3d11600160005114161716156106bd57565b60405162461bcd60e51b815260206004820152600f60248201526e1514905394d1915497d19052531151608a1b6044820152606490fd5b919261070291938484610772565b15610733576001600160a01b0316600090815260036020526040902054818110156107335761073091610660565b90565b5050600090565b90601f8019910116810190811067ffffffffffffffff82111761075c57604052565b634e487b7160e01b600052604160045260246000fd5b919392909360408051956020908188019560018060a01b0316865282880152818752606087019367ffffffffffffffff958886108787111761075c57858452885190206080890190815282865260a08901958087108888111761075c5786855251902097600194855497831161075c5760059083821b936107f58686018a61073a565b885260c093848401908201913683116105ef579b92999a9b905b82821061089257505050908594939291976000955b610835575b50505050505050501490565b9091929394959697885187101561088c5786821b8301840151908660008383101561087f5750506000528452846000205b97600019871461066d5796958601949392919086610824565b9190928252865220610866565b97610829565b8135815290860190860161080f56fea2646970667358221220fb540b7f1e0003bc6e45c97fb0106a5df38344dc9493637359b4a0d9c4a990d564736f6c63430008140033",
  "linkReferences": {},
  "deployedLinkReferences": {}
}