{
  "_format": "hh-sol-artifact-1",
  "contractName": "FRouter",
  "sourceName": "src/contracts/FRouter.sol",
  "abi": [
    {
      "inputs": [],
      "stateMutability": "nonpayable",
      "type": "constructor"
    },
    {
      "inputs": [],
      "name": "AccessControlBadConfirmation",
      "type": "error"
    },
    {
      "inputs": [
        {
          "internalType": "address",
          "name": "account",
          "type": "address"
        },
        {
          "internalType": "bytes32",
          "name": "neededRole",
          "type": "bytes32"
        }
      ],
      "name": "AccessControlUnauthorizedAccount",
      "type": "error"
    },
    {
      "inputs": [],
      "name": "InvalidInitialization",
      "type": "error"
    },
    {
      "inputs": [],
      "name": "NotInitializing",
      "type": "error"
    },
    {
      "inputs": [],
      "name": "ReentrancyGuardReentrantCall",
      "type": "error"
    },
    {
      "inputs": [
        {
          "internalType": "address",
          "name": "token",
          "type": "address"
        }
      ],
      "name": "SafeERC20FailedOperation",
      "type": "error"
    },
    {
      "anonymous": false,
      "inputs": [
        {
          "indexed": false,
          "internalType": "uint64",
          "name": "version",
          "type": "uint64"
        }
      ],
      "name": "Initialized",
      "type": "event"
    },
    {
      "anonymous": false,
      "inputs": [
        {
          "indexed": true,
          "internalType": "bytes32",
          "name": "role",
          "type": "bytes32"
        },
        {
          "indexed": true,
          "internalType": "bytes32",
          "name": "previousAdminRole",
          "type": "bytes32"
        },
        {
          "indexed": true,
          "internalType": "bytes32",
          "name": "newAdminRole",
          "type": "bytes32"
        }
      ],
      "name": "RoleAdminChanged",
      "type": "event"
    },
    {
      "anonymous": false,
      "inputs": [
        {
          "indexed": true,
          "internalType": "bytes32",
          "name": "role",
          "type": "bytes32"
        },
        {
          "indexed": true,
          "internalType": "address",
          "name": "account",
          "type": "address"
        },
        {
          "indexed": true,
          "internalType": "address",
          "name": "sender",
          "type": "address"
        }
      ],
      "name": "RoleGranted",
      "type": "event"
    },
    {
      "anonymous": false,
      "inputs": [
        {
          "indexed": true,
          "internalType": "bytes32",
          "name": "role",
          "type": "bytes32"
        },
        {
          "indexed": true,
          "internalType": "address",
          "name": "account",
          "type": "address"
        },
        {
          "indexed": true,
          "internalType": "address",
          "name": "sender",
          "type": "address"
        }
      ],
      "name": "RoleRevoked",
      "type": "event"
    },
    {
      "inputs": [],
      "name": "ADMIN_ROLE",
      "outputs": [
        {
          "internalType": "bytes32",
          "name": "",
          "type": "bytes32"
        }
      ],
      "stateMutability": "view",
      "type": "function"
    },
    {
      "inputs": [],
      "name": "DEFAULT_ADMIN_ROLE",
      "outputs": [
        {
          "internalType": "bytes32",
          "name": "",
          "type": "bytes32"
        }
      ],
      "stateMutability": "view",
      "type": "function"
    },
    {
      "inputs": [],
      "name": "EXECUTOR_ROLE",
      "outputs": [
        {
          "internalType": "bytes32",
          "name": "",
          "type": "bytes32"
        }
      ],
      "stateMutability": "view",
      "type": "function"
    },
    {
      "inputs": [
        {
          "internalType": "address",
          "name": "token_",
          "type": "address"
        },
        {
          "internalType": "uint256",
          "name": "amountToken_",
          "type": "uint256"
        },
        {
          "internalType": "uint256",
          "name": "amountAsset_",
          "type": "uint256"
        }
      ],
      "name": "addInitialLiquidity",
      "outputs": [
        {
          "internalType": "uint256",
          "name": "",
          "type": "uint256"
        },
        {
          "internalType": "uint256",
          "name": "",
          "type": "uint256"
        }
      ],
      "stateMutability": "nonpayable",
      "type": "function"
    },
    {
      "inputs": [
        {
          "internalType": "address",
          "name": "pair",
          "type": "address"
        },
        {
          "internalType": "address",
          "name": "asset",
          "type": "address"
        },
        {
          "internalType": "address",
          "name": "spender",
          "type": "address"
        },
        {
          "internalType": "uint256",
          "name": "amount",
          "type": "uint256"
        }
      ],
      "name": "approval",
      "outputs": [],
      "stateMutability": "nonpayable",
      "type": "function"
    },
    {
      "inputs": [],
      "name": "assetToken",
      "outputs": [
        {
          "internalType": "address",
          "name": "",
          "type": "address"
        }
      ],
      "stateMutability": "view",
      "type": "function"
    },
    {
      "inputs": [
        {
          "internalType": "uint256",
          "name": "amountIn",
          "type": "uint256"
        },
        {
          "internalType": "address",
          "name": "tokenAddress",
          "type": "address"
        },
        {
          "internalType": "address",
          "name": "to",
          "type": "address"
        }
      ],
      "name": "buy",
      "outputs": [
        {
          "internalType": "uint256",
          "name": "",
          "type": "uint256"
        },
        {
          "internalType": "uint256",
          "name": "",
          "type": "uint256"
        }
      ],
      "stateMutability": "nonpayable",
      "type": "function"
    },
    {
      "inputs": [],
      "name": "factory",
      "outputs": [
        {
          "internalType": "contract FFactory",
          "name": "",
          "type": "address"
        }
      ],
      "stateMutability": "view",
      "type": "function"
    },
    {
      "inputs": [
        {
          "internalType": "address",
          "name": "token",
          "type": "address"
        },
        {
          "internalType": "address",
          "name": "assetToken_",
          "type": "address"
        },
        {
          "internalType": "uint256",
          "name": "amountIn",
          "type": "uint256"
        }
      ],
      "name": "getAmountsOut",
      "outputs": [
        {
          "internalType": "uint256",
          "name": "_amountOut",
          "type": "uint256"
        }
      ],
      "stateMutability": "view",
      "type": "function"
    },
    {
      "inputs": [
        {
          "internalType": "bytes32",
          "name": "role",
          "type": "bytes32"
        }
      ],
      "name": "getRoleAdmin",
      "outputs": [
        {
          "internalType": "bytes32",
          "name": "",
          "type": "bytes32"
        }
      ],
      "stateMutability": "view",
      "type": "function"
    },
    {
      "inputs": [
        {
          "internalType": "address",
          "name": "tokenAddress",
          "type": "address"
        }
      ],
      "name": "graduate",
      "outputs": [],
      "stateMutability": "nonpayable",
      "type": "function"
    },
    {
      "inputs": [
        {
          "internalType": "bytes32",
          "name": "role",
          "type": "bytes32"
        },
        {
          "internalType": "address",
          "name": "account",
          "type": "address"
        }
      ],
      "name": "grantRole",
      "outputs": [],
      "stateMutability": "nonpayable",
      "type": "function"
    },
    {
      "inputs": [
        {
          "internalType": "bytes32",
          "name": "role",
          "type": "bytes32"
        },
        {
          "internalType": "address",
          "name": "account",
          "type": "address"
        }
      ],
      "name": "hasRole",
      "outputs": [
        {
          "internalType": "bool",
          "name": "",
          "type": "bool"
        }
      ],
      "stateMutability": "view",
      "type": "function"
    },
    {
      "inputs": [
        {
          "internalType": "address",
          "name": "factory_",
          "type": "address"
        },
        {
          "internalType": "address",
          "name": "assetToken_",
          "type": "address"
        }
      ],
      "name": "initialize",
      "outputs": [],
      "stateMutability": "nonpayable",
      "type": "function"
    },
    {
      "inputs": [
        {
          "internalType": "bytes32",
          "name": "role",
          "type": "bytes32"
        },
        {
          "internalType": "address",
          "name": "callerConfirmation",
          "type": "address"
        }
      ],
      "name": "renounceRole",
      "outputs": [],
      "stateMutability": "nonpayable",
      "type": "function"
    },
    {
      "inputs": [
        {
          "internalType": "bytes32",
          "name": "role",
          "type": "bytes32"
        },
        {
          "internalType": "address",
          "name": "account",
          "type": "address"
        }
      ],
      "name": "revokeRole",
      "outputs": [],
      "stateMutability": "nonpayable",
      "type": "function"
    },
    {
      "inputs": [
        {
          "internalType": "uint256",
          "name": "amountIn",
          "type": "uint256"
        },
        {
          "internalType": "address",
          "name": "tokenAddress",
          "type": "address"
        },
        {
          "internalType": "address",
          "name": "to",
          "type": "address"
        }
      ],
      "name": "sell",
      "outputs": [
        {
          "internalType": "uint256",
          "name": "",
          "type": "uint256"
        },
        {
          "internalType": "uint256",
          "name": "",
          "type": "uint256"
        }
      ],
      "stateMutability": "nonpayable",
      "type": "function"
    },
    {
      "inputs": [
        {
          "internalType": "bytes4",
          "name": "interfaceId",
          "type": "bytes4"
        }
      ],
      "name": "supportsInterface",
      "outputs": [
        {
          "internalType": "bool",
          "name": "",
          "type": "bool"
        }
      ],
      "stateMutability": "view",
      "type": "function"
    }
  ],
  "bytecode": "0x608080604052346100b8577ff0c57e16840df040f15088dc2f81fe391c3923bec73e23a9662efc9c229c6a009081549060ff8260401c166100a957506001600160401b036002600160401b031982821601610064575b604051611bcd90816100be8239f35b6001600160401b031990911681179091556040519081527fc7f505b2f371ae2175ee4913f4499e1f2633a7b5936321eed1cdaeb6115181d290602090a1388080610055565b63f92ee8a960e01b8152600490fd5b600080fdfe6080604081815260048036101561001557600080fd5b600092833560e01c90816301ffc9a71461130c5750806307bd0265146112d15780631083f761146112a8578063248a9ca3146112715780632f2ff15d1461124857806336568abe1461120157806345608d00146111c8578063485cc9551461102e5780636f08e17714610a6e57806375b238fc14610a3357806391d14854146109e1578063a217fddf146109c6578063ab3c475a146108e7578063ba37fd38146107ad578063c45a015514610785578063d547741f14610739578063e753858a1461029b5763ff6d8d05146100e957600080fd5b829134610297576020918260031936011261029257610106611376565b61010e6113c1565b610116611b27565b6001600160a01b0390610171908590610132818516151561161e565b8754600154875163e6a4390560e01b81526001600160a01b03938416888201908152918716909316602082015291938492918616918391829160400190565b03915afa90811561025b578691610265575b501692825163c66f245560e01b815281818481885afa91821561025b578692610225575b5050833b15610221578251635c921eb960e01b815233928101928352602083019190915292849184919082908490829060400103925af19081156102185750610201575b506001600080516020611b788339815191525580f35b61020a906116ab565b6102155780386101eb565b80fd5b513d84823e3d90fd5b8480fd5b8196508092503d8311610254575b61023d81836116f1565b8101031261024f5784935138806101a7565b600080fd5b503d610233565b84513d88823e3d90fd5b6102859150853d871161028b575b61027d81836116f1565b810190611713565b38610183565b503d610273565b505050fd5b5050fd5b509134610215576102ab3661138c565b90926102b56113c1565b6102bd611b27565b6001600160a01b036102d2858216151561161e565b6102df818416151561161e565b83156106f6578154600154875163e6a4390560e01b81526001600160a01b038089168b830190815292851690811660208481019190915298919791939092908516908990899081906040010381845afa9788156106ec5786986106cd575b508951634f7041a560e01b815289818d81855afa908115610689578c969594928c94928c928a91610693575b5060646103a0858361039b6103c7958b51610383816116d5565b60078152666665653a20257360c81b8a820152611a12565b611b14565b048096516103ad816116d5565b600981526874784665653a20257360b81b85820152611a12565b8c51630e2ad37b60e41b81529d8e9182905afa9b8c1561068957918b8a8a8d9e9f94878f9e9f8399988e9861066a575b508b865191610405836116d5565b6009835280830168666565546f3a20257360b81b9052875191829182019363319af33360e01b85528960248401526064830161044091611983565b908b16604483015203601f198101825261045a90826116f1565b51905a91600092916a636f6e736f6c652e6c6f678493fa5061047b91611775565b9e8f8094519161048a836116d5565b600a8352820169616d6f756e743a20257360b01b90526104a991611a12565b6104b293611a6f565b8b516104bd816116d5565b601081526f736166655472616e7366657246726f6d60801b8a8201526104e2906119c3565b8460015416926104f193611a6f565b88516104fc816116d5565b6015815274039b0b332aa3930b739b332b9233937b6903332b29605d1b87820152610526906119c3565b87826001541661053592611782565b958851610541816116d5565b600d8152878782016c616d6f756e744f75743a20257360981b905261056591611a12565b1692833b156106665787516302ccb1b360e41b81526001600160a01b0390911682820190815260208101879052839082908190604001038183885af1801561065c579183918693610640575b50608490828a519687948593635673b02d60e01b85528401528960248401528a60448401528160648401525af19081156106355750610608575b506001600080516020611b78833981519152558351928352820152f35b61062790823d841161062e575b61061f81836116f1565b810190611a57565b50386105eb565b503d610615565b8651903d90823e3d90fd5b61064b9193506116ab565b61065857818491386105b1565b5080fd5b88513d85823e3d90fd5b8280fd5b816106829299503d8a1161028b5761027d81836116f1565b96386103f7565b8b513d89823e3d90fd5b985050935086813d83116106c6575b6106ac81836116f1565b8101031261024f5794518b958b9390918b91906064610369565b503d6106a2565b6106e5919850893d8b1161028b5761027d81836116f1565b963861033d565b8a513d88823e3d90fd5b855162461bcd60e51b8152602081890152601f60248201527f616d6f756e74496e206d7573742062652067726561746572207468616e2030006044820152606490fd5b509034610666578060031936011261066657610781913561077c600161075d611360565b93838752600080516020611b588339815191526020528620015461143b565b61159b565b5080f35b505034610658578160031936011261065857905490516001600160a01b039091168152602090f35b508234610215576060366003190112610215576107c8611376565b60243592604435926107d86113c1565b6001600160a01b0383811692906107f084151561161e565b8254600154895163e6a4390560e01b81526001600160a01b03978816858201908152918416909716602080830191909152969591879187918516908290819060400103915afa9485156108dd5791869391899386976108af575b506044929161085d858989943390611a6f565b8b519788958694630d9778e560e11b86528501528a6024850152165af19081156106355750610892575b508351928352820152f35b6108a890823d841161062e5761061f81836116f1565b5084610887565b869197509161085d856108d160449695893d8b1161028b5761027d81836116f1565b9993505050919261084a565b89513d86823e3d90fd5b50903461066657608036600319011261066657610902611376565b61090a611360565b6001600160a01b039360443592909185841680850361024f57610981966020956109468a936109376113c1565b61093f611b27565b151561161e565b8751632e2952f960e11b81526001600160a01b0391821696810196875293166020860152606435604086015291968794859391849160600190565b0393165af190811561021857506109a857506001600080516020611b788339815191525580f35b6109bf9060203d811161062e5761061f81836116f1565b50386101eb565b50503461065857816003193601126106585751908152602090f35b5034610666578160031936011261066657816020936109fe611360565b92358152600080516020611b588339815191528552209060018060a01b0316600052825260ff81600020541690519015158152f35b505034610658578160031936011261065857602090517fa49807205ce4d355092ef5a8a18f56e8913cf4a201fbe287825b095693c217758152f35b5082903461065857610a7f3661138c565b92909193610a8b611b27565b610a936113c1565b6001600160a01b03838116948515159391610aad8561161e565b610aba818316151561161e565b808454168160015416908a519063e6a4390560e01b988983526020998a8480610aff88868d840190602090939293604083019460018060a01b03809216845216910152565b0381865afa938415610f9357928b928f95949287938c9661100d575b508596610b2d8a610b5898169e61161e565b519081526001600160a01b039182168b82019081529390911660208401529384928391829160400190565b03915afa908115611003579084918891610fe6575b508c51630240bc6b60e21b815291168c828881845afa908115610fdc57908a88928f8b958c94610f9d575b5051637464fc3d60e01b815293849182905afa918215610f93578b8f91938f9695938c8b968193610f4a575b5090610cb6998992610bf1858851610bdb816116d5565b60058152646b3a20257360d81b89820152611a12565b50610eba5792610c91610cab93610c5c8794610cb09997610c576e6e657752657365727665413a20257360881b9a51610c29816116d5565b601981527f6173736574546f6b656e5f203d3d206173736574546f6b656e00000000000000888201526119c3565b611732565b90610c8c828651610c6c816116d5565b600f81526e6e657752657365727665423a20257360881b87820152611a12565b611755565b9485925191610c9f836116d5565b600f8352820152611a12565b611775565b9a611a6f565b83541690885163cc1776d360e01b815286818581865afa908115610eb05784929189918791610e7a575b50606491610ced91611b14565b049287610cfa858b611775565b918c5194858092630e2ad37b60e41b82525afa928315610e4d578693610e5b575b50863b15610e57578a51635c921eb960e01b8082526001600160a01b039093168682019081526020810192909252908690829081906040010381838b5af18015610e4d57610e3a575b50853b156102215789519081526001600160a01b03909116838201908152602081019290925290839082908190604001038183885af1801561065c57918388928794610e1e575b50906084918a519687948593635673b02d60e01b85528401528160248401528160448401528960648401525af19081156106355750610e0157506001600080516020611b78833981519152558351928352820152f35b610e1790823d841161062e5761061f81836116f1565b50846105eb565b909250610e2c9193506116ab565b61065857858491838a610dab565b610e46909591956116ab565b938a610d64565b8b513d88823e3d90fd5b8580fd5b610e73919350883d8a1161028b5761027d81836116f1565b918b610d1b565b92935050508681813d8311610ea9575b610e9481836116f1565b81010312610221575183919088906064610ce0565b503d610e8a565b8a513d87823e3d90fd5b92610c91610cab93610f1a8794610cb099610c576e6e657752657365727665423a20257360881b9a51610eec816116d5565b601981527f6173736574546f6b656e5f20213d206173736574546f6b656e00000000000000888201526119c3565b90610c8c828651610f2a816116d5565b600f81526e6e657752657365727665413a20257360881b87820152611a12565b959850509597945050905081813d8311610f8c575b610f6981836116f1565b81010312610f88575190938c93909287928f918d91908c610cb6610bc4565b8880fd5b503d610f5f565b8e513d8b823e3d90fd5b9550925092505082813d8311610fd5575b610fb881836116f1565b81010312610fd1578c8a88928185519501519238610b98565b8780fd5b503d610fae565b8d513d8a823e3d90fd5b610ffd91508a3d8c1161028b5761027d81836116f1565b8d610b6d565b8c513d89823e3d90fd5b610b58965061102890863d881161028b5761027d81836116f1565b95610b1b565b5034610666578160031936011261066657611047611376565b90611050611360565b917ff0c57e16840df040f15088dc2f81fe391c3923bec73e23a9662efc9c229c6a009283549160ff83871c16159267ffffffffffffffff8116948515806111c1575b600180971490816111b7575b1590816111ae575b506111a0575067ffffffffffffffff1981168517865583611181575b506110cb61166a565b6110d361166a565b83600080516020611b78833981519152556110ec61166a565b6110f53361146e565b506001600160a01b039081169161110d83151561161e565b169061111a82151561161e565b6bffffffffffffffffffffffff60a01b9081885416178755835416178255611140578380f35b7fc7f505b2f371ae2175ee4913f4499e1f2633a7b5936321eed1cdaeb6115181d29260209268ff000000000000000019815416905551908152a13880808380f35b68ffffffffffffffffff191668010000000000000001178555386110c2565b875163f92ee8a960e01b8152fd5b905015386110a6565b303b15915061109e565b5084611092565b505034610658576060366003190112610658576020906111fa6111e9611376565b6111f1611360565b60443591611782565b9051908152f35b5091903461065857806003193601126106585761121c611360565b90336001600160a01b03831603611239575061078191923561159b565b5163334bd91960e11b81528390fd5b509034610666578060031936011261066657610781913561126c600161075d611360565b61150e565b50346106665760203660031901126106665781602093600192358152600080516020611b5883398151915285522001549051908152f35b50503461065857816003193601126106585760015490516001600160a01b039091168152602090f35b505034610658578160031936011261065857602090517fd8aa0f3194971a2a116679f7c2090f6939c8d4e01a2a8d7e41d55e5351469e638152f35b92505034610666576020366003190112610666573563ffffffff60e01b81168091036106665760209250637965db0b60e01b811490811561134f575b5015158152f35b6301ffc9a760e01b14905038611348565b602435906001600160a01b038216820361024f57565b600435906001600160a01b038216820361024f57565b606090600319011261024f57600435906001600160a01b0390602435828116810361024f5791604435908116810361024f5790565b3360009081527f52fce5e8a5d0d9e8d1ea29f4525e512e9c27bf92cae50374d497f918ab48f38260205260409020547fd8aa0f3194971a2a116679f7c2090f6939c8d4e01a2a8d7e41d55e5351469e639060ff161561141d5750565b6044906040519063e2517d3f60e01b82523360048301526024820152fd5b80600052600080516020611b5883398151915260205260406000203360005260205260ff604060002054161561141d5750565b6001600160a01b031660008181527fb7db2dd08fcb62d0c9e08c51941cae53c267786a0b75803fb7960902fc8ef97d6020526040812054909190600080516020611b588339815191529060ff16611509578280526020526040822081835260205260408220600160ff1982541617905533917f2f8788117e7eff1d82e926ec794901d17c78024a50270940304540a733656f0d8180a4600190565b505090565b90600091808352600080516020611b5883398151915280602052604084209260018060a01b03169283855260205260ff60408520541615600014611595578184526020526040832082845260205260408320600160ff198254161790557f2f8788117e7eff1d82e926ec794901d17c78024a50270940304540a733656f0d339380a4600190565b50505090565b90600091808352600080516020611b5883398151915280602052604084209260018060a01b03169283855260205260ff60408520541660001461159557818452602052604083208284526020526040832060ff1981541690557ff6391f5c32d9c69d2a47ea670b442974b53935d1edc7fd64eb21e047a839171b339380a4600190565b1561162557565b60405162461bcd60e51b815260206004820152601f60248201527f5a65726f2061646472657373657320617265206e6f7420616c6c6f7765642e006044820152606490fd5b60ff7ff0c57e16840df040f15088dc2f81fe391c3923bec73e23a9662efc9c229c6a005460401c161561169957565b604051631afcd79f60e31b8152600490fd5b67ffffffffffffffff81116116bf57604052565b634e487b7160e01b600052604160045260246000fd5b6040810190811067ffffffffffffffff8211176116bf57604052565b90601f8019910116810190811067ffffffffffffffff8211176116bf57604052565b9081602091031261024f57516001600160a01b038116810361024f5790565b9190820180921161173f57565b634e487b7160e01b600052601160045260246000fd5b811561175f570490565b634e487b7160e01b600052601260045260246000fd5b9190820391821161173f57565b9192916001600160a01b0361179a818316151561161e565b600080546001546040805163e6a4390560e01b81526001600160a01b0396871660048201529185169586166024830152929792946020949290919085908290604490829087165afa908115611979579083918a9161195c575b501691855196630240bc6b60e21b88528688600481875afa938415611952578a988b95611919575b50998688999a9b600498995198898092637464fc3d60e01b82525afa96871561190d5781976118da575b5061186b878a51611855816116d5565b60058152646b3a20257360d81b8b820152611a12565b5016036118a85792610c91610cab93610c5c87946118a59997610c576e6e657752657365727665413a20257360881b9a51610c29816116d5565b90565b92610c91610cab93610f1a87946118a599610c576e6e657752657365727665423a20257360881b9a51610eec816116d5565b9096508781813d8311611906575b6118f281836116f1565b8101031261190257519538611845565b8680fd5b503d6118e8565b508851903d90823e3d90fd5b985093508688813d811161194b575b61193281836116f1565b8101031261194757875197860151938661181b565b8980fd5b503d611928565b87513d8c823e3d90fd5b6119739150863d881161028b5761027d81836116f1565b386117f3565b86513d8b823e3d90fd5b919082519283825260005b8481106119af575050826000602080949584010152601f8019910116010190565b60208183018101518483018201520161198e565b600080916040516119ff816119f1602082019463104c13eb60e21b8652602060248401526044830190611983565b03601f1981018352826116f1565b51906a636f6e736f6c652e6c6f675afa50565b6000919082916119ff6040518092611a436020830195632d839cb360e21b8752604060248501526064840190611983565b90604483015203601f1981018352826116f1565b9081602091031261024f5751801515810361024f5790565b6040516323b872dd60e01b60208083019182526001600160a01b03948516602484015294909316604482015260648101949094529260009190611ab581608481016119f1565b519082855af115611b08576000513d611aff57506001600160a01b0381163b155b611add5750565b604051635274afe760e01b81526001600160a01b039091166004820152602490fd5b60011415611ad6565b6040513d6000823e3d90fd5b8181029291811591840414171561173f57565b600080516020611b788339815191526002815414611b455760029055565b604051633ee5aeb560e01b8152600490fdfe02dd7bc7dec4dceedda775e58dd541e08a116c6c53815c0bd028192f7b6268009b779b17422d0df92223018b32b4d1fa46e071723d6817e2486d003becc55f00a2646970667358221220441b83ead9e8ac9f87f816174f5899315f64d6b835a2253a6457769012fde09264736f6c63430008140033",
  "linkReferences": {},
  "deployedLinkReferences": {}
}