{
  "_format": "hh-sol-artifact-1",
  "contractName": "ArtistFactory",
  "sourceName": "src/contracts/limelightPersona/ArtistFactory.sol",
  "abi": [
    {
      "inputs": [],
      "stateMutability": "nonpayable",
      "type": "constructor"
    },
    {
      "inputs": [],
      "name": "AccessControlBadConfirmation",
      "type": "error"
    },
    {
      "inputs": [
        {
          "internalType": "address",
          "name": "account",
          "type": "address"
        },
        {
          "internalType": "bytes32",
          "name": "neededRole",
          "type": "bytes32"
        }
      ],
      "name": "AccessControlUnauthorizedAccount",
      "type": "error"
    },
    {
      "inputs": [],
      "name": "EnforcedPause",
      "type": "error"
    },
    {
      "inputs": [],
      "name": "ExpectedPause",
      "type": "error"
    },
    {
      "inputs": [],
      "name": "FailedDeployment",
      "type": "error"
    },
    {
      "inputs": [
        {
          "internalType": "uint256",
          "name": "balance",
          "type": "uint256"
        },
        {
          "internalType": "uint256",
          "name": "needed",
          "type": "uint256"
        }
      ],
      "name": "InsufficientBalance",
      "type": "error"
    },
    {
      "inputs": [],
      "name": "InvalidInitialization",
      "type": "error"
    },
    {
      "inputs": [],
      "name": "NotInitializing",
      "type": "error"
    },
    {
      "inputs": [
        {
          "internalType": "address",
          "name": "token",
          "type": "address"
        }
      ],
      "name": "SafeERC20FailedOperation",
      "type": "error"
    },
    {
      "anonymous": false,
      "inputs": [
        {
          "indexed": false,
          "internalType": "uint256",
          "name": "newThreshold",
          "type": "uint256"
        }
      ],
      "name": "ApplicationThresholdUpdated",
      "type": "event"
    },
    {
      "anonymous": false,
      "inputs": [
        {
          "indexed": false,
          "internalType": "address",
          "name": "newGov",
          "type": "address"
        }
      ],
      "name": "GovUpdated",
      "type": "event"
    },
    {
      "anonymous": false,
      "inputs": [
        {
          "indexed": false,
          "internalType": "address",
          "name": "token",
          "type": "address"
        },
        {
          "indexed": false,
          "internalType": "address",
          "name": "dao",
          "type": "address"
        }
      ],
      "name": "ImplContractsUpdated",
      "type": "event"
    },
    {
      "anonymous": false,
      "inputs": [
        {
          "indexed": false,
          "internalType": "uint64",
          "name": "version",
          "type": "uint64"
        }
      ],
      "name": "Initialized",
      "type": "event"
    },
    {
      "anonymous": false,
      "inputs": [
        {
          "indexed": false,
          "internalType": "uint256",
          "name": "id",
          "type": "uint256"
        }
      ],
      "name": "NewApplication",
      "type": "event"
    },
    {
      "anonymous": false,
      "inputs": [
        {
          "indexed": false,
          "internalType": "uint256",
          "name": "limelightId",
          "type": "uint256"
        },
        {
          "indexed": false,
          "internalType": "address",
          "name": "token",
          "type": "address"
        },
        {
          "indexed": false,
          "internalType": "address",
          "name": "dao",
          "type": "address"
        },
        {
          "indexed": false,
          "internalType": "address",
          "name": "tba",
          "type": "address"
        },
        {
          "indexed": false,
          "internalType": "address",
          "name": "veToken",
          "type": "address"
        },
        {
          "indexed": false,
          "internalType": "address",
          "name": "lp",
          "type": "address"
        }
      ],
      "name": "NewPersona",
      "type": "event"
    },
    {
      "anonymous": false,
      "inputs": [
        {
          "indexed": false,
          "internalType": "address",
          "name": "account",
          "type": "address"
        }
      ],
      "name": "Paused",
      "type": "event"
    },
    {
      "anonymous": false,
      "inputs": [
        {
          "indexed": true,
          "internalType": "bytes32",
          "name": "role",
          "type": "bytes32"
        },
        {
          "indexed": true,
          "internalType": "bytes32",
          "name": "previousAdminRole",
          "type": "bytes32"
        },
        {
          "indexed": true,
          "internalType": "bytes32",
          "name": "newAdminRole",
          "type": "bytes32"
        }
      ],
      "name": "RoleAdminChanged",
      "type": "event"
    },
    {
      "anonymous": false,
      "inputs": [
        {
          "indexed": true,
          "internalType": "bytes32",
          "name": "role",
          "type": "bytes32"
        },
        {
          "indexed": true,
          "internalType": "address",
          "name": "account",
          "type": "address"
        },
        {
          "indexed": true,
          "internalType": "address",
          "name": "sender",
          "type": "address"
        }
      ],
      "name": "RoleGranted",
      "type": "event"
    },
    {
      "anonymous": false,
      "inputs": [
        {
          "indexed": true,
          "internalType": "bytes32",
          "name": "role",
          "type": "bytes32"
        },
        {
          "indexed": true,
          "internalType": "address",
          "name": "account",
          "type": "address"
        },
        {
          "indexed": true,
          "internalType": "address",
          "name": "sender",
          "type": "address"
        }
      ],
      "name": "RoleRevoked",
      "type": "event"
    },
    {
      "anonymous": false,
      "inputs": [
        {
          "indexed": false,
          "internalType": "address",
          "name": "account",
          "type": "address"
        }
      ],
      "name": "Unpaused",
      "type": "event"
    },
    {
      "inputs": [],
      "name": "BONDING_ROLE",
      "outputs": [
        {
          "internalType": "bytes32",
          "name": "",
          "type": "bytes32"
        }
      ],
      "stateMutability": "view",
      "type": "function"
    },
    {
      "inputs": [],
      "name": "DEFAULT_ADMIN_ROLE",
      "outputs": [
        {
          "internalType": "bytes32",
          "name": "",
          "type": "bytes32"
        }
      ],
      "stateMutability": "view",
      "type": "function"
    },
    {
      "inputs": [],
      "name": "WITHDRAW_ROLE",
      "outputs": [
        {
          "internalType": "bytes32",
          "name": "",
          "type": "bytes32"
        }
      ],
      "stateMutability": "view",
      "type": "function"
    },
    {
      "inputs": [
        {
          "internalType": "uint256",
          "name": "",
          "type": "uint256"
        }
      ],
      "name": "allDAOs",
      "outputs": [
        {
          "internalType": "address",
          "name": "",
          "type": "address"
        }
      ],
      "stateMutability": "view",
      "type": "function"
    },
    {
      "inputs": [
        {
          "internalType": "uint256",
          "name": "",
          "type": "uint256"
        }
      ],
      "name": "allTokens",
      "outputs": [
        {
          "internalType": "address",
          "name": "",
          "type": "address"
        }
      ],
      "stateMutability": "view",
      "type": "function"
    },
    {
      "inputs": [
        {
          "internalType": "uint256",
          "name": "",
          "type": "uint256"
        }
      ],
      "name": "allTradingTokens",
      "outputs": [
        {
          "internalType": "address",
          "name": "",
          "type": "address"
        }
      ],
      "stateMutability": "view",
      "type": "function"
    },
    {
      "inputs": [],
      "name": "applicationThreshold",
      "outputs": [
        {
          "internalType": "uint256",
          "name": "",
          "type": "uint256"
        }
      ],
      "stateMutability": "view",
      "type": "function"
    },
    {
      "inputs": [],
      "name": "assetToken",
      "outputs": [
        {
          "internalType": "address",
          "name": "",
          "type": "address"
        }
      ],
      "stateMutability": "view",
      "type": "function"
    },
    {
      "inputs": [],
      "name": "daoImplementation",
      "outputs": [
        {
          "internalType": "address",
          "name": "",
          "type": "address"
        }
      ],
      "stateMutability": "view",
      "type": "function"
    },
    {
      "inputs": [],
      "name": "defaultDelegatee",
      "outputs": [
        {
          "internalType": "address",
          "name": "",
          "type": "address"
        }
      ],
      "stateMutability": "view",
      "type": "function"
    },
    {
      "inputs": [
        {
          "internalType": "uint256",
          "name": "id",
          "type": "uint256"
        },
        {
          "internalType": "bool",
          "name": "canStake",
          "type": "bool"
        }
      ],
      "name": "executeApplication",
      "outputs": [],
      "stateMutability": "nonpayable",
      "type": "function"
    },
    {
      "inputs": [
        {
          "internalType": "uint256",
          "name": "id",
          "type": "uint256"
        },
        {
          "internalType": "uint256",
          "name": "totalSupply",
          "type": "uint256"
        },
        {
          "internalType": "uint256",
          "name": "lpSupply",
          "type": "uint256"
        },
        {
          "internalType": "address",
          "name": "vault",
          "type": "address"
        }
      ],
      "name": "executeBondingCurveApplication",
      "outputs": [
        {
          "internalType": "address",
          "name": "",
          "type": "address"
        }
      ],
      "stateMutability": "nonpayable",
      "type": "function"
    },
    {
      "inputs": [
        {
          "internalType": "uint256",
          "name": "proposalId",
          "type": "uint256"
        }
      ],
      "name": "getApplication",
      "outputs": [
        {
          "components": [
            {
              "internalType": "string",
              "name": "name",
              "type": "string"
            },
            {
              "internalType": "string",
              "name": "symbol",
              "type": "string"
            },
            {
              "internalType": "string",
              "name": "tokenURI",
              "type": "string"
            },
            {
              "internalType": "enum ArtistFactory.ApplicationStatus",
              "name": "status",
              "type": "uint8"
            },
            {
              "internalType": "uint256",
              "name": "withdrawableAmount",
              "type": "uint256"
            },
            {
              "internalType": "address",
              "name": "proposer",
              "type": "address"
            },
            {
              "internalType": "uint8[]",
              "name": "cores",
              "type": "uint8[]"
            },
            {
              "internalType": "uint256",
              "name": "proposalEndBlock",
              "type": "uint256"
            },
            {
              "internalType": "uint256",
              "name": "limelightId",
              "type": "uint256"
            },
            {
              "internalType": "bytes32",
              "name": "tbaSalt",
              "type": "bytes32"
            },
            {
              "internalType": "address",
              "name": "tbaImplementation",
              "type": "address"
            },
            {
              "internalType": "uint32",
              "name": "daoVotingPeriod",
              "type": "uint32"
            },
            {
              "internalType": "uint256",
              "name": "daoThreshold",
              "type": "uint256"
            }
          ],
          "internalType": "struct ArtistFactory.Application",
          "name": "",
          "type": "tuple"
        }
      ],
      "stateMutability": "view",
      "type": "function"
    },
    {
      "inputs": [
        {
          "internalType": "bytes32",
          "name": "role",
          "type": "bytes32"
        }
      ],
      "name": "getRoleAdmin",
      "outputs": [
        {
          "internalType": "bytes32",
          "name": "",
          "type": "bytes32"
        }
      ],
      "stateMutability": "view",
      "type": "function"
    },
    {
      "inputs": [],
      "name": "gov",
      "outputs": [
        {
          "internalType": "address",
          "name": "",
          "type": "address"
        }
      ],
      "stateMutability": "view",
      "type": "function"
    },
    {
      "inputs": [
        {
          "internalType": "bytes32",
          "name": "role",
          "type": "bytes32"
        },
        {
          "internalType": "address",
          "name": "account",
          "type": "address"
        }
      ],
      "name": "grantRole",
      "outputs": [],
      "stateMutability": "nonpayable",
      "type": "function"
    },
    {
      "inputs": [
        {
          "internalType": "bytes32",
          "name": "role",
          "type": "bytes32"
        },
        {
          "internalType": "address",
          "name": "account",
          "type": "address"
        }
      ],
      "name": "hasRole",
      "outputs": [
        {
          "internalType": "bool",
          "name": "",
          "type": "bool"
        }
      ],
      "stateMutability": "view",
      "type": "function"
    },
    {
      "inputs": [
        {
          "internalType": "string",
          "name": "name",
          "type": "string"
        },
        {
          "internalType": "string",
          "name": "symbol",
          "type": "string"
        },
        {
          "internalType": "uint8[]",
          "name": "cores",
          "type": "uint8[]"
        },
        {
          "internalType": "bytes32",
          "name": "tbaSalt",
          "type": "bytes32"
        },
        {
          "internalType": "address",
          "name": "tbaImplementation",
          "type": "address"
        },
        {
          "internalType": "uint32",
          "name": "daoVotingPeriod",
          "type": "uint32"
        },
        {
          "internalType": "uint256",
          "name": "daoThreshold",
          "type": "uint256"
        },
        {
          "internalType": "uint256",
          "name": "applicationThreshold_",
          "type": "uint256"
        },
        {
          "internalType": "address",
          "name": "creator",
          "type": "address"
        }
      ],
      "name": "initFromBondingCurve",
      "outputs": [
        {
          "internalType": "uint256",
          "name": "",
          "type": "uint256"
        }
      ],
      "stateMutability": "nonpayable",
      "type": "function"
    },
    {
      "inputs": [
        {
          "internalType": "address",
          "name": "tokenImplementation_",
          "type": "address"
        },
        {
          "internalType": "address",
          "name": "veTokenImplementation_",
          "type": "address"
        },
        {
          "internalType": "address",
          "name": "daoImplementation_",
          "type": "address"
        },
        {
          "internalType": "address",
          "name": "tbaRegistry_",
          "type": "address"
        },
        {
          "internalType": "address",
          "name": "assetToken_",
          "type": "address"
        },
        {
          "internalType": "address",
          "name": "nft_",
          "type": "address"
        },
        {
          "internalType": "uint256",
          "name": "applicationThreshold_",
          "type": "uint256"
        },
        {
          "internalType": "address",
          "name": "vault_",
          "type": "address"
        },
        {
          "internalType": "uint256",
          "name": "nextId_",
          "type": "uint256"
        }
      ],
      "name": "initialize",
      "outputs": [],
      "stateMutability": "nonpayable",
      "type": "function"
    },
    {
      "inputs": [],
      "name": "maturityDuration",
      "outputs": [
        {
          "internalType": "uint256",
          "name": "",
          "type": "uint256"
        }
      ],
      "stateMutability": "view",
      "type": "function"
    },
    {
      "inputs": [],
      "name": "nft",
      "outputs": [
        {
          "internalType": "address",
          "name": "",
          "type": "address"
        }
      ],
      "stateMutability": "view",
      "type": "function"
    },
    {
      "inputs": [],
      "name": "pause",
      "outputs": [],
      "stateMutability": "nonpayable",
      "type": "function"
    },
    {
      "inputs": [],
      "name": "paused",
      "outputs": [
        {
          "internalType": "bool",
          "name": "",
          "type": "bool"
        }
      ],
      "stateMutability": "view",
      "type": "function"
    },
    {
      "inputs": [
        {
          "internalType": "string",
          "name": "name",
          "type": "string"
        },
        {
          "internalType": "string",
          "name": "symbol",
          "type": "string"
        },
        {
          "internalType": "string",
          "name": "tokenURI",
          "type": "string"
        },
        {
          "internalType": "uint8[]",
          "name": "cores",
          "type": "uint8[]"
        },
        {
          "internalType": "bytes32",
          "name": "tbaSalt",
          "type": "bytes32"
        },
        {
          "internalType": "address",
          "name": "tbaImplementation",
          "type": "address"
        },
        {
          "internalType": "uint32",
          "name": "daoVotingPeriod",
          "type": "uint32"
        },
        {
          "internalType": "uint256",
          "name": "daoThreshold",
          "type": "uint256"
        }
      ],
      "name": "proposeArtist",
      "outputs": [
        {
          "internalType": "uint256",
          "name": "",
          "type": "uint256"
        }
      ],
      "stateMutability": "nonpayable",
      "type": "function"
    },
    {
      "inputs": [
        {
          "internalType": "bytes32",
          "name": "role",
          "type": "bytes32"
        },
        {
          "internalType": "address",
          "name": "callerConfirmation",
          "type": "address"
        }
      ],
      "name": "renounceRole",
      "outputs": [],
      "stateMutability": "nonpayable",
      "type": "function"
    },
    {
      "inputs": [
        {
          "internalType": "bytes32",
          "name": "role",
          "type": "bytes32"
        },
        {
          "internalType": "address",
          "name": "account",
          "type": "address"
        }
      ],
      "name": "revokeRole",
      "outputs": [],
      "stateMutability": "nonpayable",
      "type": "function"
    },
    {
      "inputs": [
        {
          "internalType": "uint256",
          "name": "newThreshold",
          "type": "uint256"
        }
      ],
      "name": "setApplicationThreshold",
      "outputs": [],
      "stateMutability": "nonpayable",
      "type": "function"
    },
    {
      "inputs": [
        {
          "internalType": "address",
          "name": "newToken",
          "type": "address"
        }
      ],
      "name": "setAssetToken",
      "outputs": [],
      "stateMutability": "nonpayable",
      "type": "function"
    },
    {
      "inputs": [
        {
          "internalType": "address",
          "name": "newDelegatee",
          "type": "address"
        }
      ],
      "name": "setDefaultDelegatee",
      "outputs": [],
      "stateMutability": "nonpayable",
      "type": "function"
    },
    {
      "inputs": [
        {
          "internalType": "address",
          "name": "token",
          "type": "address"
        },
        {
          "internalType": "address",
          "name": "veToken",
          "type": "address"
        },
        {
          "internalType": "address",
          "name": "dao",
          "type": "address"
        }
      ],
      "name": "setImplementations",
      "outputs": [],
      "stateMutability": "nonpayable",
      "type": "function"
    },
    {
      "inputs": [
        {
          "internalType": "uint256",
          "name": "newDuration",
          "type": "uint256"
        }
      ],
      "name": "setMaturityDuration",
      "outputs": [],
      "stateMutability": "nonpayable",
      "type": "function"
    },
    {
      "inputs": [
        {
          "internalType": "address",
          "name": "newTokenAdmin",
          "type": "address"
        }
      ],
      "name": "setTokenAdmin",
      "outputs": [],
      "stateMutability": "nonpayable",
      "type": "function"
    },
    {
      "inputs": [
        {
          "internalType": "uint256",
          "name": "maxSupply",
          "type": "uint256"
        },
        {
          "internalType": "uint256",
          "name": "lpSupply",
          "type": "uint256"
        },
        {
          "internalType": "uint256",
          "name": "vaultSupply",
          "type": "uint256"
        },
        {
          "internalType": "uint256",
          "name": "maxTokensPerWallet",
          "type": "uint256"
        },
        {
          "internalType": "uint256",
          "name": "maxTokensPerTxn",
          "type": "uint256"
        },
        {
          "internalType": "uint256",
          "name": "botProtectionDurationInSeconds",
          "type": "uint256"
        },
        {
          "internalType": "address",
          "name": "vault",
          "type": "address"
        }
      ],
      "name": "setTokenSupplyParams",
      "outputs": [],
      "stateMutability": "nonpayable",
      "type": "function"
    },
    {
      "inputs": [
        {
          "internalType": "uint256",
          "name": "projectBuyTaxBasisPoints",
          "type": "uint256"
        },
        {
          "internalType": "uint256",
          "name": "projectSellTaxBasisPoints",
          "type": "uint256"
        },
        {
          "internalType": "uint256",
          "name": "taxSwapThresholdBasisPoints",
          "type": "uint256"
        },
        {
          "internalType": "address",
          "name": "projectTaxRecipient",
          "type": "address"
        }
      ],
      "name": "setTokenTaxParams",
      "outputs": [],
      "stateMutability": "nonpayable",
      "type": "function"
    },
    {
      "inputs": [
        {
          "internalType": "address",
          "name": "router",
          "type": "address"
        }
      ],
      "name": "setUniswapRouter",
      "outputs": [],
      "stateMutability": "nonpayable",
      "type": "function"
    },
    {
      "inputs": [
        {
          "internalType": "address",
          "name": "newVault",
          "type": "address"
        }
      ],
      "name": "setVault",
      "outputs": [],
      "stateMutability": "nonpayable",
      "type": "function"
    },
    {
      "inputs": [
        {
          "internalType": "bytes4",
          "name": "interfaceId",
          "type": "bytes4"
        }
      ],
      "name": "supportsInterface",
      "outputs": [
        {
          "internalType": "bool",
          "name": "",
          "type": "bool"
        }
      ],
      "stateMutability": "view",
      "type": "function"
    },
    {
      "inputs": [],
      "name": "tbaRegistry",
      "outputs": [
        {
          "internalType": "address",
          "name": "",
          "type": "address"
        }
      ],
      "stateMutability": "view",
      "type": "function"
    },
    {
      "inputs": [],
      "name": "tokenImplementation",
      "outputs": [
        {
          "internalType": "address",
          "name": "",
          "type": "address"
        }
      ],
      "stateMutability": "view",
      "type": "function"
    },
    {
      "inputs": [],
      "name": "totalArtists",
      "outputs": [
        {
          "internalType": "uint256",
          "name": "",
          "type": "uint256"
        }
      ],
      "stateMutability": "view",
      "type": "function"
    },
    {
      "inputs": [],
      "name": "unpause",
      "outputs": [],
      "stateMutability": "nonpayable",
      "type": "function"
    },
    {
      "inputs": [],
      "name": "veTokenImplementation",
      "outputs": [
        {
          "internalType": "address",
          "name": "",
          "type": "address"
        }
      ],
      "stateMutability": "view",
      "type": "function"
    },
    {
      "inputs": [
        {
          "internalType": "uint256",
          "name": "id",
          "type": "uint256"
        }
      ],
      "name": "withdraw",
      "outputs": [],
      "stateMutability": "nonpayable",
      "type": "function"
    }
  ],
  "bytecode": "0x60808060405234620000bd577ff0c57e16840df040f15088dc2f81fe391c3923bec73e23a9662efc9c229c6a009081549060ff8260401c16620000ae57506001600160401b036002600160401b03198282160162000068575b604051615c719081620000c38239f35b6001600160401b031990911681179091556040519081527fc7f505b2f371ae2175ee4913f4499e1f2633a7b5936321eed1cdaeb6115181d290602090a138808062000058565b63f92ee8a960e01b8152600490fd5b600080fdfe608080604052600436101561001357600080fd5b60003560e01c90816301ffc9a71461504157508063063513b7146150235780630c4cb55c14614ffa5780630f07646a14614e075780631083f76114614dde57806312d43a5114614db55780631f2f4bfd1461459557806323c3159614612d91578063248a9ca314612d6257806326bde5aa14612d1f5780632a7d4a1f14612b795780632e1a7d4d14612a3b5780632f2ff15d146129fc5780632f3a3d5d146129d35780633094afb31461299857806336568abe146129515780633deef772146129335780633f4ba83a146128bc5780633fa2da7e146121ce578063468d198d146121a557806347ccca021461217c5780635c975abb1461214c5780635ca3cedf14611fc8578063634282af14611f6d5780636817031b14611f2a5780638456cb5914611ec357806391d1485414611e765780639300d23814611e0b5780639cbe0bac14611de25780639d69932614611db95780639d7b684214611d76578063a217fddf14611d5a578063aa3d000a14610b6d578063b4136bd814610b12578063b4c41695146103e5578063bd1cf25814610399578063bea9849e14610356578063d547741f14610315578063d739ac29146102f4578063ddf44275146102d6578063e02023a11461029b578063e887b1cc146102405763f7457594146101f857600080fd5b3461023b57602036600319011261023b57610211615094565b610219615361565b601280546001600160a01b0319166001600160a01b0392909216919091179055005b600080fd5b3461023b57602036600319011261023b57600435600e5481101561023b57600e6000527fbb7b4a454dc3493923482f07822329ed19e8244eff582cc204f8554c3620c3fd01546040516001600160a01b039091168152602090f35b3461023b57600036600319011261023b5760206040517f5d8e12c39142ff96d79d04d15d1ba1269e4fe57bb9d26f43523628b34ba108ec8152f35b3461023b57600036600319011261023b576020600654604051908152f35b3461023b57602036600319011261023b5761030d615361565b600435600a55005b3461023b57604036600319011261023b576103546004356103346150aa565b9080600052600060205261034f60016040600020015461539b565b6154cf565b005b3461023b57602036600319011261023b5761036f615094565b610377615361565b600f80546001600160a01b0319166001600160a01b0392909216919091179055005b3461023b57602036600319011261023b577fcfa33021ab0175831433b2f3bd8eeb24a22f5ae53ca0e660a246811754f9e34a60206004356103d8615361565b80600655604051908152a1005b3461023b5761010036600319011261023b576004356001600160401b03811161023b57610416903690600401615212565b6024356001600160401b03811161023b57610435903690600401615212565b6044356001600160401b03811161023b57610454903690600401615212565b906064356001600160401b03811161023b5761047490369060040161527f565b61047c6150ec565b60c4359163ffffffff8316830361023b57610495615867565b6009546040516370a0823160e01b81523360048201526001600160a01b039091169490602081602481895afa908115610ad457600091610ae0575b506104e060065480921015615705565b604051636eb1769f60e11b81523360048201523060248201526020816044818a5afa908115610ad457600091610a9c575b509063ffffffff966105288261053d941015615751565b610534855115156157a8565b30903390615892565b6001549561054a876157ed565b600155600654916040519861055e8a615170565b8952602089015260408801526000606088015260808701523360a087015260c08601524360e0860152600061010086015260843561012086015260018060a01b03166101408501521661016083015260e43561018083015280600052600b602052604060002082519283516001600160401b038111610908576105eb816105e58554615585565b85615813565b6020601f8211600114610a33578192939495600092610a28575b50508160011b916000199060031b1c19161782555b60208101519283516001600160401b0381116109085761064a816106416001870154615585565b60018701615813565b6020601f82116001146109b95781929394956000926109ae575b50508160011b916000199060031b1c19161760018401555b60408201519283516001600160401b038111610908576106ac816106a36002850154615585565b60028501615813565b6020601f821160011461093f578192939495600092610934575b50508160011b916000199060031b1c19161760028201555b6060830151600381101561091e576106f9906003830161584f565b608083015160048201556005810160018060a01b0360a0850151166001600160601b0360a01b82541617905560c0830151928351936001600160401b03851161090857600160401b85116109085760209060068401548660068601558087106108b9575b5001936006830160005260206000209060005b8160051c81106108795750601f198116808203610820575b60208686600b6101808860e0810151600785015561010081015160088501556101208101516009850155600a840160018060a01b036101408301511681549063ffffffff60a01b61016085015160a01b16916001600160401b0360c01b161717905501519101557f0ff47c4a3dc48719ecfd1876116e80d7d76ec7cb67248ae49449f9104747af2982604051838152a1604051908152f35b9560009660005b81840381106108495750505060051c0193909355602092610180600b86610788565b909197602061086f6001928460ff8d5116919060ff809160031b9316831b921b19161790565b9901929101610827565b6000805b60208110610892575083820155600101610770565b885190989160019160209160ff60038d901b81811b199092169216901b179201980161087d565b6108e8906006860160005283600020601f808a0160051c820192818b16806108ee575b500160051c01906157fc565b8661075d565b60001990818601918254918a0360031b1c1690558b6108dc565b634e487b7160e01b600052604160045260246000fd5b634e487b7160e01b600052602160045260246000fd5b0151905085806106c6565b6002830160005260206000209060005b601f1984168110610996575060019394959683601f1981161061097d575b505050811b0160028201556106de565b015160001960f88460031b161c1916905585808061096d565b9091602060018192858b01518155019301910161094f565b015190508580610664565b6001850160005260206000209060005b601f1984168110610a10575060019394959683601f198116106109f7575b505050811b01600184015561067c565b015160001960f88460031b161c191690558580806109e7565b9091602060018192858b0151815501930191016109c9565b015190508580610605565b8360005260206000209060005b601f1984168110610a84575060019394959683601f19811610610a6b575b505050811b01825561061a565b015160001960f88460031b161c19169055858080610a5e565b9091602060018192858b015181550193019101610a40565b9190506020823d602011610acc575b81610ab8602093836151f1565b8101031261023b57905163ffffffff610511565b3d9150610aab565b6040513d6000823e3d90fd5b90506020813d602011610b0a575b81610afb602093836151f1565b8101031261023b5751886104d0565b3d9150610aee565b3461023b57602036600319011261023b5760043560085481101561023b5760086000527ff3f7a9fe364faab93b216da50a3214154f22a0a2b415b23a84c8169e8b636ee301546040516001600160a01b039091168152602090f35b3461023b57604036600319011261023b57602435801515810361023b57600d54610b9d60ff8260a01c1615615930565b60ff60a01b1916600160a01b17600d556004356000908152600b6020526040902060050154336001600160a01b0391909116148015611d22575b610be09061596d565b604051601454816000610bf283615585565b8083529260018116908115611d035750600114611ca2575b610c16925003826151f1565b600091600435600052600b60205260ff60036040600020015416600381101561091e57610c4390156159a8565b6012546001600160a01b031615611c6757600435600052600b6020526040600020600481019260008454945560038201600160ff1982541617905560405190610c9782610c908186615663565b03836151f1565b60405190610cac82610c908160018801615663565b6e5af43d82803e903d91602b57fd5bf3600254763d602d80600a3d3981f3363d3d373d3d3d363d7300000062ffffff8260881c16176000526001600160781b03199060781b1617602052603760096000f0926001600160a01b03841615611b1057610d84610d6491610d7660405195610d248761518c565b6012546001600160a01b039081168852600f5481166020808a01919091526009549091166040808a01919091528051918201529485936060850190615102565b838103601f1901604085015290615102565b03601f1981018352826151f1565b6001600160a01b0384163b1561023b57604051634258efa960e11b8152928391906000600484015b60038210611c4457505050610df9610de8600094610dd6859460c0606487015260c4860190615102565b84810360031901608486015290615102565b8281036003190160a48401526155bf565b0381836001600160a01b0387165af18015610ad457611c30575b50610e1d81615ad9565b60405163d6efd7c360e01b815285816004816001600160a01b0386165afa908115611c25578691611b76575b50805115611b6257602001516009546001600160a01b0391821695610e729290918491166159f4565b6001600160a01b0381163b15611b0c57604051631672aef960e21b815230600482015285908181602481836001600160a01b0388165af1801561155a57611b4e575b50506040519266029ba30b5b2b2160cd1b6020850152610ee984610edb6027820186615a57565b03601f1981018652856151f1565b60405190607360f81b6020830152610f1982610f0b6021820160018801615a57565b03601f1981018452836151f1565b6005840154601054608881901c62ffffff16763d602d80600a3d3981f3363d3d373d3d3d363d7300000017895260781b6001600160781b0319166e5af43d82803e903d91602b57fd5bf3176020526001600160a01b03166037600989f0956001600160a01b03871615611b1057600a54420191824211611b3a576004548a95946001600160a01b03918216949392918a163b15611b36578694610fdc94610fee604051988997889763b2193b4d60e01b895260e060048a015260e4890190615102565b87810360031901602489015290615102565b6044860194909452606485018d9052608485015260a4840152151560c48301520381836001600160a01b038a165af1801561155a57611b22575b505061103383615b53565b6040519061106360048361104a6020820187615a57565b632044414f60e01b815203601b198101855201836151f1565b63ffffffff600a84015460a01c16600b8401546e5af43d82803e903d91602b57fd5bf3600354763d602d80600a3d3981f3363d3d373d3d3d363d7300000062ffffff8260881c16178a526001600160781b03199060781b16176020526037600989f0936001600160a01b03851615611b105760045489936001600160a01b0391821692909187163b15611b0c578492611119926040519586948594631c63df3560e21b865260a0600487015260a4860190615102565b9260018060a01b038d16602486015260448501526064840152608483015203818360018060a01b0389165af1801561155a57611af4575b505061115b82615bb7565b60018060a01b0360045416956040519663a9b9dde160e01b8852602088600481845afa97881561155a578298611ac0575b50600d546005860154604051631f889aa560e11b8152600481018b90526001600160a01b03928316602482015261010060448201529291169082906111d8610104830160028a01615663565b6001600160a01b038816606484015260848301939093528183036003190160a48301526006880180548085529086526020808720940193869182915b81601f840110611914579585939284926020985491818110611902575b8181106118ec575b8181106118d6575b8181106118c0575b8181106118ac575b818110611896575b818110611880575b81811061186a575b818110611854575b81811061183e575b818110611828575b818110611812575b8181106117fc575b8181106117e6575b8181106117d0575b8181106117ba575b8181106117a4575b81811061178e575b818110611778575b818110611762575b81811061174c575b818110611736575b818110611720575b81811061170a575b8181106116f4575b8181106116de575b8181106116c8575b8181106116b2575b81811061169c575b818110611686575b818110611670575b10611663575b5060c482018e90526001600160a01b038a1660e483015203925af1801561155a57611638575b5060088401879055600554600a850154600986015460048054604051638a54c52f60e01b81526001600160a01b039485169281019290925260248201929092524660448201529082166064820152608481018a90529591602091879160a49183918791165af194851561155a5782956115fc575b506004546001600160a01b0316803b156115dc5760405163190b373360e31b8152600481018a90526001600160a01b03871660248201529083908290604490829084905af1801561159d579083916115e8575b505060405163095ea7b360e01b81526001600160a01b03871660048201526000196024820152602081604481868c5af1801561159d576115a8575b506040516370a0823160e01b8152306004820152906020826024818b5afa91821561159d578392611569575b50600501546013546001600160a01b039081169181169088163b156115655760405163a7d545db60e01b81526004810193909352602483015260448201528181606481836001600160a01b038b165af1801561155a57611543575b604080518981526001600160a01b038086166020830152808716928201929092528187166060820152908716608082015260a081018890527ff9d151d23a5253296eb20ab40959cf48828ea2732d337416716e302ed83ca6589060c090a1600d805460ff60a01b19169055005b61154d82916151a7565b61155757806114d6565b80fd5b6040513d84823e3d90fd5b8380fd5b9091506020813d602011611595575b81611585602093836151f1565b8101031261023b5751908961147b565b3d9150611578565b6040513d85823e3d90fd5b6020813d6020116115e0575b816115c1602093836151f1565b810103126115dc5751801515036115d8578861144f565b5080fd5b8280fd5b3d91506115b4565b6115f1906151a7565b6115d8578189611414565b9094506020813d602011611630575b81611618602093836151f1565b810103126115d85761162990615a43565b93886113c1565b3d915061160b565b602090813d831161165c575b61164e81836151f1565b8101031261023b578761134d565b503d611644565b60f81c815286018f611327565b928960019160ff8560f01c168152019301611321565b928960019160ff8560e81c168152019301611319565b928960019160ff8560e01c168152019301611311565b928960019160ff8560d81c168152019301611309565b928960019160ff8560d01c168152019301611301565b928960019160ff8560c81c1681520193016112f9565b928960019160ff8560c01c1681520193016112f1565b928960019160ff8560b81c1681520193016112e9565b928960019160ff8560b01c1681520193016112e1565b928960019160ff8560a81c1681520193016112d9565b928960019160ff8560a01c1681520193016112d1565b928960019160ff8560981c1681520193016112c9565b928960019160ff8560901c1681520193016112c1565b928960019160ff8560881c1681520193016112b9565b928960019160ff8560801c1681520193016112b1565b928960019160ff8560781c1681520193016112a9565b928960019160ff8560701c1681520193016112a1565b928960019160ff8560681c168152019301611299565b928960019160ff8560601c168152019301611291565b928960019160ff8560581c168152019301611289565b928960019160ff8560501c168152019301611281565b928960019160ff8560481c168152019301611279565b928960019160ff8560401c168152019301611271565b928960019160ff8560381c168152019301611269565b928960019160ff8560301c168152019301611261565b928960019160ff8560281c168152019301611259565b828a1c60ff16845292890192600101611251565b928960019160ff8560181c168152019301611249565b928960019160ff8560101c168152019301611241565b928960019160ff8560081c168152019301611239565b60ff8316845292890192600101611231565b9450915091936001610400602092865460ff8116825260ff8160081c168583015260ff8160101c16604083015260ff8160181c16606083015260ff81861c16608083015260ff8160281c1660a083015260ff8160301c1660c083015260ff8160381c1660e083015260ff8160401c1661010083015260ff8160481c1661012083015260ff8160501c1661014083015260ff8160581c1661016083015260ff8160601c1661018083015260ff8160681c166101a083015260ff8160701c166101c083015260ff8160781c166101e083015260ff8160801c1661020083015260ff8160881c1661022083015260ff8160901c1661024083015260ff8160981c1661026083015260ff8160a01c1661028083015260ff8160a81c166102a083015260ff8160b01c166102c083015260ff8160b81c166102e083015260ff8160c01c1661030083015260ff8160c81c1661032083015260ff8160d01c1661034083015260ff8160d81c1661036083015260ff8160e01c1661038083015260ff8160e81c166103a083015260ff8160f01c166103c083015260f81c6103e08201520194019201869186949593611214565b9097506020813d602011611aec575b81611adc602093836151f1565b8101031261023b5751968861118c565b3d9150611acf565b611afd906151a7565b611b08578587611150565b8580fd5b8480fd5b60405163b06ebf3d60e01b8152600490fd5b611b2b906151a7565b611b0c578486611028565b8680fd5b634e487b7160e01b8a52601160045260248afd5b611b57906151a7565b611b0c578486610eb4565b634e487b7160e01b86526032600452602486fd5b90503d8087833e611b8781836151f1565b810190602081830312611b36578051906001600160401b038211611c2157019080601f83011215611b3657815190611bbe82615268565b92611bcc60405194856151f1565b828452602084019160208460051b83010111611c1d579060208201915b60208460051b8201018310611c02575050505086610e49565b6020808093611c1086615a43565b8152019301929150611be9565b8880fd5b8780fd5b6040513d88823e3d90fd5b611c3b9195506151a7565b60009385610e13565b82516001600160a01b031681528694506020928301926001929092019101610dac565b60405162461bcd60e51b8152602060048201526013602482015272151bdad95b8818591b5a5b881b9bdd081cd95d606a1b6044820152606490fd5b509060146000527fce6d7b5282bd9a3661ae061feed1dbda4e52ab073b1f9285be6e155d9c38d4ec906000915b818310611ce7575050906020610c1692820101610c0a565b6020919350806001915483858801015201910190918392611ccf565b60209250610c1694915060ff191682840152151560051b820101610c0a565b503360009081527f20be27040b8e00df40bca0df34743417f3574a156386188f7d7f14369e5ee82b602052604090205460ff16610bd7565b3461023b57600036600319011261023b57602060405160008152f35b3461023b57602036600319011261023b57611d8f615094565b611d97615361565b601380546001600160a01b0319166001600160a01b0392909216919091179055005b3461023b57600036600319011261023b576003546040516001600160a01b039091168152602090f35b3461023b57600036600319011261023b576010546040516001600160a01b039091168152602090f35b3461023b57606036600319011261023b57611e24615094565b611e2c6150aa565b611e346150c0565b90611e3d615361565b60018060a01b038092816001600160601b0360a01b95168560025416176002551683600354161760035516906010541617601055600080f35b3461023b57604036600319011261023b57611e8f6150aa565b600435600052600060205260406000209060018060a01b0316600052602052602060ff604060002054166040519015158152f35b3461023b57600036600319011261023b57611edc615361565b611ee4615867565b600080516020615c1c833981519152600160ff198254161790557f62e78cea01bee320cd4e420270b5ea74000d11b0c9f74754ebdbfc544b05a2586020604051338152a1005b3461023b57602036600319011261023b57611f43615094565b611f4b615361565b600d80546001600160a01b0319166001600160a01b0392909216919091179055005b3461023b57602036600319011261023b5760043560075481101561023b5760076000527fa66cc928b5edb82af9bd49922954155ab7b0942694bea4ce44661d9a8736c68801546040516001600160a01b039091168152602090f35b3461023b57611fd636615142565b90611fe2939293615361565b60405193602093848601526040850152606084015260018060a01b0316608083015260808252612011826151d6565b8151906001600160401b0382116109085761202d601554615585565b601f81116120f3575b5080601f831160011461207257508192600092612067575b5050600019600383901b1c191660019190911b17601555005b01519050828061204e565b90601f1983169360156000527f55f448fdea98c4d29eb340757ef0a66cd03dbb9538908a6a81d96026b71ec475926000905b8682106120db57505083600195106120c2575b505050811b01601555005b015160001960f88460031b161c191690558280806120b7565b806001859682949686015181550195019301906120a4565b61213c9060156000527f55f448fdea98c4d29eb340757ef0a66cd03dbb9538908a6a81d96026b71ec475601f850160051c810191848610612142575b601f0160051c01906157fc565b83612036565b909150819061212f565b3461023b57600036600319011261023b57602060ff600080516020615c1c83398151915254166040519015158152f35b3461023b57600036600319011261023b576004546040516001600160a01b039091168152602090f35b3461023b57600036600319011261023b576005546040516001600160a01b039091168152602090f35b3461023b5761012036600319011261023b576004356001600160401b03811161023b576121ff903690600401615212565b6024356001600160401b03811161023b5761221e903690600401615212565b6044356001600160401b03811161023b5761223d90369060040161527f565b6122456150d6565b60a4359063ffffffff8216820361023b5761010435926001600160a01b038416840361023b57612273615867565b61227b6152e7565b6009546040516370a0823160e01b81523360048201526001600160a01b0390911690602081602481855afa8015610ad457600090612888575b6122c3915060e4351115615705565b604051636eb1769f60e11b815233600482015230602482015290602082604481845afa918215610ad457600092612852575b506123076123209260e4351115615751565b612313835115156157a8565b60e4359030903390615892565b6001549461232d866157ed565b6001556040519661233d88615170565b87526020870152604051938460208101106001600160401b036020870111176109085784602063ffffffff96016040526000815260408801526000606088015260e435608088015260018060a01b031660a087015260c08601524360e0860152600061010086015260643561012086015260018060a01b03166101408501521661016083015260c43561018083015280600052600b602052604060002082519283516001600160401b038111610908576123fb816105e58554615585565b6020601f82116001146127e95781929394956000926127de575b50508160011b916000199060031b1c19161782555b60208101519283516001600160401b03811161090857612451816106416001870154615585565b6020601f821160011461276f578192939495600092612764575b50508160011b916000199060031b1c19161760018401555b60408201519283516001600160401b038111610908576124aa816106a36002850154615585565b6020601f82116001146126f55781929394956000926126ea575b50508160011b916000199060031b1c19161760028201555b6060830151600381101561091e576124f7906003830161584f565b608083015160048201556005810160018060a01b0360a0850151166001600160601b0360a01b82541617905560c0830151928351936001600160401b03851161090857600160401b85116109085760209060068401548660068601558087106126b6575b5001936006830160005260206000209060005b8160051c81106126765750601f19811680820361261d5760208686600b6101808860e0810151600785015561010081015160088501556101208101516009850155600a840160018060a01b036101408301511681549063ffffffff60a01b61016085015160a01b16916001600160401b0360c01b161717905501519101557f0ff47c4a3dc48719ecfd1876116e80d7d76ec7cb67248ae49449f9104747af2982604051838152a1604051908152f35b9560009660005b81840381106126465750505060051c0193909355602092610180600b86610788565b909197602061266c6001928460ff8d5116919060ff809160031b9316831b921b19161790565b9901929101612624565b6000805b6020811061268f57508382015560010161256e565b885190989160019160209160ff60038d901b81811b199092169216901b179201980161267a565b6126e4906006860160005283600020601f808a0160051c820192818b16806108ee57500160051c01906157fc565b8661255b565b0151905085806124c4565b6002830160005260206000209060005b601f198416811061274c575060019394959683601f19811610612733575b505050811b0160028201556124dc565b015160001960f88460031b161c19169055858080612723565b9091602060018192858b015181550193019101612705565b01519050858061246b565b6001850160005260206000209060005b601f19841681106127c6575060019394959683601f198116106127ad575b505050811b016001840155612483565b015160001960f88460031b161c1916905585808061279d565b9091602060018192858b01518155019301910161277f565b015190508580612415565b8360005260206000209060005b601f198416811061283a575060019394959683601f19811610612821575b505050811b01825561242a565b015160001960f88460031b161c19169055858080612814565b9091602060018192858b0151815501930191016127f6565b91506020823d602011612880575b8161286d602093836151f1565b8101031261023b579051906123076122f5565b3d9150612860565b506020813d6020116128b4575b816128a2602093836151f1565b8101031261023b576122c390516122b4565b3d9150612895565b3461023b57600036600319011261023b576128d5615361565b600080516020615c1c833981519152805460ff8116156129215760ff191690557f5db9ee0a495bf2e6ff9c91a7834c1ba4fdd244a5e8aa4e537bd38aeae4b073aa6020604051338152a1005b604051638dfc202b60e01b8152600490fd5b3461023b57600036600319011261023b576020600754604051908152f35b3461023b57604036600319011261023b5761296a6150aa565b336001600160a01b0382160361298657610354906004356154cf565b60405163334bd91960e11b8152600490fd5b3461023b57600036600319011261023b5760206040517f360f1ba4dc07a42c6671063d838f69946ccc4187f391399e06fd8ed4605900f38152f35b3461023b57600036600319011261023b576002546040516001600160a01b039091168152602090f35b3461023b57604036600319011261023b57610354600435612a1b6150aa565b90806000526000602052612a3660016040600020015461539b565b615451565b3461023b57602036600319011261023b57600d54612a5f60ff8260a01c1615615930565b60ff60a01b19908116600160a01b17600d556004356000908152600b6020526040902060058101546001600160a01b039081163381148015612b41575b612aa59061596d565b600383019182549260ff8416600381101561091e57612ac490156159a8565b6007850154431115612afc5760026004612af096019460008654965560ff1916179055600954166159f4565b600d5416600d55600080f35b60405162461bcd60e51b815260206004820152601e60248201527f4170706c69636174696f6e206973206e6f74206d6174757265642079657400006044820152606490fd5b503360009081527f20be27040b8e00df40bca0df34743417f3574a156386188f7d7f14369e5ee82b602052604090205460ff16612a9c565b3461023b5760e036600319011261023b5760c4356001600160a01b0381169081900361023b57612ba7615361565b604051906020906004358284015260243560408401526044356060840152606435608084015260843560a084015260a43560c084015260e083015260e08252612bef826151ba565b8151906001600160401b03821161090857612c0b601454615585565b601f8111612cd1575b5080601f8311600114612c5057508192600092612c45575b5050600019600383901b1c191660019190911b17601455005b015190508280612c2c565b90601f1983169360146000527fce6d7b5282bd9a3661ae061feed1dbda4e52ab073b1f9285be6e155d9c38d4ec926000905b868210612cb95750508360019510612ca0575b505050811b01601455005b015160001960f88460031b161c19169055828080612c95565b80600185968294968601518155019501930190612c82565b612d199060146000527fce6d7b5282bd9a3661ae061feed1dbda4e52ab073b1f9285be6e155d9c38d4ec601f850160051c81019184861061214257601f0160051c01906157fc565b83612c14565b3461023b57602036600319011261023b57612d38615094565b612d40615361565b600980546001600160a01b0319166001600160a01b0392909216919091179055005b3461023b57602036600319011261023b5760043560005260006020526020600160406000200154604051908152f35b3461023b57612d9f36615142565b9091612da96152e7565b600d54612dbc60ff8260a01c1615615930565b60ff60a01b1916600160a01b17600d5582810381811161457f57604051938260208601526040850152606084015280608084015260a0830152600060c083015260018060a01b031660e082015260e08152612e16816151ba565b60009082600052600b60205260ff60036040600020015416600381101561091e57612e4190156159a8565b6012546001600160a01b031615611c675782600052600b602052604060002090600482019160008354935560038101600160ff1982541617905560405191612e9483612e8d8185615663565b03846151f1565b60405190612ea982610c908160018701615663565b6e5af43d82803e903d91602b57fd5bf3600254763d602d80600a3d3981f3363d3d373d3d3d363d7300000062ffffff8260881c16176000526001600160781b03199060781b1617602052603760096000f0936001600160a01b03851615611b1057612f21610d6491610d7660405195610d248761518c565b6001600160a01b0385163b1561023b57604051634258efa960e11b8152928391906000600484015b6003821061455c57505050612f73610de8600094610dd6859460c0606487015260c4860190615102565b0381836001600160a01b0388165af18015610ad457614548575b50612f9782615ad9565b60405163d6efd7c360e01b815284816004816001600160a01b0387165afa908115614475578591614494575b5080511561448057602001516009546001600160a01b0391821694612fec9290918591166159f4565b6001600160a01b0382163b1561156557604051631672aef960e21b81523060048201528481602481836001600160a01b0388165af1801561447557908591614461575b50506040519166029ba30b5b2b2160cd1b6020840152613064836130566027820185615a57565b03601f1981018552846151f1565b604051607360f81b602082015261308581610d766021820160018701615a57565b6005830154601054608881901c62ffffff16763d602d80600a3d3981f3363d3d373d3d3d363d7300000017885260781b6001600160781b0319166e5af43d82803e903d91602b57fd5bf3176020526001600160a01b0316936037600988f0946001600160a01b03861615611b1057600a54420180421161444d576004546001600160a01b03908116919088163b15614435579189939161314593613157604051978896879663b2193b4d60e01b885260e0600489015260e4880190615102565b86810360031901602488015290615102565b6044850193909352606484018b9052608484015260a4830152600160c48301520381836001600160a01b0389165af18015611c2557908691614439575b505061319f83615b53565b604051906131b660048361104a6020820187615a57565b63ffffffff600a84015460a01c1691600b840154906e5af43d82803e903d91602b57fd5bf3600354763d602d80600a3d3981f3363d3d373d3d3d363d7300000062ffffff8260881c16178a526001600160781b03199060781b16176020526037600989f0936001600160a01b03851615611b10576004546001600160a01b03908116919086163b15614435579161326c918a936040519586948594631c63df3560e21b865260a0600487015260a4860190615102565b9260018060a01b038c16602486015260448501526064840152608483015203818360018060a01b0388165af1801561442a57908791614416575b50506132b182615bb7565b60018060a01b0360045416956040519663a9b9dde160e01b8852602088600481845afa97881561155a5782986143e2575b50600d546005860154604051631f889aa560e11b8152600481018b90526001600160a01b039283166024820152610100604482015292911690829061332e610104830160028a01615663565b6001600160a01b038816606484015260848301939093528183036003190160a48301526006880180548085529086526020808720940193869182915b81601f840110614236579585939284926020985491818110614224575b81811061420e575b8181106141f8575b8181106141e2575b8181106141ce575b8181106141b8575b8181106141a2575b81811061418c575b818110614176575b818110614160575b81811061414a575b818110614134575b81811061411e575b818110614108575b8181106140f2575b8181106140dc575b8181106140c6575b8181106140b0575b81811061409a575b818110614084575b81811061406e575b818110614058575b818110614042575b81811061402c575b818110614016575b818110614000575b818110613fea575b818110613fd4575b818110613fbe575b818110613fa8575b818110613f92575b10613f85575b5060c482018e90526001600160a01b038a1660e483015203925af1801561155a57613f5a575b5060088401879055600554600a850154600986015460048054604051638a54c52f60e01b81526001600160a01b039485169281019290925260248201929092524660448201529082166064820152608481018a90529591602091879160a49183918791165af194851561155a578295613f1e575b506004546001600160a01b0316803b156115dc5760405163190b373360e31b8152600481018a90526001600160a01b03871660248201529083908290604490829084905af1801561159d57908391613f0a575b505060405163095ea7b360e01b81526001600160a01b03871660048201526000196024820152602081604481868c5af1801561159d57613ed2575b506040516370a0823160e01b8152306004820152906020826024818b5afa91821561159d578392613e9e575b50600501546013546001600160a01b039081169181169088163b156115655760405163a7d545db60e01b81526004810193909352602483015260448201528181606481836001600160a01b038b165af1801561155a57613e8a575b5050604080519687526001600160a01b03918216602088015291811691860191909152908116606085015216608083015260a08201527ff9d151d23a5253296eb20ab40959cf48828ea2732d337416716e302ed83ca6589060c090a1600052600b60205260406000206040516136a181615170565b6040516136b9816136b28186615663565b03826151f1565b81526040516136cf816136b28160018701615663565b60208201526040516136e8816136b28160028701615663565b604082015261370160ff600384015416606083016156f9565b6004820154608082015260058201546001600160a01b031660a082015260405160068301805480835260009182526020808320928492918301915b80601f830110613ce257613852945491818110613cce575b818110613cb7575b818110613ca0575b818110613c89575b818110613c73575b818110613c5c575b818110613c45575b818110613c2e575b818110613c17575b818110613c00575b818110613be9575b818110613bd2575b818110613bbb575b818110613ba4575b818110613b8d575b818110613b76575b818110613b5f575b818110613b48575b818110613b31575b818110613b1a575b818110613b03575b818110613aec575b818110613ad5575b818110613abe575b818110613aa7575b818110613a90575b818110613a79575b818110613a62575b818110613a4b575b818110613a34575b818110613a1d575b10613a0f575b5003826151f1565b60c0820152600782015460e0820152610180600b60088401549384610100850152600981015461012085015263ffffffff600a82015460018060a01b03811661014087015260a01c166101608501520154910152600060018060a01b036004541691602460405180948193630c0e287560e11b835260048301525afa8015610ad457600090613901575b602090810151600d805460ff60a01b191690556040516001600160a01b039091168152f35b503d806000833e61391281836151f1565b81019060208183031261023b5780516001600160401b039182821161023b57019060a08284031261023b576040519160a08301838110838211176109085760405261395c81615a43565b835261396a60208201615a43565b602084015261397b60408201615a43565b604084015261398c60608201615a43565b6060840152608081015191821161023b570182601f8201121561023b578051926139b584615268565b916139c360405193846151f1565b84835260208084019560051b82010191821161023b57602001935b8185106139f55750506020925060808201526138dc565b845160ff8116810361023b578152602094850194016139de565b60f81c81526020018661384a565b92602060019160ff8560f01c168152019301613844565b92602060019160ff8560e81c16815201930161383c565b92602060019160ff8560e01c168152019301613834565b92602060019160ff8560d81c16815201930161382c565b92602060019160ff8560d01c168152019301613824565b92602060019160ff8560c81c16815201930161381c565b92602060019160ff8560c01c168152019301613814565b92602060019160ff8560b81c16815201930161380c565b92602060019160ff8560b01c168152019301613804565b92602060019160ff8560a81c1681520193016137fc565b92602060019160ff8560a01c1681520193016137f4565b92602060019160ff8560981c1681520193016137ec565b92602060019160ff8560901c1681520193016137e4565b92602060019160ff8560881c1681520193016137dc565b92602060019160ff8560801c1681520193016137d4565b92602060019160ff8560781c1681520193016137cc565b92602060019160ff8560701c1681520193016137c4565b92602060019160ff8560681c1681520193016137bc565b92602060019160ff8560601c1681520193016137b4565b92602060019160ff8560581c1681520193016137ac565b92602060019160ff8560501c1681520193016137a4565b92602060019160ff8560481c16815201930161379c565b92602060019160ff8560401c168152019301613794565b92602060019160ff8560381c16815201930161378c565b92602060019160ff8560301c168152019301613784565b92602060019160ff8560281c16815201930161377c565b92602060019160ff85831c168152019301613774565b92602060019160ff8560181c16815201930161376c565b92602060019160ff8560101c168152019301613764565b92602060019160ff8560081c16815201930161375c565b92602060019160ff85168152019301613754565b916020919350610400600191865460ff8116825260ff8160081c168583015260ff8160101c16604083015260ff8160181c16606083015260ff81861c16608083015260ff8160281c1660a083015260ff8160301c1660c083015260ff8160381c1660e083015260ff8160401c1661010083015260ff8160481c1661012083015260ff8160501c1661014083015260ff8160581c1661016083015260ff8160601c1661018083015260ff8160681c166101a083015260ff8160701c166101c083015260ff8160781c166101e083015260ff8160801c1661020083015260ff8160881c1661022083015260ff8160901c1661024083015260ff8160981c1661026083015260ff8160a01c1661028083015260ff8160a81c166102a083015260ff8160b01c166102c083015260ff8160b81c166102e083015260ff8160c01c1661030083015260ff8160c81c1661032083015260ff8160d01c1661034083015260ff8160d81c1661036083015260ff8160e01c1661038083015260ff8160e81c166103a083015260ff8160f01c166103c083015260f81c6103e082015201940192018492939161373c565b613e9482916151a7565b611557578061362c565b9091506020813d602011613eca575b81613eba602093836151f1565b8101031261023b5751908a6135d1565b3d9150613ead565b6020813d602011613f02575b81613eeb602093836151f1565b810103126115dc5751801515036115d857896135a5565b3d9150613ede565b613f13906151a7565b6115d857818a61356a565b9094506020813d602011613f52575b81613f3a602093836151f1565b810103126115d857613f4b90615a43565b9389613517565b3d9150613f2d565b602090813d8311613f7e575b613f7081836151f1565b8101031261023b57886134a3565b503d613f66565b60f81c815286013861347d565b928960019160ff8560f01c168152019301613477565b928960019160ff8560e81c16815201930161346f565b928960019160ff8560e01c168152019301613467565b928960019160ff8560d81c16815201930161345f565b928960019160ff8560d01c168152019301613457565b928960019160ff8560c81c16815201930161344f565b928960019160ff8560c01c168152019301613447565b928960019160ff8560b81c16815201930161343f565b928960019160ff8560b01c168152019301613437565b928960019160ff8560a81c16815201930161342f565b928960019160ff8560a01c168152019301613427565b928960019160ff8560981c16815201930161341f565b928960019160ff8560901c168152019301613417565b928960019160ff8560881c16815201930161340f565b928960019160ff8560801c168152019301613407565b928960019160ff8560781c1681520193016133ff565b928960019160ff8560701c1681520193016133f7565b928960019160ff8560681c1681520193016133ef565b928960019160ff8560601c1681520193016133e7565b928960019160ff8560581c1681520193016133df565b928960019160ff8560501c1681520193016133d7565b928960019160ff8560481c1681520193016133cf565b928960019160ff8560401c1681520193016133c7565b928960019160ff8560381c1681520193016133bf565b928960019160ff8560301c1681520193016133b7565b928960019160ff8560281c1681520193016133af565b828a1c60ff168452928901926001016133a7565b928960019160ff8560181c16815201930161339f565b928960019160ff8560101c168152019301613397565b928960019160ff8560081c16815201930161338f565b60ff8316845292890192600101613387565b9450915091936001610400602092865460ff8116825260ff8160081c168583015260ff8160101c16604083015260ff8160181c16606083015260ff81861c16608083015260ff8160281c1660a083015260ff8160301c1660c083015260ff8160381c1660e083015260ff8160401c1661010083015260ff8160481c1661012083015260ff8160501c1661014083015260ff8160581c1661016083015260ff8160601c1661018083015260ff8160681c166101a083015260ff8160701c166101c083015260ff8160781c166101e083015260ff8160801c1661020083015260ff8160881c1661022083015260ff8160901c1661024083015260ff8160981c1661026083015260ff8160a01c1661028083015260ff8160a81c166102a083015260ff8160b01c166102c083015260ff8160b81c166102e083015260ff8160c01c1661030083015260ff8160c81c1661032083015260ff8160d01c1661034083015260ff8160d81c1661036083015260ff8160e01c1661038083015260ff8160e81c166103a083015260ff8160f01c166103c083015260f81c6103e0820152019401920186918694959361336a565b9097506020813d60201161440e575b816143fe602093836151f1565b8101031261023b575196896132e2565b3d91506143f1565b61441f906151a7565b611b085785886132a6565b6040513d89823e3d90fd5b8980fd5b614442906151a7565b611b0c578487613194565b634e487b7160e01b89526011600452602489fd5b61446a906151a7565b61156557838661302f565b6040513d87823e3d90fd5b634e487b7160e01b85526032600452602485fd5b3d91508186823e6144a582826151f1565b6020818381010312611b08578051916001600160401b038311611b3657808201601f848401011215611b365782820151916144df83615268565b936144ed60405195866151f1565b8385526020850192820160208560051b838501010111611c1d579190602083820101925b60208560051b8284010101841061452d57505050505086612fc3565b602080809461453b87615a43565b8152019401939250614511565b6145539194506151a7565b60009285612f8d565b82516001600160a01b031681528694506020928301926001929092019101612f49565b634e487b7160e01b600052601160045260246000fd5b3461023b57602036600319011261023b5760006101806040516145b781615170565b6060815260606020820152606060408201528260608201528260808201528260a0820152606060c08201528260e0820152826101008201528261012082015282610140820152826101608201520152600435600052600b602052604060002060405161462281615170565b604051614633816136b28186615663565b8152604051614649816136b28160018701615663565b6020820152604051614662816136b28160028701615663565b604082015261467b60ff600384015416606083016156f9565b6004820154608082015260058201546001600160a01b031660a08201526040516006830180548083526000918252602080832090840195939291905b81601f840110614c1357956147d3928492600b97985491818110614bff575b818110614be8575b818110614bd1575b818110614bba575b818110614ba4575b818110614b8d575b818110614b76575b818110614b5f575b818110614b48575b818110614b31575b818110614b1a575b818110614b03575b818110614aec575b818110614ad5575b818110614abe575b818110614aa7575b818110614a90575b818110614a79575b818110614a62575b818110614a4b575b818110614a34575b818110614a1d575b818110614a06575b8181106149ef575b8181106149d8575b8181106149c1575b8181106149aa575b818110614993575b81811061497c575b818110614965575b81811061494e575b10614940575003826151f1565b60c0840152600781015460e08401526008810154610100840152600981015461012084015263ffffffff600a82015460018060a01b03811661014086015260a01c1661016084015201546101808201526040516020815261487461485e61484884516101a060208601526101c0850190615102565b6020850151848203601f19016040860152615102565b6040840151838203601f19016060850152615102565b6060830151600381101561091e576080830152608083015160a083015260018060a01b0360a08401511660c083015260c083015190601f198382030160e08401526020808351928381520192019060005b818110614927575050506101808360e08495015161010085015261010081015161012085015261012081015161014085015260018060a01b036101408201511661016085015263ffffffff610160820151168285015201516101a08301520390f35b825160ff168452602093840193909201916001016148c5565b60f81c81526020018761384a565b92602060019160ff8560f01c1681520193016147c6565b92602060019160ff8560e81c1681520193016147be565b92602060019160ff8560e01c1681520193016147b6565b92602060019160ff8560d81c1681520193016147ae565b92602060019160ff8560d01c1681520193016147a6565b92602060019160ff8560c81c16815201930161479e565b92602060019160ff8560c01c168152019301614796565b92602060019160ff8560b81c16815201930161478e565b92602060019160ff8560b01c168152019301614786565b92602060019160ff8560a81c16815201930161477e565b92602060019160ff8560a01c168152019301614776565b92602060019160ff8560981c16815201930161476e565b92602060019160ff8560901c168152019301614766565b92602060019160ff8560881c16815201930161475e565b92602060019160ff8560801c168152019301614756565b92602060019160ff8560781c16815201930161474e565b92602060019160ff8560701c168152019301614746565b92602060019160ff8560681c16815201930161473e565b92602060019160ff8560601c168152019301614736565b92602060019160ff8560581c16815201930161472e565b92602060019160ff8560501c168152019301614726565b92602060019160ff8560481c16815201930161471e565b92602060019160ff8560401c168152019301614716565b92602060019160ff8560381c16815201930161470e565b92602060019160ff8560301c168152019301614706565b92602060019160ff8560281c1681520193016146fe565b92602060019160ff85831c1681520193016146f6565b92602060019160ff8560181c1681520193016146ee565b92602060019160ff8560101c1681520193016146e6565b92602060019160ff8560081c1681520193016146de565b92602060019160ff851681520193016146d6565b956001610400602092895460ff8116825260ff8160081c168583015260ff8160101c16604083015260ff8160181c16606083015260ff81861c16608083015260ff8160281c1660a083015260ff8160301c1660c083015260ff8160381c1660e083015260ff8160401c1661010083015260ff8160481c1661012083015260ff8160501c1661014083015260ff8160581c1661016083015260ff8160601c1661018083015260ff8160681c166101a083015260ff8160701c166101c083015260ff8160781c166101e083015260ff8160801c1661020083015260ff8160881c1661022083015260ff8160901c1661024083015260ff8160981c1661026083015260ff8160a01c1661028083015260ff8160a81c166102a083015260ff8160b01c166102c083015260ff8160b81c166102e083015260ff8160c01c1661030083015260ff8160c81c1661032083015260ff8160d01c1661034083015260ff8160d81c1661036083015260ff8160e01c1661038083015260ff8160e81c166103a083015260ff8160f01c166103c083015260f81c6103e08201520197019201916146b7565b3461023b57600036600319011261023b57600c546040516001600160a01b039091168152602090f35b3461023b57600036600319011261023b576009546040516001600160a01b039091168152602090f35b3461023b5761012036600319011261023b57614e21615094565b614e296150aa565b614e316150c0565b906064359260018060a01b0380851680950361023b57614e4f6150d6565b94614e586150ec565b9060e4359483861680960361023b577ff0c57e16840df040f15088dc2f81fe391c3923bec73e23a9662efc9c229c6a009788549160ff8360401c1615986001600160401b03841680159081614ff2575b6001149081614fe8575b159081614fdf575b50614fcd5767ffffffffffffffff1984166001178b558693849283918c614fae575b50614ee5615544565b614eed615544565b600080516020615c1c83398151915260ff198154169055816001600160601b0360a01b9a168a60025416176002551688601054161760105516866003541617600355168460095416176009558360055416176005551681600454161760045560c43560065561010435600155614f62336153c1565b50600d541617600d55614f7157005b68ff00000000000000001981541690557fc7f505b2f371ae2175ee4913f4499e1f2633a7b5936321eed1cdaeb6115181d2602060405160018152a1005b68ffffffffffffffffff191668010000000000000001178d558d614edc565b60405163f92ee8a960e01b8152600490fd5b9050158c614eba565b303b159150614eb2565b8b9150614ea8565b3461023b57600036600319011261023b576013546040516001600160a01b039091168152602090f35b3461023b57600036600319011261023b576020600a54604051908152f35b3461023b57602036600319011261023b576004359063ffffffff60e01b821680920361023b57602091637965db0b60e01b8114908115615083575b5015158152f35b6301ffc9a760e01b1490508361507c565b600435906001600160a01b038216820361023b57565b602435906001600160a01b038216820361023b57565b604435906001600160a01b038216820361023b57565b608435906001600160a01b038216820361023b57565b60a435906001600160a01b038216820361023b57565b919082519283825260005b84811061512e575050826000602080949584010152601f8019910116010190565b60208183018101518483018201520161510d565b608090600319011261023b576004359060243590604435906064356001600160a01b038116810361023b5790565b6101a081019081106001600160401b0382111761090857604052565b606081019081106001600160401b0382111761090857604052565b6001600160401b03811161090857604052565b61010081019081106001600160401b0382111761090857604052565b60a081019081106001600160401b0382111761090857604052565b90601f801991011681019081106001600160401b0382111761090857604052565b81601f8201121561023b578035906001600160401b0382116109085760405192615246601f8401601f1916602001856151f1565b8284526020838301011161023b57816000926020809301838601378301015290565b6001600160401b0381116109085760051b60200190565b81601f8201121561023b5780359161529683615268565b926152a460405194856151f1565b808452602092838086019260051b82010192831161023b578301905b8282106152ce575050505090565b813560ff8116810361023b5781529083019083016152c0565b3360009081527f47fa3846800aa0e8a0094e76ddd8b6215145788c21499f1987cd67ad6fc4181060205260409020547f360f1ba4dc07a42c6671063d838f69946ccc4187f391399e06fd8ed4605900f39060ff16156153435750565b6044906040519063e2517d3f60e01b82523360048301526024820152fd5b3360009081527fad3228b676f7d3cd4284a5443f17f1962b36e491b30a40b2405849e597ba5fb5602052604081205460ff16156153435750565b80600052600060205260406000203360005260205260ff60406000205416156153435750565b6001600160a01b031660008181527fad3228b676f7d3cd4284a5443f17f1962b36e491b30a40b2405849e597ba5fb5602052604081205490919060ff1661544d57818052816020526040822081835260205260408220600160ff1982541617905533917f2f8788117e7eff1d82e926ec794901d17c78024a50270940304540a733656f0d8180a4600190565b5090565b9060009180835282602052604083209160018060a01b03169182845260205260ff604084205416156000146154ca57808352826020526040832082845260205260408320600160ff198254161790557f2f8788117e7eff1d82e926ec794901d17c78024a50270940304540a733656f0d339380a4600190565b505090565b9060009180835282602052604083209160018060a01b03169182845260205260ff6040842054166000146154ca5780835282602052604083208284526020526040832060ff1981541690557ff6391f5c32d9c69d2a47ea670b442974b53935d1edc7fd64eb21e047a839171b339380a4600190565b60ff7ff0c57e16840df040f15088dc2f81fe391c3923bec73e23a9662efc9c229c6a005460401c161561557357565b604051631afcd79f60e31b8152600490fd5b90600182811c921680156155b5575b602083101461559f57565b634e487b7160e01b600052602260045260246000fd5b91607f1691615594565b601554600092916155cf82615585565b8082529160019081811690811561564657506001146155ed57505050565b9192935060156000527f55f448fdea98c4d29eb340757ef0a66cd03dbb9538908a6a81d96026b71ec475916000925b84841061562e57505060209250010190565b8054602085850181019190915290930192810161561c565b915050602093945060ff929192191683830152151560051b010190565b906000929180549161567483615585565b9182825260019384811690816000146156d65750600114615696575b50505050565b90919394506000526020928360002092846000945b8386106156c2575050505001019038808080615690565b8054858701830152940193859082016156ab565b9294505050602093945060ff191683830152151560051b01019038808080615690565b600382101561091e5752565b1561570c57565b60405162461bcd60e51b815260206004820152601860248201527f496e73756666696369656e7420617373657420746f6b656e00000000000000006044820152606490fd5b1561575857565b60405162461bcd60e51b815260206004820152602260248201527f496e73756666696369656e7420617373657420746f6b656e20616c6c6f77616e604482015261636560f01b6064820152608490fd5b156157af57565b60405162461bcd60e51b815260206004820152601660248201527510dbdc995cc81b5d5cdd081899481c1c9bdd9a59195960521b6044820152606490fd5b600019811461457f5760010190565b818110615807575050565b600081556001016157fc565b9190601f811161582257505050565b61584d926000526020600020906020601f840160051c8301931061214257601f0160051c01906157fc565b565b90600381101561091e5760ff80198354169116179055565b60ff600080516020615c1c833981519152541661588057565b60405163d93c066560e01b8152600490fd5b6040516323b872dd60e01b60208201526001600160a01b03928316602482015292909116604483015260648083019390935291815261584d916158d4826151d6565b906000602091828151910182855af115610ad4576000513d61592757506001600160a01b0381163b155b6159055750565b604051635274afe760e01b81526001600160a01b039091166004820152602490fd5b600114156158fe565b1561593757565b60405162461bcd60e51b815260206004820152600e60248201526d31b0b73737ba103932b2b73a32b960911b6044820152606490fd5b1561597457565b60405162461bcd60e51b815260206004820152600c60248201526b2737ba10383937b837b9b2b960a11b6044820152606490fd5b156159af57565b60405162461bcd60e51b815260206004820152601960248201527f4170706c69636174696f6e206973206e6f7420616374697665000000000000006044820152606490fd5b60405163a9059cbb60e01b60208201526001600160a01b03909216602483015260448083019390935291815260808101916001600160401b038311828410176109085761584d926040526158d4565b51906001600160a01b038216820361023b57565b600092918154615a6681615585565b92600191808316908115615abe5750600114615a825750505050565b90919293945060005260209081600020906000915b858310615aad5750505050019038808080615690565b805485840152918301918101615a97565b60ff1916845250505081151590910201915038808080615690565b600e54600160401b811015610908576001810180600e55811015615b3d57600e6000527fbb7b4a454dc3493923482f07822329ed19e8244eff582cc204f8554c3620c3fd0180546001600160a01b0319166001600160a01b03909216919091179055565b634e487b7160e01b600052603260045260246000fd5b600754600160401b811015610908576001810180600755811015615b3d5760076000527fa66cc928b5edb82af9bd49922954155ab7b0942694bea4ce44661d9a8736c6880180546001600160a01b0319166001600160a01b03909216919091179055565b600854600160401b811015610908576001810180600855811015615b3d5760086000527ff3f7a9fe364faab93b216da50a3214154f22a0a2b415b23a84c8169e8b636ee30180546001600160a01b0319166001600160a01b0390921691909117905556fecd5ed15c6e187e77e9aee88184c21f4f2182ab5827cb3b7e07fbedcd63f03300a264697066735822122010680966eec40ad25f898a53f8927f7ac0441e2738021b0578491b82b65bc52964736f6c63430008140033",
  "linkReferences": {},
  "deployedLinkReferences": {}
}