{
  "_format": "hh-sol-artifact-1",
  "contractName": "ArtistFactory",
  "sourceName": "src/contracts/limelightPersona/ArtistFactory.sol",
  "abi": [
    {
      "inputs": [],
      "stateMutability": "nonpayable",
      "type": "constructor"
    },
    {
      "inputs": [],
      "name": "AccessControlBadConfirmation",
      "type": "error"
    },
    {
      "inputs": [
        {
          "internalType": "address",
          "name": "account",
          "type": "address"
        },
        {
          "internalType": "bytes32",
          "name": "neededRole",
          "type": "bytes32"
        }
      ],
      "name": "AccessControlUnauthorizedAccount",
      "type": "error"
    },
    {
      "inputs": [],
      "name": "EnforcedPause",
      "type": "error"
    },
    {
      "inputs": [],
      "name": "ExpectedPause",
      "type": "error"
    },
    {
      "inputs": [],
      "name": "FailedDeployment",
      "type": "error"
    },
    {
      "inputs": [
        {
          "internalType": "uint256",
          "name": "balance",
          "type": "uint256"
        },
        {
          "internalType": "uint256",
          "name": "needed",
          "type": "uint256"
        }
      ],
      "name": "InsufficientBalance",
      "type": "error"
    },
    {
      "inputs": [],
      "name": "InvalidInitialization",
      "type": "error"
    },
    {
      "inputs": [],
      "name": "NotInitializing",
      "type": "error"
    },
    {
      "inputs": [
        {
          "internalType": "address",
          "name": "token",
          "type": "address"
        }
      ],
      "name": "SafeERC20FailedOperation",
      "type": "error"
    },
    {
      "anonymous": false,
      "inputs": [
        {
          "indexed": false,
          "internalType": "uint256",
          "name": "newThreshold",
          "type": "uint256"
        }
      ],
      "name": "ApplicationThresholdUpdated",
      "type": "event"
    },
    {
      "anonymous": false,
      "inputs": [
        {
          "indexed": false,
          "internalType": "address",
          "name": "token",
          "type": "address"
        },
        {
          "indexed": false,
          "internalType": "address",
          "name": "dao",
          "type": "address"
        }
      ],
      "name": "ImplContractsUpdated",
      "type": "event"
    },
    {
      "anonymous": false,
      "inputs": [
        {
          "indexed": false,
          "internalType": "uint64",
          "name": "version",
          "type": "uint64"
        }
      ],
      "name": "Initialized",
      "type": "event"
    },
    {
      "anonymous": false,
      "inputs": [
        {
          "indexed": false,
          "internalType": "uint256",
          "name": "id",
          "type": "uint256"
        }
      ],
      "name": "NewApplication",
      "type": "event"
    },
    {
      "anonymous": false,
      "inputs": [
        {
          "indexed": false,
          "internalType": "uint256",
          "name": "limelightId",
          "type": "uint256"
        },
        {
          "indexed": false,
          "internalType": "address",
          "name": "token",
          "type": "address"
        },
        {
          "indexed": false,
          "internalType": "address",
          "name": "dao",
          "type": "address"
        },
        {
          "indexed": false,
          "internalType": "address",
          "name": "tba",
          "type": "address"
        },
        {
          "indexed": false,
          "internalType": "address",
          "name": "veToken",
          "type": "address"
        },
        {
          "indexed": false,
          "internalType": "address",
          "name": "lp",
          "type": "address"
        }
      ],
      "name": "NewArtistPersona",
      "type": "event"
    },
    {
      "anonymous": false,
      "inputs": [
        {
          "indexed": false,
          "internalType": "address",
          "name": "account",
          "type": "address"
        }
      ],
      "name": "Paused",
      "type": "event"
    },
    {
      "anonymous": false,
      "inputs": [
        {
          "indexed": true,
          "internalType": "bytes32",
          "name": "role",
          "type": "bytes32"
        },
        {
          "indexed": true,
          "internalType": "bytes32",
          "name": "previousAdminRole",
          "type": "bytes32"
        },
        {
          "indexed": true,
          "internalType": "bytes32",
          "name": "newAdminRole",
          "type": "bytes32"
        }
      ],
      "name": "RoleAdminChanged",
      "type": "event"
    },
    {
      "anonymous": false,
      "inputs": [
        {
          "indexed": true,
          "internalType": "bytes32",
          "name": "role",
          "type": "bytes32"
        },
        {
          "indexed": true,
          "internalType": "address",
          "name": "account",
          "type": "address"
        },
        {
          "indexed": true,
          "internalType": "address",
          "name": "sender",
          "type": "address"
        }
      ],
      "name": "RoleGranted",
      "type": "event"
    },
    {
      "anonymous": false,
      "inputs": [
        {
          "indexed": true,
          "internalType": "bytes32",
          "name": "role",
          "type": "bytes32"
        },
        {
          "indexed": true,
          "internalType": "address",
          "name": "account",
          "type": "address"
        },
        {
          "indexed": true,
          "internalType": "address",
          "name": "sender",
          "type": "address"
        }
      ],
      "name": "RoleRevoked",
      "type": "event"
    },
    {
      "anonymous": false,
      "inputs": [
        {
          "indexed": false,
          "internalType": "address",
          "name": "account",
          "type": "address"
        }
      ],
      "name": "Unpaused",
      "type": "event"
    },
    {
      "inputs": [],
      "name": "DEFAULT_ADMIN_ROLE",
      "outputs": [
        {
          "internalType": "bytes32",
          "name": "",
          "type": "bytes32"
        }
      ],
      "stateMutability": "view",
      "type": "function"
    },
    {
      "inputs": [],
      "name": "WITHDRAW_ROLE",
      "outputs": [
        {
          "internalType": "bytes32",
          "name": "",
          "type": "bytes32"
        }
      ],
      "stateMutability": "view",
      "type": "function"
    },
    {
      "inputs": [
        {
          "internalType": "uint256",
          "name": "",
          "type": "uint256"
        }
      ],
      "name": "allDAOs",
      "outputs": [
        {
          "internalType": "address",
          "name": "",
          "type": "address"
        }
      ],
      "stateMutability": "view",
      "type": "function"
    },
    {
      "inputs": [
        {
          "internalType": "uint256",
          "name": "",
          "type": "uint256"
        }
      ],
      "name": "allTokens",
      "outputs": [
        {
          "internalType": "address",
          "name": "",
          "type": "address"
        }
      ],
      "stateMutability": "view",
      "type": "function"
    },
    {
      "inputs": [
        {
          "internalType": "uint256",
          "name": "",
          "type": "uint256"
        }
      ],
      "name": "allTradingTokens",
      "outputs": [
        {
          "internalType": "address",
          "name": "",
          "type": "address"
        }
      ],
      "stateMutability": "view",
      "type": "function"
    },
    {
      "inputs": [],
      "name": "applicationThreshold",
      "outputs": [
        {
          "internalType": "uint256",
          "name": "",
          "type": "uint256"
        }
      ],
      "stateMutability": "view",
      "type": "function"
    },
    {
      "inputs": [],
      "name": "assetToken",
      "outputs": [
        {
          "internalType": "address",
          "name": "",
          "type": "address"
        }
      ],
      "stateMutability": "view",
      "type": "function"
    },
    {
      "inputs": [],
      "name": "daoImplementation",
      "outputs": [
        {
          "internalType": "address",
          "name": "",
          "type": "address"
        }
      ],
      "stateMutability": "view",
      "type": "function"
    },
    {
      "inputs": [],
      "name": "defaultDelegatee",
      "outputs": [
        {
          "internalType": "address",
          "name": "",
          "type": "address"
        }
      ],
      "stateMutability": "view",
      "type": "function"
    },
    {
      "inputs": [
        {
          "internalType": "uint256",
          "name": "id",
          "type": "uint256"
        },
        {
          "internalType": "bool",
          "name": "canStake",
          "type": "bool"
        }
      ],
      "name": "executeApplication",
      "outputs": [],
      "stateMutability": "nonpayable",
      "type": "function"
    },
    {
      "inputs": [
        {
          "internalType": "uint256",
          "name": "id",
          "type": "uint256"
        },
        {
          "internalType": "bool",
          "name": "canStake",
          "type": "bool"
        }
      ],
      "name": "executeTokenApplication",
      "outputs": [],
      "stateMutability": "nonpayable",
      "type": "function"
    },
    {
      "inputs": [
        {
          "internalType": "uint256",
          "name": "proposalId",
          "type": "uint256"
        }
      ],
      "name": "getApplication",
      "outputs": [
        {
          "components": [
            {
              "internalType": "string",
              "name": "name",
              "type": "string"
            },
            {
              "internalType": "string",
              "name": "symbol",
              "type": "string"
            },
            {
              "internalType": "string",
              "name": "tokenURI",
              "type": "string"
            },
            {
              "internalType": "enum IArtistFactory.ApplicationStatus",
              "name": "status",
              "type": "uint8"
            },
            {
              "internalType": "uint256",
              "name": "withdrawableAmount",
              "type": "uint256"
            },
            {
              "internalType": "address",
              "name": "proposer",
              "type": "address"
            },
            {
              "internalType": "uint8[]",
              "name": "cores",
              "type": "uint8[]"
            },
            {
              "internalType": "uint256",
              "name": "proposalEndBlock",
              "type": "uint256"
            },
            {
              "internalType": "uint256",
              "name": "limelightId",
              "type": "uint256"
            },
            {
              "internalType": "bytes32",
              "name": "tbaSalt",
              "type": "bytes32"
            },
            {
              "internalType": "address",
              "name": "tbaImplementation",
              "type": "address"
            },
            {
              "internalType": "uint32",
              "name": "daoVotingPeriod",
              "type": "uint32"
            },
            {
              "internalType": "uint256",
              "name": "daoThreshold",
              "type": "uint256"
            }
          ],
          "internalType": "struct IArtistFactory.Application",
          "name": "",
          "type": "tuple"
        }
      ],
      "stateMutability": "view",
      "type": "function"
    },
    {
      "inputs": [
        {
          "internalType": "bytes32",
          "name": "role",
          "type": "bytes32"
        }
      ],
      "name": "getRoleAdmin",
      "outputs": [
        {
          "internalType": "bytes32",
          "name": "",
          "type": "bytes32"
        }
      ],
      "stateMutability": "view",
      "type": "function"
    },
    {
      "inputs": [
        {
          "internalType": "bytes32",
          "name": "role",
          "type": "bytes32"
        },
        {
          "internalType": "address",
          "name": "account",
          "type": "address"
        }
      ],
      "name": "grantRole",
      "outputs": [],
      "stateMutability": "nonpayable",
      "type": "function"
    },
    {
      "inputs": [
        {
          "internalType": "bytes32",
          "name": "role",
          "type": "bytes32"
        },
        {
          "internalType": "address",
          "name": "account",
          "type": "address"
        }
      ],
      "name": "hasRole",
      "outputs": [
        {
          "internalType": "bool",
          "name": "",
          "type": "bool"
        }
      ],
      "stateMutability": "view",
      "type": "function"
    },
    {
      "inputs": [
        {
          "internalType": "address",
          "name": "tokenAddr",
          "type": "address"
        },
        {
          "internalType": "uint8[]",
          "name": "cores",
          "type": "uint8[]"
        },
        {
          "internalType": "bytes32",
          "name": "tbaSalt",
          "type": "bytes32"
        },
        {
          "internalType": "address",
          "name": "tbaImplementation",
          "type": "address"
        },
        {
          "internalType": "uint32",
          "name": "daoVotingPeriod",
          "type": "uint32"
        },
        {
          "internalType": "uint256",
          "name": "daoThreshold",
          "type": "uint256"
        },
        {
          "internalType": "uint256",
          "name": "initialLP",
          "type": "uint256"
        }
      ],
      "name": "initFromToken",
      "outputs": [
        {
          "internalType": "uint256",
          "name": "",
          "type": "uint256"
        }
      ],
      "stateMutability": "nonpayable",
      "type": "function"
    },
    {
      "inputs": [
        {
          "internalType": "address",
          "name": "tokenImplementation_",
          "type": "address"
        },
        {
          "internalType": "address",
          "name": "veTokenImplementation_",
          "type": "address"
        },
        {
          "internalType": "address",
          "name": "daoImplementation_",
          "type": "address"
        },
        {
          "internalType": "address",
          "name": "tbaRegistry_",
          "type": "address"
        },
        {
          "internalType": "address",
          "name": "assetToken_",
          "type": "address"
        },
        {
          "internalType": "address",
          "name": "nft_",
          "type": "address"
        },
        {
          "internalType": "uint256",
          "name": "applicationThreshold_",
          "type": "uint256"
        },
        {
          "internalType": "address",
          "name": "vault_",
          "type": "address"
        },
        {
          "internalType": "uint256",
          "name": "nextId_",
          "type": "uint256"
        }
      ],
      "name": "initialize",
      "outputs": [],
      "stateMutability": "nonpayable",
      "type": "function"
    },
    {
      "inputs": [
        {
          "internalType": "address",
          "name": "tokenAddr",
          "type": "address"
        }
      ],
      "name": "isCompatibleToken",
      "outputs": [
        {
          "internalType": "bool",
          "name": "",
          "type": "bool"
        }
      ],
      "stateMutability": "view",
      "type": "function"
    },
    {
      "inputs": [],
      "name": "maturityDuration",
      "outputs": [
        {
          "internalType": "uint256",
          "name": "",
          "type": "uint256"
        }
      ],
      "stateMutability": "view",
      "type": "function"
    },
    {
      "inputs": [],
      "name": "nft",
      "outputs": [
        {
          "internalType": "address",
          "name": "",
          "type": "address"
        }
      ],
      "stateMutability": "view",
      "type": "function"
    },
    {
      "inputs": [],
      "name": "pause",
      "outputs": [],
      "stateMutability": "nonpayable",
      "type": "function"
    },
    {
      "inputs": [],
      "name": "paused",
      "outputs": [
        {
          "internalType": "bool",
          "name": "",
          "type": "bool"
        }
      ],
      "stateMutability": "view",
      "type": "function"
    },
    {
      "inputs": [
        {
          "internalType": "string",
          "name": "name",
          "type": "string"
        },
        {
          "internalType": "string",
          "name": "symbol",
          "type": "string"
        },
        {
          "internalType": "string",
          "name": "tokenURI",
          "type": "string"
        },
        {
          "internalType": "uint8[]",
          "name": "cores",
          "type": "uint8[]"
        },
        {
          "internalType": "bytes32",
          "name": "tbaSalt",
          "type": "bytes32"
        },
        {
          "internalType": "address",
          "name": "tbaImplementation",
          "type": "address"
        },
        {
          "internalType": "uint32",
          "name": "daoVotingPeriod",
          "type": "uint32"
        },
        {
          "internalType": "uint256",
          "name": "daoThreshold",
          "type": "uint256"
        }
      ],
      "name": "proposeArtist",
      "outputs": [
        {
          "internalType": "uint256",
          "name": "",
          "type": "uint256"
        }
      ],
      "stateMutability": "nonpayable",
      "type": "function"
    },
    {
      "inputs": [
        {
          "internalType": "bytes32",
          "name": "role",
          "type": "bytes32"
        },
        {
          "internalType": "address",
          "name": "callerConfirmation",
          "type": "address"
        }
      ],
      "name": "renounceRole",
      "outputs": [],
      "stateMutability": "nonpayable",
      "type": "function"
    },
    {
      "inputs": [
        {
          "internalType": "bytes32",
          "name": "role",
          "type": "bytes32"
        },
        {
          "internalType": "address",
          "name": "account",
          "type": "address"
        }
      ],
      "name": "revokeRole",
      "outputs": [],
      "stateMutability": "nonpayable",
      "type": "function"
    },
    {
      "inputs": [
        {
          "internalType": "uint256",
          "name": "newThreshold",
          "type": "uint256"
        }
      ],
      "name": "setApplicationThreshold",
      "outputs": [],
      "stateMutability": "nonpayable",
      "type": "function"
    },
    {
      "inputs": [
        {
          "internalType": "address",
          "name": "newToken",
          "type": "address"
        }
      ],
      "name": "setAssetToken",
      "outputs": [],
      "stateMutability": "nonpayable",
      "type": "function"
    },
    {
      "inputs": [
        {
          "internalType": "address",
          "name": "newDelegatee",
          "type": "address"
        }
      ],
      "name": "setDefaultDelegatee",
      "outputs": [],
      "stateMutability": "nonpayable",
      "type": "function"
    },
    {
      "inputs": [
        {
          "internalType": "address",
          "name": "token",
          "type": "address"
        },
        {
          "internalType": "address",
          "name": "veToken",
          "type": "address"
        },
        {
          "internalType": "address",
          "name": "dao",
          "type": "address"
        }
      ],
      "name": "setImplementations",
      "outputs": [],
      "stateMutability": "nonpayable",
      "type": "function"
    },
    {
      "inputs": [
        {
          "internalType": "uint256",
          "name": "newDuration",
          "type": "uint256"
        }
      ],
      "name": "setMaturityDuration",
      "outputs": [],
      "stateMutability": "nonpayable",
      "type": "function"
    },
    {
      "inputs": [
        {
          "internalType": "address",
          "name": "newTokenAdmin",
          "type": "address"
        }
      ],
      "name": "setTokenAdmin",
      "outputs": [],
      "stateMutability": "nonpayable",
      "type": "function"
    },
    {
      "inputs": [
        {
          "internalType": "uint256",
          "name": "maxSupply",
          "type": "uint256"
        },
        {
          "internalType": "uint256",
          "name": "lpSupply",
          "type": "uint256"
        },
        {
          "internalType": "uint256",
          "name": "vaultSupply",
          "type": "uint256"
        },
        {
          "internalType": "uint256",
          "name": "maxTokensPerWallet",
          "type": "uint256"
        },
        {
          "internalType": "uint256",
          "name": "maxTokensPerTxn",
          "type": "uint256"
        },
        {
          "internalType": "uint256",
          "name": "botProtectionDurationInSeconds",
          "type": "uint256"
        },
        {
          "internalType": "address",
          "name": "vault",
          "type": "address"
        }
      ],
      "name": "setTokenSupplyParams",
      "outputs": [],
      "stateMutability": "nonpayable",
      "type": "function"
    },
    {
      "inputs": [
        {
          "internalType": "uint256",
          "name": "projectBuyTaxBasisPoints",
          "type": "uint256"
        },
        {
          "internalType": "uint256",
          "name": "projectSellTaxBasisPoints",
          "type": "uint256"
        },
        {
          "internalType": "uint256",
          "name": "taxSwapThresholdBasisPoints",
          "type": "uint256"
        },
        {
          "internalType": "address",
          "name": "projectTaxRecipient",
          "type": "address"
        }
      ],
      "name": "setTokenTaxParams",
      "outputs": [],
      "stateMutability": "nonpayable",
      "type": "function"
    },
    {
      "inputs": [
        {
          "internalType": "address",
          "name": "router",
          "type": "address"
        }
      ],
      "name": "setUniswapRouter",
      "outputs": [],
      "stateMutability": "nonpayable",
      "type": "function"
    },
    {
      "inputs": [
        {
          "internalType": "address",
          "name": "newVault",
          "type": "address"
        }
      ],
      "name": "setVault",
      "outputs": [],
      "stateMutability": "nonpayable",
      "type": "function"
    },
    {
      "inputs": [
        {
          "internalType": "bytes4",
          "name": "interfaceId",
          "type": "bytes4"
        }
      ],
      "name": "supportsInterface",
      "outputs": [
        {
          "internalType": "bool",
          "name": "",
          "type": "bool"
        }
      ],
      "stateMutability": "view",
      "type": "function"
    },
    {
      "inputs": [],
      "name": "tbaRegistry",
      "outputs": [
        {
          "internalType": "address",
          "name": "",
          "type": "address"
        }
      ],
      "stateMutability": "view",
      "type": "function"
    },
    {
      "inputs": [],
      "name": "tokenImplementation",
      "outputs": [
        {
          "internalType": "address",
          "name": "",
          "type": "address"
        }
      ],
      "stateMutability": "view",
      "type": "function"
    },
    {
      "inputs": [],
      "name": "totalArtists",
      "outputs": [
        {
          "internalType": "uint256",
          "name": "",
          "type": "uint256"
        }
      ],
      "stateMutability": "view",
      "type": "function"
    },
    {
      "inputs": [],
      "name": "unpause",
      "outputs": [],
      "stateMutability": "nonpayable",
      "type": "function"
    },
    {
      "inputs": [],
      "name": "veTokenImplementation",
      "outputs": [
        {
          "internalType": "address",
          "name": "",
          "type": "address"
        }
      ],
      "stateMutability": "view",
      "type": "function"
    },
    {
      "inputs": [
        {
          "internalType": "uint256",
          "name": "id",
          "type": "uint256"
        }
      ],
      "name": "withdraw",
      "outputs": [],
      "stateMutability": "nonpayable",
      "type": "function"
    }
  ],
  "bytecode": "0x60808060405234620000bd577ff0c57e16840df040f15088dc2f81fe391c3923bec73e23a9662efc9c229c6a009081549060ff8260401c16620000ae57506001600160401b036002600160401b03198282160162000068575b604051614d679081620000c38239f35b6001600160401b031990911681179091556040519081527fc7f505b2f371ae2175ee4913f4499e1f2633a7b5936321eed1cdaeb6115181d290602090a138808062000058565b63f92ee8a960e01b8152600490fd5b600080fdfe608080604052600436101561001357600080fd5b60003560e01c90816301ffc9a714612ac657508063063513b714612aa85780630c4cb55c14612a7f5780630f07646a1461287f5780631083f761146128565780631f2f4bfd1461202c578063248a9ca314611ff057806326bde5aa14611fad5780632a7d4a1f14611dfb5780632e1a7d4d14611bc45780632f2ff15d14611b785780632f3a3d5d14611b4f57806336568abe14611b085780633deef77214611aea5780633f4ba83a14611a73578063449664c014611a46578063468d198d14611a1d57806347ccca02146119f45780634c88672a146118f35780635c975abb146118c35780635ca3cedf1461172f578063634282af146116d45780636817031b146116915780638456cb591461162a57806391d14854146115d05780639300d238146115655780639cbe0bac1461153c5780639d699326146115135780639d7b6842146114d0578063a217fddf146114b4578063aa3d000a146113f6578063b4136bd81461139b578063b4c4169514610cc0578063bd1cf25814610c74578063bea9849e14610c31578063d547741f14610be3578063d739ac2914610bc2578063ddf4427514610ba4578063e02023a114610b69578063e887b1cc14610b0e578063f745759414610acb5763fc98f079146101ed57600080fd5b34610a1f5760e0366003190112610a1f57610206612b19565b6024356001600160401b038111610a1f57610225903690600401612ced565b61022d612b5b565b60843563ffffffff81168103610a1f5760c4356102486132bd565b6001600160a01b038516600090815260126020526040902054610a975761026e85614bb6565b15610a5e576008546040516370a0823160e01b81523360048201526001600160a01b0390911690602081602481855afa90811561098857600091610a2c575b506102bd60055480921015613145565b604051636eb1769f60e11b815233600482015230602482015291602090839060449082905afa8015610988576000906109f3575b6102fd92501015613191565b610309845115156131e8565b80156109b6576103249030336001600160a01b0388166132e8565b60085460055461034091309033906001600160a01b03166132e8565b6000549161034d8361322d565b60009081556001600160a01b038616808252601260209081526040808420879055868452601390915280832080546001600160a01b03191683179055516306fdde0360e01b8152959190869060049082905afa94851561098857600095610994575b506040516395d89b4160e01b81529495939493600090859060049082906001600160a01b03165afa93841561098857600094610963575b5060055493604051966103f888612bee565b87526020870152604051938460208101106001600160401b036020870111176107cf5784602063ffffffff96016040526000815260408801526000606088015260808701523360a087015260c08601524360e0860152600061010086015260443561012086015260018060a01b03166101408501521661016083015260a435610180830152806000526014602052604060002082519283516001600160401b0381116107cf576104b2816104ac8554612fd1565b85613269565b6020601f82116001146108fa5781929394956000926108ef575b50508160011b916000199060031b1c19161782555b60208101519283516001600160401b0381116107cf57610511816105086001870154612fd1565b60018701613269565b6020601f8211600114610880578192939495600092610875575b50508160011b916000199060031b1c19161760018401555b60408201519283516001600160401b0381116107cf576105738161056a6002850154612fd1565b60028501613269565b6020601f82116001146108065781929394956000926107fb575b50508160011b916000199060031b1c19161760028201555b606083015160038110156107e5576105c090600383016132a5565b608083015160048201556005810160018060a01b0360a0850151166001600160601b0360a01b82541617905560c0830151928351936001600160401b0385116107cf57600160401b85116107cf576020906006840154866006860155808710610780575b5001936006830160005260206000209060005b8160051c81106107405750601f1981168082036106e7575b60208686600b6101808860e0810151600785015561010081015160088501556101208101516009850155600a840160018060a01b036101408301511681549063ffffffff60a01b61016085015160a01b16916001600160401b0360c01b161717905501519101557f0ff47c4a3dc48719ecfd1876116e80d7d76ec7cb67248ae49449f9104747af2982604051838152a1604051908152f35b9560009660005b81840381106107105750505060051c0193909355602092610180600b3861064f565b90919760206107366001928460ff8d5116919060ff809160031b9316831b921b19161790565b99019291016106ee565b6000805b60208110610759575083820155600101610637565b885190989160019160209160ff60038d901b81811b199092169216901b1792019801610744565b6107af906006860160005283600020601f808a0160051c820192818b16806107b5575b500160051c0190613252565b38610624565b60001990818601918254918a0360031b1c169055386107a3565b634e487b7160e01b600052604160045260246000fd5b634e487b7160e01b600052602160045260246000fd5b01519050388061058d565b6002830160005260206000209060005b601f198416811061085d575060019394959683601f19811610610844575b505050811b0160028201556105a5565b015160001960f88460031b161c19169055388080610834565b9091602060018192858b015181550193019101610816565b01519050388061052b565b6001850160005260206000209060005b601f19841681106108d7575060019394959683601f198116106108be575b505050811b016001840155610543565b015160001960f88460031b161c191690553880806108ae565b9091602060018192858b015181550193019101610890565b0151905038806104cc565b8360005260206000209060005b601f198416811061094b575060019394959683601f19811610610932575b505050811b0182556104e1565b015160001960f88460031b161c19169055388080610925565b9091602060018192858b015181550193019101610907565b6109819194503d806000833e6109798183612c53565b810190614b55565b92386103e6565b6040513d6000823e3d90fd5b60049495506109ae6000913d8084833e6109798183612c53565b9594506103af565b60405162461bcd60e51b81526020600482015260156024820152740496e697469616c4c50206d757374206265203e203605c1b6044820152606490fd5b506020823d602011610a24575b81610a0d60209383612c53565b81010312610a1f576102fd91516102f1565b600080fd5b3d9150610a00565b90506020813d602011610a56575b81610a4760209383612c53565b81010312610a1f5751386102ad565b3d9150610a3a565b60405162461bcd60e51b81526020600482015260116024820152702ab739bab83837b93a32b2103a37b5b2b760791b6044820152606490fd5b60405162461bcd60e51b815260206004820152600c60248201526b546f6b656e2065786973747360a01b6044820152606490fd5b34610a1f576020366003190112610a1f57610ae4612b19565b610aec612d55565b600e80546001600160a01b0319166001600160a01b0392909216919091179055005b34610a1f576020366003190112610a1f57600435600b54811015610a1f57600b6000527f0175b7a638427703f0dbe7bb9bbf987a2551717b34e79f33b5b1008d1fa01db901546040516001600160a01b039091168152602090f35b34610a1f576000366003190112610a1f5760206040517f5d8e12c39142ff96d79d04d15d1ba1269e4fe57bb9d26f43523628b34ba108ec8152f35b34610a1f576000366003190112610a1f576020600554604051908152f35b34610a1f576020366003190112610a1f57610bdb612d55565b600435600955005b34610a1f576040366003190112610a1f57610c2f600435610c02612b2f565b9080600052600080516020614cf2833981519152602052610c2a600160406000200154612dad565b612f0d565b005b34610a1f576020366003190112610a1f57610c4a612b19565b610c52612d55565b600c80546001600160a01b0319166001600160a01b0392909216919091179055005b34610a1f576020366003190112610a1f577fcfa33021ab0175831433b2f3bd8eeb24a22f5ae53ca0e660a246811754f9e34a6020600435610cb3612d55565b80600555604051908152a1005b34610a1f57610100366003190112610a1f576004356001600160401b038111610a1f57610cf1903690600401612c8f565b6024356001600160401b038111610a1f57610d10903690600401612c8f565b6044356001600160401b038111610a1f57610d2f903690600401612c8f565b906064356001600160401b038111610a1f57610d4f903690600401612ced565b610d57612b71565b60c4359163ffffffff83168303610a1f57610d706132bd565b6008546040516370a0823160e01b81523360048201526001600160a01b039091169490602081602481895afa90811561098857600091611369575b50610dbb60055480921015613145565b604051636eb1769f60e11b81523360048201523060248201526020816044818a5afa90811561098857600091611331575b509063ffffffff96610e0382610e18941015613191565b610e0f855115156131e8565b309033906132e8565b60005495610e258761322d565b6000556005549160405198610e398a612bee565b8952602089015260408801526000606088015260808701523360a087015260c08601524360e0860152600061010086015260843561012086015260018060a01b03166101408501521661016083015260e435610180830152806000526014602052604060002082519283516001600160401b0381116107cf57610ec0816104ac8554612fd1565b6020601f82116001146112c85781929394956000926112bd575b50508160011b916000199060031b1c19161782555b60208101519283516001600160401b0381116107cf57610f16816105086001870154612fd1565b6020601f821160011461124e578192939495600092611243575b50508160011b916000199060031b1c19161760018401555b60408201519283516001600160401b0381116107cf57610f6f8161056a6002850154612fd1565b6020601f82116001146111d45781929394956000926111c9575b50508160011b916000199060031b1c19161760028201555b606083015160038110156107e557610fbc90600383016132a5565b608083015160048201556005810160018060a01b0360a0850151166001600160601b0360a01b82541617905560c0830151928351936001600160401b0385116107cf57600160401b85116107cf57602090600684015486600686015580871061117b575b5001936006830160005260206000209060005b8160051c811061113b5750601f1981168082036110e25760208686600b6101808860e0810151600785015561010081015160088501556101208101516009850155600a840160018060a01b036101408301511681549063ffffffff60a01b61016085015160a01b16916001600160401b0360c01b161717905501519101557f0ff47c4a3dc48719ecfd1876116e80d7d76ec7cb67248ae49449f9104747af2982604051838152a1604051908152f35b9560009660005b818403811061110b5750505060051c0193909355602092610180600b8661064f565b90919760206111316001928460ff8d5116919060ff809160031b9316831b921b19161790565b99019291016110e9565b6000805b60208110611154575083820155600101611033565b885190989160019160209160ff60038d901b81811b199092169216901b179201980161113f565b6111a9906006860160005283600020601f808a0160051c820192818b16806111af57500160051c0190613252565b86611020565b60001990818601918254918a0360031b1c1690558b6107a3565b015190508580610f89565b6002830160005260206000209060005b601f198416811061122b575060019394959683601f19811610611212575b505050811b016002820155610fa1565b015160001960f88460031b161c19169055858080611202565b9091602060018192858b0151815501930191016111e4565b015190508580610f30565b6001850160005260206000209060005b601f19841681106112a5575060019394959683601f1981161061128c575b505050811b016001840155610f48565b015160001960f88460031b161c1916905585808061127c565b9091602060018192858b01518155019301910161125e565b015190508580610eda565b8360005260206000209060005b601f1984168110611319575060019394959683601f19811610611300575b505050811b018255610eef565b015160001960f88460031b161c191690558580806112f3565b9091602060018192858b0151815501930191016112d5565b9190506020823d602011611361575b8161134d60209383612c53565b81010312610a1f57905163ffffffff610dec565b3d9150611340565b90506020813d602011611393575b8161138460209383612c53565b81010312610a1f575188610dab565b3d9150611377565b34610a1f576020366003190112610a1f57600435600754811015610a1f5760076000527fa66cc928b5edb82af9bd49922954155ab7b0942694bea4ce44661d9a8736c68801546040516001600160a01b039091168152602090f35b34610a1f5761147061140736612bcf565b9190600a549261141a60ff851615613386565b600160ff1994851617600a556000828152601460205260409020600501546001600160a01b03163314801561147c575b611453906133c3565b6040519161146b836114648161300b565b0384612c53565b6134d0565b600a5416600a55600080f35b503360009081527f5823e0d66e2a96f24807757f427eb1484ce655ac5deec6b013f8a4f8afa2963f602052604090205460ff1661144a565b34610a1f576000366003190112610a1f57602060405160008152f35b34610a1f576020366003190112610a1f576114e9612b19565b6114f1612d55565b600f80546001600160a01b0319166001600160a01b0392909216919091179055005b34610a1f576000366003190112610a1f576002546040516001600160a01b039091168152602090f35b34610a1f576000366003190112610a1f57600d546040516001600160a01b039091168152602090f35b34610a1f576060366003190112610a1f5761157e612b19565b611586612b2f565b61158e612b45565b90611597612d55565b60018060a01b038092816001600160601b0360a01b9516856001541617600155168360025416176002551690600d541617600d55600080f35b34610a1f576040366003190112610a1f576115e9612b2f565b600435600052600080516020614cf283398151915260205260406000209060018060a01b0316600052602052602060ff604060002054166040519015158152f35b34610a1f576000366003190112610a1f57611643612d55565b61164b6132bd565b600080516020614d12833981519152600160ff198254161790557f62e78cea01bee320cd4e420270b5ea74000d11b0c9f74754ebdbfc544b05a2586020604051338152a1005b34610a1f576020366003190112610a1f576116aa612b19565b6116b2612d55565b601580546001600160a01b0319166001600160a01b0392909216919091179055005b34610a1f576020366003190112610a1f57600435600654811015610a1f5760066000527ff652222313e28459528d920b65115c16c04f3efc82aaedc97be59f3f377c0d3f01546040516001600160a01b039091168152602090f35b34610a1f576080366003190112610a1f57611748612b5b565b611750612d55565b60405190602090600435828401526024356040840152604435606084015260018060a01b031660808301526080825261178882612c1d565b8151906001600160401b0382116107cf576117a4601154612fd1565b601f811161186a575b5080601f83116001146117e9575081926000926117de575b5050600019600383901b1c191660019190911b17601155005b0151905082806117c5565b90601f1983169360116000527f31ecc21a745e3968a04e9570e4425bc18fa8019c68028196b546d1669c200c68926000905b8682106118525750508360019510611839575b505050811b01601155005b015160001960f88460031b161c1916905582808061182e565b8060018596829496860151815501950193019061181b565b6118b39060116000527f31ecc21a745e3968a04e9570e4425bc18fa8019c68028196b546d1669c200c68601f850160051c8101918486106118b9575b601f0160051c0190613252565b836117ad565b90915081906118a6565b34610a1f576000366003190112610a1f57602060ff600080516020614d1283398151915254166040519015158152f35b34610a1f5761190136612bcf565b600a549161191260ff841615613386565b600160ff1993841617600a556000818152601460205260409020600501546001600160a01b03908116331480156119bc575b61194d906133c3565b816000526013602052604060002054161561197757611470916040519161146b836114648161300b565b60405162461bcd60e51b815260206004820152601c60248201527f4e6f7420637573746f6d20746f6b656e206170706c69636174696f6e000000006044820152606490fd5b503360009081527f5823e0d66e2a96f24807757f427eb1484ce655ac5deec6b013f8a4f8afa2963f602052604090205460ff16611944565b34610a1f576000366003190112610a1f576003546040516001600160a01b039091168152602090f35b34610a1f576000366003190112610a1f576004546040516001600160a01b039091168152602090f35b34610a1f576020366003190112610a1f576020611a69611a64612b19565b614bb6565b6040519015158152f35b34610a1f576000366003190112610a1f57611a8c612d55565b600080516020614d12833981519152805460ff811615611ad85760ff191690557f5db9ee0a495bf2e6ff9c91a7834c1ba4fdd244a5e8aa4e537bd38aeae4b073aa6020604051338152a1005b604051638dfc202b60e01b8152600490fd5b34610a1f576000366003190112610a1f576020600654604051908152f35b34610a1f576040366003190112610a1f57611b21612b2f565b336001600160a01b03821603611b3d57610c2f90600435612f0d565b60405163334bd91960e11b8152600490fd5b34610a1f576000366003190112610a1f576001546040516001600160a01b039091168152602090f35b34610a1f576040366003190112610a1f57610c2f600435611b97612b2f565b9080600052600080516020614cf2833981519152602052611bbf600160406000200154612dad565b612e80565b34610a1f57602080600319360112610a1f57600435600a5491611bea60ff841615613386565b60ff19928316600117600a55600082815260148252604090206005810180549093916001600160a01b039182163381148015611dae575b611c2a906133c3565b6003820180549260ff841660038110156107e557611d70576007810154431115611d2b57906002896004611c7096959401946000865496551617905583600854166133fe565b816000526013835280604060002054169384611c91575b600a805487169055005b5416926040516370a0823160e01b81523060048201528381602481855afa90811561098857600091611cfd575b50611ccc90601395836133fe565b60005260128252600060408120556000525260406000206001600160601b0360a01b81541690558180808080611c87565b90508381813d8311611d24575b611d148183612c53565b81010312610a1f57516013611cbe565b503d611d0a565b60405162461bcd60e51b815260048101889052601760248201527f4170706c69636174696f6e206e6f74206d6174757265640000000000000000006044820152606490fd5b60405162461bcd60e51b81526004810188905260166024820152754170706c69636174696f6e206e6f742061637469766560501b6044820152606490fd5b507f5d8e12c39142ff96d79d04d15d1ba1269e4fe57bb9d26f43523628b34ba108ec6000908152600080516020614cf283398151915286526040808220338352875290205460ff16611c21565b34610a1f5760e0366003190112610a1f5760c4356001600160a01b03811690819003610a1f57611e29612d55565b604051906020906004358284015260243560408401526044356060840152606435608084015260843560a084015260a43560c084015260e083015260e082526101008201906001600160401b0391838110838211176107cf5760405282519182116107cf57611e99601054612fd1565b601f8111611f5f575b5080601f8311600114611ede57508192600092611ed3575b5050600019600383901b1c191660019190911b17601055005b015190508280611eba565b90601f1983169360106000527f1b6847dc741a1b0cd08d278845f9d819d87b734759afb55fe2de5cb82a9ae672926000905b868210611f475750508360019510611f2e575b505050811b01601055005b015160001960f88460031b161c19169055828080611f23565b80600185968294968601518155019501930190611f10565b611fa79060106000527f1b6847dc741a1b0cd08d278845f9d819d87b734759afb55fe2de5cb82a9ae672601f850160051c8101918486106118b957601f0160051c0190613252565b83611ea2565b34610a1f576020366003190112610a1f57611fc6612b19565b611fce612d55565b600880546001600160a01b0319166001600160a01b0392909216919091179055005b34610a1f576020366003190112610a1f57600435600052600080516020614cf28339815191526020526020600160406000200154604051908152f35b34610a1f576020366003190112610a1f57600061018060405161204e81612bee565b6060815260606020820152606060408201528260608201528260808201528260a0820152606060c08201528260e0820152826101008201528261012082015282610140820152826101608201520152600435600052601460205260406000206040516120b981612bee565b6040516120d1816120ca81866130af565b0382612c53565b81526040516120e7816120ca81600187016130af565b6020820152604051612100816120ca81600287016130af565b604082015260ff60038301541660038110156107e55760608201526004820154608082015260058201546001600160a01b031660a08201526040516006830180548083526000918252602080832090840195939291905b81601f8401106126b45795612274928492600b979854918181106126a0575b818110612689575b818110612672575b81811061265b575b818110612645575b81811061262e575b818110612617575b818110612600575b8181106125e9575b8181106125d2575b8181106125bb575b8181106125a4575b81811061258d575b818110612576575b81811061255f575b818110612548575b818110612531575b81811061251a575b818110612503575b8181106124ec575b8181106124d5575b8181106124be575b8181106124a7575b818110612490575b818110612479575b818110612462575b81811061244b575b818110612434575b81811061241d575b818110612406575b8181106123ef575b106123e1575b500382612c53565b60c0840152600781015460e08401526008810154610100840152600981015461012084015263ffffffff600a82015460018060a01b03811661014086015260a01c166101608401520154610180820152604051602081526123156122ff6122e984516101a060208601526101c0850190612baa565b6020850151848203601f19016040860152612baa565b6040840151838203601f19016060850152612baa565b606083015160038110156107e5576080830152608083015160a083015260018060a01b0360a08401511660c083015260c083015190601f198382030160e08401526020808351928381520192019060005b8181106123c8575050506101808360e08495015161010085015261010081015161012085015261012081015161014085015260018060a01b036101408201511661016085015263ffffffff610160820151168285015201516101a08301520390f35b825160ff16845260209384019390920191600101612366565b60f81c81526020018761226c565b92602060019160ff8560f01c168152019301612266565b92602060019160ff8560e81c16815201930161225e565b92602060019160ff8560e01c168152019301612256565b92602060019160ff8560d81c16815201930161224e565b92602060019160ff8560d01c168152019301612246565b92602060019160ff8560c81c16815201930161223e565b92602060019160ff8560c01c168152019301612236565b92602060019160ff8560b81c16815201930161222e565b92602060019160ff8560b01c168152019301612226565b92602060019160ff8560a81c16815201930161221e565b92602060019160ff8560a01c168152019301612216565b92602060019160ff8560981c16815201930161220e565b92602060019160ff8560901c168152019301612206565b92602060019160ff8560881c1681520193016121fe565b92602060019160ff8560801c1681520193016121f6565b92602060019160ff8560781c1681520193016121ee565b92602060019160ff8560701c1681520193016121e6565b92602060019160ff8560681c1681520193016121de565b92602060019160ff8560601c1681520193016121d6565b92602060019160ff8560581c1681520193016121ce565b92602060019160ff8560501c1681520193016121c6565b92602060019160ff8560481c1681520193016121be565b92602060019160ff8560401c1681520193016121b6565b92602060019160ff8560381c1681520193016121ae565b92602060019160ff8560301c1681520193016121a6565b92602060019160ff8560281c16815201930161219e565b92602060019160ff85831c168152019301612196565b92602060019160ff8560181c16815201930161218e565b92602060019160ff8560101c168152019301612186565b92602060019160ff8560081c16815201930161217e565b92602060019160ff85168152019301612176565b956001610400602092895460ff8116825260ff8160081c168583015260ff8160101c16604083015260ff8160181c16606083015260ff81861c16608083015260ff8160281c1660a083015260ff8160301c1660c083015260ff8160381c1660e083015260ff8160401c1661010083015260ff8160481c1661012083015260ff8160501c1661014083015260ff8160581c1661016083015260ff8160601c1661018083015260ff8160681c166101a083015260ff8160701c166101c083015260ff8160781c166101e083015260ff8160801c1661020083015260ff8160881c1661022083015260ff8160901c1661024083015260ff8160981c1661026083015260ff8160a01c1661028083015260ff8160a81c166102a083015260ff8160b01c166102c083015260ff8160b81c166102e083015260ff8160c01c1661030083015260ff8160c81c1661032083015260ff8160d01c1661034083015260ff8160d81c1661036083015260ff8160e01c1661038083015260ff8160e81c166103a083015260ff8160f01c166103c083015260f81c6103e0820152019701920191612157565b34610a1f576000366003190112610a1f576008546040516001600160a01b039091168152602090f35b34610a1f57610120366003190112610a1f57612899612b19565b6128a1612b2f565b906128aa612b45565b906128b3612b5b565b6001600160a01b036084358181169592939290869003610a1f576128d5612b71565b9060e43594838616809603610a1f577ff0c57e16840df040f15088dc2f81fe391c3923bec73e23a9662efc9c229c6a009788549260ff8460401c1615986001600160401b03851680159081612a77575b6001149081612a6d575b159081612a64575b50612a525767ffffffffffffffff1985166001178b558694859283918c612a33575b50612962612f90565b61296a612f90565b600080516020614d12833981519152805460ff19169055612989612f90565b816001600160601b0360a01b9a168a60015416176001551688600d541617600d5516866002541617600255856008541617600855168360045416176004551681600354161760035560c435600555610104356000556129e733612de0565b5060155416176015556129f657005b68ff00000000000000001981541690557fc7f505b2f371ae2175ee4913f4499e1f2633a7b5936321eed1cdaeb6115181d2602060405160018152a1005b68ffffffffffffffffff191668010000000000000001178d558d612959565b60405163f92ee8a960e01b8152600490fd5b9050158c612937565b303b15915061292f565b8b9150612925565b34610a1f576000366003190112610a1f57600f546040516001600160a01b039091168152602090f35b34610a1f576000366003190112610a1f576020600954604051908152f35b34610a1f576020366003190112610a1f576004359063ffffffff60e01b8216809203610a1f57602091637965db0b60e01b8114908115612b08575b5015158152f35b6301ffc9a760e01b14905083612b01565b600435906001600160a01b0382168203610a1f57565b602435906001600160a01b0382168203610a1f57565b604435906001600160a01b0382168203610a1f57565b606435906001600160a01b0382168203610a1f57565b60a435906001600160a01b0382168203610a1f57565b60005b838110612b9a5750506000910152565b8181015183820152602001612b8a565b90602091612bc381518092818552858086019101612b87565b601f01601f1916010190565b6040906003190112610a1f57600435906024358015158103610a1f5790565b6101a081019081106001600160401b038211176107cf57604052565b6001600160401b0381116107cf57604052565b60a081019081106001600160401b038211176107cf57604052565b608081019081106001600160401b038211176107cf57604052565b90601f801991011681019081106001600160401b038211176107cf57604052565b6001600160401b0381116107cf57601f01601f191660200190565b81601f82011215610a1f57803590612ca682612c74565b92612cb46040519485612c53565b82845260208383010111610a1f57816000926020809301838601378301015290565b6001600160401b0381116107cf5760051b60200190565b81601f82011215610a1f57803591612d0483612cd6565b92612d126040519485612c53565b808452602092838086019260051b820101928311610a1f578301905b828210612d3c575050505090565b813560ff81168103610a1f578152908301908301612d2e565b3360009081527fb7db2dd08fcb62d0c9e08c51941cae53c267786a0b75803fb7960902fc8ef97d602052604081205460ff1615612d8f5750565b6044906040519063e2517d3f60e01b82523360048301526024820152fd5b80600052600080516020614cf283398151915260205260406000203360005260205260ff6040600020541615612d8f5750565b6001600160a01b031660008181527fb7db2dd08fcb62d0c9e08c51941cae53c267786a0b75803fb7960902fc8ef97d6020526040812054909190600080516020614cf28339815191529060ff16612e7b578280526020526040822081835260205260408220600160ff1982541617905533917f2f8788117e7eff1d82e926ec794901d17c78024a50270940304540a733656f0d8180a4600190565b505090565b90600091808352600080516020614cf283398151915280602052604084209260018060a01b03169283855260205260ff60408520541615600014612f07578184526020526040832082845260205260408320600160ff198254161790557f2f8788117e7eff1d82e926ec794901d17c78024a50270940304540a733656f0d339380a4600190565b50505090565b90600091808352600080516020614cf283398151915280602052604084209260018060a01b03169283855260205260ff604085205416600014612f0757818452602052604083208284526020526040832060ff1981541690557ff6391f5c32d9c69d2a47ea670b442974b53935d1edc7fd64eb21e047a839171b339380a4600190565b60ff7ff0c57e16840df040f15088dc2f81fe391c3923bec73e23a9662efc9c229c6a005460401c1615612fbf57565b604051631afcd79f60e31b8152600490fd5b90600182811c92168015613001575b6020831014612feb57565b634e487b7160e01b600052602260045260246000fd5b91607f1691612fe0565b6010546000929161301b82612fd1565b80825291600190818116908115613092575060011461303957505050565b9192935060106000527f1b6847dc741a1b0cd08d278845f9d819d87b734759afb55fe2de5cb82a9ae672916000925b84841061307a57505060209250010190565b80546020858501810191909152909301928101613068565b915050602093945060ff929192191683830152151560051b010190565b90600092918054916130c083612fd1565b91828252600193848116908160001461312257506001146130e2575b50505050565b90919394506000526020928360002092846000945b83861061310e5750505050010190388080806130dc565b8054858701830152940193859082016130f7565b9294505050602093945060ff191683830152151560051b010190388080806130dc565b1561314c57565b60405162461bcd60e51b815260206004820152601860248201527f496e73756666696369656e7420617373657420746f6b656e00000000000000006044820152606490fd5b1561319857565b60405162461bcd60e51b815260206004820152602260248201527f496e73756666696369656e7420617373657420746f6b656e20616c6c6f77616e604482015261636560f01b6064820152608490fd5b156131ef57565b60405162461bcd60e51b815260206004820152601660248201527510dbdc995cc81b5d5cdd081899481c1c9bdd9a59195960521b6044820152606490fd5b600019811461323c5760010190565b634e487b7160e01b600052601160045260246000fd5b81811061325d575050565b60008155600101613252565b9190601f811161327857505050565b6132a3926000526020600020906020601f840160051c830193106118b957601f0160051c0190613252565b565b9060038110156107e55760ff80198354169116179055565b60ff600080516020614d1283398151915254166132d657565b60405163d93c066560e01b8152600490fd5b6040516323b872dd60e01b60208201526001600160a01b0392831660248201529290911660448301526064808301939093529181526132a39161332a82612c1d565b906000602091828151910182855af115610988576000513d61337d57506001600160a01b0381163b155b61335b5750565b604051635274afe760e01b81526001600160a01b039091166004820152602490fd5b60011415613354565b1561338d57565b60405162461bcd60e51b815260206004820152600e60248201526d31b0b73737ba103932b2b73a32b960911b6044820152606490fd5b156133ca57565b60405162461bcd60e51b815260206004820152600c60248201526b2737ba10383937b837b9b2b960a11b6044820152606490fd5b60405163a9059cbb60e01b60208201526001600160a01b039290921660248301526044808301939093529181526132a39161332a606483612c53565b51906001600160a01b0382168203610a1f57565b60009291815461345d81612fd1565b926001918083169081156134b557506001146134795750505050565b90919293945060005260209081600020906000915b8583106134a457505050500190388080806130dc565b80548584015291830191810161348e565b60ff19168452505050811515909102019150388080806130dc565b9190600092808452601460205260ff6003604086200154166003811015614b4157614b0f57600e546001600160a01b031615614ad457835260146020526040832060048101848154915560038201600160ff19825416179055601360205260018060a01b0360408620541680156000146146a25750604051613556816120ca81866130af565b604051906135728261356b81600188016130af565b0383612c53565b600154608881901c62ffffff16763d602d80600a3d3981f3363d3d373d3d3d363d7300000017885260781b6001600160781b0319166e5af43d82803e903d91602b57fd5bf3176020526037600988f0956001600160a01b0387169283156144bd57604051928360608101106001600160401b0360608601111761468e5761364591613664916060860160405260018060a01b03600e5416865260018060a01b03600c5416602087015260018060a01b03600854166040870152613658604051948592604060208501526060840190612baa565b601f199384848303016040850152612baa565b03908101835282612c53565b833b156145ca57604051634258efa960e11b81529289928492909184600485015b60038210614668575050506136a86136bb9160c0606486015260c4850190612baa565b6003199283858303016084860152612baa565b908282030160a48301528290601154906136d482612fd1565b918282528460018216918260001461464a5750506001146145ec575b50508190038183865af180156144ae576145d9575b50600b54600160401b8110156107cf576001810180600b5581101561448057600b6000527f0175b7a638427703f0dbe7bb9bbf987a2551717b34e79f33b5b1008d1fa01db90180546001600160a01b0319168217905560405163d6efd7c360e01b81528592908781600481865afa9081156145ce578891614532575b5080511561451e57602001516008546001600160a01b03918216976137a993929091166133fe565b803b156144aa57858091602460405180948193631672aef960e21b83523060048401525af180156144e75790869161450a575b50505b60405166029ba30b5b2b2160cd1b602082015280613800602782018561344e565b0390613814601f1992838101835282612c53565b61384260405192607360f81b602085015283613836602182016001890161344e565b03908101845283612c53565b6005840154600d54608881901c62ffffff16763d602d80600a3d3981f3363d3d373d3d3d363d7300000017895260781b6001600160781b0319166e5af43d82803e903d91602b57fd5bf3176020526001600160a01b0390811690603760098af0169586156144bd5760095442018042116144f6576003546001600160a01b031690883b156144f257916138f993918b959361390b604051988997889763b2193b4d60e01b895260e060048a015260e4890190612baa565b87810360031901602489015290612baa565b60448601949094526001600160a01b038c166064860152608485015260a4840152151560c4830152038183885af180156144e7579086916144cf575b5050600654600160401b8110156107cf5760018101806006558110156144805760066000527ff652222313e28459528d920b65115c16c04f3efc82aaedc97be59f3f377c0d3f0180546001600160a01b03191684179055604051906139ce6004836139b5602082018761344e565b632044414f60e01b815203601b19810185520183612c53565b600a830154600b840154600254608881901c62ffffff16763d602d80600a3d3981f3363d3d373d3d3d363d7300000017895260781b6001600160781b0319166e5af43d82803e903d91602b57fd5bf31760205290926001600160a01b03603760098af0169384156144bd576003546001600160a01b031690853b156144b95791613a7c9163ffffffff8b946040519687958695631c63df3560e21b875260a0600488015260a4870190612baa565b938c60248701526044860152606485015260a01c166084830152038183875af180156144ae57908791614496575b5050600754600160401b8110156107cf5760018101806007558110156144805760076000527fa66cc928b5edb82af9bd49922954155ab7b0942694bea4ce44661d9a8736c6880180546001600160a01b0319168317905560035460405163a9b9dde160e01b815296906001600160a01b0316602088600481845afa978815613ee657829861444c575b506015546005860154604051631f889aa560e11b8152600481018b90526001600160a01b0392831660248201526101006044820152929116908290613b7f610104830160028a016130af565b9287606484015260848301526003198284030160a483015284602060068a015494858152019360068a018252602082209082915b81601f8401106142a057958593928492602098549181811061428e575b818110614278575b818110614262575b81811061424c575b818110614238575b818110614222575b81811061420c575b8181106141f6575b8181106141e0575b8181106141ca575b8181106141b4575b81811061419e575b818110614188575b818110614172575b81811061415c575b818110614146575b818110614130575b81811061411a575b818110614104575b8181106140ee575b8181106140d8575b8181106140c2575b8181106140ac575b818110614096575b818110614080575b81811061406a575b818110614054575b81811061403e575b818110614028575b818110614012575b818110613ffc575b10613fef575b506001600160a01b03808f1660c48401528a1660e483015203925af18015613ee657613fc4575b506008840187905560048054600a8601546009870154600354604051638a54c52f60e01b81526001600160a01b0393841695810195909552602485019190915246604485015281166064840152608483018a9052919591602091879160a49183918791165af1948515613ee6578295613f88575b506003546001600160a01b0316803b15613f685760405163190b373360e31b8152600481018a90526001600160a01b03871660248201529083908290604490829084905af18015613f2957908391613f74575b505060405163095ea7b360e01b8152600481018790526000196024820152602081604481866001600160a01b038d165af18015613f2957613f34575b506040516370a0823160e01b8152306004820152906020826024816001600160a01b038c165afa918215613f29578392613ef5575b5060050154600f546001600160a01b039081169116873b15613ef1576040519263a7d545db60e01b84526004840152602483015260448201528181606481838a5af18015613ee657613ecf575b5050604080519687526001600160a01b039182166020880152860191909152908116606085015260808401919091521660a08201527fc51032f804fb8357b4af8118a0684693c827a9cea4413e2ea8eb0579777ef5949060c090a1565b613ed98291612c0a565b613ee35780613e72565b80fd5b6040513d84823e3d90fd5b8380fd5b9091506020813d602011613f21575b81613f1160209383612c53565b81010312610a1f57519038613e25565b3d9150613f04565b6040513d85823e3d90fd5b6020813d602011613f6c575b81613f4d60209383612c53565b81010312613f68575180151503613f645738613df0565b5080fd5b8280fd5b3d9150613f40565b613f7d90612c0a565b613f64578138613db4565b9094506020813d602011613fbc575b81613fa460209383612c53565b81010312613f6457613fb59061343a565b9338613d61565b3d9150613f97565b602090813d8311613fe8575b613fda8183612c53565b81010312610a1f5738613ced565b503d613fd0565b60f81c8152860138613cc6565b928960019160ff8560f01c168152019301613cc0565b928960019160ff8560e81c168152019301613cb8565b928960019160ff8560e01c168152019301613cb0565b928960019160ff8560d81c168152019301613ca8565b928960019160ff8560d01c168152019301613ca0565b928960019160ff8560c81c168152019301613c98565b928960019160ff8560c01c168152019301613c90565b928960019160ff8560b81c168152019301613c88565b928960019160ff8560b01c168152019301613c80565b928960019160ff8560a81c168152019301613c78565b928960019160ff8560a01c168152019301613c70565b928960019160ff8560981c168152019301613c68565b928960019160ff8560901c168152019301613c60565b928960019160ff8560881c168152019301613c58565b928960019160ff8560801c168152019301613c50565b928960019160ff8560781c168152019301613c48565b928960019160ff8560701c168152019301613c40565b928960019160ff8560681c168152019301613c38565b928960019160ff8560601c168152019301613c30565b928960019160ff8560581c168152019301613c28565b928960019160ff8560501c168152019301613c20565b928960019160ff8560481c168152019301613c18565b928960019160ff8560401c168152019301613c10565b928960019160ff8560381c168152019301613c08565b928960019160ff8560301c168152019301613c00565b928960019160ff8560281c168152019301613bf8565b828a1c60ff16845292890192600101613bf0565b928960019160ff8560181c168152019301613be8565b928960019160ff8560101c168152019301613be0565b928960019160ff8560081c168152019301613bd8565b60ff8316845292890192600101613bd0565b9450915091936001610400602092865460ff8116825260ff8160081c168583015260ff8160101c16604083015260ff8160181c16606083015260ff81861c16608083015260ff8160281c1660a083015260ff8160301c1660c083015260ff8160381c1660e083015260ff8160401c1661010083015260ff8160481c1661012083015260ff8160501c1661014083015260ff8160581c1661016083015260ff8160601c1661018083015260ff8160681c166101a083015260ff8160701c166101c083015260ff8160781c166101e083015260ff8160801c1661020083015260ff8160881c1661022083015260ff8160901c1661024083015260ff8160981c1661026083015260ff8160a01c1661028083015260ff8160a81c166102a083015260ff8160b01c166102c083015260ff8160b81c166102e083015260ff8160c01c1661030083015260ff8160c81c1661032083015260ff8160d01c1661034083015260ff8160d81c1661036083015260ff8160e01c1661038083015260ff8160e81c166103a083015260ff8160f01c166103c083015260f81c6103e08201520194019201869186949593613bb3565b9097506020813d602011614478575b8161446860209383612c53565b81010312610a1f57519638613b33565b3d915061445b565b634e487b7160e01b600052603260045260246000fd5b61449f90612c0a565b6144aa578538613aaa565b8580fd5b6040513d89823e3d90fd5b8980fd5b60405163b06ebf3d60e01b8152600490fd5b6144d890612c0a565b6144e3578438613947565b8480fd5b6040513d88823e3d90fd5b8a80fd5b634e487b7160e01b8a52601160045260248afd5b61451390612c0a565b6144e35784386137dc565b634e487b7160e01b88526032600452602488fd5b90503d8089833e6145438183612c53565b8101906020818303126145ca578051906001600160401b0382116144b957019080601f830112156145ca57815161457981612cd6565b926145876040519485612c53565b81845260208085019260051b8201019283116144f257602001905b8282106145b25750505038613781565b602080916145bf8461343a565b8152019101906145a2565b8880fd5b6040513d8a823e3d90fd5b6145e590969196612c0a565b9438613705565b60118552849250907f31ecc21a745e3968a04e9570e4425bc18fa8019c68028196b546d1669c200c685b81841061462a5750500160200181386136f0565b60019195506020929450805483858701015201910190918a938593614616565b909450602093915060ff191683830152151560051b010190386136f0565b82516001600160a01b031681528d96508795506020928301926001929092019101613685565b634e487b7160e01b8a52604160045260248afd5b600c5460405163c45a015560e01b8152929550909190602090829060049082906001600160a01b03165afa9081156144e7578691614a9a575b5060085460405163e6a4390560e01b81526001600160a01b038481166004830152918216602482018190529290911690602081604481855afa9081156145ce578891614a5c575b506001600160a01b0316614a29576040516364e329cb60e11b81526001600160a01b038481166004830152929092166024830152602090829060449082908a905af19081156144e75786916149ef575b509360018060a01b03600c541660405163095ea7b360e01b60208201528160248201526000196044820152604481526147aa81612c38565b602088825182840182885af188513d826149d3575b505015614990575b5050600854600c5460405163095ea7b360e01b60208083019182526001600160a01b03938416602484018190526044808501889052845294929390921691908a90614813606486612c53565b84519082855af189513d82614974575b505015614936575b5050600c546008546040516370a0823160e01b81523060048201526001600160a01b0392831693509116602082602481885afa91821561492b57899081936148f3575b509061010491606094604051968795869462e8e33760e81b86528a60048701526024860152604485015260648401528160848401528160a48401523060c48401524260e48401525af180156144e7576148c8575b506137df565b606090813d81116148ec575b6148de8183612c53565b810103126144e357386148c2565b503d6148d4565b919250506020813d602011614923575b8161491060209383612c53565b810103126145ca5751908861010461486e565b3d9150614903565b6040513d8b823e3d90fd5b61332a61496c936040519063095ea7b360e01b602083015260248201528a60448201526044815261496681612c38565b8261332a565b38808061482b565b9091506149885750803b15155b3880614823565b600114614981565b6149c66149cc926040519063095ea7b360e01b60208301526024820152896044820152604481526149c081612c38565b8561332a565b8361332a565b38806147c7565b9091506149e75750833b15155b38806147bf565b6001146149e0565b90506020813d602011614a21575b81614a0a60209383612c53565b810103126144aa57614a1b9061343a565b38614772565b3d91506149fd565b60405162461bcd60e51b815260206004820152600b60248201526a706f6f6c2065786973747360a81b6044820152606490fd5b90506020813d602011614a92575b81614a7760209383612c53565b81010312614a8e57614a889061343a565b38614722565b8780fd5b3d9150614a6a565b90506020813d602011614acc575b81614ab560209383612c53565b810103126144aa57614ac69061343a565b386146db565b3d9150614aa8565b60405162461bcd60e51b8152602060048201526013602482015272151bdad95b8818591b5a5b881b9bdd081cd95d606a1b6044820152606490fd5b60405162461bcd60e51b815260206004820152600a6024820152694e6f742061637469766560b01b6044820152606490fd5b634e487b7160e01b85526021600452602485fd5b602081830312610a1f578051906001600160401b038211610a1f570181601f82011215610a1f578051614b8781612c74565b92614b956040519485612c53565b81845260208284010111610a1f57614bb39160208085019101612b87565b90565b6040516306fdde0360e01b81526000916001600160a01b0316908281600481855afa9081614cd7575b50614be8575090565b6040516395d89b4160e01b81528281600481855afa9081614cbd575b50614c0d575090565b6040516318160ddd60e01b8152602090818082600481875afa9182614c94575b5050614c3857505090565b80602492604051938480926370a0823160e01b82523060048301525afa9182614c6b575b5050614c655790565b50600190565b813d8311614c8d575b614c7e8183612c53565b81010312613f64573880614c5c565b503d614c74565b813d8311614cb6575b614ca78183612c53565b81010312613ef1578138614c2d565b503d614c9d565b614cd0903d8086833e6109798183612c53565b5038614c04565b614cea903d8086833e6109798183612c53565b5038614bdf56fe02dd7bc7dec4dceedda775e58dd541e08a116c6c53815c0bd028192f7b626800cd5ed15c6e187e77e9aee88184c21f4f2182ab5827cb3b7e07fbedcd63f03300a2646970667358221220e9211e84b3563bae819007468af5a81132ed4897eb2f21c1ac29f0ee5eeabbd864736f6c63430008140033",
  "linkReferences": {},
  "deployedLinkReferences": {}
}