{
  "_format": "hh-sol-artifact-1",
  "contractName": "FPair",
  "sourceName": "src/contracts/FPair.sol",
  "abi": [
    {
      "inputs": [
        {
          "internalType": "address",
          "name": "router_",
          "type": "address"
        },
        {
          "internalType": "address",
          "name": "token0",
          "type": "address"
        },
        {
          "internalType": "address",
          "name": "token1",
          "type": "address"
        }
      ],
      "stateMutability": "nonpayable",
      "type": "constructor"
    },
    {
      "inputs": [],
      "name": "ReentrancyGuardReentrantCall",
      "type": "error"
    },
    {
      "inputs": [
        {
          "internalType": "address",
          "name": "token",
          "type": "address"
        }
      ],
      "name": "SafeERC20FailedOperation",
      "type": "error"
    },
    {
      "anonymous": false,
      "inputs": [
        {
          "indexed": false,
          "internalType": "uint256",
          "name": "reserve0",
          "type": "uint256"
        },
        {
          "indexed": false,
          "internalType": "uint256",
          "name": "reserve1",
          "type": "uint256"
        }
      ],
      "name": "Mint",
      "type": "event"
    },
    {
      "anonymous": false,
      "inputs": [
        {
          "indexed": false,
          "internalType": "uint256",
          "name": "amount0In",
          "type": "uint256"
        },
        {
          "indexed": false,
          "internalType": "uint256",
          "name": "amount0Out",
          "type": "uint256"
        },
        {
          "indexed": false,
          "internalType": "uint256",
          "name": "amount1In",
          "type": "uint256"
        },
        {
          "indexed": false,
          "internalType": "uint256",
          "name": "amount1Out",
          "type": "uint256"
        }
      ],
      "name": "Swap",
      "type": "event"
    },
    {
      "inputs": [
        {
          "internalType": "address",
          "name": "_user",
          "type": "address"
        },
        {
          "internalType": "address",
          "name": "_token",
          "type": "address"
        },
        {
          "internalType": "uint256",
          "name": "amount",
          "type": "uint256"
        }
      ],
      "name": "approval",
      "outputs": [
        {
          "internalType": "bool",
          "name": "",
          "type": "bool"
        }
      ],
      "stateMutability": "nonpayable",
      "type": "function"
    },
    {
      "inputs": [],
      "name": "assetBalance",
      "outputs": [
        {
          "internalType": "uint256",
          "name": "",
          "type": "uint256"
        }
      ],
      "stateMutability": "view",
      "type": "function"
    },
    {
      "inputs": [],
      "name": "balance",
      "outputs": [
        {
          "internalType": "uint256",
          "name": "",
          "type": "uint256"
        }
      ],
      "stateMutability": "view",
      "type": "function"
    },
    {
      "inputs": [],
      "name": "getReserves",
      "outputs": [
        {
          "internalType": "uint256",
          "name": "",
          "type": "uint256"
        },
        {
          "internalType": "uint256",
          "name": "",
          "type": "uint256"
        }
      ],
      "stateMutability": "view",
      "type": "function"
    },
    {
      "inputs": [],
      "name": "kLast",
      "outputs": [
        {
          "internalType": "uint256",
          "name": "",
          "type": "uint256"
        }
      ],
      "stateMutability": "view",
      "type": "function"
    },
    {
      "inputs": [
        {
          "internalType": "uint256",
          "name": "reserve0",
          "type": "uint256"
        },
        {
          "internalType": "uint256",
          "name": "reserve1",
          "type": "uint256"
        }
      ],
      "name": "mint",
      "outputs": [
        {
          "internalType": "bool",
          "name": "",
          "type": "bool"
        }
      ],
      "stateMutability": "nonpayable",
      "type": "function"
    },
    {
      "inputs": [],
      "name": "priceALast",
      "outputs": [
        {
          "internalType": "uint256",
          "name": "",
          "type": "uint256"
        }
      ],
      "stateMutability": "view",
      "type": "function"
    },
    {
      "inputs": [],
      "name": "priceBLast",
      "outputs": [
        {
          "internalType": "uint256",
          "name": "",
          "type": "uint256"
        }
      ],
      "stateMutability": "view",
      "type": "function"
    },
    {
      "inputs": [],
      "name": "router",
      "outputs": [
        {
          "internalType": "address",
          "name": "",
          "type": "address"
        }
      ],
      "stateMutability": "view",
      "type": "function"
    },
    {
      "inputs": [
        {
          "internalType": "uint256",
          "name": "amount0In",
          "type": "uint256"
        },
        {
          "internalType": "uint256",
          "name": "amount0Out",
          "type": "uint256"
        },
        {
          "internalType": "uint256",
          "name": "amount1In",
          "type": "uint256"
        },
        {
          "internalType": "uint256",
          "name": "amount1Out",
          "type": "uint256"
        }
      ],
      "name": "swap",
      "outputs": [
        {
          "internalType": "bool",
          "name": "",
          "type": "bool"
        }
      ],
      "stateMutability": "nonpayable",
      "type": "function"
    },
    {
      "inputs": [],
      "name": "tokenA",
      "outputs": [
        {
          "internalType": "address",
          "name": "",
          "type": "address"
        }
      ],
      "stateMutability": "view",
      "type": "function"
    },
    {
      "inputs": [],
      "name": "tokenB",
      "outputs": [
        {
          "internalType": "address",
          "name": "",
          "type": "address"
        }
      ],
      "stateMutability": "view",
      "type": "function"
    },
    {
      "inputs": [
        {
          "internalType": "address",
          "name": "recipient",
          "type": "address"
        },
        {
          "internalType": "uint256",
          "name": "amount",
          "type": "uint256"
        }
      ],
      "name": "transferAsset",
      "outputs": [],
      "stateMutability": "nonpayable",
      "type": "function"
    },
    {
      "inputs": [
        {
          "internalType": "address",
          "name": "recipient",
          "type": "address"
        },
        {
          "internalType": "uint256",
          "name": "amount",
          "type": "uint256"
        }
      ],
      "name": "transferTo",
      "outputs": [],
      "stateMutability": "nonpayable",
      "type": "function"
    }
  ],
  "bytecode": "0x6080346100cb57601f6109b038819003918201601f19168301916001600160401b038311848410176100d0578084926060946040528339810103126100cb57610047816100e6565b906100606040610059602084016100e6565b92016100e6565b6001600055916001600160a01b0390811691819061007f8415156100fa565b169261008c8415156100fa565b16916100998315156100fa565b60018060a01b031991826001541617600155816002541617600255600354161760035560405161086990816101478239f35b600080fd5b634e487b7160e01b600052604160045260246000fd5b51906001600160a01b03821682036100cb57565b1561010157565b60405162461bcd60e51b815260206004820152601f60248201527f5a65726f2061646472657373657320617265206e6f7420616c6c6f7765642e006044820152606490fdfe608060408181526004918236101561001657600080fd5b600092833560e01c9182630902f1ac14610609575081630e06dfc9146105e65781630fc63d10146105bd5781631b2ef1ca146104cb5781632ccb1b301461047b5781635673b02d146103b65781635c52a5f2146102a55781635c921eb9146102525781635c9d6938146102245781635f64b55b146101fb5781637464fc3d146101dc578163b69ef8a814610186578163c66f2455146100ea575063f887ea40146100bf57600080fd5b346100e657816003193601126100e65760015490516001600160a01b039091168152602090f35b5080fd5b9190503461017057826003193601126101705760035481516370a0823160e01b81523093810193909352602090839060249082906001600160a01b03165afa91821561017c578392610141575b6020838351908152f35b9091506020813d8211610174575b8161015c602093836106cf565b810103126101705760209250519038610137565b8280fd5b3d915061014f565b81513d85823e3d90fd5b9190503461017057826003193601126101705760025481516370a0823160e01b81523093810193909352602090839060249082906001600160a01b03165afa91821561017c578392610141576020838351908152f35b5050346100e657816003193601126100e6576020906006549051908152f35b5050346100e657816003193601126100e65760035490516001600160a01b039091168152602090f35b82843461024f578060031936011261024f5750610248602092600554905490610813565b9051908152f35b80fd5b5050346100e65736600319011261024f576102a261026e61062b565b6001546001600160a01b0391906102889083163314610646565b6102958282161515610721565b60243591600354166107d5565b80f35b5050346100e65760603660031901126100e6576102c061062b565b6001600160a01b0392906024358481169081900361017057846102ea602096600154163314610646565b82166102f7811515610721565b610302821515610721565b845163095ea7b360e01b8782018181526001600160a01b039590951660248301526044803581840152825290938790869061033e6064886106cf565b86519082875af185513d8261039a575b50501561035f575b86865160018152f35b6103909461038b928751928984015260248301526044820152604481526103858161069d565b8261076d565b61076d565b3880808080610356565b9091506103ae5750823b15155b388061034e565b6001146103a7565b82843461024f57608036600319011261024f57507f298c349c742327269dc8de6ad66687767310c948ea309df826f5bd103e19d2076080836020943590602435604435906064359261041360018060a01b03600154163314610646565b610427826104228784546106f1565b610714565b61043785610422866005546106f1565b916006548a51906104478261069d565b838252848d8301528b8201526060429101525560055542600755865193845287840152858301526060820152a15160018152f35b5050346100e65736600319011261024f576102a261049761062b565b6001546001600160a01b0391906104b19083163314610646565b6104be8282161515610721565b60243591600254166107d5565b82843461024f578160031936011261024f57823590602435906104f960018060a01b03600154163314610646565b600754610589578183029083820483148415171561057657509183917fcc9c58b575eabd3f6a1ee653e91fcea3ff546867ffc3782a3bbca1f9b6dbb8df938260209785516105468161069d565b828152848a8201528387820152606042910152558160055560065542600755825191825285820152a15160018152f35b634e487b7160e01b815260118652602490fd5b835162461bcd60e51b8152602081870152600e60248201526d105b1c9958591e481b5a5b9d195960921b6044820152606490fd5b5050346100e657816003193601126100e65760025490516001600160a01b039091168152602090f35b82843461024f578060031936011261024f57506102486020925460055490610813565b9150833461024f578060031936011261024f5750546005549082526020820152f35b600435906001600160a01b038216820361064157565b600080fd5b1561064d57565b60405162461bcd60e51b815260206004820152602260248201527f4f6e6c7920726f757465722063616e2063616c6c20746869732066756e63746960448201526137b760f11b6064820152608490fd5b6080810190811067ffffffffffffffff8211176106b957604052565b634e487b7160e01b600052604160045260246000fd5b90601f8019910116810190811067ffffffffffffffff8211176106b957604052565b919082018092116106fe57565b634e487b7160e01b600052601160045260246000fd5b919082039182116106fe57565b1561072857565b60405162461bcd60e51b815260206004820152601f60248201527f5a65726f2061646472657373657320617265206e6f7420616c6c6f7765642e006044820152606490fd5b906000602091828151910182855af1156107c9576000513d6107c057506001600160a01b0381163b155b61079e5750565b604051635274afe760e01b81526001600160a01b039091166004820152602490fd5b60011415610797565b6040513d6000823e3d90fd5b60405163a9059cbb60e01b60208201526001600160a01b039290921660248301526044808301939093529181526108119161038b6064836106cf565b565b811561081d570490565b634e487b7160e01b600052601260045260246000fdfea264697066735822122006b7405819b7ed0bcfcf44916a5679e9348370b10c53422c5a31efd986b731db64736f6c63430008140033",
  "linkReferences": {},
  "deployedLinkReferences": {}
}