{
  "_format": "hh-sol-artifact-1",
  "contractName": "ServiceNft",
  "sourceName": "src/contracts/contribution/ServiceNft.sol",
  "abi": [
    {
      "inputs": [],
      "stateMutability": "nonpayable",
      "type": "constructor"
    },
    {
      "inputs": [],
      "name": "ERC721EnumerableForbiddenBatchMint",
      "type": "error"
    },
    {
      "inputs": [
        {
          "internalType": "address",
          "name": "sender",
          "type": "address"
        },
        {
          "internalType": "uint256",
          "name": "tokenId",
          "type": "uint256"
        },
        {
          "internalType": "address",
          "name": "owner",
          "type": "address"
        }
      ],
      "name": "ERC721IncorrectOwner",
      "type": "error"
    },
    {
      "inputs": [
        {
          "internalType": "address",
          "name": "operator",
          "type": "address"
        },
        {
          "internalType": "uint256",
          "name": "tokenId",
          "type": "uint256"
        }
      ],
      "name": "ERC721InsufficientApproval",
      "type": "error"
    },
    {
      "inputs": [
        {
          "internalType": "address",
          "name": "approver",
          "type": "address"
        }
      ],
      "name": "ERC721InvalidApprover",
      "type": "error"
    },
    {
      "inputs": [
        {
          "internalType": "address",
          "name": "operator",
          "type": "address"
        }
      ],
      "name": "ERC721InvalidOperator",
      "type": "error"
    },
    {
      "inputs": [
        {
          "internalType": "address",
          "name": "owner",
          "type": "address"
        }
      ],
      "name": "ERC721InvalidOwner",
      "type": "error"
    },
    {
      "inputs": [
        {
          "internalType": "address",
          "name": "receiver",
          "type": "address"
        }
      ],
      "name": "ERC721InvalidReceiver",
      "type": "error"
    },
    {
      "inputs": [
        {
          "internalType": "address",
          "name": "sender",
          "type": "address"
        }
      ],
      "name": "ERC721InvalidSender",
      "type": "error"
    },
    {
      "inputs": [
        {
          "internalType": "uint256",
          "name": "tokenId",
          "type": "uint256"
        }
      ],
      "name": "ERC721NonexistentToken",
      "type": "error"
    },
    {
      "inputs": [
        {
          "internalType": "address",
          "name": "owner",
          "type": "address"
        },
        {
          "internalType": "uint256",
          "name": "index",
          "type": "uint256"
        }
      ],
      "name": "ERC721OutOfBoundsIndex",
      "type": "error"
    },
    {
      "inputs": [],
      "name": "InvalidInitialization",
      "type": "error"
    },
    {
      "inputs": [],
      "name": "NotInitializing",
      "type": "error"
    },
    {
      "inputs": [
        {
          "internalType": "address",
          "name": "owner",
          "type": "address"
        }
      ],
      "name": "OwnableInvalidOwner",
      "type": "error"
    },
    {
      "inputs": [
        {
          "internalType": "address",
          "name": "account",
          "type": "address"
        }
      ],
      "name": "OwnableUnauthorizedAccount",
      "type": "error"
    },
    {
      "anonymous": false,
      "inputs": [
        {
          "indexed": true,
          "internalType": "address",
          "name": "owner",
          "type": "address"
        },
        {
          "indexed": true,
          "internalType": "address",
          "name": "approved",
          "type": "address"
        },
        {
          "indexed": true,
          "internalType": "uint256",
          "name": "tokenId",
          "type": "uint256"
        }
      ],
      "name": "Approval",
      "type": "event"
    },
    {
      "anonymous": false,
      "inputs": [
        {
          "indexed": true,
          "internalType": "address",
          "name": "owner",
          "type": "address"
        },
        {
          "indexed": true,
          "internalType": "address",
          "name": "operator",
          "type": "address"
        },
        {
          "indexed": false,
          "internalType": "bool",
          "name": "approved",
          "type": "bool"
        }
      ],
      "name": "ApprovalForAll",
      "type": "event"
    },
    {
      "anonymous": false,
      "inputs": [
        {
          "indexed": false,
          "internalType": "uint256",
          "name": "_fromTokenId",
          "type": "uint256"
        },
        {
          "indexed": false,
          "internalType": "uint256",
          "name": "_toTokenId",
          "type": "uint256"
        }
      ],
      "name": "BatchMetadataUpdate",
      "type": "event"
    },
    {
      "anonymous": false,
      "inputs": [
        {
          "indexed": false,
          "internalType": "uint256",
          "name": "limelightId",
          "type": "uint256"
        },
        {
          "indexed": false,
          "internalType": "uint8",
          "name": "coreType",
          "type": "uint8"
        },
        {
          "indexed": false,
          "internalType": "uint256",
          "name": "serviceId",
          "type": "uint256"
        }
      ],
      "name": "CoreServiceUpdated",
      "type": "event"
    },
    {
      "anonymous": false,
      "inputs": [
        {
          "indexed": false,
          "internalType": "uint16",
          "name": "weight",
          "type": "uint16"
        }
      ],
      "name": "DatasetImpactUpdated",
      "type": "event"
    },
    {
      "anonymous": false,
      "inputs": [
        {
          "indexed": false,
          "internalType": "uint64",
          "name": "version",
          "type": "uint64"
        }
      ],
      "name": "Initialized",
      "type": "event"
    },
    {
      "anonymous": false,
      "inputs": [
        {
          "indexed": false,
          "internalType": "uint256",
          "name": "_tokenId",
          "type": "uint256"
        }
      ],
      "name": "MetadataUpdate",
      "type": "event"
    },
    {
      "anonymous": false,
      "inputs": [
        {
          "indexed": false,
          "internalType": "uint256",
          "name": "tokenId",
          "type": "uint256"
        },
        {
          "indexed": false,
          "internalType": "uint8",
          "name": "coreId",
          "type": "uint8"
        },
        {
          "indexed": false,
          "internalType": "uint256",
          "name": "maturity",
          "type": "uint256"
        },
        {
          "indexed": false,
          "internalType": "uint256",
          "name": "impact",
          "type": "uint256"
        },
        {
          "indexed": false,
          "internalType": "bool",
          "name": "isModel",
          "type": "bool"
        }
      ],
      "name": "NewService",
      "type": "event"
    },
    {
      "anonymous": false,
      "inputs": [
        {
          "indexed": true,
          "internalType": "address",
          "name": "previousOwner",
          "type": "address"
        },
        {
          "indexed": true,
          "internalType": "address",
          "name": "newOwner",
          "type": "address"
        }
      ],
      "name": "OwnershipTransferred",
      "type": "event"
    },
    {
      "anonymous": false,
      "inputs": [
        {
          "indexed": false,
          "internalType": "uint256",
          "name": "serviceId",
          "type": "uint256"
        },
        {
          "indexed": false,
          "internalType": "uint256",
          "name": "eloRating",
          "type": "uint256"
        },
        {
          "indexed": false,
          "internalType": "uint256",
          "name": "impact",
          "type": "uint256"
        }
      ],
      "name": "SetServiceScore",
      "type": "event"
    },
    {
      "anonymous": false,
      "inputs": [
        {
          "indexed": true,
          "internalType": "address",
          "name": "from",
          "type": "address"
        },
        {
          "indexed": true,
          "internalType": "address",
          "name": "to",
          "type": "address"
        },
        {
          "indexed": true,
          "internalType": "uint256",
          "name": "tokenId",
          "type": "uint256"
        }
      ],
      "name": "Transfer",
      "type": "event"
    },
    {
      "inputs": [
        {
          "internalType": "address",
          "name": "to",
          "type": "address"
        },
        {
          "internalType": "uint256",
          "name": "tokenId",
          "type": "uint256"
        }
      ],
      "name": "approve",
      "outputs": [],
      "stateMutability": "nonpayable",
      "type": "function"
    },
    {
      "inputs": [
        {
          "internalType": "address",
          "name": "owner",
          "type": "address"
        }
      ],
      "name": "balanceOf",
      "outputs": [
        {
          "internalType": "uint256",
          "name": "",
          "type": "uint256"
        }
      ],
      "stateMutability": "view",
      "type": "function"
    },
    {
      "inputs": [],
      "name": "contributionNft",
      "outputs": [
        {
          "internalType": "address",
          "name": "",
          "type": "address"
        }
      ],
      "stateMutability": "view",
      "type": "function"
    },
    {
      "inputs": [],
      "name": "datasetImpactWeight",
      "outputs": [
        {
          "internalType": "uint16",
          "name": "",
          "type": "uint16"
        }
      ],
      "stateMutability": "view",
      "type": "function"
    },
    {
      "inputs": [
        {
          "internalType": "uint256",
          "name": "tokenId",
          "type": "uint256"
        }
      ],
      "name": "getApproved",
      "outputs": [
        {
          "internalType": "address",
          "name": "",
          "type": "address"
        }
      ],
      "stateMutability": "view",
      "type": "function"
    },
    {
      "inputs": [
        {
          "internalType": "uint256",
          "name": "tokenId",
          "type": "uint256"
        }
      ],
      "name": "getCore",
      "outputs": [
        {
          "internalType": "uint8",
          "name": "",
          "type": "uint8"
        }
      ],
      "stateMutability": "view",
      "type": "function"
    },
    {
      "inputs": [
        {
          "internalType": "uint256",
          "name": "limelightId",
          "type": "uint256"
        },
        {
          "internalType": "uint8",
          "name": "coreType",
          "type": "uint8"
        },
        {
          "internalType": "uint256",
          "name": "index",
          "type": "uint256"
        }
      ],
      "name": "getCoreDatasetAt",
      "outputs": [
        {
          "internalType": "uint256",
          "name": "",
          "type": "uint256"
        }
      ],
      "stateMutability": "view",
      "type": "function"
    },
    {
      "inputs": [
        {
          "internalType": "uint256",
          "name": "limelightId",
          "type": "uint256"
        },
        {
          "internalType": "uint8",
          "name": "coreType",
          "type": "uint8"
        }
      ],
      "name": "getCoreDatasets",
      "outputs": [
        {
          "internalType": "uint256[]",
          "name": "",
          "type": "uint256[]"
        }
      ],
      "stateMutability": "view",
      "type": "function"
    },
    {
      "inputs": [
        {
          "internalType": "uint256",
          "name": "limelightId",
          "type": "uint256"
        },
        {
          "internalType": "uint8",
          "name": "coreType",
          "type": "uint8"
        }
      ],
      "name": "getCoreService",
      "outputs": [
        {
          "internalType": "uint256",
          "name": "",
          "type": "uint256"
        }
      ],
      "stateMutability": "view",
      "type": "function"
    },
    {
      "inputs": [
        {
          "internalType": "uint256",
          "name": "tokenId",
          "type": "uint256"
        }
      ],
      "name": "getImpact",
      "outputs": [
        {
          "internalType": "uint256",
          "name": "",
          "type": "uint256"
        }
      ],
      "stateMutability": "view",
      "type": "function"
    },
    {
      "inputs": [
        {
          "internalType": "uint256",
          "name": "tokenId",
          "type": "uint256"
        }
      ],
      "name": "getMaturity",
      "outputs": [
        {
          "internalType": "uint256",
          "name": "",
          "type": "uint256"
        }
      ],
      "stateMutability": "view",
      "type": "function"
    },
    {
      "inputs": [
        {
          "internalType": "address",
          "name": "initialArtistNft",
          "type": "address"
        },
        {
          "internalType": "address",
          "name": "initialContributionNft",
          "type": "address"
        },
        {
          "internalType": "uint16",
          "name": "initialDatasetImpactWeight",
          "type": "uint16"
        }
      ],
      "name": "initialize",
      "outputs": [],
      "stateMutability": "nonpayable",
      "type": "function"
    },
    {
      "inputs": [
        {
          "internalType": "address",
          "name": "owner",
          "type": "address"
        },
        {
          "internalType": "address",
          "name": "operator",
          "type": "address"
        }
      ],
      "name": "isApprovedForAll",
      "outputs": [
        {
          "internalType": "bool",
          "name": "",
          "type": "bool"
        }
      ],
      "stateMutability": "view",
      "type": "function"
    },
    {
      "inputs": [
        {
          "internalType": "uint256",
          "name": "limelightId",
          "type": "uint256"
        },
        {
          "internalType": "bytes32",
          "name": "descHash",
          "type": "bytes32"
        }
      ],
      "name": "mint",
      "outputs": [
        {
          "internalType": "uint256",
          "name": "",
          "type": "uint256"
        }
      ],
      "stateMutability": "nonpayable",
      "type": "function"
    },
    {
      "inputs": [],
      "name": "name",
      "outputs": [
        {
          "internalType": "string",
          "name": "",
          "type": "string"
        }
      ],
      "stateMutability": "view",
      "type": "function"
    },
    {
      "inputs": [],
      "name": "owner",
      "outputs": [
        {
          "internalType": "address",
          "name": "",
          "type": "address"
        }
      ],
      "stateMutability": "view",
      "type": "function"
    },
    {
      "inputs": [
        {
          "internalType": "uint256",
          "name": "tokenId",
          "type": "uint256"
        }
      ],
      "name": "ownerOf",
      "outputs": [
        {
          "internalType": "address",
          "name": "",
          "type": "address"
        }
      ],
      "stateMutability": "view",
      "type": "function"
    },
    {
      "inputs": [],
      "name": "personaNft",
      "outputs": [
        {
          "internalType": "address",
          "name": "",
          "type": "address"
        }
      ],
      "stateMutability": "view",
      "type": "function"
    },
    {
      "inputs": [],
      "name": "renounceOwnership",
      "outputs": [],
      "stateMutability": "nonpayable",
      "type": "function"
    },
    {
      "inputs": [
        {
          "internalType": "address",
          "name": "from",
          "type": "address"
        },
        {
          "internalType": "address",
          "name": "to",
          "type": "address"
        },
        {
          "internalType": "uint256",
          "name": "tokenId",
          "type": "uint256"
        }
      ],
      "name": "safeTransferFrom",
      "outputs": [],
      "stateMutability": "nonpayable",
      "type": "function"
    },
    {
      "inputs": [
        {
          "internalType": "address",
          "name": "from",
          "type": "address"
        },
        {
          "internalType": "address",
          "name": "to",
          "type": "address"
        },
        {
          "internalType": "uint256",
          "name": "tokenId",
          "type": "uint256"
        },
        {
          "internalType": "bytes",
          "name": "data",
          "type": "bytes"
        }
      ],
      "name": "safeTransferFrom",
      "outputs": [],
      "stateMutability": "nonpayable",
      "type": "function"
    },
    {
      "inputs": [
        {
          "internalType": "address",
          "name": "operator",
          "type": "address"
        },
        {
          "internalType": "bool",
          "name": "approved",
          "type": "bool"
        }
      ],
      "name": "setApprovalForAll",
      "outputs": [],
      "stateMutability": "nonpayable",
      "type": "function"
    },
    {
      "inputs": [
        {
          "internalType": "uint16",
          "name": "weight",
          "type": "uint16"
        }
      ],
      "name": "setDatasetImpactWeight",
      "outputs": [],
      "stateMutability": "nonpayable",
      "type": "function"
    },
    {
      "inputs": [
        {
          "internalType": "bytes4",
          "name": "interfaceId",
          "type": "bytes4"
        }
      ],
      "name": "supportsInterface",
      "outputs": [
        {
          "internalType": "bool",
          "name": "",
          "type": "bool"
        }
      ],
      "stateMutability": "view",
      "type": "function"
    },
    {
      "inputs": [],
      "name": "symbol",
      "outputs": [
        {
          "internalType": "string",
          "name": "",
          "type": "string"
        }
      ],
      "stateMutability": "view",
      "type": "function"
    },
    {
      "inputs": [
        {
          "internalType": "uint256",
          "name": "index",
          "type": "uint256"
        }
      ],
      "name": "tokenByIndex",
      "outputs": [
        {
          "internalType": "uint256",
          "name": "",
          "type": "uint256"
        }
      ],
      "stateMutability": "view",
      "type": "function"
    },
    {
      "inputs": [
        {
          "internalType": "address",
          "name": "owner",
          "type": "address"
        },
        {
          "internalType": "uint256",
          "name": "index",
          "type": "uint256"
        }
      ],
      "name": "tokenOfOwnerByIndex",
      "outputs": [
        {
          "internalType": "uint256",
          "name": "",
          "type": "uint256"
        }
      ],
      "stateMutability": "view",
      "type": "function"
    },
    {
      "inputs": [
        {
          "internalType": "uint256",
          "name": "tokenId",
          "type": "uint256"
        }
      ],
      "name": "tokenURI",
      "outputs": [
        {
          "internalType": "string",
          "name": "",
          "type": "string"
        }
      ],
      "stateMutability": "view",
      "type": "function"
    },
    {
      "inputs": [
        {
          "internalType": "uint256",
          "name": "limelightId",
          "type": "uint256"
        },
        {
          "internalType": "uint8",
          "name": "coreType",
          "type": "uint8"
        }
      ],
      "name": "totalCoreDatasets",
      "outputs": [
        {
          "internalType": "uint256",
          "name": "",
          "type": "uint256"
        }
      ],
      "stateMutability": "view",
      "type": "function"
    },
    {
      "inputs": [],
      "name": "totalSupply",
      "outputs": [
        {
          "internalType": "uint256",
          "name": "",
          "type": "uint256"
        }
      ],
      "stateMutability": "view",
      "type": "function"
    },
    {
      "inputs": [
        {
          "internalType": "address",
          "name": "from",
          "type": "address"
        },
        {
          "internalType": "address",
          "name": "to",
          "type": "address"
        },
        {
          "internalType": "uint256",
          "name": "tokenId",
          "type": "uint256"
        }
      ],
      "name": "transferFrom",
      "outputs": [],
      "stateMutability": "nonpayable",
      "type": "function"
    },
    {
      "inputs": [
        {
          "internalType": "address",
          "name": "newOwner",
          "type": "address"
        }
      ],
      "name": "transferOwnership",
      "outputs": [],
      "stateMutability": "nonpayable",
      "type": "function"
    },
    {
      "inputs": [
        {
          "internalType": "uint256",
          "name": "limelightId",
          "type": "uint256"
        },
        {
          "internalType": "uint256",
          "name": "proposalId",
          "type": "uint256"
        }
      ],
      "name": "updateImpact",
      "outputs": [],
      "stateMutability": "nonpayable",
      "type": "function"
    }
  ],
  "bytecode": "0x608080604052346100b8577ff0c57e16840df040f15088dc2f81fe391c3923bec73e23a9662efc9c229c6a009081549060ff8260401c166100a957506001600160401b036002600160401b031982821601610064575b6040516127a090816100be8239f35b6001600160401b031990911681179091556040519081527fc7f505b2f371ae2175ee4913f4499e1f2633a7b5936321eed1cdaeb6115181d290602090a1388080610055565b63f92ee8a960e01b8152600490fd5b600080fdfe608080604052600436101561001357600080fd5b60003560e01c90816301ffc9a714611ae85750806306fdde0314611a4557806307c1aa1a14611a1c578063081812fc146119d1578063095ea7b3146118ea5780631801fbe514610f9157806318160ddd14610f6657806323b872dd14610f4f5780632435986914610f0c578063252079b214610ed357806327f98c1114610e3e5780632f745c5914610dad5780633f98641c14610d6857806342842e0e14610d2e5780634f6ccce714610ccb5780635a03ac1e14610c555780636352211e14610c2557806370a0823114610bfa578063715018a614610b905780637ebef529146106535780637f1e7d411461061d57806387e2d553146105da5780638da5cb5b146105a457806395d89b41146104c2578063a22cb46514610422578063b88d4fde14610399578063c5f69f681461037a578063c87b56dd1461028c578063ce6d5e3814610267578063dcf75bef1461023e578063e6aed85714610208578063e985e9c5146101ba5763f2fde38b1461018a57600080fd5b346101b55760203660031901126101b5576101b36101a6611bcf565b6101ae611cce565b611d07565b005b600080fd5b346101b55760403660031901126101b5576101d3611bcf565b6101e46101de611be5565b91611d7b565b9060018060a01b0316600052602052602060ff604060002054166040519015158152f35b346101b55760203660031901126101b557600435610225816122ac565b5060005260056020526020604060002054604051908152f35b346101b55760003660031901126101b5576001546040516001600160a01b039091168152602090f35b346101b55760003660031901126101b557602061ffff60025460a01c16604051908152f35b346101b5576020806003193601126101b55760025460405163c87b56dd60e01b815260048035908201529190600090839060249082906001600160a01b03165afa91821561036e576000926102f5575b506102f1604051928284938452830190611baa565b0390f35b9091503d806000833e6103088183611c90565b81019082818303126101b55780519067ffffffffffffffff82116101b5570181601f820112156101b557805161033d81611cb2565b9261034b6040519485611c90565b8184528482840101116101b55761036791848085019101611b87565b90826102dc565b6040513d6000823e3d90fd5b346101b55760403660031901126101b5576101b3602435600435612416565b346101b55760803660031901126101b5576103b2611bcf565b6103ba611be5565b6064359167ffffffffffffffff83116101b557366023840112156101b5578260040135916103e783611cb2565b926103f56040519485611c90565b80845236602482870101116101b55760208160009260246101b39801838801378501015260443591612159565b346101b55760403660031901126101b55761043b611bcf565b602435908115158092036101b5576001600160a01b03169081156104a95761046233611d7b565b82600052602052604060002060ff1981541660ff83161790556040519081527f17307eab39ab6107e8899845ad3d59bd9653f200f220920489ca2b5937696c3160203392a3005b604051630b61174360e31b815260048101839052602490fd5b346101b55760003660031901126101b557604051600060008051602061272b83398151915280546104f281611e22565b8085529160019180831690811561057a5750600114610530575b6102f18561051c81870382611c90565b604051918291602083526020830190611baa565b6000908152925060008051602061268b8339815191525b82841061056257505050810160200161051c826102f161050c565b80546020858701810191909152909301928101610547565b8695506102f19693506020925061051c94915060ff191682840152151560051b820101929361050c565b346101b55760003660031901126101b5576000805160206126ab833981519152546040516001600160a01b039091168152602090f35b346101b55760403660031901126101b5576105f3611c30565b600435600052600660205260ff604060002091166000526020526020604060002054604051908152f35b346101b55760203660031901126101b55760043561063a816122ac565b5060005260046020526020604060002054604051908152f35b346101b55760603660031901126101b55761066c611bcf565b610674611be5565b61ffff60443516604435036101b55760008051602061270b833981519152549067ffffffffffffffff821680159081610b80575b6001149081610b76575b159081610b6d575b50610b5b57600167ffffffffffffffff1983161760008051602061270b8339815191525560ff8260401c1615610b2e575b604051926106f884611c74565b60078452665365727669636560c81b60208501526040519361071985611c74565b6002855261565360f01b6020860152610730612377565b610738612377565b80519067ffffffffffffffff82116109fa57819061076460008051602061266b83398151915254611e22565b601f8111610aad575b50602090601f8311600114610a1b57600092610a10575b50508160011b916000199060031b1c19161760008051602061266b833981519152555b835167ffffffffffffffff81116109fa576107d060008051602061272b83398151915254611e22565b601f8111610980575b506020601f82116001146108f157819060ff966000926108e6575b50508160011b916000199060031b1c19161760008051602061272b833981519152555b61081f612377565b610827612377565b61082f612377565b610837612377565b61084033611d07565b600180546001600160a01b0319166001600160a01b03928316179055600280546001600160b01b031916929091169190911760443560a01b61ffff60a01b1617905560401c161561088d57005b68ff00000000000000001960008051602061270b833981519152541660008051602061270b833981519152557fc7f505b2f371ae2175ee4913f4499e1f2633a7b5936321eed1cdaeb6115181d2602060405160018152a1005b0151905086806107f4565b601f1982169560008051602061272b83398151915260005260008051602061268b8339815191529660005b81811061096857509160ff979184600195941061094f575b505050811b0160008051602061272b83398151915255610817565b015160001960f88460031b161c19169055868080610934565b8383015189556001909801976020938401930161091c565b60008051602061272b833981519152600052601f820160051c60008051602061268b8339815191520190602083106109e4575b601f0160051c60008051602061268b83398151915201905b8181106109d857506107d9565b600081556001016109cb565b60008051602061268b83398151915291506109b3565b634e487b7160e01b600052604160045260246000fd5b015190508680610784565b925060008051602061266b83398151915260005260008051602061274b833981519152906000935b601f1984168510610a92576001945083601f19811610610a79575b505050811b0160008051602061266b833981519152556107a7565b015160001960f88460031b161c19169055868080610a5e565b81810151835560209485019460019093019290910190610a43565b90915060008051602061266b833981519152600052601f830160051c60008051602061274b8339815191520160208410610b19575b908392915b601f820160051c60008051602061274b833981519152018110610b0a575061076d565b60008155849350600101610ae7565b5060008051602061274b833981519152610ae2565b68ffffffffffffffffff198216680100000000000000011760008051602061270b833981519152556106eb565b60405163f92ee8a960e01b8152600490fd5b905015846106ba565b303b1591506106b2565b604084901c60ff161591506106a8565b346101b55760003660031901126101b557610ba9611cce565b6000805160206126ab83398151915280546001600160a01b031981169091556000906001600160a01b03167f8be0079c531659141344cd1fd0a4f28419497f9722a3daafe3b4186f6b6457e08280a3005b346101b55760203660031901126101b5576020610c1d610c18611bcf565b611ded565b604051908152f35b346101b55760203660031901126101b5576020610c436004356122ac565b6040516001600160a01b039091168152f35b346101b55760203660031901126101b55760043561ffff8116908181036101b5577f96bb86fe6b0f03915e6cdc0b513be478aa7b91d0330a1030518bd0c4dd0d116a91602091610ca3611cce565b6002805461ffff60a01b191660a09290921b61ffff60a01b16919091179055604051908152a1005b346101b55760203660031901126101b5576004356000805160206126cb83398151915254811015610d0f57610d01602091612306565b90546040519160031b1c8152f35b6044906040519063295f44f760e21b8252600060048301526024820152fd5b346101b557610d3c36611bfb565b60405191602083019383851067ffffffffffffffff8611176109fa576101b39460405260008452612159565b346101b55760603660031901126101b557610d81611c30565b600435600052600760205260ff604060002091166000526020526020610d01604435604060002061235f565b346101b55760403660031901126101b557610dc6611bcf565b60243590610dd381611ded565b821015610e135760018060a01b031660005260008051602061264b8339815191526020526040600020906000526020526020604060002054604051908152f35b60405163295f44f760e21b81526001600160a01b039190911660048201526024810191909152604490fd5b346101b55760403660031901126101b557610e57611c30565b6004356000526020906007825260ff604060002091166000528152604060002090604051808383829554938481520190600052836000209260005b85828210610ebd57505050610ea992500383611c90565b6102f1604051928284938452830190611c40565b8554845260019586019588955093019201610e92565b346101b55760203660031901126101b557600435610ef0816122ac565b506000526003602052602060ff60406000205416604051908152f35b346101b55760403660031901126101b557610f25611c30565b600435600052600760205260ff604060002091166000526020526020604060002054604051908152f35b346101b5576101b3610f6036611bfb565b91611e5c565b346101b55760003660031901126101b55760206000805160206126cb83398151915254604051908152f35b346101b55760403660031901126101b557600154604051630c0e287560e11b8152600480359082015290600090829060249082906001600160a01b03165afa90811561036e576000916117e0575b5080516001600160a01b0316330361179b5760018060a01b0381511660405190631801fbe560e01b6020830152600435602483015260243560448301526044825281608081011067ffffffffffffffff6080840111176109fa576080820160405261104c60808301611c74565b6001608083015260203660a084013730611068608084016123c8565b5260405161107581611c74565b6001815260203681830137600061108b826123c8565b5260405161109881611c74565b6001815260005b602081106117885750836110b2826123c8565b526110bc816123c8565b5060405193849263316415f960e21b84526084840160806004860152608083015180915260a060a4860193019060005b8181106117665750505083820360031901602485015261110c9190611c40565b600319838203016044840152815180825260208201916020808360051b8301019401926000915b8383106117355760243560648801528987602081808a03818d5afa90811561036e57600091611703575b5060608201516001600160a01b031680156116ea57816000527f80bb2b638cc20bc4d0a60d66940f3ab4a00c1d7b313497ca82fb0b4ab007930290816020528060018060a01b03604060002054168015801594856116ab575b6111bf84611db4565b60018154019055866000526020526040600020836bffffffffffffffffffffffff60a01b8254161790558583837fddf252ad1be2c89b69c2b068fc378daa952ba7f163c4a11628f55a4df523b3ef600080a41561160b576000805160206126cb83398151915254856000527f645e039705490088daad89bae25049a34f4a9072d398537b1ab2425f24cbed0360205260406000205561125d856123d5565b03611595575b5061157c576002546040516312903cd960e11b81526004810183905290602090829060249082906001600160a01b03165afa90811561036e5760009161153b575b50602492602091836000526003835260ff6040600020911660ff1982541617905560018060a01b0390511660405193848092637f1e7d4160e01b82528560048301525afa801561036e57600090611508575b60249250816000526004602052604060002055602060018060a01b036002541660405193848092638209c69960e01b82528560048301525afa91821561036e576000926114cb575b508115611438577fa9125a360b8b166ef7546b869159e4f0a4309857e23d58bf49d142ff287e226960a060209383600052600385527f45c6adbf8d3cf8bc3057920eb2f540e959a3ef2be5ed2eed7d2e180c39d5c6df606060ff6040600020541660405190600435825288820152866040820152a16113bf84600435612416565b600435600052600685526040600020846000526003865260ff604060002054166000528552836040600020555b836000526003855260ff604060002054169060048652604060002054600587526040600020549060405193878552888501526040840152606083015215156080820152a1604051908152f35b6004356000526007602052604060002081600052600360205260ff6040600020541660005260205260406000208054600160401b8110156109fa576020936114c6846114ad847fa9125a360b8b166ef7546b869159e4f0a4309857e23d58bf49d142ff287e226996600160a09701815561235f565b90919082549060031b91821b91600019901b1916179055565b6113ec565b9091506020813d602011611500575b816114e760209383611c90565b810103126101b5575180151581036101b557908261133e565b3d91506114da565b506020823d602011611533575b8161152260209383611c90565b810103126101b557602491516112f6565b3d9150611515565b90506020813d602011611574575b8161155660209383611c90565b810103126101b55760249261156c6020926123ba565b9150926112a4565b3d9150611549565b6040516339e3563760e11b815260006004820152602490fd5b61159e81611ded565b6000198101919082116115f55760005260008051602061264b833981519152602052604060002081600052602052826040600020558260005260008051602061262b83398151915260205260406000205583611263565b634e487b7160e01b600052601160045260246000fd5b80821461125d5761161b81611ded565b8560005260008051602061262b8339815191529081602052604060002054918360005260008051602061264b83398151915260205260406000209282810361167f575b5087600052602052600060408120556000526020526000604081205561125d565b82600052836020526040600020548160005280604060002055600052816020526040600020558961165e565b60008781526000805160206126eb8339815191526020526040902080546001600160a01b03191690556116dd83611db4565b80546000190190556111b6565b604051633250574960e11b815260006004820152602490fd5b90506020813d60201161172d575b8161171e60209383611c90565b810103126101b557518261115d565b3d9150611711565b919395509193602080611754600193601f198682030187528951611baa565b97019301930190928795949293611133565b82516001600160a01b03168552889650602094850194909201916001016110ec565b606060208284018101919091520161109f565b60405162461bcd60e51b815260206004820152601b60248201527f43616c6c6572206973206e6f74204c494d454c494748542044414f00000000006044820152606490fd5b90503d806000833e6117f28183611c90565b810190602080828403126101b557815167ffffffffffffffff928382116101b557019260a0848203126101b5576040519360a08501858110858211176109fa5760405261183e816123a6565b855261184b8382016123a6565b8386015261185b604082016123a6565b604086015261186c606082016123a6565b60608601526080810151908482116101b5570181601f820112156101b55780519384116109fa578360051b90604051946118a885840187611c90565b855283808601928201019283116101b5578301905b8282106118d35750505050608082015281610fdf565b8380916118df846123ba565b8152019101906118bd565b346101b55760403660031901126101b557611903611bcf565b60243561190f816122ac565b331515806119be575b8061199e575b611986576001600160a01b039283169282918491167f8c5be1e5ebec7d5bd14f71427d1e84f3dd0314c0f7b2291e5b200ac8c7c3b925600080a460009081526000805160206126eb8339815191526020526040902080546001600160a01b0319169091179055005b60405163a9fbf51f60e01b8152336004820152602490fd5b506119a881611d7b565b3360005260205260ff604060002054161561191e565b506001600160a01b038116331415611918565b346101b55760203660031901126101b5576004356119ee816122ac565b506000526000805160206126eb833981519152602052602060018060a01b0360406000205416604051908152f35b346101b55760003660031901126101b5576002546040516001600160a01b039091168152602090f35b346101b55760003660031901126101b557604051600060008051602061266b8339815191528054611a7581611e22565b8085529160019180831690811561057a5750600114611a9e576102f18561051c81870382611c90565b6000908152925060008051602061274b8339815191525b828410611ad057505050810160200161051c826102f161050c565b80546020858701810191909152909301928101611ab5565b346101b55760203660031901126101b5576004359063ffffffff60e01b82168092036101b557602091632483248360e11b8114908115611b2a575b5015158152f35b63780e9d6360e01b811491508115611b44575b5083611b23565b6380ac58cd60e01b811491508115611b76575b8115611b65575b5083611b3d565b6301ffc9a760e01b14905083611b5e565b635b5e139f60e01b81149150611b57565b60005b838110611b9a5750506000910152565b8181015183820152602001611b8a565b90602091611bc381518092818552858086019101611b87565b601f01601f1916010190565b600435906001600160a01b03821682036101b557565b602435906001600160a01b03821682036101b557565b60609060031901126101b5576001600160a01b039060043582811681036101b5579160243590811681036101b5579060443590565b6024359060ff821682036101b557565b90815180825260208080930193019160005b828110611c60575050505090565b835185529381019392810192600101611c52565b6040810190811067ffffffffffffffff8211176109fa57604052565b90601f8019910116810190811067ffffffffffffffff8211176109fa57604052565b67ffffffffffffffff81116109fa57601f01601f191660200190565b6000805160206126ab833981519152546001600160a01b03163303611cef57565b60405163118cdaa760e01b8152336004820152602490fd5b6001600160a01b03908116908115611d62576000805160206126ab83398151915280546001600160a01b031981168417909155167f8be0079c531659141344cd1fd0a4f28419497f9722a3daafe3b4186f6b6457e0600080a3565b604051631e4fbdf760e01b815260006004820152602490fd5b6001600160a01b031660009081527f80bb2b638cc20bc4d0a60d66940f3ab4a00c1d7b313497ca82fb0b4ab00793056020526040902090565b6001600160a01b031660009081527f80bb2b638cc20bc4d0a60d66940f3ab4a00c1d7b313497ca82fb0b4ab00793036020526040902090565b6001600160a01b03811615611e0957611e0590611db4565b5490565b6040516322718ad960e21b815260006004820152602490fd5b90600182811c92168015611e52575b6020831014611e3c57565b634e487b7160e01b600052602260045260246000fd5b91607f1691611e31565b90916001600160a01b038084169283156116ea576000938385527f80bb2b638cc20bc4d0a60d66940f3ab4a00c1d7b313497ca82fb0b4ab007930294602086815260409785898420541697331515806120bf575b508815908115612080575b611ec483611db4565b80546001019055888552835289842080546001600160a01b0319168617905587858a7fddf252ad1be2c89b69c2b068fc378daa952ba7f163c4a11628f55a4df523b3ef8780a415611ffa576000805160206126cb833981519152548784527f645e039705490088daad89bae25049a34f4a9072d398537b1ab2425f24cbed03835289842055611f52876123d5565b838803611f8e575b505050501692838303611f6d5750505050565b6064945051926364283d7b60e01b8452600484015260248301526044820152fd5b611f9790611ded565b600019810193908411611fe657829160008051602061262b833981519152918a945260008051602061264b83398151915281528383208584528152878484205587835252205538808080611f5a565b634e487b7160e01b83526011600452602483fd5b878414611f525761200a88611ded565b87845260008051602061262b833981519152908184528a852054918a865260008051602061264b83398151915285528b86209282810361205e575b508986528452848b812055845282528289812055611f52565b8287528386528c808820548091838a5289205587528186528c87205538612045565b60008981526000805160206126eb8339815191526020526040902080546001600160a01b03191690556120b28a611db4565b8054600019019055611ebb565b8061210c575b156120d05738611eb0565b89888a6120ed576024915190637e27328960e01b82526004820152fd5b905163177e802f60e01b81523360048201526024810191909152604490fd5b50338914801561213e575b806120c557508784526000805160206126eb833981519152835233878b86205416146120c5565b5061214889611d7b565b338552835260ff8a85205416612117565b612164838383611e5c565b813b612171575b50505050565b604051630a85bd0160e11b8082523360048301526001600160a01b039283166024830152604482019490945260806064820152602095929091169390929083906121bf906084830190611baa565b039285816000958187895af1849181612268575b50612233575050503d60001461222b573d6121ed81611cb2565b906121fb6040519283611c90565b81528091843d92013e5b8051928361222657604051633250574960e11b815260048101849052602490fd5b019050fd5b506060612205565b919450915063ffffffff60e01b160361225057503880808061216b565b60249060405190633250574960e11b82526004820152fd5b9091508681813d83116122a5575b6122808183611c90565b810103126122a157516001600160e01b0319811681036122a15790386121d3565b8480fd5b503d612276565b60008181527f80bb2b638cc20bc4d0a60d66940f3ab4a00c1d7b313497ca82fb0b4ab007930260205260409020546001600160a01b03169081156122ee575090565b60249060405190637e27328960e01b82526004820152fd5b6000805160206126cb8339815191528054821015612349576000527fa42f15e5d656f8155fd7419d740a6073999f19cd6e061449ce4a257150545bf20190600090565b634e487b7160e01b600052603260045260246000fd5b80548210156123495760005260206000200190600090565b60ff60008051602061270b8339815191525460401c161561239457565b604051631afcd79f60e31b8152600490fd5b51906001600160a01b03821682036101b557565b519060ff821682036101b557565b8051156123495760200190565b6000805160206126cb83398151915290815491600160401b8310156109fa57826114ad91600161240795019055612306565b565b919082039182116115f557565b919060009283526020906006825260408085208286526003845260ff828720541686528352808520548286526004845281862054818752828720541060001461262157612473602491848852838820549088528388205490612409565b60025483516360a58cbd60e11b81526004810186905292869184919082906001600160a01b03165afa9182156126175787926125e4575b5083875260058552808388205581612519575b5050806125149186847fd4dd630f340a33010ac6e15bb9540a676dbeaf5ad85e43fa2f3f856ac40a193997985260048652600582822054965220549051938493846040919493926060820195825260208201520152565b0390a1565b61ffff60025460a01c168082029082820414821517156125d057967fd4dd630f340a33010ac6e15bb9540a676dbeaf5ad85e43fa2f3f856ac40a193984936125786125149694612710849b9c049083865260058b528187872055612409565b87845260058952848420556004885283832054818452848420558683528383205490808452600589526125c4858520548651938493846040919493926060820195825260208201520152565b0390a1969550916124bd565b634e487b7160e01b88526011600452602488fd5b9091508481813d8311612610575b6125fc8183611c90565b8101031261260c575190386124aa565b8680fd5b503d6125f2565b83513d89823e3d90fd5b5060248561247356fe645e039705490088daad89bae25049a34f4a9072d398537b1ab2425f24cbed01645e039705490088daad89bae25049a34f4a9072d398537b1ab2425f24cbed0080bb2b638cc20bc4d0a60d66940f3ab4a00c1d7b313497ca82fb0b4ab0079300f4bad0a69248f59680a4f2b3000328cec71a413447c96781cfe5996daa8c456e9016d09d72d40fdae2fd8ceac6b6234c7706214fd39c1cd1e609a0528c199300645e039705490088daad89bae25049a34f4a9072d398537b1ab2425f24cbed0280bb2b638cc20bc4d0a60d66940f3ab4a00c1d7b313497ca82fb0b4ab0079304f0c57e16840df040f15088dc2f81fe391c3923bec73e23a9662efc9c229c6a0080bb2b638cc20bc4d0a60d66940f3ab4a00c1d7b313497ca82fb0b4ab007930137c58c799b6609234b945e882912ee9ad34948a1dfaa20a97485e1a7752bbf81a2646970667358221220a9ccb56bc6dc912e8612d65cea1808332e24c1beebedfa7b135b095b0ff5468164736f6c63430008140033",
  "linkReferences": {},
  "deployedLinkReferences": {}
}