{
  "_format": "hh-sol-artifact-1",
  "contractName": "ArtistNft",
  "sourceName": "src/contracts/limelightPersona/ArtistNft.sol",
  "abi": [
    {
      "inputs": [],
      "stateMutability": "nonpayable",
      "type": "constructor"
    },
    {
      "inputs": [],
      "name": "AccessControlBadConfirmation",
      "type": "error"
    },
    {
      "inputs": [
        {
          "internalType": "address",
          "name": "account",
          "type": "address"
        },
        {
          "internalType": "bytes32",
          "name": "neededRole",
          "type": "bytes32"
        }
      ],
      "name": "AccessControlUnauthorizedAccount",
      "type": "error"
    },
    {
      "inputs": [
        {
          "internalType": "address",
          "name": "sender",
          "type": "address"
        },
        {
          "internalType": "uint256",
          "name": "tokenId",
          "type": "uint256"
        },
        {
          "internalType": "address",
          "name": "owner",
          "type": "address"
        }
      ],
      "name": "ERC721IncorrectOwner",
      "type": "error"
    },
    {
      "inputs": [
        {
          "internalType": "address",
          "name": "operator",
          "type": "address"
        },
        {
          "internalType": "uint256",
          "name": "tokenId",
          "type": "uint256"
        }
      ],
      "name": "ERC721InsufficientApproval",
      "type": "error"
    },
    {
      "inputs": [
        {
          "internalType": "address",
          "name": "approver",
          "type": "address"
        }
      ],
      "name": "ERC721InvalidApprover",
      "type": "error"
    },
    {
      "inputs": [
        {
          "internalType": "address",
          "name": "operator",
          "type": "address"
        }
      ],
      "name": "ERC721InvalidOperator",
      "type": "error"
    },
    {
      "inputs": [
        {
          "internalType": "address",
          "name": "owner",
          "type": "address"
        }
      ],
      "name": "ERC721InvalidOwner",
      "type": "error"
    },
    {
      "inputs": [
        {
          "internalType": "address",
          "name": "receiver",
          "type": "address"
        }
      ],
      "name": "ERC721InvalidReceiver",
      "type": "error"
    },
    {
      "inputs": [
        {
          "internalType": "address",
          "name": "sender",
          "type": "address"
        }
      ],
      "name": "ERC721InvalidSender",
      "type": "error"
    },
    {
      "inputs": [
        {
          "internalType": "uint256",
          "name": "tokenId",
          "type": "uint256"
        }
      ],
      "name": "ERC721NonexistentToken",
      "type": "error"
    },
    {
      "inputs": [],
      "name": "InvalidInitialization",
      "type": "error"
    },
    {
      "inputs": [],
      "name": "NotInitializing",
      "type": "error"
    },
    {
      "anonymous": false,
      "inputs": [
        {
          "indexed": true,
          "internalType": "address",
          "name": "owner",
          "type": "address"
        },
        {
          "indexed": true,
          "internalType": "address",
          "name": "approved",
          "type": "address"
        },
        {
          "indexed": true,
          "internalType": "uint256",
          "name": "tokenId",
          "type": "uint256"
        }
      ],
      "name": "Approval",
      "type": "event"
    },
    {
      "anonymous": false,
      "inputs": [
        {
          "indexed": true,
          "internalType": "address",
          "name": "owner",
          "type": "address"
        },
        {
          "indexed": true,
          "internalType": "address",
          "name": "operator",
          "type": "address"
        },
        {
          "indexed": false,
          "internalType": "bool",
          "name": "approved",
          "type": "bool"
        }
      ],
      "name": "ApprovalForAll",
      "type": "event"
    },
    {
      "anonymous": false,
      "inputs": [
        {
          "indexed": true,
          "internalType": "uint256",
          "name": "limelightId",
          "type": "uint256"
        },
        {
          "indexed": false,
          "internalType": "bool",
          "name": "value",
          "type": "bool"
        }
      ],
      "name": "ArtistBlacklisted",
      "type": "event"
    },
    {
      "anonymous": false,
      "inputs": [
        {
          "indexed": false,
          "internalType": "uint256",
          "name": "_fromTokenId",
          "type": "uint256"
        },
        {
          "indexed": false,
          "internalType": "uint256",
          "name": "_toTokenId",
          "type": "uint256"
        }
      ],
      "name": "BatchMetadataUpdate",
      "type": "event"
    },
    {
      "anonymous": false,
      "inputs": [
        {
          "indexed": false,
          "internalType": "uint256",
          "name": "limelightId",
          "type": "uint256"
        },
        {
          "indexed": false,
          "internalType": "uint8[]",
          "name": "coreTypes",
          "type": "uint8[]"
        }
      ],
      "name": "CoresUpdated",
      "type": "event"
    },
    {
      "anonymous": false,
      "inputs": [
        {
          "indexed": false,
          "internalType": "uint64",
          "name": "version",
          "type": "uint64"
        }
      ],
      "name": "Initialized",
      "type": "event"
    },
    {
      "anonymous": false,
      "inputs": [
        {
          "indexed": false,
          "internalType": "uint256",
          "name": "_tokenId",
          "type": "uint256"
        }
      ],
      "name": "MetadataUpdate",
      "type": "event"
    },
    {
      "anonymous": false,
      "inputs": [
        {
          "indexed": false,
          "internalType": "uint8",
          "name": "coreType",
          "type": "uint8"
        },
        {
          "indexed": false,
          "internalType": "string",
          "name": "label",
          "type": "string"
        }
      ],
      "name": "NewCoreType",
      "type": "event"
    },
    {
      "anonymous": false,
      "inputs": [
        {
          "indexed": false,
          "internalType": "uint256",
          "name": "limelightId",
          "type": "uint256"
        },
        {
          "indexed": false,
          "internalType": "address",
          "name": "account",
          "type": "address"
        }
      ],
      "name": "NewValidator",
      "type": "event"
    },
    {
      "anonymous": false,
      "inputs": [
        {
          "indexed": true,
          "internalType": "bytes32",
          "name": "role",
          "type": "bytes32"
        },
        {
          "indexed": true,
          "internalType": "bytes32",
          "name": "previousAdminRole",
          "type": "bytes32"
        },
        {
          "indexed": true,
          "internalType": "bytes32",
          "name": "newAdminRole",
          "type": "bytes32"
        }
      ],
      "name": "RoleAdminChanged",
      "type": "event"
    },
    {
      "anonymous": false,
      "inputs": [
        {
          "indexed": true,
          "internalType": "bytes32",
          "name": "role",
          "type": "bytes32"
        },
        {
          "indexed": true,
          "internalType": "address",
          "name": "account",
          "type": "address"
        },
        {
          "indexed": true,
          "internalType": "address",
          "name": "sender",
          "type": "address"
        }
      ],
      "name": "RoleGranted",
      "type": "event"
    },
    {
      "anonymous": false,
      "inputs": [
        {
          "indexed": true,
          "internalType": "bytes32",
          "name": "role",
          "type": "bytes32"
        },
        {
          "indexed": true,
          "internalType": "address",
          "name": "account",
          "type": "address"
        },
        {
          "indexed": true,
          "internalType": "address",
          "name": "sender",
          "type": "address"
        }
      ],
      "name": "RoleRevoked",
      "type": "event"
    },
    {
      "anonymous": false,
      "inputs": [
        {
          "indexed": true,
          "internalType": "address",
          "name": "from",
          "type": "address"
        },
        {
          "indexed": true,
          "internalType": "address",
          "name": "to",
          "type": "address"
        },
        {
          "indexed": true,
          "internalType": "uint256",
          "name": "tokenId",
          "type": "uint256"
        }
      ],
      "name": "Transfer",
      "type": "event"
    },
    {
      "inputs": [],
      "name": "ADMIN_ROLE",
      "outputs": [
        {
          "internalType": "bytes32",
          "name": "",
          "type": "bytes32"
        }
      ],
      "stateMutability": "view",
      "type": "function"
    },
    {
      "inputs": [],
      "name": "DEFAULT_ADMIN_ROLE",
      "outputs": [
        {
          "internalType": "bytes32",
          "name": "",
          "type": "bytes32"
        }
      ],
      "stateMutability": "view",
      "type": "function"
    },
    {
      "inputs": [],
      "name": "MINTER_ROLE",
      "outputs": [
        {
          "internalType": "bytes32",
          "name": "",
          "type": "bytes32"
        }
      ],
      "stateMutability": "view",
      "type": "function"
    },
    {
      "inputs": [],
      "name": "VALIDATOR_ADMIN_ROLE",
      "outputs": [
        {
          "internalType": "bytes32",
          "name": "",
          "type": "bytes32"
        }
      ],
      "stateMutability": "view",
      "type": "function"
    },
    {
      "inputs": [
        {
          "internalType": "string",
          "name": "label",
          "type": "string"
        }
      ],
      "name": "addCoreType",
      "outputs": [],
      "stateMutability": "nonpayable",
      "type": "function"
    },
    {
      "inputs": [
        {
          "internalType": "uint256",
          "name": "limelightId",
          "type": "uint256"
        },
        {
          "internalType": "address",
          "name": "validator",
          "type": "address"
        }
      ],
      "name": "addValidator",
      "outputs": [],
      "stateMutability": "nonpayable",
      "type": "function"
    },
    {
      "inputs": [
        {
          "internalType": "address",
          "name": "to",
          "type": "address"
        },
        {
          "internalType": "uint256",
          "name": "tokenId",
          "type": "uint256"
        }
      ],
      "name": "approve",
      "outputs": [],
      "stateMutability": "nonpayable",
      "type": "function"
    },
    {
      "inputs": [
        {
          "internalType": "address",
          "name": "owner",
          "type": "address"
        }
      ],
      "name": "balanceOf",
      "outputs": [
        {
          "internalType": "uint256",
          "name": "",
          "type": "uint256"
        }
      ],
      "stateMutability": "view",
      "type": "function"
    },
    {
      "inputs": [
        {
          "internalType": "uint8",
          "name": "",
          "type": "uint8"
        }
      ],
      "name": "coreTypes",
      "outputs": [
        {
          "internalType": "string",
          "name": "",
          "type": "string"
        }
      ],
      "stateMutability": "view",
      "type": "function"
    },
    {
      "inputs": [
        {
          "internalType": "uint256",
          "name": "limelightId",
          "type": "uint256"
        }
      ],
      "name": "getAllServices",
      "outputs": [
        {
          "internalType": "uint256[]",
          "name": "",
          "type": "uint256[]"
        }
      ],
      "stateMutability": "view",
      "type": "function"
    },
    {
      "inputs": [
        {
          "internalType": "uint256",
          "name": "tokenId",
          "type": "uint256"
        }
      ],
      "name": "getApproved",
      "outputs": [
        {
          "internalType": "address",
          "name": "",
          "type": "address"
        }
      ],
      "stateMutability": "view",
      "type": "function"
    },
    {
      "inputs": [],
      "name": "getContributionNft",
      "outputs": [
        {
          "internalType": "address",
          "name": "",
          "type": "address"
        }
      ],
      "stateMutability": "view",
      "type": "function"
    },
    {
      "inputs": [],
      "name": "getEloCalculator",
      "outputs": [
        {
          "internalType": "address",
          "name": "",
          "type": "address"
        }
      ],
      "stateMutability": "view",
      "type": "function"
    },
    {
      "inputs": [
        {
          "internalType": "uint256",
          "name": "limelightId",
          "type": "uint256"
        },
        {
          "internalType": "address",
          "name": "validator",
          "type": "address"
        },
        {
          "internalType": "uint256",
          "name": "timepoint",
          "type": "uint256"
        }
      ],
      "name": "getPastValidatorScore",
      "outputs": [
        {
          "internalType": "uint256",
          "name": "",
          "type": "uint256"
        }
      ],
      "stateMutability": "view",
      "type": "function"
    },
    {
      "inputs": [
        {
          "internalType": "bytes32",
          "name": "role",
          "type": "bytes32"
        }
      ],
      "name": "getRoleAdmin",
      "outputs": [
        {
          "internalType": "bytes32",
          "name": "",
          "type": "bytes32"
        }
      ],
      "stateMutability": "view",
      "type": "function"
    },
    {
      "inputs": [],
      "name": "getServiceNft",
      "outputs": [
        {
          "internalType": "address",
          "name": "",
          "type": "address"
        }
      ],
      "stateMutability": "view",
      "type": "function"
    },
    {
      "inputs": [
        {
          "internalType": "uint256",
          "name": "limelightId",
          "type": "uint256"
        },
        {
          "internalType": "address",
          "name": "validator",
          "type": "address"
        }
      ],
      "name": "getVotes",
      "outputs": [
        {
          "internalType": "uint256",
          "name": "",
          "type": "uint256"
        }
      ],
      "stateMutability": "view",
      "type": "function"
    },
    {
      "inputs": [
        {
          "internalType": "bytes32",
          "name": "role",
          "type": "bytes32"
        },
        {
          "internalType": "address",
          "name": "account",
          "type": "address"
        }
      ],
      "name": "grantRole",
      "outputs": [],
      "stateMutability": "nonpayable",
      "type": "function"
    },
    {
      "inputs": [
        {
          "internalType": "bytes32",
          "name": "role",
          "type": "bytes32"
        },
        {
          "internalType": "address",
          "name": "account",
          "type": "address"
        }
      ],
      "name": "hasRole",
      "outputs": [
        {
          "internalType": "bool",
          "name": "",
          "type": "bool"
        }
      ],
      "stateMutability": "view",
      "type": "function"
    },
    {
      "inputs": [
        {
          "internalType": "address",
          "name": "defaultAdmin",
          "type": "address"
        }
      ],
      "name": "initialize",
      "outputs": [],
      "stateMutability": "nonpayable",
      "type": "function"
    },
    {
      "inputs": [
        {
          "internalType": "address",
          "name": "owner",
          "type": "address"
        },
        {
          "internalType": "address",
          "name": "operator",
          "type": "address"
        }
      ],
      "name": "isApprovedForAll",
      "outputs": [
        {
          "internalType": "bool",
          "name": "",
          "type": "bool"
        }
      ],
      "stateMutability": "view",
      "type": "function"
    },
    {
      "inputs": [
        {
          "internalType": "uint256",
          "name": "limelightId",
          "type": "uint256"
        }
      ],
      "name": "isBlacklisted",
      "outputs": [
        {
          "internalType": "bool",
          "name": "",
          "type": "bool"
        }
      ],
      "stateMutability": "view",
      "type": "function"
    },
    {
      "inputs": [
        {
          "internalType": "uint256",
          "name": "limelightId",
          "type": "uint256"
        },
        {
          "internalType": "address",
          "name": "account",
          "type": "address"
        }
      ],
      "name": "isValidator",
      "outputs": [
        {
          "internalType": "bool",
          "name": "",
          "type": "bool"
        }
      ],
      "stateMutability": "view",
      "type": "function"
    },
    {
      "inputs": [
        {
          "internalType": "uint256",
          "name": "limelightId",
          "type": "uint256"
        }
      ],
      "name": "limelightInfo",
      "outputs": [
        {
          "components": [
            {
              "internalType": "address",
              "name": "dao",
              "type": "address"
            },
            {
              "internalType": "address",
              "name": "token",
              "type": "address"
            },
            {
              "internalType": "address",
              "name": "founder",
              "type": "address"
            },
            {
              "internalType": "address",
              "name": "tba",
              "type": "address"
            },
            {
              "internalType": "uint8[]",
              "name": "coreTypes",
              "type": "uint8[]"
            }
          ],
          "internalType": "struct IArtistNft.LimelightInfo",
          "name": "",
          "type": "tuple"
        }
      ],
      "stateMutability": "view",
      "type": "function"
    },
    {
      "inputs": [
        {
          "internalType": "uint256",
          "name": "",
          "type": "uint256"
        }
      ],
      "name": "limelightInfos",
      "outputs": [
        {
          "internalType": "address",
          "name": "dao",
          "type": "address"
        },
        {
          "internalType": "address",
          "name": "token",
          "type": "address"
        },
        {
          "internalType": "address",
          "name": "founder",
          "type": "address"
        },
        {
          "internalType": "address",
          "name": "tba",
          "type": "address"
        }
      ],
      "stateMutability": "view",
      "type": "function"
    },
    {
      "inputs": [
        {
          "internalType": "uint256",
          "name": "limelightId",
          "type": "uint256"
        }
      ],
      "name": "limelightLP",
      "outputs": [
        {
          "components": [
            {
              "internalType": "address",
              "name": "pool",
              "type": "address"
            },
            {
              "internalType": "address",
              "name": "veToken",
              "type": "address"
            }
          ],
          "internalType": "struct IArtistNft.LimelightLP",
          "name": "",
          "type": "tuple"
        }
      ],
      "stateMutability": "view",
      "type": "function"
    },
    {
      "inputs": [
        {
          "internalType": "uint256",
          "name": "",
          "type": "uint256"
        }
      ],
      "name": "limelightLPs",
      "outputs": [
        {
          "internalType": "address",
          "name": "pool",
          "type": "address"
        },
        {
          "internalType": "address",
          "name": "veToken",
          "type": "address"
        }
      ],
      "stateMutability": "view",
      "type": "function"
    },
    {
      "inputs": [
        {
          "internalType": "uint256",
          "name": "limelightId",
          "type": "uint256"
        },
        {
          "internalType": "address",
          "name": "dao",
          "type": "address"
        },
        {
          "internalType": "address",
          "name": "token",
          "type": "address"
        },
        {
          "internalType": "address",
          "name": "pool",
          "type": "address"
        },
        {
          "internalType": "address",
          "name": "veToken",
          "type": "address"
        }
      ],
      "name": "migrateLimelight",
      "outputs": [],
      "stateMutability": "nonpayable",
      "type": "function"
    },
    {
      "inputs": [],
      "name": "migrateScoreFunctions",
      "outputs": [],
      "stateMutability": "nonpayable",
      "type": "function"
    },
    {
      "inputs": [
        {
          "internalType": "uint256",
          "name": "limelightId",
          "type": "uint256"
        },
        {
          "internalType": "address",
          "name": "to",
          "type": "address"
        },
        {
          "internalType": "string",
          "name": "newTokenURI",
          "type": "string"
        },
        {
          "internalType": "address payable",
          "name": "theDAO",
          "type": "address"
        },
        {
          "internalType": "address",
          "name": "founder",
          "type": "address"
        },
        {
          "internalType": "uint8[]",
          "name": "coreTypes",
          "type": "uint8[]"
        },
        {
          "internalType": "address",
          "name": "pool",
          "type": "address"
        },
        {
          "internalType": "address",
          "name": "token",
          "type": "address"
        }
      ],
      "name": "mint",
      "outputs": [
        {
          "internalType": "uint256",
          "name": "",
          "type": "uint256"
        }
      ],
      "stateMutability": "nonpayable",
      "type": "function"
    },
    {
      "inputs": [],
      "name": "name",
      "outputs": [
        {
          "internalType": "string",
          "name": "",
          "type": "string"
        }
      ],
      "stateMutability": "view",
      "type": "function"
    },
    {
      "inputs": [],
      "name": "nextLimelightId",
      "outputs": [
        {
          "internalType": "uint256",
          "name": "",
          "type": "uint256"
        }
      ],
      "stateMutability": "view",
      "type": "function"
    },
    {
      "inputs": [
        {
          "internalType": "uint256",
          "name": "tokenId",
          "type": "uint256"
        }
      ],
      "name": "ownerOf",
      "outputs": [
        {
          "internalType": "address",
          "name": "",
          "type": "address"
        }
      ],
      "stateMutability": "view",
      "type": "function"
    },
    {
      "inputs": [
        {
          "internalType": "bytes32",
          "name": "role",
          "type": "bytes32"
        },
        {
          "internalType": "address",
          "name": "callerConfirmation",
          "type": "address"
        }
      ],
      "name": "renounceRole",
      "outputs": [],
      "stateMutability": "nonpayable",
      "type": "function"
    },
    {
      "inputs": [
        {
          "internalType": "bytes32",
          "name": "role",
          "type": "bytes32"
        },
        {
          "internalType": "address",
          "name": "account",
          "type": "address"
        }
      ],
      "name": "revokeRole",
      "outputs": [],
      "stateMutability": "nonpayable",
      "type": "function"
    },
    {
      "inputs": [
        {
          "internalType": "address",
          "name": "from",
          "type": "address"
        },
        {
          "internalType": "address",
          "name": "to",
          "type": "address"
        },
        {
          "internalType": "uint256",
          "name": "tokenId",
          "type": "uint256"
        }
      ],
      "name": "safeTransferFrom",
      "outputs": [],
      "stateMutability": "nonpayable",
      "type": "function"
    },
    {
      "inputs": [
        {
          "internalType": "address",
          "name": "from",
          "type": "address"
        },
        {
          "internalType": "address",
          "name": "to",
          "type": "address"
        },
        {
          "internalType": "uint256",
          "name": "tokenId",
          "type": "uint256"
        },
        {
          "internalType": "bytes",
          "name": "data",
          "type": "bytes"
        }
      ],
      "name": "safeTransferFrom",
      "outputs": [],
      "stateMutability": "nonpayable",
      "type": "function"
    },
    {
      "inputs": [
        {
          "internalType": "address",
          "name": "operator",
          "type": "address"
        },
        {
          "internalType": "bool",
          "name": "approved",
          "type": "bool"
        }
      ],
      "name": "setApprovalForAll",
      "outputs": [],
      "stateMutability": "nonpayable",
      "type": "function"
    },
    {
      "inputs": [
        {
          "internalType": "uint256",
          "name": "limelightId",
          "type": "uint256"
        },
        {
          "internalType": "bool",
          "name": "value",
          "type": "bool"
        }
      ],
      "name": "setBlacklist",
      "outputs": [],
      "stateMutability": "nonpayable",
      "type": "function"
    },
    {
      "inputs": [
        {
          "internalType": "address",
          "name": "contributionNft_",
          "type": "address"
        },
        {
          "internalType": "address",
          "name": "serviceNft_",
          "type": "address"
        }
      ],
      "name": "setContributionService",
      "outputs": [],
      "stateMutability": "nonpayable",
      "type": "function"
    },
    {
      "inputs": [
        {
          "internalType": "uint256",
          "name": "limelightId",
          "type": "uint256"
        },
        {
          "internalType": "uint8[]",
          "name": "coreTypes",
          "type": "uint8[]"
        }
      ],
      "name": "setCoreTypes",
      "outputs": [],
      "stateMutability": "nonpayable",
      "type": "function"
    },
    {
      "inputs": [
        {
          "internalType": "uint256",
          "name": "limelightId",
          "type": "uint256"
        },
        {
          "internalType": "address",
          "name": "newDAO",
          "type": "address"
        }
      ],
      "name": "setDAO",
      "outputs": [],
      "stateMutability": "nonpayable",
      "type": "function"
    },
    {
      "inputs": [
        {
          "internalType": "address",
          "name": "eloCalculator",
          "type": "address"
        }
      ],
      "name": "setEloCalculator",
      "outputs": [],
      "stateMutability": "nonpayable",
      "type": "function"
    },
    {
      "inputs": [
        {
          "internalType": "uint256",
          "name": "limelightId",
          "type": "uint256"
        },
        {
          "internalType": "address",
          "name": "tba",
          "type": "address"
        }
      ],
      "name": "setTBA",
      "outputs": [],
      "stateMutability": "nonpayable",
      "type": "function"
    },
    {
      "inputs": [
        {
          "internalType": "uint256",
          "name": "limelightId",
          "type": "uint256"
        },
        {
          "internalType": "string",
          "name": "newTokenURI",
          "type": "string"
        }
      ],
      "name": "setTokenURI",
      "outputs": [],
      "stateMutability": "nonpayable",
      "type": "function"
    },
    {
      "inputs": [
        {
          "internalType": "address",
          "name": "stakingToken",
          "type": "address"
        }
      ],
      "name": "stakingTokenToLimelightId",
      "outputs": [
        {
          "internalType": "uint256",
          "name": "",
          "type": "uint256"
        }
      ],
      "stateMutability": "view",
      "type": "function"
    },
    {
      "inputs": [
        {
          "internalType": "bytes4",
          "name": "interfaceId",
          "type": "bytes4"
        }
      ],
      "name": "supportsInterface",
      "outputs": [
        {
          "internalType": "bool",
          "name": "",
          "type": "bool"
        }
      ],
      "stateMutability": "view",
      "type": "function"
    },
    {
      "inputs": [],
      "name": "symbol",
      "outputs": [
        {
          "internalType": "string",
          "name": "",
          "type": "string"
        }
      ],
      "stateMutability": "view",
      "type": "function"
    },
    {
      "inputs": [
        {
          "internalType": "uint256",
          "name": "tokenId",
          "type": "uint256"
        }
      ],
      "name": "tokenURI",
      "outputs": [
        {
          "internalType": "string",
          "name": "",
          "type": "string"
        }
      ],
      "stateMutability": "view",
      "type": "function"
    },
    {
      "inputs": [
        {
          "internalType": "uint256",
          "name": "limelightId",
          "type": "uint256"
        }
      ],
      "name": "totalProposals",
      "outputs": [
        {
          "internalType": "uint256",
          "name": "",
          "type": "uint256"
        }
      ],
      "stateMutability": "view",
      "type": "function"
    },
    {
      "inputs": [
        {
          "internalType": "uint256",
          "name": "limelightId",
          "type": "uint256"
        }
      ],
      "name": "totalStaked",
      "outputs": [
        {
          "internalType": "uint256",
          "name": "",
          "type": "uint256"
        }
      ],
      "stateMutability": "view",
      "type": "function"
    },
    {
      "inputs": [],
      "name": "totalSupply",
      "outputs": [
        {
          "internalType": "uint256",
          "name": "",
          "type": "uint256"
        }
      ],
      "stateMutability": "view",
      "type": "function"
    },
    {
      "inputs": [
        {
          "internalType": "uint256",
          "name": "limelightId",
          "type": "uint256"
        }
      ],
      "name": "totalUptimeScore",
      "outputs": [
        {
          "internalType": "uint256",
          "name": "",
          "type": "uint256"
        }
      ],
      "stateMutability": "view",
      "type": "function"
    },
    {
      "inputs": [
        {
          "internalType": "address",
          "name": "from",
          "type": "address"
        },
        {
          "internalType": "address",
          "name": "to",
          "type": "address"
        },
        {
          "internalType": "uint256",
          "name": "tokenId",
          "type": "uint256"
        }
      ],
      "name": "transferFrom",
      "outputs": [],
      "stateMutability": "nonpayable",
      "type": "function"
    },
    {
      "inputs": [
        {
          "internalType": "uint256",
          "name": "limelightId",
          "type": "uint256"
        },
        {
          "internalType": "uint256",
          "name": "index",
          "type": "uint256"
        }
      ],
      "name": "validatorAt",
      "outputs": [
        {
          "internalType": "address",
          "name": "",
          "type": "address"
        }
      ],
      "stateMutability": "view",
      "type": "function"
    },
    {
      "inputs": [
        {
          "internalType": "uint256",
          "name": "limelightId",
          "type": "uint256"
        }
      ],
      "name": "validatorCount",
      "outputs": [
        {
          "internalType": "uint256",
          "name": "",
          "type": "uint256"
        }
      ],
      "stateMutability": "view",
      "type": "function"
    },
    {
      "inputs": [
        {
          "internalType": "uint256",
          "name": "limelightId",
          "type": "uint256"
        },
        {
          "internalType": "address",
          "name": "validator",
          "type": "address"
        }
      ],
      "name": "validatorScore",
      "outputs": [
        {
          "internalType": "uint256",
          "name": "",
          "type": "uint256"
        }
      ],
      "stateMutability": "view",
      "type": "function"
    }
  ],
  "bytecode": "0x60808060405234620000bd577ff0c57e16840df040f15088dc2f81fe391c3923bec73e23a9662efc9c229c6a009081549060ff8260401c16620000ae57506001600160401b036002600160401b03198282160162000068575b6040516150a89081620000c38239f35b6001600160401b031990911681179091556040519081527fc7f505b2f371ae2175ee4913f4499e1f2633a7b5936321eed1cdaeb6115181d290602090a138808062000058565b63f92ee8a960e01b8152600490fd5b600080fdfe608080604052600436101561001357600080fd5b60003560e01c90816301ffc9a7146136135750806306fdde031461355e578063081812fc14613513578063095ea7b31461342c57806309c88b3a146133d55780630a37bb4014613366578063162094c41461330957806318160ddd146132c8578063181c50ea14612c0b5780631b534f0414612bdf5780631ca95e1314612b9c57806323b872dd14612b8557806323f2a73f14612b38578063248a9ca314612afc5780632f2ff15d14612ab057806336568abe14612a69578063386924de14612a2e5780633f11354a1461257a57806341cb8c201461252057806342842e0e146124f857806343496447146123725780634752f9ef146123415780634b5617531461231d5780634f1b9fac146122e65780636352211e146122c85780636472c79f14611c095780636819736014611b6e5780636d6464b414611b505780636de8d0b214611b1157806370a0823114611abc57806375b238fc14611a815780638951351c14611a2557806391d14854146119cb57806395d89b41146118c55780639a7e8c8e1461189c578063a0ed2a5d14611838578063a217fddf1461181c578063a22cb46514611776578063a9b9dde114611758578063b88d4fde146116f9578063b9f7fe53146116d0578063bc70d94b14611620578063c052bfb6146115f7578063c12032d3146115c9578063c4d66de814610fc2578063c5891e8114610f88578063c859b99814610ef5578063c87b56dd14610e79578063cc35cc4114610e3b578063d539139314610e00578063d547741f14610db2578063d809a06f14610d7f578063e3a9769c146105c8578063e985e9c51461057a578063f0c21c4614610515578063f96610851461030b5763fdf864f11461029257600080fd5b34610306576040366003190112610306576004357fdcd26c978228b9640c62e5871b14bcf7f102a51fd275560b680e4a8ad84c434e60206102d16139aa565b6102d9613a83565b83600052600b82526102fb8160406000209060ff801983541691151516179055565b6040519015158152a2005b600080fd5b34610306576040366003190112610306576001600160401b036004356024358281116103065761033f903690600401613862565b908060005260206008815261036260018060a01b03604060002054163314614a37565b816000526008815260046040600020019383519081116104ff57600160401b81116104ff5784548186558082106104b3575b50818401908195600052826000208160051c9160005b8381106104745750601f198116900380610428575b505050509060405192604084019184526040838501525180915260608301939160005b828110610411577fd6963befda3af041f398ffc13a89396d94a573f3a91593efc5420fffb11d672a85870386a1005b835160ff16865294810194928101926001016103e2565b9260009360005b8682821061044657505050500155848080806103bf565b61046a84978360ff60019596975116919060ff809160031b9316831b921b19161790565b960192910161042f565b6000805b8780821061048e575050838201556001016103aa565b875191979260019260ff60038b901b81811b19909316911690911b1792019601610478565b6104df908660005283600020601f80850160051c820192818616806104e5575b500160051c01906141d9565b85610394565b60001990818601918254918a0360031b1c1690558a6104d3565b634e487b7160e01b600052604160045260246000fd5b3461030657604036600319011261030657600435610531613708565b9080600052600860205260018060a01b039061055582604060002054163314614a37565b6000526008602052604060002091166001600160601b0360a01b825416179055600080f35b34610306576040366003190112610306576105936136f2565b6105a461059e613708565b916139f2565b9060018060a01b0316600052602052602060ff604060002054166040519015158152f35b34610306576020366003190112610306576004356000526008806020526040600020604051916105f78361374f565b81546001600160a01b03908116845260018301548116602080860191909152600284015482166040808701919091526003850154909216606080870191909152915160049094018054808652600091825282822093959485938401929091905b81601f820110610bf15761076e955492828210610bdb575b828210610bc4575b50818110610bad575b818110610b96575b818110610b80575b818110610b69575b818110610b52575b818110610b3b575b818110610b24575b818110610b0d575b818110610af6575b818110610adf575b818110610ac9575b818110610ab2575b818110610a9b575b818110610a84575b818110610a6d575b818110610a56575b818110610a3f575b818110610a28575b818110610a11575b8181106109fa575b8181106109e3575b8181106109cc575b8181106109b5575b81811061099e575b818110610987575b818110610970575b818110610959575b818110610942575b81811061092b575b1061091d575b500382613785565b6080830152600a54818301516040516370a0823160e01b81526001600160a01b03918216600482015291602491166020838381845afa9283156108dd576000936108e9575b506107bd8361384b565b946107cb6040519687613785565b8386526107d78461384b565b602087019590601f190136873760005b8581106108335786886040519182916020830190602084525180915260408301919060005b81811061081a575050500390f35b825184528594506020938401939092019160010161080c565b82820151604051632f745c5960e01b81526001600160a01b03909116600482015260248101829052602081604481885afa9081156108dd576000916108ab575b50885182101561089657906108919160208260051b8b010152614252565b6107e7565b85634e487b7160e01b60005260326004526000fd5b90506020813d6020116108d5575b816108c660209383613785565b81010312610306575189610873565b3d91506108b9565b6040513d6000823e3d90fd5b9092506020813d602011610915575b8161090560209383613785565b81010312610306575191856107b3565b3d91506108f8565b60f81c815260200186610766565b92602060019160ff8560f01c168152019301610760565b92602060019160ff8560e81c168152019301610758565b92602060019160ff8560e01c168152019301610750565b92602060019160ff8560d81c168152019301610748565b92602060019160ff8560d01c168152019301610740565b92602060019160ff8560c81c168152019301610738565b92602060019160ff8560c01c168152019301610730565b92602060019160ff8560b81c168152019301610728565b92602060019160ff8560b01c168152019301610720565b92602060019160ff8560a81c168152019301610718565b92602060019160ff8560a01c168152019301610710565b92602060019160ff8560981c168152019301610708565b92602060019160ff8560901c168152019301610700565b92602060019160ff8560881c1681520193016106f8565b92602060019160ff8560801c1681520193016106f0565b92602060019160ff8560781c1681520193016106e8565b92602060019160ff8560701c1681520193016106e0565b92602060019160ff8560681c1681520193016106d8565b92602060019160ff858b1c1681520193016106d0565b92602060019160ff8560581c1681520193016106c8565b92602060019160ff8560501c1681520193016106c0565b92602060019160ff8560481c1681520193016106b8565b92602060019160ff8560401c1681520193016106b0565b92602060019160ff8560381c1681520193016106a8565b92602060019160ff8560301c1681520193016106a0565b92602060019160ff8560281c168152019301610698565b92602060019160ff85831c168152019301610690565b92602060019160ff8560181c168152019301610688565b92602060019160ff8560101c168152019301610680565b6001919460ff856020931c16815201930189610677565b9093602060019160ff861681520194019061066f565b91935091600161040060209287548a8180848b8260ff9586828197948280961687521c168c850152828260101c166040850152828260181c168185015282826080828f83901c1681880152828260a095828260281c16878b015260c099838360301c168b820152838360381c1660e0820152838360401c16610100820152838360481c16610120820152838360501c16610140820152610160848460581c169101521c166101808d0152828260681c166101a08d0152828260701c166101c08d0152828260781c166101e08d01521c166102008a0152828260881c166102208a0152828260901c166102408a0152828260981c166102608a01521c16610280870152828260a81c166102a0870152828260b01c166102c0870152828260b81c166102e08701521c16610300840152808260c81c16610320840152808260d01c16610340840152808260d81c16610360840152808260e01c16610380840152808260e81c166103a08401528160f01c166103c083015260f81c6103e08201520195019101918593919492610657565b34610306576040366003190112610306576020610da0602435600435614fa6565b6040516001600160a01b039091168152f35b3461030657604036600319011261030657610dfe600435610dd1613708565b9080600052600080516020615013833981519152602052610df9600160406000200154613b3b565b613dcb565b005b346103065760003660031901126103065760206040517f9f2df0fed2c77648de5860a4cc508cd0818c85b8b8a1ab4ceeef8d981c8956a68152f35b3461030657600036600319011261030657610e54613a83565b600580546001600160c01b031916700200000000000000030000000000000001179055005b3461030657602036600319011261030657600435610e9681614150565b506000527f0542a41881ee128a365a727b282c86fa859579490b9bb45aab8503648c8e7900602052610ef1610ece6040600020613904565b6000604051610edc8161376a565b526040519182916020835260208301906136b2565b0390f35b3461030657604036600319011261030657610f0e613708565b610f16613adf565b6004356000908152600860205260409020600301805490916001600160a01b0390818316610f51576001600160a01b03199092169116179055005b60405162461bcd60e51b815260206004820152600f60248201526e15109048185b1c9958591e481cd95d608a1b6044820152606490fd5b34610306576020366003190112610306576001600160a01b03610fa96136f2565b1660005260076020526020604060002054604051908152f35b3461030657602036600319011261030657610fdb6136f2565b7ff0c57e16840df040f15088dc2f81fe391c3923bec73e23a9662efc9c229c6a00908154906001600160401b038216801590816115b9575b60011490816115af575b1590816115a6575b506115945760016001600160401b0319831617835560ff8260401c1615611575575b60405161105381613734565b6006815265105c9d1a5cdd60d21b60208201526040519061107382613734565b60068252651054951254d560d21b602083015261108e614198565b611096614198565b8051906001600160401b0382116104ff5781906110c1600080516020614ff3833981519152546138ca565b601f8111611519575b50602090601f83116001146114755760009261146a575b50508160011b916000199060031b1c191617600080516020614ff3833981519152555b80516001600160401b0381116104ff577f80bb2b638cc20bc4d0a60d66940f3ab4a00c1d7b313497ca82fb0b4ab00793019161114083546138ca565b601f8111611411575b50602090601f831160011461138557918061132c949260ff97969460009261137a575b50508160011b916000199060031b1c19161790555b611189614198565b611191614198565b600154848116856111a182614a83565b16861980931617600155600052600060205260406000206111cb6111c582546138ca565b826141f0565b7f436f676e697469766520436f726500000000000000000000000000000000001c905560015485811690828761120084614a83565b16911617600155600052600060205260406000206112216111c582546138ca565b7f566f69636520616e6420536f756e6420436f7265000000000000000000000028905560015485811690828761125684614a83565b16911617600155600052600060205260406000206112776111c582546138ca565b60166a56697375616c20436f726560a81b019055600154858116918661129c84614a83565b16911617600155600052600060205260406000206112bd6111c582546138ca565b7f446f6d61696e2045787065727469736520436f7265000000000000000000002a90556112e8614198565b600580546001600160c01b031916700200000000000000030000000000000001179055611313614198565b61131c81613b6e565b5061132681613bfc565b50613cac565b50600160065560401c161561133d57005b68ff00000000000000001981541690557fc7f505b2f371ae2175ee4913f4499e1f2633a7b5936321eed1cdaeb6115181d2602060405160018152a1005b01519050888061116c565b90601f19831691846000527ff4bad0a69248f59680a4f2b3000328cec71a413447c96781cfe5996daa8c456e9260005b8181106113f9575092600192859260ff99989661132c9896106113e0575b505050811b019055611181565b015160001960f88460031b161c191690558880806113d3565b929360206001819287860151815501950193016113b5565b61145a90846000527ff4bad0a69248f59680a4f2b3000328cec71a413447c96781cfe5996daa8c456e601f850160051c81019160208610611460575b601f0160051c01906141d9565b86611149565b909150819061144d565b0151905086806110e1565b9250600080516020614ff38339815191526000527f37c58c799b6609234b945e882912ee9ad34948a1dfaa20a97485e1a7752bbf81906000935b601f19841685106114fe576001945083601f198116106114e5575b505050811b01600080516020614ff383398151915255611104565b015160001960f88460031b161c191690558680806114ca565b818101518355602094850194600190930192909101906114af565b61156f90600080516020614ff38339815191526000527f37c58c799b6609234b945e882912ee9ad34948a1dfaa20a97485e1a7752bbf81601f850160051c8101916020861061146057601f0160051c01906141d9565b876110ca565b68ffffffffffffffffff19821668010000000000000001178355611047565b60405163f92ee8a960e01b8152600490fd5b90501584611025565b303b15915061101d565b604084901c60ff16159150611013565b346103065760403660031901126103065760206115ef6115e7613708565b600435614bcc565b604051908152f35b3461030657600036600319011261030657600d546040516001600160a01b039091168152602090f35b346103065760a03660031901126103065760043561163c613708565b6044356001600160a01b0381811691829003610306576064358181168091036103065760019061166a61371e565b93611673613a83565b866000526008602052826040600020856001600160601b0360a01b981688825416178155019086825416179055600c6020526040600020908582541617815501911680928254161790556000526007602052604060002055600080f35b3461030657600036600319011261030657600a546040516001600160a01b039091168152602090f35b34610306576080366003190112610306576117126136f2565b61171a613708565b606435916001600160401b03831161030657366023840112156103065761174e610dfe9336906024816004013591016137c1565b9160443591613ffd565b34610306576000366003190112610306576020600654604051908152f35b346103065760403660031901126103065761178f6136f2565b6117976139aa565b6001600160a01b03909116908115611803576117b2336139f2565b826000526020526117d38160406000209060ff801983541691151516179055565b60405190151581527f17307eab39ab6107e8899845ad3d59bd9653f200f220920489ca2b5937696c3160203392a3005b604051630b61174360e31b815260048101839052602490fd5b3461030657600036600319011261030657602060405160008152f35b3461030657602080600319360112610306576000600435815b81600052600484526040600020548310156118925761188661188c9161188061187a8686614fa6565b85614bcc565b90614bbf565b92614252565b91611851565b8390604051908152f35b34610306576000366003190112610306576009546040516001600160a01b039091168152602090f35b346103065760003660031901126103065760405160007f80bb2b638cc20bc4d0a60d66940f3ab4a00c1d7b313497ca82fb0b4ab00793018054611907816138ca565b808552916001918083169081156119a15750600114611945575b610ef18561193181870382613785565b6040519182916020835260208301906136b2565b600090815292507ff4bad0a69248f59680a4f2b3000328cec71a413447c96781cfe5996daa8c456e5b82841061198957505050810160200161193182610ef1611921565b8054602085870181019190915290930192810161196e565b869550610ef19693506020925061193194915060ff191682840152151560051b8201019293611921565b34610306576040366003190112610306576119e4613708565b60043560005260008051602061501383398151915260205260406000209060018060a01b0316600052602052602060ff604060002054166040519015158152f35b346103065760203660031901126103065760043560005260086020526080604060002060018060a01b03808254169181600182015416916003816002840154169201541691604051938452602084015260408301526060820152f35b346103065760003660031901126103065760206040517fa49807205ce4d355092ef5a8a18f56e8913cf4a201fbe287825b095693c217758152f35b3461030657602036600319011261030657611ad56136f2565b6001600160a01b03811615611af857611aef6020916139b9565b54604051908152f35b6040516322718ad960e21b815260006004820152602490fd5b3461030657602036600319011261030657600435600052600c60205260408060002060018060a01b036001818354169201541682519182526020820152f35b346103065760203660031901126103065760206115ef6004356143ee565b3461030657604036600319011261030657611b87613708565b600435600052602090600c82528160018060a01b03602481600160406000200154169360405194859384926309ab24eb60e41b84521660048301525afa9081156108dd57600091611bdc575b50604051908152f35b90508181813d8311611c02575b611bf38183613785565b81010312610306575182611bd3565b503d611be9565b3461030657606036600319011261030657611c22613708565b60018060a01b03811660005260036020526040600020600435600052602052604060002054906001600160401b0360055460801c16600214611c7457634e487b7160e01b600052605160045260246000fd5b60086020526040600020600460405191611c8d8361374f565b80546001600160a01b03908116845260018201548116602080860191909152600283015482166040808701919091526003840154909216606086015290519290910180548084526000918252828220928401925b81601f8401106121455793602095938193611e0293611e4099975491818110612133575b81811061211d575b818110612107575b8181106120f1575b8181106120dd575b8181106120c7575b8181106120b1575b81811061209b575b818110612085575b81811061206f575b818110612059575b818110612043575b81811061202d575b818110612017575b818110612001575b818110611feb575b818110611fd5575b818110611fbf575b818110611fa9575b818110611f93575b818110611f7d575b818110611f67575b818110611f51575b818110611f3b575b818110611f25575b818110611f0f575b818110611ef9575b818110611ee3575b818110611ecd575b818110611eb7575b818110611ea1575b10611e9457500382613785565b60808201525160405163209e1f0d60e01b81526001600160a01b03928316600482015260448035602483015290948593909216918391829190820190565b03915afa9081156108dd57600091611e61575b506020916115ef9190614bbf565b90506020813d602011611e8c575b81611e7c60209383613785565b8101031261030657516020611e53565b3d9150611e6f565b60f81c8152860189610766565b928960019160ff8560f01c168152019301611df5565b928960019160ff8560e81c168152019301611ded565b928960019160ff8560e01c168152019301611de5565b928960019160ff8560d81c168152019301611ddd565b928960019160ff8560d01c168152019301611dd5565b928960019160ff8560c81c168152019301611dcd565b928960019160ff8560c01c168152019301611dc5565b928960019160ff8560b81c168152019301611dbd565b928960019160ff8560b01c168152019301611db5565b928960019160ff8560a81c168152019301611dad565b928960019160ff8560a01c168152019301611da5565b928960019160ff8560981c168152019301611d9d565b928960019160ff8560901c168152019301611d95565b928960019160ff8560881c168152019301611d8d565b928960019160ff8560801c168152019301611d85565b928960019160ff8560781c168152019301611d7d565b928960019160ff8560701c168152019301611d75565b928960019160ff8560681c168152019301611d6d565b928960019160ff8560601c168152019301611d65565b928960019160ff8560581c168152019301611d5d565b928960019160ff8560501c168152019301611d55565b928960019160ff8560481c168152019301611d4d565b928960019160ff8560401c168152019301611d45565b928960019160ff8560381c168152019301611d3d565b928960019160ff8560301c168152019301611d35565b928960019160ff8560281c168152019301611d2d565b828a1c60ff16845292890192600101611d25565b928960019160ff8560181c168152019301611d1d565b928960019160ff8560101c168152019301611d15565b928960019160ff8560081c168152019301611d0d565b60ff8316845292890192600101611d05565b926001610400602092865460ff8082168352808260081c1686840152808260101c166040840152808260181c1660608401528082871c166080840152808260a0828260281c1681870152828260c092828260301c16848a0152828260381c1660e08a0152828260401c166101008a0152828260481c166101208a0152828260501c166101408a0152828260581c166101608a0152828260601c166101808a0152828260681c166101a08a0152828260701c166101c08a0152828260781c166101e08a0152828260801c166102008a0152828260881c166102208a0152828260901c166102408a0152828260981c166102608a01521c16610280870152828260a81c166102a0870152828260b01c166102c0870152828260b81c166102e08701521c16610300840152808260c81c16610320840152808260d01c16610340840152808260d81c16610360840152808260e01c16610380840152808260e81c166103a08401528160f01c166103c083015260f81c6103e0820152019401920191611ce1565b34610306576020366003190112610306576020610da0600435614150565b346103065760203660031901126103065760043560ff8116809103610306576000526000602052610ef16119316040600020613904565b3461030657604036600319011261030657610dfe612339613708565b6004356143ac565b3461030657602036600319011261030657600435600052600b602052602060ff604060002054166040519015158152f35b3461030657602080600319360112610306576001600160401b03600435818111610306576123a49036906004016137f8565b6123ac613a2b565b600180549260ff84169360ff6123c186614a83565b169060ff1916178255836000526000855260406000209183519182116104ff576123f5826123ef85546138ca565b85614218565b85601f831160011461246d5791808061245d95937f9682c2f74922442a5e9927a764f668d2339f1ca83db196fbb3d5e97184dc2be899989795600093612462575b501b916000199060031b1c19161790555b60408051948594855284015260408301906136b2565b0390a1005b86015192508a612436565b601f9291921982169084600052876000209160005b8181106124e3575091839161245d96947f9682c2f74922442a5e9927a764f668d2339f1ca83db196fbb3d5e97184dc2be89a99989694106124ca575b5050811b019055612447565b85015160001960f88460031b161c1916905588806124be565b87830151845592850192918901918901612482565b3461030657610dfe61250936613816565b90604051926125178461376a565b60008452613ffd565b346103065760208060031936011261030657600435600052600c815260048160018060a01b0360016040600020015416604051928380926318160ddd60e01b82525afa9081156108dd57600091611bdc5750604051908152f35b346103065761010036600319011261030657612594613708565b6044356001600160401b038111610306576125b39036906004016137f8565b606435906001600160a01b0382168203610306576125cf61371e565b9160a4356001600160401b038111610306576125ef903690600401613862565b60c435929091906001600160a01b03841684036103065760e435956001600160a01b038716870361030657612622613adf565b60065480600435036129f35761263790614252565b6006556001600160a01b038116156129da57600435600090815260008051602061503383398151915260205260409020546001600160a01b03169081612992575b612681816139b9565b8054600101905560043560008181526000805160206150338339815191526020526040812080546001600160a01b0319166001600160a01b0394909416938417905590919083907fddf252ad1be2c89b69c2b068fc378daa952ba7f163c4a11628f55a4df523b3ef9080a4612979576126fc90600435614261565b60048035600090815260086020526040902080546001600160a01b0319166001600160a01b03841617815583519093918401916001600160401b0382116104ff57600160401b82116104ff57602090835483855580841061292e575b50019160005260206000209060005b8160051c81106128ee5750601f19811680820361289b575b5050506002830180546001600160a01b0319166001600160a01b0387811691909117909155604051637e062a3560e11b815293926020925084916004918391165afa9182156108dd57600092612855575b50600190810180546001600160a01b03199081166001600160a01b03978816179091556004356000818152600c6020908152604080832080548616988b1698909817885596909401805490931697909416968717909155948252600790522082905561284991612841908290614ac2565b600435614b65565b60206040516004358152f35b9091506020813d602011612893575b8161287160209383613785565b810103126103065751906001600160a01b0382168203610306576128496127d0565b3d9150612864565b9260009360005b81840381106128be5750505060051c015560206004878061277f565b90919460206128e46001928460ff8a5116919060ff809160031b9316831b921b19161790565b96019291016128a2565b6000805b60208110612907575083820155600101612767565b855190959160019160209160ff60038a901b81811b199092169216901b17920195016128f2565b612959908560005283600020601f80870160051c8201928188168061295f57500160051c01906141d9565b89612758565b60001990818601918254918a0360031b1c1690558e6104d3565b6040516339e3563760e11b815260006004820152602490fd5b6129c460043560005260008051602061505383398151915260205260406000206001600160601b0360a01b8154169055565b6129cd826139b9565b8054600019019055612678565b604051633250574960e11b815260006004820152602490fd5b60405162461bcd60e51b8152602060048201526013602482015272125b9d985b1a59081b1a5b595b1a59da1d1259606a1b6044820152606490fd5b346103065760003660031901126103065760206040517ffa3e63d5771fd4999b619dee634be9dbb03c309738cc2adaadd49c4f5595adb08152f35b3461030657604036600319011261030657612a82613708565b336001600160a01b03821603612a9e57610dfe90600435613dcb565b60405163334bd91960e11b8152600490fd5b3461030657604036600319011261030657610dfe600435612acf613708565b9080600052600080516020615013833981519152602052612af7600160406000200154613b3b565b613d56565b34610306576020366003190112610306576004356000526000805160206150138339815191526020526020600160406000200154604051908152f35b3461030657604036600319011261030657612b51613708565b600435600052600260205260406000209060018060a01b0316600052602052602060ff604060002054166040519015158152f35b3461030657610dfe612b9636613816565b91613e4e565b3461030657602036600319011261030657612bb56136f2565b612bbd613a83565b600d80546001600160a01b0319166001600160a01b0392909216919091179055005b346103065760203660031901126103065760043560005260046020526020604060002054604051908152f35b346103065760203660031901126103065760606080604051612c2c8161374f565b600081526000602082015260006040820152600083820152015260043560005260086020526040600020600460405191612c658361374f565b80546001600160a01b03908116845260018201548116602080860191909152600283015482166040808701919091526003840154909216606086015290519290910180548084526000918252828220939493928592908301915b80601f83011061313f57612dd894549181811061312b575b818110613114575b8181106130fd575b8181106130e6575b8181106130d0575b8181106130b9575b8181106130a2575b81811061308b575b818110613074575b81811061305d575b818110613046575b81811061302f575b818110613018575b818110613001575b818110612fea575b818110612fd3575b818110612fbc575b818110612fa5575b818110612f8e575b818110612f77575b818110612f60575b818110612f49575b818110612f32575b818110612f1b575b818110612f04575b818110612eed575b818110612ed6575b818110612ebf575b818110612ea8575b818110612e91575b818110612e7a575b10612e6c575b509392930382613785565b608082810191825260408051602080825285516001600160a01b0390811682840152818701518116838501529286015183166060808401919091529095015190911691810191909152905160a080830152805160c083018190529192839260e08401929091019060005b818110612e50575050500390f35b825160ff16845285945060209384019390920191600101612e42565b60f81c815260200185612dcd565b92602060019160ff8560f01c168152019301612dc7565b92602060019160ff8560e81c168152019301612dbf565b92602060019160ff8560e01c168152019301612db7565b92602060019160ff8560d81c168152019301612daf565b92602060019160ff8560d01c168152019301612da7565b92602060019160ff8560c81c168152019301612d9f565b92602060019160ff8560c01c168152019301612d97565b92602060019160ff8560b81c168152019301612d8f565b92602060019160ff8560b01c168152019301612d87565b92602060019160ff8560a81c168152019301612d7f565b92602060019160ff8560a01c168152019301612d77565b92602060019160ff8560981c168152019301612d6f565b92602060019160ff8560901c168152019301612d67565b92602060019160ff8560881c168152019301612d5f565b92602060019160ff8560801c168152019301612d57565b92602060019160ff8560781c168152019301612d4f565b92602060019160ff8560701c168152019301612d47565b92602060019160ff8560681c168152019301612d3f565b92602060019160ff8560601c168152019301612d37565b92602060019160ff8560581c168152019301612d2f565b92602060019160ff8560501c168152019301612d27565b92602060019160ff8560481c168152019301612d1f565b92602060019160ff8560401c168152019301612d17565b92602060019160ff8560381c168152019301612d0f565b92602060019160ff8560301c168152019301612d07565b92602060019160ff8560281c168152019301612cff565b92602060019160ff85831c168152019301612cf7565b92602060019160ff8560181c168152019301612cef565b92602060019160ff8560101c168152019301612ce7565b92602060019160ff8560081c168152019301612cdf565b92602060019160ff85168152019301612cd7565b916020919350610400600191865460ff8082168352808260081c1686840152808260101c166040840152808260181c1660608401528082871c166080840152808260a0828260281c1681870152828260c092828260301c16848a0152828260381c1660e08a0152828260401c166101008a0152828260481c166101208a0152828260501c166101408a0152828260581c166101608a0152828260601c166101808a0152828260681c166101a08a0152828260701c166101c08a0152828260781c166101e08a0152828260801c166102008a0152828260881c166102208a0152828260901c166102408a0152828260981c166102608a01521c16610280870152828260a81c166102a0870152828260b01c166102c0870152828260b81c166102e08701521c16610300840152808260c81c16610320840152808260d01c16610340840152808260d81c16610360840152808260e01c16610380840152808260e81c166103a08401528160f01c166103c083015260f81c6103e0820152019401920185929391612cbf565b346103065760003660031901126103065760065460001981019081116132f357602090604051908152f35b634e487b7160e01b600052601160045260246000fd5b34610306576040366003190112610306576024356004356001600160401b0382116103065761333f610dfe9236906004016137f8565b9080600052600860205261336160018060a01b03604060002054163314614a37565b614261565b34610306576020366003190112610306576000602060405161338781613734565b8281520152600435600052600c60205260408060002081516133a881613734565b81546001600160a01b03908116808352600190930154811660209283019081528451938452511690820152f35b34610306576040366003190112610306576133ee6136f2565b6133f6613708565b6133fe613a2b565b600980546001600160a01b039384166001600160a01b031991821617909155600a8054929093169116179055005b34610306576040366003190112610306576134456136f2565b60243561345181614150565b33151580613500575b806134e0575b6134c8576001600160a01b039283169282918491167f8c5be1e5ebec7d5bd14f71427d1e84f3dd0314c0f7b2291e5b200ac8c7c3b925600080a460009081526000805160206150538339815191526020526040902080546001600160a01b0319169091179055005b60405163a9fbf51f60e01b8152336004820152602490fd5b506134ea816139f2565b3360005260205260ff6040600020541615613460565b506001600160a01b03811633141561345a565b346103065760203660031901126103065760043561353081614150565b50600052600080516020615053833981519152602052602060018060a01b0360406000205416604051908152f35b34610306576000366003190112610306576040516000600080516020614ff3833981519152805461358e816138ca565b808552916001918083169081156119a157506001146135b757610ef18561193181870382613785565b600090815292507f37c58c799b6609234b945e882912ee9ad34948a1dfaa20a97485e1a7752bbf815b8284106135fb57505050810160200161193182610ef1611921565b805460208587018101919091529093019281016135e0565b34610306576020366003190112610306576004359063ffffffff60e01b821680920361030657602091637965db0b60e01b8114908115613655575b5015158152f35b632483248360e11b81149150811561366f575b508361364e565b6380ac58cd60e01b8114915081156136a1575b8115613690575b5083613668565b6301ffc9a760e01b14905083613689565b635b5e139f60e01b81149150613682565b919082519283825260005b8481106136de575050826000602080949584010152601f8019910116010190565b6020818301810151848301820152016136bd565b600435906001600160a01b038216820361030657565b602435906001600160a01b038216820361030657565b608435906001600160a01b038216820361030657565b604081019081106001600160401b038211176104ff57604052565b60a081019081106001600160401b038211176104ff57604052565b602081019081106001600160401b038211176104ff57604052565b90601f801991011681019081106001600160401b038211176104ff57604052565b6001600160401b0381116104ff57601f01601f191660200190565b9291926137cd826137a6565b916137db6040519384613785565b829481845281830111610306578281602093846000960137010152565b9080601f8301121561030657816020613813933591016137c1565b90565b6060906003190112610306576001600160a01b0390600435828116810361030657916024359081168103610306579060443590565b6001600160401b0381116104ff5760051b60200190565b81601f82011215610306578035916138798361384b565b926138876040519485613785565b808452602092838086019260051b820101928311610306578301905b8282106138b1575050505090565b813560ff811681036103065781529083019083016138a3565b90600182811c921680156138fa575b60208310146138e457565b634e487b7160e01b600052602260045260246000fd5b91607f16916138d9565b9060405191826000825492613918846138ca565b9081845260019485811690816000146139875750600114613944575b505061394292500383613785565b565b9093915060005260209081600020936000915b81831061396f57505061394293508201013880613934565b85548884018501529485019487945091830191613957565b91505061394294506020925060ff191682840152151560051b8201013880613934565b60243590811515820361030657565b6001600160a01b031660009081527f80bb2b638cc20bc4d0a60d66940f3ab4a00c1d7b313497ca82fb0b4ab00793036020526040902090565b6001600160a01b031660009081527f80bb2b638cc20bc4d0a60d66940f3ab4a00c1d7b313497ca82fb0b4ab00793056020526040902090565b3360009081527fb7db2dd08fcb62d0c9e08c51941cae53c267786a0b75803fb7960902fc8ef97d602052604081205460ff1615613a655750565b6044906040519063e2517d3f60e01b82523360048301526024820152fd5b3360009081527fb16e88c42fd4e48df2dd6a2eabd6bc9aec654ec170056b470819f8892cc6431c60205260409020547fa49807205ce4d355092ef5a8a18f56e8913cf4a201fbe287825b095693c217759060ff1615613a655750565b3360009081527f549fe2656c81d2947b3b913f0a53b9ea86c71e049f3a1b8aa23c09a8a05cb8d460205260409020547f9f2df0fed2c77648de5860a4cc508cd0818c85b8b8a1ab4ceeef8d981c8956a69060ff1615613a655750565b8060005260008051602061501383398151915260205260406000203360005260205260ff6040600020541615613a655750565b6001600160a01b031660008181527fb7db2dd08fcb62d0c9e08c51941cae53c267786a0b75803fb7960902fc8ef97d60205260408120549091906000805160206150138339815191529060ff16613bf7578280526020526040822081835260205260408220600160ff198254161790553391600080516020614fd38339815191528180a4600190565b505090565b6001600160a01b031660008181527f65a726ee7c91e89ef3525766267873ea7774790138011645554b3fd61ac9eba360205260408120549091907ffa3e63d5771fd4999b619dee634be9dbb03c309738cc2adaadd49c4f5595adb0906000805160206150138339815191529060ff16613ca6578184526020526040832082845260205260408320600160ff19825416179055600080516020614fd3833981519152339380a4600190565b50505090565b6001600160a01b031660008181527fb16e88c42fd4e48df2dd6a2eabd6bc9aec654ec170056b470819f8892cc6431c60205260408120549091907fa49807205ce4d355092ef5a8a18f56e8913cf4a201fbe287825b095693c21775906000805160206150138339815191529060ff16613ca6578184526020526040832082845260205260408320600160ff19825416179055600080516020614fd3833981519152339380a4600190565b9060009180835260008051602061501383398151915280602052604084209260018060a01b03169283855260205260ff60408520541615600014613ca6578184526020526040832082845260205260408320600160ff19825416179055600080516020614fd3833981519152339380a4600190565b9060009180835260008051602061501383398151915280602052604084209260018060a01b03169283855260205260ff604085205416600014613ca657818452602052604083208284526020526040832060ff1981541690557ff6391f5c32d9c69d2a47ea670b442974b53935d1edc7fd64eb21e047a839171b339380a4600190565b6001600160a01b03828116939184156129da5782600095818752600080516020615033833981519152958660205260409785898220541697889233151580613f54575b5090613ec37fddf252ad1be2c89b69c2b068fc378daa952ba7f163c4a11628f55a4df523b3ef939285613f15576139b9565b8054600101905585825260205289812080546001600160a01b0319168517905580a41692838303613ef45750505050565b6064945051926364283d7b60e01b8452600484015260248301526044820152fd5b60008881526000805160206150538339815191526020526040902080546001600160a01b0319169055613f47866139b9565b80546000190190556139b9565b9193509193945080613fae575b15613f725791879187949338613e91565b888789613f8f576024915190637e27328960e01b82526004820152fd5b905163177e802f60e01b81523360048201526024810191909152604490fd5b503388148015613fe1575b80613f61575086835260008051602061505383398151915260205233868a8520541614613f61565b50613feb886139f2565b33845260205260ff8984205416613fb9565b614008838383613e4e565b813b614015575b50505050565b604051630a85bd0160e11b8082523360048301526001600160a01b039283166024830152604482019490945260806064820152602095929091169390929083906140639060848301906136b2565b039285816000958187895af184918161410c575b506140d7575050503d6000146140cf573d614091816137a6565b9061409f6040519283613785565b81528091843d92013e5b805192836140ca57604051633250574960e11b815260048101849052602490fd5b019050fd5b5060606140a9565b919450915063ffffffff60e01b16036140f457503880808061400f565b60249060405190633250574960e11b82526004820152fd5b9091508681813d8311614149575b6141248183613785565b8101031261414557516001600160e01b031981168103614145579038614077565b8480fd5b503d61411a565b600081815260008051602061503383398151915260205260409020546001600160a01b0316908115614180575090565b60249060405190637e27328960e01b82526004820152fd5b60ff7ff0c57e16840df040f15088dc2f81fe391c3923bec73e23a9662efc9c229c6a005460401c16156141c757565b604051631afcd79f60e31b8152600490fd5b8181106141e4575050565b600081556001016141d9565b90601f81116141fd575050565b61394291600052601f6020600020910160051c8101906141d9565b9190601f811161422757505050565b613942926000526020600020906020601f840160051c8301931061146057601f0160051c01906141d9565b60001981146132f35760010190565b9190916000908082526020917f0542a41881ee128a365a727b282c86fa859579490b9bb45aab8503648c8e7900835260408120908551906001600160401b038211614398576142b4826123ef85546138ca565b8490601f831160011461431457907ff8e1a15aba9398e019f0b49df1a4fde98ee17ae345cb5f6b5e2c27f5033e8ce7969783614309575b50508160011b916000199060031b1c19161790555b604051908152a1565b0151905038806142eb565b9196601f198816848452868420935b81811061438157509160019391897ff8e1a15aba9398e019f0b49df1a4fde98ee17ae345cb5f6b5e2c27f5033e8ce7999a9410614368575b505050811b019055614300565b015160001960f88460031b161c1916905538808061435b565b929387600181928786015181550195019301614323565b634e487b7160e01b81526041600452602490fd5b90816000526002602052604060002060018060a01b03821660005260205260ff604060002054166143ea57816143e58261394294614ac2565b614b65565b5050565b6000908152600880602052604082209060046040519261440d8461374f565b80546001600160a01b039081168552600182015481166020808701919091526002830154821660408088019190915260038401549092166060870152905192909101805480845290865281862092939184019286905b82601f8301106148ac579385936145849360209793600499975492828210614897575b828210614882575b5081811061486c575b818110614856575b818110614842575b81811061482c575b818110614816575b818110614800575b8181106147ea575b8181106147d4575b8181106147be575b8181106147a8575b818110614792575b81811061477c575b818110614766575b818110614750575b81811061473a575b818110614724575b81811061470e575b8181106146f8575b8181106146e2575b8181106146cc575b8181106146b6575b8181106146a0575b81811061468a575b818110614674575b81811061465e575b818110614648575b818110614632575b81811061461c575b818110614606575b106145f957500382613785565b60808201525160405163368d719960e21b815292839182906001600160a01b03165afa9182156145ed5780926145b957505090565b9091506020823d6020116145e5575b816145d560209383613785565b810103126145e257505190565b80fd5b3d91506145c8565b604051903d90823e3d90fd5b60f81c8152850138610766565b928860019160ff8560f01c168152019301614577565b928860019160ff8560e81c16815201930161456f565b928860019160ff8560e01c168152019301614567565b928860019160ff8560d81c16815201930161455f565b928860019160ff8560d01c168152019301614557565b928860019160ff8560c81c16815201930161454f565b928860019160ff8560c01c168152019301614547565b928860019160ff8560b81c16815201930161453f565b928860019160ff8560b01c168152019301614537565b928860019160ff8560a81c16815201930161452f565b928860019160ff8560a01c168152019301614527565b928860019160ff8560981c16815201930161451f565b928860019160ff8560901c168152019301614517565b928860019160ff8560881c16815201930161450f565b928860019160ff8560801c168152019301614507565b928860019160ff8560781c1681520193016144ff565b928860019160ff8560701c1681520193016144f7565b928860019160ff8560681c1681520193016144ef565b928860019160ff8560601c1681520193016144e7565b928860019160ff8560581c1681520193016144df565b928860019160ff8560501c1681520193016144d7565b928860019160ff8560481c1681520193016144cf565b928860019160ff8560401c1681520193016144c7565b928860019160ff8560381c1681520193016144bf565b928860019160ff8560301c1681520193016144b7565b928860019160ff8560281c1681520193016144af565b82891c60ff168452928801926001016144a7565b928860019160ff8560181c16815201930161449f565b928860019160ff8560101c168152019301614497565b83901c60ff168452928801926001013861448e565b90938960019160ff8616815201940190614486565b936001610400602092875460ff8116825260ff81891c168583015260ff8160101c16604083015260ff8160181c16606083015260ff8160808282891c1681860152828260a0828260281c1681890152828260c095828260301c16878c0152828260381c1660e08c0152828260401c166101008c0152828260481c166101208c0152828260501c166101408c0152828260581c166101608c0152828260601c166101808c0152828260681c166101a08c0152828260701c166101c08c0152828260781c166101e08c01521c16610200890152828260881c16610220890152828260901c16610240890152828260981c166102608901521c16610280860152828260a81c166102a0860152828260b01c166102c0860152828260b81c166102e08601521c1661030083015260ff8160c81c1661032083015260ff8160d01c1661034083015260ff8160d81c1661036083015260ff8160e01c1661038083015260ff8160e81c166103a083015260ff8160f01c166103c083015260f81c6103e0820152019501910190614463565b15614a3e57565b60405162461bcd60e51b815260206004820152601b60248201527f43616c6c6572206973206e6f74204c494d454c494748542044414f00000000006044820152606490fd5b60ff1660ff81146132f35760010190565b8054821015614aac5760005260206000200190600090565b634e487b7160e01b600052603260045260246000fd5b906000908282526002602052604082209160018060a01b038092169283825260205260408120600160ff19825416179055838152600460205260408120805491600160401b831015614398575091614b45827fcbde0481b37e4b90d96b4492b49bcd7b48b260233519b878611a16a184b071aa9694600160409795018155614a94565b819291549060031b9184831b921b191617905582519182526020820152a1565b6001600160401b0360055460401c16600314614b9157634e487b7160e01b600052605160045260246000fd5b614b9a816143ee565b9160018060a01b03166000526003602052604060002090600052602052604060002055565b919082018092116132f357565b919060009260018060a01b03821684526003602052604084209084526020526040832054906001600160401b0360055416600114614c1857634e487b7160e01b84526051600452602484fd5b60088060205260408520600460405191614c318361374f565b80546001600160a01b0390811684526001820154811660208086019190915260028301548216604080870191909152600384015490921660608601529051929091018054808452908952818920918301949189905b82601f830110614e155792849260209792614d8495549282821061489757828210614882575081811061486c57818110614856578181106148425781811061482c5781811061481657818110614800578181106147ea578181106147d4578181106147be578181106147a8578181106147925781811061477c57818110614766578181106147505781811061473a578181106147245781811061470e578181106146f8578181106146e2578181106146cc578181106146b6578181106146a05781811061468a578181106146745781811061465e57818110614648578181106146325781811061461c5781811061460657106145f957500382613785565b60808201525160405163099d7a2b60e11b81526001600160a01b0393841660048201529283916024918391165afa908115614e0a578491614dcd575b5061381392935090614bbf565b90506020813d602011614e02575b81614de860209383613785565b81010312614dfe57613813929350518392614dc0565b8380fd5b3d9150614ddb565b6040513d86823e3d90fd5b9394956001610400602092875460ff8116825260ff81891c168583015260ff8160101c16604083015260ff8160181c16606083015260ff8160808282891c1681860152828260a0828260281c1681890152828260c095828260301c16878c0152828260381c1660e08c0152828260401c166101008c0152828260481c166101208c0152828260501c166101408c0152828260581c166101608c0152828260601c166101808c0152828260681c166101a08c0152828260701c166101c08c0152828260781c166101e08c01521c16610200890152828260881c16610220890152828260901c16610240890152828260981c166102608901521c16610280860152828260a81c166102a0860152828260b01c166102c0860152828260b81c166102e08601521c1661030083015260ff8160c81c1661032083015260ff8160d01c1661034083015260ff8160d81c1661036083015260ff8160e01c1661038083015260ff8160e81c166103a083015260ff8160f01c166103c083015260f81c6103e082015201950191019095949395614c86565b90614fbd9160005260046020526040600020614a94565b905460039190911b1c6001600160a01b03169056fe2f8788117e7eff1d82e926ec794901d17c78024a50270940304540a733656f0d80bb2b638cc20bc4d0a60d66940f3ab4a00c1d7b313497ca82fb0b4ab007930002dd7bc7dec4dceedda775e58dd541e08a116c6c53815c0bd028192f7b62680080bb2b638cc20bc4d0a60d66940f3ab4a00c1d7b313497ca82fb0b4ab007930280bb2b638cc20bc4d0a60d66940f3ab4a00c1d7b313497ca82fb0b4ab0079304a2646970667358221220ac1759a660a24879a461a4b21fafe2d3a6227113deade32b5289eb82fbd5cc6664736f6c63430008140033",
  "linkReferences": {},
  "deployedLinkReferences": {}
}